{
	"Test9.sol": {
		"EHealthPulse": {
			"abi": [
				{
					"inputs": [
						{
							"internalType": "string",
							"name": "_professionalID",
							"type": "string"
						},
						{
							"internalType": "string",
							"name": "_name",
							"type": "string"
						},
						{
							"internalType": "string",
							"name": "_email",
							"type": "string"
						},
						{
							"internalType": "string",
							"name": "_pass",
							"type": "string"
						},
						{
							"internalType": "string",
							"name": "_eegData",
							"type": "string"
						},
						{
							"internalType": "string",
							"name": "_ecgData",
							"type": "string"
						},
						{
							"internalType": "string",
							"name": "_spo2Data",
							"type": "string"
						},
						{
							"internalType": "string",
							"name": "_medicalHistory",
							"type": "string"
						},
						{
							"internalType": "string",
							"name": "_nextConsultationDate",
							"type": "string"
						},
						{
							"internalType": "string",
							"name": "_paymentType",
							"type": "string"
						}
					],
					"name": "addPatient",
					"outputs": [],
					"stateMutability": "nonpayable",
					"type": "function"
				},
				{
					"inputs": [
						{
							"internalType": "string",
							"name": "_name",
							"type": "string"
						},
						{
							"internalType": "string",
							"name": "_email",
							"type": "string"
						},
						{
							"internalType": "string",
							"name": "_pass",
							"type": "string"
						},
						{
							"internalType": "string",
							"name": "_specialty",
							"type": "string"
						},
						{
							"internalType": "string",
							"name": "_phoneNumber",
							"type": "string"
						},
						{
							"internalType": "string",
							"name": "_professionalAddres",
							"type": "string"
						},
						{
							"internalType": "string",
							"name": "_countryRegion",
							"type": "string"
						},
						{
							"internalType": "string",
							"name": "_professionalID",
							"type": "string"
						},
						{
							"internalType": "string",
							"name": "_photo",
							"type": "string"
						},
						{
							"internalType": "string",
							"name": "_consultationHours",
							"type": "string"
						},
						{
							"internalType": "string",
							"name": "_fees",
							"type": "string"
						}
					],
					"name": "addUser",
					"outputs": [],
					"stateMutability": "nonpayable",
					"type": "function"
				},
				{
					"inputs": [
						{
							"internalType": "uint256",
							"name": "index",
							"type": "uint256"
						}
					],
					"name": "getPatientBasicInfo",
					"outputs": [
						{
							"internalType": "string",
							"name": "",
							"type": "string"
						},
						{
							"internalType": "string",
							"name": "",
							"type": "string"
						},
						{
							"internalType": "string",
							"name": "",
							"type": "string"
						}
					],
					"stateMutability": "view",
					"type": "function"
				},
				{
					"inputs": [
						{
							"internalType": "uint256",
							"name": "index",
							"type": "uint256"
						}
					],
					"name": "getPatientProfile",
					"outputs": [
						{
							"internalType": "string",
							"name": "",
							"type": "string"
						},
						{
							"internalType": "string",
							"name": "",
							"type": "string"
						},
						{
							"internalType": "string",
							"name": "",
							"type": "string"
						},
						{
							"internalType": "string",
							"name": "",
							"type": "string"
						},
						{
							"internalType": "string",
							"name": "",
							"type": "string"
						},
						{
							"internalType": "string",
							"name": "",
							"type": "string"
						},
						{
							"internalType": "string",
							"name": "",
							"type": "string"
						}
					],
					"stateMutability": "view",
					"type": "function"
				},
				{
					"inputs": [
						{
							"internalType": "uint256",
							"name": "index",
							"type": "uint256"
						}
					],
					"name": "getUserBasicInfo",
					"outputs": [
						{
							"internalType": "string",
							"name": "",
							"type": "string"
						},
						{
							"internalType": "string",
							"name": "",
							"type": "string"
						},
						{
							"internalType": "string",
							"name": "",
							"type": "string"
						}
					],
					"stateMutability": "view",
					"type": "function"
				},
				{
					"inputs": [
						{
							"internalType": "uint256",
							"name": "index",
							"type": "uint256"
						}
					],
					"name": "getUserProfile",
					"outputs": [
						{
							"internalType": "string",
							"name": "",
							"type": "string"
						},
						{
							"internalType": "string",
							"name": "",
							"type": "string"
						},
						{
							"internalType": "string",
							"name": "",
							"type": "string"
						},
						{
							"internalType": "string",
							"name": "",
							"type": "string"
						},
						{
							"internalType": "string",
							"name": "",
							"type": "string"
						},
						{
							"internalType": "string",
							"name": "",
							"type": "string"
						}
					],
					"stateMutability": "view",
					"type": "function"
				},
				{
					"inputs": [
						{
							"internalType": "uint256",
							"name": "index",
							"type": "uint256"
						}
					],
					"name": "getUserSchedule",
					"outputs": [
						{
							"internalType": "string",
							"name": "",
							"type": "string"
						},
						{
							"internalType": "string",
							"name": "",
							"type": "string"
						}
					],
					"stateMutability": "view",
					"type": "function"
				},
				{
					"inputs": [
						{
							"internalType": "uint256",
							"name": "",
							"type": "uint256"
						}
					],
					"name": "patients",
					"outputs": [
						{
							"internalType": "string",
							"name": "professionalID",
							"type": "string"
						},
						{
							"internalType": "string",
							"name": "name",
							"type": "string"
						},
						{
							"internalType": "string",
							"name": "email",
							"type": "string"
						},
						{
							"internalType": "string",
							"name": "pass",
							"type": "string"
						},
						{
							"internalType": "string",
							"name": "eegData",
							"type": "string"
						},
						{
							"internalType": "string",
							"name": "ecgData",
							"type": "string"
						},
						{
							"internalType": "string",
							"name": "spo2Data",
							"type": "string"
						},
						{
							"internalType": "string",
							"name": "medicalHistory",
							"type": "string"
						},
						{
							"internalType": "string",
							"name": "nextConsultationDate",
							"type": "string"
						},
						{
							"internalType": "string",
							"name": "paymentType",
							"type": "string"
						}
					],
					"stateMutability": "view",
					"type": "function"
				},
				{
					"inputs": [],
					"name": "patientsLength",
					"outputs": [
						{
							"internalType": "uint256",
							"name": "",
							"type": "uint256"
						}
					],
					"stateMutability": "view",
					"type": "function"
				},
				{
					"inputs": [
						{
							"internalType": "uint256",
							"name": "index",
							"type": "uint256"
						},
						{
							"internalType": "string",
							"name": "_professionalID",
							"type": "string"
						},
						{
							"internalType": "string",
							"name": "_name",
							"type": "string"
						},
						{
							"internalType": "string",
							"name": "_email",
							"type": "string"
						},
						{
							"internalType": "string",
							"name": "_pass",
							"type": "string"
						},
						{
							"internalType": "string",
							"name": "_eegData",
							"type": "string"
						},
						{
							"internalType": "string",
							"name": "_ecgData",
							"type": "string"
						},
						{
							"internalType": "string",
							"name": "_spo2Data",
							"type": "string"
						},
						{
							"internalType": "string",
							"name": "_medicalHistory",
							"type": "string"
						},
						{
							"internalType": "string",
							"name": "_nextConsultationDate",
							"type": "string"
						},
						{
							"internalType": "string",
							"name": "_paymentType",
							"type": "string"
						}
					],
					"name": "updatePatient",
					"outputs": [],
					"stateMutability": "nonpayable",
					"type": "function"
				},
				{
					"inputs": [
						{
							"internalType": "uint256",
							"name": "index",
							"type": "uint256"
						},
						{
							"internalType": "string",
							"name": "newFees",
							"type": "string"
						}
					],
					"name": "updateUserFees",
					"outputs": [],
					"stateMutability": "nonpayable",
					"type": "function"
				},
				{
					"inputs": [
						{
							"internalType": "uint256",
							"name": "",
							"type": "uint256"
						}
					],
					"name": "users",
					"outputs": [
						{
							"internalType": "string",
							"name": "name",
							"type": "string"
						},
						{
							"internalType": "string",
							"name": "email",
							"type": "string"
						},
						{
							"internalType": "string",
							"name": "pass",
							"type": "string"
						},
						{
							"internalType": "string",
							"name": "specialty",
							"type": "string"
						},
						{
							"internalType": "string",
							"name": "phoneNumber",
							"type": "string"
						},
						{
							"internalType": "string",
							"name": "professionalAddress",
							"type": "string"
						},
						{
							"internalType": "string",
							"name": "countryRegion",
							"type": "string"
						},
						{
							"internalType": "string",
							"name": "professionalID",
							"type": "string"
						},
						{
							"internalType": "string",
							"name": "photo",
							"type": "string"
						},
						{
							"internalType": "string",
							"name": "consultationHours",
							"type": "string"
						},
						{
							"internalType": "string",
							"name": "fees",
							"type": "string"
						}
					],
					"stateMutability": "view",
					"type": "function"
				},
				{
					"inputs": [],
					"name": "usersLength",
					"outputs": [
						{
							"internalType": "uint256",
							"name": "",
							"type": "uint256"
						}
					],
					"stateMutability": "view",
					"type": "function"
				}
			],
			"devdoc": {
				"kind": "dev",
				"methods": {},
				"version": 1
			},
			"evm": {
				"assembly": "    /* \"Test9.sol\":57:5268  contract EHealthPulse{... */\n  mstore(0x40, 0x80)\n  callvalue\n  dup1\n  iszero\n  tag_1\n  jumpi\n  0x00\n  dup1\n  revert\ntag_1:\n  pop\n  dataSize(sub_0)\n  dup1\n  dataOffset(sub_0)\n  0x00\n  codecopy\n  0x00\n  return\nstop\n\nsub_0: assembly {\n        /* \"Test9.sol\":57:5268  contract EHealthPulse{... */\n      mstore(0x40, 0x80)\n      callvalue\n      dup1\n      iszero\n      tag_1\n      jumpi\n      0x00\n      dup1\n      revert\n    tag_1:\n      pop\n      jumpi(tag_2, lt(calldatasize, 0x04))\n      shr(0xe0, calldataload(0x00))\n      dup1\n      0x67136135\n      gt\n      tag_16\n      jumpi\n      dup1\n      0xaa48b8b6\n      gt\n      tag_17\n      jumpi\n      dup1\n      0xaa48b8b6\n      eq\n      tag_12\n      jumpi\n      dup1\n      0xbad48821\n      eq\n      tag_13\n      jumpi\n      dup1\n      0xce39c07e\n      eq\n      tag_14\n      jumpi\n      dup1\n      0xeab11db1\n      eq\n      tag_15\n      jumpi\n      jump(tag_2)\n    tag_17:\n      dup1\n      0x67136135\n      eq\n      tag_9\n      jumpi\n      dup1\n      0x687f037e\n      eq\n      tag_10\n      jumpi\n      dup1\n      0x93119a83\n      eq\n      tag_11\n      jumpi\n      jump(tag_2)\n    tag_16:\n      dup1\n      0x1ed6ad1b\n      eq\n      tag_3\n      jumpi\n      dup1\n      0x1f52b76c\n      eq\n      tag_4\n      jumpi\n      dup1\n      0x211a6edc\n      eq\n      tag_5\n      jumpi\n      dup1\n      0x2d50fe6a\n      eq\n      tag_6\n      jumpi\n      dup1\n      0x311cc831\n      eq\n      tag_7\n      jumpi\n      dup1\n      0x365b98b2\n      eq\n      tag_8\n      jumpi\n    tag_2:\n      0x00\n      dup1\n      revert\n        /* \"Test9.sol\":1589:2439  function addPatient(... */\n    tag_3:\n      tag_18\n      0x04\n      dup1\n      calldatasize\n      sub\n      dup2\n      add\n      swap1\n      tag_19\n      swap2\n      swap1\n      tag_20\n      jump\t// in\n    tag_19:\n      tag_21\n      jump\t// in\n    tag_18:\n      stop\n        /* \"Test9.sol\":3672:4071  function getUserProfile(uint256 index) external view returns (string memory, string memory, string memory, string memory, string memory, string memory) {... */\n    tag_4:\n      tag_22\n      0x04\n      dup1\n      calldatasize\n      sub\n      dup2\n      add\n      swap1\n      tag_23\n      swap2\n      swap1\n      tag_24\n      jump\t// in\n    tag_23:\n      tag_25\n      jump\t// in\n    tag_22:\n      mload(0x40)\n      tag_26\n      swap7\n      swap6\n      swap5\n      swap4\n      swap3\n      swap2\n      swap1\n      tag_27\n      jump\t// in\n    tag_26:\n      mload(0x40)\n      dup1\n      swap2\n      sub\n      swap1\n      return\n        /* \"Test9.sol\":4594:5057  function getPatientProfile(uint256 index) external view returns (string memory, string memory,string memory, string memory, string memory, string memory,string memory) {... */\n    tag_5:\n      tag_28\n      0x04\n      dup1\n      calldatasize\n      sub\n      dup2\n      add\n      swap1\n      tag_29\n      swap2\n      swap1\n      tag_24\n      jump\t// in\n    tag_29:\n      tag_30\n      jump\t// in\n    tag_28:\n      mload(0x40)\n      tag_31\n      swap8\n      swap7\n      swap6\n      swap5\n      swap4\n      swap3\n      swap2\n      swap1\n      tag_32\n      jump\t// in\n    tag_31:\n      mload(0x40)\n      dup1\n      swap2\n      sub\n      swap1\n      return\n        /* \"Test9.sol\":4077:4307  function getUserSchedule(uint256 index) external view returns (string memory, string memory) {... */\n    tag_6:\n      tag_33\n      0x04\n      dup1\n      calldatasize\n      sub\n      dup2\n      add\n      swap1\n      tag_34\n      swap2\n      swap1\n      tag_24\n      jump\t// in\n    tag_34:\n      tag_35\n      jump\t// in\n    tag_33:\n      mload(0x40)\n      tag_36\n      swap3\n      swap2\n      swap1\n      tag_37\n      jump\t// in\n    tag_36:\n      mload(0x40)\n      dup1\n      swap2\n      sub\n      swap1\n      return\n        /* \"Test9.sol\":816:1583  function addUser(... */\n    tag_7:\n      tag_38\n      0x04\n      dup1\n      calldatasize\n      sub\n      dup2\n      add\n      swap1\n      tag_39\n      swap2\n      swap1\n      tag_40\n      jump\t// in\n    tag_39:\n      tag_41\n      jump\t// in\n    tag_38:\n      stop\n        /* \"Test9.sol\":759:778  User[] public users */\n    tag_8:\n      tag_42\n      0x04\n      dup1\n      calldatasize\n      sub\n      dup2\n      add\n      swap1\n      tag_43\n      swap2\n      swap1\n      tag_24\n      jump\t// in\n    tag_43:\n      tag_44\n      jump\t// in\n    tag_42:\n      mload(0x40)\n      tag_45\n      swap12\n      swap11\n      swap10\n      swap9\n      swap8\n      swap7\n      swap6\n      swap5\n      swap4\n      swap3\n      swap2\n      swap1\n      tag_46\n      jump\t// in\n    tag_45:\n      mload(0x40)\n      dup1\n      swap2\n      sub\n      swap1\n      return\n        /* \"Test9.sol\":3413:3666  function getUserBasicInfo(uint256 index) external view returns (string memory, string memory, string memory) {... */\n    tag_9:\n      tag_47\n      0x04\n      dup1\n      calldatasize\n      sub\n      dup2\n      add\n      swap1\n      tag_48\n      swap2\n      swap1\n      tag_24\n      jump\t// in\n    tag_48:\n      tag_49\n      jump\t// in\n    tag_47:\n      mload(0x40)\n      tag_50\n      swap4\n      swap3\n      swap2\n      swap1\n      tag_51\n      jump\t// in\n    tag_50:\n      mload(0x40)\n      dup1\n      swap2\n      sub\n      swap1\n      return\n        /* \"Test9.sol\":5063:5160  function patientsLength() external view returns (uint256) {... */\n    tag_10:\n      tag_52\n      tag_53\n      jump\t// in\n    tag_52:\n      mload(0x40)\n      tag_54\n      swap2\n      swap1\n      tag_55\n      jump\t// in\n    tag_54:\n      mload(0x40)\n      dup1\n      swap2\n      sub\n      swap1\n      return\n        /* \"Test9.sol\":784:809  Patient[] public patients */\n    tag_11:\n      tag_56\n      0x04\n      dup1\n      calldatasize\n      sub\n      dup2\n      add\n      swap1\n      tag_57\n      swap2\n      swap1\n      tag_24\n      jump\t// in\n    tag_57:\n      tag_58\n      jump\t// in\n    tag_56:\n      mload(0x40)\n      tag_59\n      swap11\n      swap10\n      swap9\n      swap8\n      swap7\n      swap6\n      swap5\n      swap4\n      swap3\n      swap2\n      swap1\n      tag_60\n      jump\t// in\n    tag_59:\n      mload(0x40)\n      dup1\n      swap2\n      sub\n      swap1\n      return\n        /* \"Test9.sol\":2445:2622  function updateUserFees(uint256 index, string memory newFees) external {... */\n    tag_12:\n      tag_61\n      0x04\n      dup1\n      calldatasize\n      sub\n      dup2\n      add\n      swap1\n      tag_62\n      swap2\n      swap1\n      tag_63\n      jump\t// in\n    tag_62:\n      tag_64\n      jump\t// in\n    tag_61:\n      stop\n        /* \"Test9.sol\":4321:4588  function getPatientBasicInfo(uint256 index) external view returns ( string memory, string memory,string memory) {... */\n    tag_13:\n      tag_65\n      0x04\n      dup1\n      calldatasize\n      sub\n      dup2\n      add\n      swap1\n      tag_66\n      swap2\n      swap1\n      tag_24\n      jump\t// in\n    tag_66:\n      tag_67\n      jump\t// in\n    tag_65:\n      mload(0x40)\n      tag_68\n      swap4\n      swap3\n      swap2\n      swap1\n      tag_51\n      jump\t// in\n    tag_68:\n      mload(0x40)\n      dup1\n      swap2\n      sub\n      swap1\n      return\n        /* \"Test9.sol\":2635:3404  function updatePatient(... */\n    tag_14:\n      tag_69\n      0x04\n      dup1\n      calldatasize\n      sub\n      dup2\n      add\n      swap1\n      tag_70\n      swap2\n      swap1\n      tag_71\n      jump\t// in\n    tag_70:\n      tag_72\n      jump\t// in\n    tag_69:\n      stop\n        /* \"Test9.sol\":5175:5266  function usersLength() external view returns (uint256) {... */\n    tag_15:\n      tag_73\n      tag_74\n      jump\t// in\n    tag_73:\n      mload(0x40)\n      tag_75\n      swap2\n      swap1\n      tag_55\n      jump\t// in\n    tag_75:\n      mload(0x40)\n      dup1\n      swap2\n      sub\n      swap1\n      return\n        /* \"Test9.sol\":1589:2439  function addPatient(... */\n    tag_21:\n        /* \"Test9.sol\":1980:2005  Patient memory newPatient */\n      0x00\n        /* \"Test9.sol\":2008:2397  Patient(... */\n      mload(0x40)\n      dup1\n      0x0140\n      add\n      0x40\n      mstore\n      dup1\n        /* \"Test9.sol\":2029:2044  _professionalID */\n      dup13\n        /* \"Test9.sol\":2008:2397  Patient(... */\n      dup2\n      mstore\n      0x20\n      add\n        /* \"Test9.sol\":2128:2133  _name */\n      dup12\n        /* \"Test9.sol\":2008:2397  Patient(... */\n      dup2\n      mstore\n      0x20\n      add\n        /* \"Test9.sol\":2147:2153  _email */\n      dup11\n        /* \"Test9.sol\":2008:2397  Patient(... */\n      dup2\n      mstore\n      0x20\n      add\n        /* \"Test9.sol\":2167:2172  _pass */\n      dup10\n        /* \"Test9.sol\":2008:2397  Patient(... */\n      dup2\n      mstore\n      0x20\n      add\n        /* \"Test9.sol\":2186:2194  _eegData */\n      dup9\n        /* \"Test9.sol\":2008:2397  Patient(... */\n      dup2\n      mstore\n      0x20\n      add\n        /* \"Test9.sol\":2208:2216  _ecgData */\n      dup8\n        /* \"Test9.sol\":2008:2397  Patient(... */\n      dup2\n      mstore\n      0x20\n      add\n        /* \"Test9.sol\":2230:2239  _spo2Data */\n      dup7\n        /* \"Test9.sol\":2008:2397  Patient(... */\n      dup2\n      mstore\n      0x20\n      add\n        /* \"Test9.sol\":2253:2268  _medicalHistory */\n      dup6\n        /* \"Test9.sol\":2008:2397  Patient(... */\n      dup2\n      mstore\n      0x20\n      add\n        /* \"Test9.sol\":2283:2304  _nextConsultationDate */\n      dup5\n        /* \"Test9.sol\":2008:2397  Patient(... */\n      dup2\n      mstore\n      0x20\n      add\n        /* \"Test9.sol\":2355:2367  _paymentType */\n      dup4\n        /* \"Test9.sol\":2008:2397  Patient(... */\n      dup2\n      mstore\n      pop\n        /* \"Test9.sol\":1980:2397  Patient memory newPatient = Patient(... */\n      swap1\n      pop\n        /* \"Test9.sol\":2407:2415  patients */\n      0x01\n        /* \"Test9.sol\":2421:2431  newPatient */\n      dup2\n        /* \"Test9.sol\":2407:2432  patients.push(newPatient) */\n      swap1\n      dup1\n      0x01\n      dup2\n      sload\n      add\n      dup1\n      dup3\n      sstore\n      dup1\n      swap2\n      pop\n      pop\n      0x01\n      swap1\n      sub\n      swap1\n      0x00\n      mstore\n      keccak256(0x00, 0x20)\n      swap1\n      0x0a\n      mul\n      add\n      0x00\n      swap1\n      swap2\n      swap1\n      swap2\n      swap1\n      swap2\n      pop\n      0x00\n      dup3\n      add\n      mload\n      dup2\n      0x00\n      add\n      swap1\n      dup2\n      tag_78\n      swap2\n      swap1\n      tag_79\n      jump\t// in\n    tag_78:\n      pop\n      0x20\n      dup3\n      add\n      mload\n      dup2\n      0x01\n      add\n      swap1\n      dup2\n      tag_80\n      swap2\n      swap1\n      tag_79\n      jump\t// in\n    tag_80:\n      pop\n      0x40\n      dup3\n      add\n      mload\n      dup2\n      0x02\n      add\n      swap1\n      dup2\n      tag_81\n      swap2\n      swap1\n      tag_79\n      jump\t// in\n    tag_81:\n      pop\n      0x60\n      dup3\n      add\n      mload\n      dup2\n      0x03\n      add\n      swap1\n      dup2\n      tag_82\n      swap2\n      swap1\n      tag_79\n      jump\t// in\n    tag_82:\n      pop\n      0x80\n      dup3\n      add\n      mload\n      dup2\n      0x04\n      add\n      swap1\n      dup2\n      tag_83\n      swap2\n      swap1\n      tag_79\n      jump\t// in\n    tag_83:\n      pop\n      0xa0\n      dup3\n      add\n      mload\n      dup2\n      0x05\n      add\n      swap1\n      dup2\n      tag_84\n      swap2\n      swap1\n      tag_79\n      jump\t// in\n    tag_84:\n      pop\n      0xc0\n      dup3\n      add\n      mload\n      dup2\n      0x06\n      add\n      swap1\n      dup2\n      tag_85\n      swap2\n      swap1\n      tag_79\n      jump\t// in\n    tag_85:\n      pop\n      0xe0\n      dup3\n      add\n      mload\n      dup2\n      0x07\n      add\n      swap1\n      dup2\n      tag_86\n      swap2\n      swap1\n      tag_79\n      jump\t// in\n    tag_86:\n      pop\n      0x0100\n      dup3\n      add\n      mload\n      dup2\n      0x08\n      add\n      swap1\n      dup2\n      tag_87\n      swap2\n      swap1\n      tag_79\n      jump\t// in\n    tag_87:\n      pop\n      0x0120\n      dup3\n      add\n      mload\n      dup2\n      0x09\n      add\n      swap1\n      dup2\n      tag_88\n      swap2\n      swap1\n      tag_79\n      jump\t// in\n    tag_88:\n      pop\n      pop\n      pop\n        /* \"Test9.sol\":1970:2439  {... */\n      pop\n        /* \"Test9.sol\":1589:2439  function addPatient(... */\n      pop\n      pop\n      pop\n      pop\n      pop\n      pop\n      pop\n      pop\n      pop\n      pop\n      jump\t// out\n        /* \"Test9.sol\":3672:4071  function getUserProfile(uint256 index) external view returns (string memory, string memory, string memory, string memory, string memory, string memory) {... */\n    tag_25:\n        /* \"Test9.sol\":3734:3747  string memory */\n      0x60\n        /* \"Test9.sol\":3749:3762  string memory */\n      dup1\n        /* \"Test9.sol\":3764:3777  string memory */\n      0x60\n        /* \"Test9.sol\":3779:3792  string memory */\n      dup1\n        /* \"Test9.sol\":3794:3807  string memory */\n      0x60\n        /* \"Test9.sol\":3809:3822  string memory */\n      dup1\n        /* \"Test9.sol\":3850:3855  users */\n      0x00\n        /* \"Test9.sol\":3850:3862  users.length */\n      dup1\n      sload\n      swap1\n      pop\n        /* \"Test9.sol\":3842:3847  index */\n      dup8\n        /* \"Test9.sol\":3842:3862  index < users.length */\n      lt\n        /* \"Test9.sol\":3834:3886  require(index < users.length, \"Index out of bounds\") */\n      tag_90\n      jumpi\n      mload(0x40)\n      0x08c379a000000000000000000000000000000000000000000000000000000000\n      dup2\n      mstore\n      0x04\n      add\n      tag_91\n      swap1\n      tag_92\n      jump\t// in\n    tag_91:\n      mload(0x40)\n      dup1\n      swap2\n      sub\n      swap1\n      revert\n    tag_90:\n        /* \"Test9.sol\":3904:3909  users */\n      0x00\n        /* \"Test9.sol\":3910:3915  index */\n      dup8\n        /* \"Test9.sol\":3904:3916  users[index] */\n      dup2\n      sload\n      dup2\n      lt\n      tag_93\n      jumpi\n      tag_94\n      tag_95\n      jump\t// in\n    tag_94:\n    tag_93:\n      swap1\n      0x00\n      mstore\n      keccak256(0x00, 0x20)\n      swap1\n      0x0b\n      mul\n      add\n        /* \"Test9.sol\":3904:3926  users[index].specialty */\n      0x03\n      add\n        /* \"Test9.sol\":3928:3933  users */\n      0x00\n        /* \"Test9.sol\":3934:3939  index */\n      dup9\n        /* \"Test9.sol\":3928:3940  users[index] */\n      dup2\n      sload\n      dup2\n      lt\n      tag_97\n      jumpi\n      tag_98\n      tag_95\n      jump\t// in\n    tag_98:\n    tag_97:\n      swap1\n      0x00\n      mstore\n      keccak256(0x00, 0x20)\n      swap1\n      0x0b\n      mul\n      add\n        /* \"Test9.sol\":3928:3952  users[index].phoneNumber */\n      0x04\n      add\n        /* \"Test9.sol\":3954:3959  users */\n      0x00\n        /* \"Test9.sol\":3960:3965  index */\n      dup10\n        /* \"Test9.sol\":3954:3966  users[index] */\n      dup2\n      sload\n      dup2\n      lt\n      tag_100\n      jumpi\n      tag_101\n      tag_95\n      jump\t// in\n    tag_101:\n    tag_100:\n      swap1\n      0x00\n      mstore\n      keccak256(0x00, 0x20)\n      swap1\n      0x0b\n      mul\n      add\n        /* \"Test9.sol\":3954:3986  users[index].professionalAddress */\n      0x05\n      add\n        /* \"Test9.sol\":3988:3993  users */\n      0x00\n        /* \"Test9.sol\":3994:3999  index */\n      dup11\n        /* \"Test9.sol\":3988:4000  users[index] */\n      dup2\n      sload\n      dup2\n      lt\n      tag_103\n      jumpi\n      tag_104\n      tag_95\n      jump\t// in\n    tag_104:\n    tag_103:\n      swap1\n      0x00\n      mstore\n      keccak256(0x00, 0x20)\n      swap1\n      0x0b\n      mul\n      add\n        /* \"Test9.sol\":3988:4014  users[index].countryRegion */\n      0x06\n      add\n        /* \"Test9.sol\":4016:4021  users */\n      0x00\n        /* \"Test9.sol\":4022:4027  index */\n      dup12\n        /* \"Test9.sol\":4016:4028  users[index] */\n      dup2\n      sload\n      dup2\n      lt\n      tag_106\n      jumpi\n      tag_107\n      tag_95\n      jump\t// in\n    tag_107:\n    tag_106:\n      swap1\n      0x00\n      mstore\n      keccak256(0x00, 0x20)\n      swap1\n      0x0b\n      mul\n      add\n        /* \"Test9.sol\":4016:4043  users[index].professionalID */\n      0x07\n      add\n        /* \"Test9.sol\":4045:4050  users */\n      0x00\n        /* \"Test9.sol\":4051:4056  index */\n      dup13\n        /* \"Test9.sol\":4045:4057  users[index] */\n      dup2\n      sload\n      dup2\n      lt\n      tag_109\n      jumpi\n      tag_110\n      tag_95\n      jump\t// in\n    tag_110:\n    tag_109:\n      swap1\n      0x00\n      mstore\n      keccak256(0x00, 0x20)\n      swap1\n      0x0b\n      mul\n      add\n        /* \"Test9.sol\":4045:4063  users[index].photo */\n      0x08\n      add\n        /* \"Test9.sol\":3896:4064  return (users[index].specialty, users[index].phoneNumber, users[index].professionalAddress, users[index].countryRegion, users[index].professionalID, users[index].photo) */\n      dup6\n      dup1\n      sload\n      tag_112\n      swap1\n      tag_113\n      jump\t// in\n    tag_112:\n      dup1\n      0x1f\n      add\n      0x20\n      dup1\n      swap2\n      div\n      mul\n      0x20\n      add\n      mload(0x40)\n      swap1\n      dup2\n      add\n      0x40\n      mstore\n      dup1\n      swap3\n      swap2\n      swap1\n      dup2\n      dup2\n      mstore\n      0x20\n      add\n      dup3\n      dup1\n      sload\n      tag_114\n      swap1\n      tag_113\n      jump\t// in\n    tag_114:\n      dup1\n      iszero\n      tag_115\n      jumpi\n      dup1\n      0x1f\n      lt\n      tag_116\n      jumpi\n      0x0100\n      dup1\n      dup4\n      sload\n      div\n      mul\n      dup4\n      mstore\n      swap2\n      0x20\n      add\n      swap2\n      jump(tag_115)\n    tag_116:\n      dup3\n      add\n      swap2\n      swap1\n      0x00\n      mstore\n      keccak256(0x00, 0x20)\n      swap1\n    tag_117:\n      dup2\n      sload\n      dup2\n      mstore\n      swap1\n      0x01\n      add\n      swap1\n      0x20\n      add\n      dup1\n      dup4\n      gt\n      tag_117\n      jumpi\n      dup3\n      swap1\n      sub\n      0x1f\n      and\n      dup3\n      add\n      swap2\n    tag_115:\n      pop\n      pop\n      pop\n      pop\n      pop\n      swap6\n      pop\n      dup5\n      dup1\n      sload\n      tag_118\n      swap1\n      tag_113\n      jump\t// in\n    tag_118:\n      dup1\n      0x1f\n      add\n      0x20\n      dup1\n      swap2\n      div\n      mul\n      0x20\n      add\n      mload(0x40)\n      swap1\n      dup2\n      add\n      0x40\n      mstore\n      dup1\n      swap3\n      swap2\n      swap1\n      dup2\n      dup2\n      mstore\n      0x20\n      add\n      dup3\n      dup1\n      sload\n      tag_119\n      swap1\n      tag_113\n      jump\t// in\n    tag_119:\n      dup1\n      iszero\n      tag_120\n      jumpi\n      dup1\n      0x1f\n      lt\n      tag_121\n      jumpi\n      0x0100\n      dup1\n      dup4\n      sload\n      div\n      mul\n      dup4\n      mstore\n      swap2\n      0x20\n      add\n      swap2\n      jump(tag_120)\n    tag_121:\n      dup3\n      add\n      swap2\n      swap1\n      0x00\n      mstore\n      keccak256(0x00, 0x20)\n      swap1\n    tag_122:\n      dup2\n      sload\n      dup2\n      mstore\n      swap1\n      0x01\n      add\n      swap1\n      0x20\n      add\n      dup1\n      dup4\n      gt\n      tag_122\n      jumpi\n      dup3\n      swap1\n      sub\n      0x1f\n      and\n      dup3\n      add\n      swap2\n    tag_120:\n      pop\n      pop\n      pop\n      pop\n      pop\n      swap5\n      pop\n      dup4\n      dup1\n      sload\n      tag_123\n      swap1\n      tag_113\n      jump\t// in\n    tag_123:\n      dup1\n      0x1f\n      add\n      0x20\n      dup1\n      swap2\n      div\n      mul\n      0x20\n      add\n      mload(0x40)\n      swap1\n      dup2\n      add\n      0x40\n      mstore\n      dup1\n      swap3\n      swap2\n      swap1\n      dup2\n      dup2\n      mstore\n      0x20\n      add\n      dup3\n      dup1\n      sload\n      tag_124\n      swap1\n      tag_113\n      jump\t// in\n    tag_124:\n      dup1\n      iszero\n      tag_125\n      jumpi\n      dup1\n      0x1f\n      lt\n      tag_126\n      jumpi\n      0x0100\n      dup1\n      dup4\n      sload\n      div\n      mul\n      dup4\n      mstore\n      swap2\n      0x20\n      add\n      swap2\n      jump(tag_125)\n    tag_126:\n      dup3\n      add\n      swap2\n      swap1\n      0x00\n      mstore\n      keccak256(0x00, 0x20)\n      swap1\n    tag_127:\n      dup2\n      sload\n      dup2\n      mstore\n      swap1\n      0x01\n      add\n      swap1\n      0x20\n      add\n      dup1\n      dup4\n      gt\n      tag_127\n      jumpi\n      dup3\n      swap1\n      sub\n      0x1f\n      and\n      dup3\n      add\n      swap2\n    tag_125:\n      pop\n      pop\n      pop\n      pop\n      pop\n      swap4\n      pop\n      dup3\n      dup1\n      sload\n      tag_128\n      swap1\n      tag_113\n      jump\t// in\n    tag_128:\n      dup1\n      0x1f\n      add\n      0x20\n      dup1\n      swap2\n      div\n      mul\n      0x20\n      add\n      mload(0x40)\n      swap1\n      dup2\n      add\n      0x40\n      mstore\n      dup1\n      swap3\n      swap2\n      swap1\n      dup2\n      dup2\n      mstore\n      0x20\n      add\n      dup3\n      dup1\n      sload\n      tag_129\n      swap1\n      tag_113\n      jump\t// in\n    tag_129:\n      dup1\n      iszero\n      tag_130\n      jumpi\n      dup1\n      0x1f\n      lt\n      tag_131\n      jumpi\n      0x0100\n      dup1\n      dup4\n      sload\n      div\n      mul\n      dup4\n      mstore\n      swap2\n      0x20\n      add\n      swap2\n      jump(tag_130)\n    tag_131:\n      dup3\n      add\n      swap2\n      swap1\n      0x00\n      mstore\n      keccak256(0x00, 0x20)\n      swap1\n    tag_132:\n      dup2\n      sload\n      dup2\n      mstore\n      swap1\n      0x01\n      add\n      swap1\n      0x20\n      add\n      dup1\n      dup4\n      gt\n      tag_132\n      jumpi\n      dup3\n      swap1\n      sub\n      0x1f\n      and\n      dup3\n      add\n      swap2\n    tag_130:\n      pop\n      pop\n      pop\n      pop\n      pop\n      swap3\n      pop\n      dup2\n      dup1\n      sload\n      tag_133\n      swap1\n      tag_113\n      jump\t// in\n    tag_133:\n      dup1\n      0x1f\n      add\n      0x20\n      dup1\n      swap2\n      div\n      mul\n      0x20\n      add\n      mload(0x40)\n      swap1\n      dup2\n      add\n      0x40\n      mstore\n      dup1\n      swap3\n      swap2\n      swap1\n      dup2\n      dup2\n      mstore\n      0x20\n      add\n      dup3\n      dup1\n      sload\n      tag_134\n      swap1\n      tag_113\n      jump\t// in\n    tag_134:\n      dup1\n      iszero\n      tag_135\n      jumpi\n      dup1\n      0x1f\n      lt\n      tag_136\n      jumpi\n      0x0100\n      dup1\n      dup4\n      sload\n      div\n      mul\n      dup4\n      mstore\n      swap2\n      0x20\n      add\n      swap2\n      jump(tag_135)\n    tag_136:\n      dup3\n      add\n      swap2\n      swap1\n      0x00\n      mstore\n      keccak256(0x00, 0x20)\n      swap1\n    tag_137:\n      dup2\n      sload\n      dup2\n      mstore\n      swap1\n      0x01\n      add\n      swap1\n      0x20\n      add\n      dup1\n      dup4\n      gt\n      tag_137\n      jumpi\n      dup3\n      swap1\n      sub\n      0x1f\n      and\n      dup3\n      add\n      swap2\n    tag_135:\n      pop\n      pop\n      pop\n      pop\n      pop\n      swap2\n      pop\n      dup1\n      dup1\n      sload\n      tag_138\n      swap1\n      tag_113\n      jump\t// in\n    tag_138:\n      dup1\n      0x1f\n      add\n      0x20\n      dup1\n      swap2\n      div\n      mul\n      0x20\n      add\n      mload(0x40)\n      swap1\n      dup2\n      add\n      0x40\n      mstore\n      dup1\n      swap3\n      swap2\n      swap1\n      dup2\n      dup2\n      mstore\n      0x20\n      add\n      dup3\n      dup1\n      sload\n      tag_139\n      swap1\n      tag_113\n      jump\t// in\n    tag_139:\n      dup1\n      iszero\n      tag_140\n      jumpi\n      dup1\n      0x1f\n      lt\n      tag_141\n      jumpi\n      0x0100\n      dup1\n      dup4\n      sload\n      div\n      mul\n      dup4\n      mstore\n      swap2\n      0x20\n      add\n      swap2\n      jump(tag_140)\n    tag_141:\n      dup3\n      add\n      swap2\n      swap1\n      0x00\n      mstore\n      keccak256(0x00, 0x20)\n      swap1\n    tag_142:\n      dup2\n      sload\n      dup2\n      mstore\n      swap1\n      0x01\n      add\n      swap1\n      0x20\n      add\n      dup1\n      dup4\n      gt\n      tag_142\n      jumpi\n      dup3\n      swap1\n      sub\n      0x1f\n      and\n      dup3\n      add\n      swap2\n    tag_140:\n      pop\n      pop\n      pop\n      pop\n      pop\n      swap1\n      pop\n      swap6\n      pop\n      swap6\n      pop\n      swap6\n      pop\n      swap6\n      pop\n      swap6\n      pop\n      swap6\n      pop\n        /* \"Test9.sol\":3672:4071  function getUserProfile(uint256 index) external view returns (string memory, string memory, string memory, string memory, string memory, string memory) {... */\n      swap2\n      swap4\n      swap6\n      pop\n      swap2\n      swap4\n      swap6\n      jump\t// out\n        /* \"Test9.sol\":4594:5057  function getPatientProfile(uint256 index) external view returns (string memory, string memory,string memory, string memory, string memory, string memory,string memory) {... */\n    tag_30:\n        /* \"Test9.sol\":4659:4672  string memory */\n      0x60\n        /* \"Test9.sol\":4674:4687  string memory */\n      dup1\n        /* \"Test9.sol\":4688:4701  string memory */\n      0x60\n        /* \"Test9.sol\":4703:4716  string memory */\n      dup1\n        /* \"Test9.sol\":4718:4731  string memory */\n      0x60\n        /* \"Test9.sol\":4733:4746  string memory */\n      dup1\n        /* \"Test9.sol\":4747:4760  string memory */\n      0x60\n        /* \"Test9.sol\":4788:4796  patients */\n      0x01\n        /* \"Test9.sol\":4788:4803  patients.length */\n      dup1\n      sload\n      swap1\n      pop\n        /* \"Test9.sol\":4780:4785  index */\n      dup9\n        /* \"Test9.sol\":4780:4803  index < patients.length */\n      lt\n        /* \"Test9.sol\":4772:4827  require(index < patients.length, \"Index out of bounds\") */\n      tag_144\n      jumpi\n      mload(0x40)\n      0x08c379a000000000000000000000000000000000000000000000000000000000\n      dup2\n      mstore\n      0x04\n      add\n      tag_145\n      swap1\n      tag_92\n      jump\t// in\n    tag_145:\n      mload(0x40)\n      dup1\n      swap2\n      sub\n      swap1\n      revert\n    tag_144:\n        /* \"Test9.sol\":4846:4854  patients */\n      0x01\n        /* \"Test9.sol\":4855:4860  index */\n      dup9\n        /* \"Test9.sol\":4846:4861  patients[index] */\n      dup2\n      sload\n      dup2\n      lt\n      tag_146\n      jumpi\n      tag_147\n      tag_95\n      jump\t// in\n    tag_147:\n    tag_146:\n      swap1\n      0x00\n      mstore\n      keccak256(0x00, 0x20)\n      swap1\n      0x0a\n      mul\n      add\n        /* \"Test9.sol\":4846:4876  patients[index].professionalID */\n      0x00\n      add\n        /* \"Test9.sol\":4877:4885  patients */\n      0x01\n        /* \"Test9.sol\":4886:4891  index */\n      dup10\n        /* \"Test9.sol\":4877:4892  patients[index] */\n      dup2\n      sload\n      dup2\n      lt\n      tag_149\n      jumpi\n      tag_150\n      tag_95\n      jump\t// in\n    tag_150:\n    tag_149:\n      swap1\n      0x00\n      mstore\n      keccak256(0x00, 0x20)\n      swap1\n      0x0a\n      mul\n      add\n        /* \"Test9.sol\":4877:4900  patients[index].eegData */\n      0x04\n      add\n        /* \"Test9.sol\":4901:4909  patients */\n      0x01\n        /* \"Test9.sol\":4910:4915  index */\n      dup11\n        /* \"Test9.sol\":4901:4916  patients[index] */\n      dup2\n      sload\n      dup2\n      lt\n      tag_152\n      jumpi\n      tag_153\n      tag_95\n      jump\t// in\n    tag_153:\n    tag_152:\n      swap1\n      0x00\n      mstore\n      keccak256(0x00, 0x20)\n      swap1\n      0x0a\n      mul\n      add\n        /* \"Test9.sol\":4901:4924  patients[index].ecgData */\n      0x05\n      add\n        /* \"Test9.sol\":4925:4933  patients */\n      0x01\n        /* \"Test9.sol\":4934:4939  index */\n      dup12\n        /* \"Test9.sol\":4925:4940  patients[index] */\n      dup2\n      sload\n      dup2\n      lt\n      tag_155\n      jumpi\n      tag_156\n      tag_95\n      jump\t// in\n    tag_156:\n    tag_155:\n      swap1\n      0x00\n      mstore\n      keccak256(0x00, 0x20)\n      swap1\n      0x0a\n      mul\n      add\n        /* \"Test9.sol\":4925:4949  patients[index].spo2Data */\n      0x06\n      add\n        /* \"Test9.sol\":4951:4959  patients */\n      0x01\n        /* \"Test9.sol\":4960:4965  index */\n      dup13\n        /* \"Test9.sol\":4951:4966  patients[index] */\n      dup2\n      sload\n      dup2\n      lt\n      tag_158\n      jumpi\n      tag_159\n      tag_95\n      jump\t// in\n    tag_159:\n    tag_158:\n      swap1\n      0x00\n      mstore\n      keccak256(0x00, 0x20)\n      swap1\n      0x0a\n      mul\n      add\n        /* \"Test9.sol\":4951:4981  patients[index].medicalHistory */\n      0x07\n      add\n        /* \"Test9.sol\":4984:4992  patients */\n      0x01\n        /* \"Test9.sol\":4993:4998  index */\n      dup14\n        /* \"Test9.sol\":4984:4999  patients[index] */\n      dup2\n      sload\n      dup2\n      lt\n      tag_161\n      jumpi\n      tag_162\n      tag_95\n      jump\t// in\n    tag_162:\n    tag_161:\n      swap1\n      0x00\n      mstore\n      keccak256(0x00, 0x20)\n      swap1\n      0x0a\n      mul\n      add\n        /* \"Test9.sol\":4984:5020  patients[index].nextConsultationDate */\n      0x08\n      add\n        /* \"Test9.sol\":5022:5030  patients */\n      0x01\n        /* \"Test9.sol\":5031:5036  index */\n      dup15\n        /* \"Test9.sol\":5022:5037  patients[index] */\n      dup2\n      sload\n      dup2\n      lt\n      tag_164\n      jumpi\n      tag_165\n      tag_95\n      jump\t// in\n    tag_165:\n    tag_164:\n      swap1\n      0x00\n      mstore\n      keccak256(0x00, 0x20)\n      swap1\n      0x0a\n      mul\n      add\n        /* \"Test9.sol\":5022:5049  patients[index].paymentType */\n      0x09\n      add\n        /* \"Test9.sol\":4837:5050  return ( patients[index].professionalID,patients[index].eegData,patients[index].ecgData,patients[index].spo2Data, patients[index].medicalHistory,  patients[index].nextConsultationDate, patients[index].paymentType) */\n      dup7\n      dup1\n      sload\n      tag_167\n      swap1\n      tag_113\n      jump\t// in\n    tag_167:\n      dup1\n      0x1f\n      add\n      0x20\n      dup1\n      swap2\n      div\n      mul\n      0x20\n      add\n      mload(0x40)\n      swap1\n      dup2\n      add\n      0x40\n      mstore\n      dup1\n      swap3\n      swap2\n      swap1\n      dup2\n      dup2\n      mstore\n      0x20\n      add\n      dup3\n      dup1\n      sload\n      tag_168\n      swap1\n      tag_113\n      jump\t// in\n    tag_168:\n      dup1\n      iszero\n      tag_169\n      jumpi\n      dup1\n      0x1f\n      lt\n      tag_170\n      jumpi\n      0x0100\n      dup1\n      dup4\n      sload\n      div\n      mul\n      dup4\n      mstore\n      swap2\n      0x20\n      add\n      swap2\n      jump(tag_169)\n    tag_170:\n      dup3\n      add\n      swap2\n      swap1\n      0x00\n      mstore\n      keccak256(0x00, 0x20)\n      swap1\n    tag_171:\n      dup2\n      sload\n      dup2\n      mstore\n      swap1\n      0x01\n      add\n      swap1\n      0x20\n      add\n      dup1\n      dup4\n      gt\n      tag_171\n      jumpi\n      dup3\n      swap1\n      sub\n      0x1f\n      and\n      dup3\n      add\n      swap2\n    tag_169:\n      pop\n      pop\n      pop\n      pop\n      pop\n      swap7\n      pop\n      dup6\n      dup1\n      sload\n      tag_172\n      swap1\n      tag_113\n      jump\t// in\n    tag_172:\n      dup1\n      0x1f\n      add\n      0x20\n      dup1\n      swap2\n      div\n      mul\n      0x20\n      add\n      mload(0x40)\n      swap1\n      dup2\n      add\n      0x40\n      mstore\n      dup1\n      swap3\n      swap2\n      swap1\n      dup2\n      dup2\n      mstore\n      0x20\n      add\n      dup3\n      dup1\n      sload\n      tag_173\n      swap1\n      tag_113\n      jump\t// in\n    tag_173:\n      dup1\n      iszero\n      tag_174\n      jumpi\n      dup1\n      0x1f\n      lt\n      tag_175\n      jumpi\n      0x0100\n      dup1\n      dup4\n      sload\n      div\n      mul\n      dup4\n      mstore\n      swap2\n      0x20\n      add\n      swap2\n      jump(tag_174)\n    tag_175:\n      dup3\n      add\n      swap2\n      swap1\n      0x00\n      mstore\n      keccak256(0x00, 0x20)\n      swap1\n    tag_176:\n      dup2\n      sload\n      dup2\n      mstore\n      swap1\n      0x01\n      add\n      swap1\n      0x20\n      add\n      dup1\n      dup4\n      gt\n      tag_176\n      jumpi\n      dup3\n      swap1\n      sub\n      0x1f\n      and\n      dup3\n      add\n      swap2\n    tag_174:\n      pop\n      pop\n      pop\n      pop\n      pop\n      swap6\n      pop\n      dup5\n      dup1\n      sload\n      tag_177\n      swap1\n      tag_113\n      jump\t// in\n    tag_177:\n      dup1\n      0x1f\n      add\n      0x20\n      dup1\n      swap2\n      div\n      mul\n      0x20\n      add\n      mload(0x40)\n      swap1\n      dup2\n      add\n      0x40\n      mstore\n      dup1\n      swap3\n      swap2\n      swap1\n      dup2\n      dup2\n      mstore\n      0x20\n      add\n      dup3\n      dup1\n      sload\n      tag_178\n      swap1\n      tag_113\n      jump\t// in\n    tag_178:\n      dup1\n      iszero\n      tag_179\n      jumpi\n      dup1\n      0x1f\n      lt\n      tag_180\n      jumpi\n      0x0100\n      dup1\n      dup4\n      sload\n      div\n      mul\n      dup4\n      mstore\n      swap2\n      0x20\n      add\n      swap2\n      jump(tag_179)\n    tag_180:\n      dup3\n      add\n      swap2\n      swap1\n      0x00\n      mstore\n      keccak256(0x00, 0x20)\n      swap1\n    tag_181:\n      dup2\n      sload\n      dup2\n      mstore\n      swap1\n      0x01\n      add\n      swap1\n      0x20\n      add\n      dup1\n      dup4\n      gt\n      tag_181\n      jumpi\n      dup3\n      swap1\n      sub\n      0x1f\n      and\n      dup3\n      add\n      swap2\n    tag_179:\n      pop\n      pop\n      pop\n      pop\n      pop\n      swap5\n      pop\n      dup4\n      dup1\n      sload\n      tag_182\n      swap1\n      tag_113\n      jump\t// in\n    tag_182:\n      dup1\n      0x1f\n      add\n      0x20\n      dup1\n      swap2\n      div\n      mul\n      0x20\n      add\n      mload(0x40)\n      swap1\n      dup2\n      add\n      0x40\n      mstore\n      dup1\n      swap3\n      swap2\n      swap1\n      dup2\n      dup2\n      mstore\n      0x20\n      add\n      dup3\n      dup1\n      sload\n      tag_183\n      swap1\n      tag_113\n      jump\t// in\n    tag_183:\n      dup1\n      iszero\n      tag_184\n      jumpi\n      dup1\n      0x1f\n      lt\n      tag_185\n      jumpi\n      0x0100\n      dup1\n      dup4\n      sload\n      div\n      mul\n      dup4\n      mstore\n      swap2\n      0x20\n      add\n      swap2\n      jump(tag_184)\n    tag_185:\n      dup3\n      add\n      swap2\n      swap1\n      0x00\n      mstore\n      keccak256(0x00, 0x20)\n      swap1\n    tag_186:\n      dup2\n      sload\n      dup2\n      mstore\n      swap1\n      0x01\n      add\n      swap1\n      0x20\n      add\n      dup1\n      dup4\n      gt\n      tag_186\n      jumpi\n      dup3\n      swap1\n      sub\n      0x1f\n      and\n      dup3\n      add\n      swap2\n    tag_184:\n      pop\n      pop\n      pop\n      pop\n      pop\n      swap4\n      pop\n      dup3\n      dup1\n      sload\n      tag_187\n      swap1\n      tag_113\n      jump\t// in\n    tag_187:\n      dup1\n      0x1f\n      add\n      0x20\n      dup1\n      swap2\n      div\n      mul\n      0x20\n      add\n      mload(0x40)\n      swap1\n      dup2\n      add\n      0x40\n      mstore\n      dup1\n      swap3\n      swap2\n      swap1\n      dup2\n      dup2\n      mstore\n      0x20\n      add\n      dup3\n      dup1\n      sload\n      tag_188\n      swap1\n      tag_113\n      jump\t// in\n    tag_188:\n      dup1\n      iszero\n      tag_189\n      jumpi\n      dup1\n      0x1f\n      lt\n      tag_190\n      jumpi\n      0x0100\n      dup1\n      dup4\n      sload\n      div\n      mul\n      dup4\n      mstore\n      swap2\n      0x20\n      add\n      swap2\n      jump(tag_189)\n    tag_190:\n      dup3\n      add\n      swap2\n      swap1\n      0x00\n      mstore\n      keccak256(0x00, 0x20)\n      swap1\n    tag_191:\n      dup2\n      sload\n      dup2\n      mstore\n      swap1\n      0x01\n      add\n      swap1\n      0x20\n      add\n      dup1\n      dup4\n      gt\n      tag_191\n      jumpi\n      dup3\n      swap1\n      sub\n      0x1f\n      and\n      dup3\n      add\n      swap2\n    tag_189:\n      pop\n      pop\n      pop\n      pop\n      pop\n      swap3\n      pop\n      dup2\n      dup1\n      sload\n      tag_192\n      swap1\n      tag_113\n      jump\t// in\n    tag_192:\n      dup1\n      0x1f\n      add\n      0x20\n      dup1\n      swap2\n      div\n      mul\n      0x20\n      add\n      mload(0x40)\n      swap1\n      dup2\n      add\n      0x40\n      mstore\n      dup1\n      swap3\n      swap2\n      swap1\n      dup2\n      dup2\n      mstore\n      0x20\n      add\n      dup3\n      dup1\n      sload\n      tag_193\n      swap1\n      tag_113\n      jump\t// in\n    tag_193:\n      dup1\n      iszero\n      tag_194\n      jumpi\n      dup1\n      0x1f\n      lt\n      tag_195\n      jumpi\n      0x0100\n      dup1\n      dup4\n      sload\n      div\n      mul\n      dup4\n      mstore\n      swap2\n      0x20\n      add\n      swap2\n      jump(tag_194)\n    tag_195:\n      dup3\n      add\n      swap2\n      swap1\n      0x00\n      mstore\n      keccak256(0x00, 0x20)\n      swap1\n    tag_196:\n      dup2\n      sload\n      dup2\n      mstore\n      swap1\n      0x01\n      add\n      swap1\n      0x20\n      add\n      dup1\n      dup4\n      gt\n      tag_196\n      jumpi\n      dup3\n      swap1\n      sub\n      0x1f\n      and\n      dup3\n      add\n      swap2\n    tag_194:\n      pop\n      pop\n      pop\n      pop\n      pop\n      swap2\n      pop\n      dup1\n      dup1\n      sload\n      tag_197\n      swap1\n      tag_113\n      jump\t// in\n    tag_197:\n      dup1\n      0x1f\n      add\n      0x20\n      dup1\n      swap2\n      div\n      mul\n      0x20\n      add\n      mload(0x40)\n      swap1\n      dup2\n      add\n      0x40\n      mstore\n      dup1\n      swap3\n      swap2\n      swap1\n      dup2\n      dup2\n      mstore\n      0x20\n      add\n      dup3\n      dup1\n      sload\n      tag_198\n      swap1\n      tag_113\n      jump\t// in\n    tag_198:\n      dup1\n      iszero\n      tag_199\n      jumpi\n      dup1\n      0x1f\n      lt\n      tag_200\n      jumpi\n      0x0100\n      dup1\n      dup4\n      sload\n      div\n      mul\n      dup4\n      mstore\n      swap2\n      0x20\n      add\n      swap2\n      jump(tag_199)\n    tag_200:\n      dup3\n      add\n      swap2\n      swap1\n      0x00\n      mstore\n      keccak256(0x00, 0x20)\n      swap1\n    tag_201:\n      dup2\n      sload\n      dup2\n      mstore\n      swap1\n      0x01\n      add\n      swap1\n      0x20\n      add\n      dup1\n      dup4\n      gt\n      tag_201\n      jumpi\n      dup3\n      swap1\n      sub\n      0x1f\n      and\n      dup3\n      add\n      swap2\n    tag_199:\n      pop\n      pop\n      pop\n      pop\n      pop\n      swap1\n      pop\n      swap7\n      pop\n      swap7\n      pop\n      swap7\n      pop\n      swap7\n      pop\n      swap7\n      pop\n      swap7\n      pop\n      swap7\n      pop\n        /* \"Test9.sol\":4594:5057  function getPatientProfile(uint256 index) external view returns (string memory, string memory,string memory, string memory, string memory, string memory,string memory) {... */\n      swap2\n      swap4\n      swap6\n      swap8\n      swap1\n      swap3\n      swap5\n      swap7\n      pop\n      jump\t// out\n        /* \"Test9.sol\":4077:4307  function getUserSchedule(uint256 index) external view returns (string memory, string memory) {... */\n    tag_35:\n        /* \"Test9.sol\":4140:4153  string memory */\n      0x60\n        /* \"Test9.sol\":4155:4168  string memory */\n      dup1\n        /* \"Test9.sol\":4196:4201  users */\n      0x00\n        /* \"Test9.sol\":4196:4208  users.length */\n      dup1\n      sload\n      swap1\n      pop\n        /* \"Test9.sol\":4188:4193  index */\n      dup4\n        /* \"Test9.sol\":4188:4208  index < users.length */\n      lt\n        /* \"Test9.sol\":4180:4232  require(index < users.length, \"Index out of bounds\") */\n      tag_203\n      jumpi\n      mload(0x40)\n      0x08c379a000000000000000000000000000000000000000000000000000000000\n      dup2\n      mstore\n      0x04\n      add\n      tag_204\n      swap1\n      tag_92\n      jump\t// in\n    tag_204:\n      mload(0x40)\n      dup1\n      swap2\n      sub\n      swap1\n      revert\n    tag_203:\n        /* \"Test9.sol\":4250:4255  users */\n      0x00\n        /* \"Test9.sol\":4256:4261  index */\n      dup4\n        /* \"Test9.sol\":4250:4262  users[index] */\n      dup2\n      sload\n      dup2\n      lt\n      tag_205\n      jumpi\n      tag_206\n      tag_95\n      jump\t// in\n    tag_206:\n    tag_205:\n      swap1\n      0x00\n      mstore\n      keccak256(0x00, 0x20)\n      swap1\n      0x0b\n      mul\n      add\n        /* \"Test9.sol\":4250:4280  users[index].consultationHours */\n      0x09\n      add\n        /* \"Test9.sol\":4282:4287  users */\n      0x00\n        /* \"Test9.sol\":4288:4293  index */\n      dup5\n        /* \"Test9.sol\":4282:4294  users[index] */\n      dup2\n      sload\n      dup2\n      lt\n      tag_208\n      jumpi\n      tag_209\n      tag_95\n      jump\t// in\n    tag_209:\n    tag_208:\n      swap1\n      0x00\n      mstore\n      keccak256(0x00, 0x20)\n      swap1\n      0x0b\n      mul\n      add\n        /* \"Test9.sol\":4282:4299  users[index].fees */\n      0x0a\n      add\n        /* \"Test9.sol\":4242:4300  return (users[index].consultationHours, users[index].fees) */\n      dup2\n      dup1\n      sload\n      tag_211\n      swap1\n      tag_113\n      jump\t// in\n    tag_211:\n      dup1\n      0x1f\n      add\n      0x20\n      dup1\n      swap2\n      div\n      mul\n      0x20\n      add\n      mload(0x40)\n      swap1\n      dup2\n      add\n      0x40\n      mstore\n      dup1\n      swap3\n      swap2\n      swap1\n      dup2\n      dup2\n      mstore\n      0x20\n      add\n      dup3\n      dup1\n      sload\n      tag_212\n      swap1\n      tag_113\n      jump\t// in\n    tag_212:\n      dup1\n      iszero\n      tag_213\n      jumpi\n      dup1\n      0x1f\n      lt\n      tag_214\n      jumpi\n      0x0100\n      dup1\n      dup4\n      sload\n      div\n      mul\n      dup4\n      mstore\n      swap2\n      0x20\n      add\n      swap2\n      jump(tag_213)\n    tag_214:\n      dup3\n      add\n      swap2\n      swap1\n      0x00\n      mstore\n      keccak256(0x00, 0x20)\n      swap1\n    tag_215:\n      dup2\n      sload\n      dup2\n      mstore\n      swap1\n      0x01\n      add\n      swap1\n      0x20\n      add\n      dup1\n      dup4\n      gt\n      tag_215\n      jumpi\n      dup3\n      swap1\n      sub\n      0x1f\n      and\n      dup3\n      add\n      swap2\n    tag_213:\n      pop\n      pop\n      pop\n      pop\n      pop\n      swap2\n      pop\n      dup1\n      dup1\n      sload\n      tag_216\n      swap1\n      tag_113\n      jump\t// in\n    tag_216:\n      dup1\n      0x1f\n      add\n      0x20\n      dup1\n      swap2\n      div\n      mul\n      0x20\n      add\n      mload(0x40)\n      swap1\n      dup2\n      add\n      0x40\n      mstore\n      dup1\n      swap3\n      swap2\n      swap1\n      dup2\n      dup2\n      mstore\n      0x20\n      add\n      dup3\n      dup1\n      sload\n      tag_217\n      swap1\n      tag_113\n      jump\t// in\n    tag_217:\n      dup1\n      iszero\n      tag_218\n      jumpi\n      dup1\n      0x1f\n      lt\n      tag_219\n      jumpi\n      0x0100\n      dup1\n      dup4\n      sload\n      div\n      mul\n      dup4\n      mstore\n      swap2\n      0x20\n      add\n      swap2\n      jump(tag_218)\n    tag_219:\n      dup3\n      add\n      swap2\n      swap1\n      0x00\n      mstore\n      keccak256(0x00, 0x20)\n      swap1\n    tag_220:\n      dup2\n      sload\n      dup2\n      mstore\n      swap1\n      0x01\n      add\n      swap1\n      0x20\n      add\n      dup1\n      dup4\n      gt\n      tag_220\n      jumpi\n      dup3\n      swap1\n      sub\n      0x1f\n      and\n      dup3\n      add\n      swap2\n    tag_218:\n      pop\n      pop\n      pop\n      pop\n      pop\n      swap1\n      pop\n      swap2\n      pop\n      swap2\n      pop\n        /* \"Test9.sol\":4077:4307  function getUserSchedule(uint256 index) external view returns (string memory, string memory) {... */\n      swap2\n      pop\n      swap2\n      jump\t// out\n        /* \"Test9.sol\":816:1583  function addUser(... */\n    tag_41:\n        /* \"Test9.sol\":1242:1261  User memory newUser */\n      0x00\n        /* \"Test9.sol\":1264:1547  User(... */\n      mload(0x40)\n      dup1\n      0x0160\n      add\n      0x40\n      mstore\n      dup1\n        /* \"Test9.sol\":1282:1287  _name */\n      dup14\n        /* \"Test9.sol\":1264:1547  User(... */\n      dup2\n      mstore\n      0x20\n      add\n        /* \"Test9.sol\":1301:1307  _email */\n      dup13\n        /* \"Test9.sol\":1264:1547  User(... */\n      dup2\n      mstore\n      0x20\n      add\n        /* \"Test9.sol\":1321:1326  _pass */\n      dup12\n        /* \"Test9.sol\":1264:1547  User(... */\n      dup2\n      mstore\n      0x20\n      add\n        /* \"Test9.sol\":1340:1350  _specialty */\n      dup11\n        /* \"Test9.sol\":1264:1547  User(... */\n      dup2\n      mstore\n      0x20\n      add\n        /* \"Test9.sol\":1364:1376  _phoneNumber */\n      dup10\n        /* \"Test9.sol\":1264:1547  User(... */\n      dup2\n      mstore\n      0x20\n      add\n        /* \"Test9.sol\":1390:1409  _professionalAddres */\n      dup9\n        /* \"Test9.sol\":1264:1547  User(... */\n      dup2\n      mstore\n      0x20\n      add\n        /* \"Test9.sol\":1423:1437  _countryRegion */\n      dup8\n        /* \"Test9.sol\":1264:1547  User(... */\n      dup2\n      mstore\n      0x20\n      add\n        /* \"Test9.sol\":1451:1466  _professionalID */\n      dup7\n        /* \"Test9.sol\":1264:1547  User(... */\n      dup2\n      mstore\n      0x20\n      add\n        /* \"Test9.sol\":1480:1486  _photo */\n      dup6\n        /* \"Test9.sol\":1264:1547  User(... */\n      dup2\n      mstore\n      0x20\n      add\n        /* \"Test9.sol\":1500:1518  _consultationHours */\n      dup5\n        /* \"Test9.sol\":1264:1547  User(... */\n      dup2\n      mstore\n      0x20\n      add\n        /* \"Test9.sol\":1532:1537  _fees */\n      dup4\n        /* \"Test9.sol\":1264:1547  User(... */\n      dup2\n      mstore\n      pop\n        /* \"Test9.sol\":1242:1547  User memory newUser = User(... */\n      swap1\n      pop\n        /* \"Test9.sol\":1557:1562  users */\n      0x00\n        /* \"Test9.sol\":1568:1575  newUser */\n      dup2\n        /* \"Test9.sol\":1557:1576  users.push(newUser) */\n      swap1\n      dup1\n      0x01\n      dup2\n      sload\n      add\n      dup1\n      dup3\n      sstore\n      dup1\n      swap2\n      pop\n      pop\n      0x01\n      swap1\n      sub\n      swap1\n      0x00\n      mstore\n      keccak256(0x00, 0x20)\n      swap1\n      0x0b\n      mul\n      add\n      0x00\n      swap1\n      swap2\n      swap1\n      swap2\n      swap1\n      swap2\n      pop\n      0x00\n      dup3\n      add\n      mload\n      dup2\n      0x00\n      add\n      swap1\n      dup2\n      tag_223\n      swap2\n      swap1\n      tag_79\n      jump\t// in\n    tag_223:\n      pop\n      0x20\n      dup3\n      add\n      mload\n      dup2\n      0x01\n      add\n      swap1\n      dup2\n      tag_224\n      swap2\n      swap1\n      tag_79\n      jump\t// in\n    tag_224:\n      pop\n      0x40\n      dup3\n      add\n      mload\n      dup2\n      0x02\n      add\n      swap1\n      dup2\n      tag_225\n      swap2\n      swap1\n      tag_79\n      jump\t// in\n    tag_225:\n      pop\n      0x60\n      dup3\n      add\n      mload\n      dup2\n      0x03\n      add\n      swap1\n      dup2\n      tag_226\n      swap2\n      swap1\n      tag_79\n      jump\t// in\n    tag_226:\n      pop\n      0x80\n      dup3\n      add\n      mload\n      dup2\n      0x04\n      add\n      swap1\n      dup2\n      tag_227\n      swap2\n      swap1\n      tag_79\n      jump\t// in\n    tag_227:\n      pop\n      0xa0\n      dup3\n      add\n      mload\n      dup2\n      0x05\n      add\n      swap1\n      dup2\n      tag_228\n      swap2\n      swap1\n      tag_79\n      jump\t// in\n    tag_228:\n      pop\n      0xc0\n      dup3\n      add\n      mload\n      dup2\n      0x06\n      add\n      swap1\n      dup2\n      tag_229\n      swap2\n      swap1\n      tag_79\n      jump\t// in\n    tag_229:\n      pop\n      0xe0\n      dup3\n      add\n      mload\n      dup2\n      0x07\n      add\n      swap1\n      dup2\n      tag_230\n      swap2\n      swap1\n      tag_79\n      jump\t// in\n    tag_230:\n      pop\n      0x0100\n      dup3\n      add\n      mload\n      dup2\n      0x08\n      add\n      swap1\n      dup2\n      tag_231\n      swap2\n      swap1\n      tag_79\n      jump\t// in\n    tag_231:\n      pop\n      0x0120\n      dup3\n      add\n      mload\n      dup2\n      0x09\n      add\n      swap1\n      dup2\n      tag_232\n      swap2\n      swap1\n      tag_79\n      jump\t// in\n    tag_232:\n      pop\n      0x0140\n      dup3\n      add\n      mload\n      dup2\n      0x0a\n      add\n      swap1\n      dup2\n      tag_233\n      swap2\n      swap1\n      tag_79\n      jump\t// in\n    tag_233:\n      pop\n      pop\n      pop\n        /* \"Test9.sol\":1232:1583  {... */\n      pop\n        /* \"Test9.sol\":816:1583  function addUser(... */\n      pop\n      pop\n      pop\n      pop\n      pop\n      pop\n      pop\n      pop\n      pop\n      pop\n      pop\n      jump\t// out\n        /* \"Test9.sol\":759:778  User[] public users */\n    tag_44:\n      0x00\n      dup2\n      dup2\n      sload\n      dup2\n      lt\n      tag_234\n      jumpi\n      0x00\n      dup1\n      revert\n    tag_234:\n      swap1\n      0x00\n      mstore\n      keccak256(0x00, 0x20)\n      swap1\n      0x0b\n      mul\n      add\n      0x00\n      swap2\n      pop\n      swap1\n      pop\n      dup1\n      0x00\n      add\n      dup1\n      sload\n      tag_236\n      swap1\n      tag_113\n      jump\t// in\n    tag_236:\n      dup1\n      0x1f\n      add\n      0x20\n      dup1\n      swap2\n      div\n      mul\n      0x20\n      add\n      mload(0x40)\n      swap1\n      dup2\n      add\n      0x40\n      mstore\n      dup1\n      swap3\n      swap2\n      swap1\n      dup2\n      dup2\n      mstore\n      0x20\n      add\n      dup3\n      dup1\n      sload\n      tag_237\n      swap1\n      tag_113\n      jump\t// in\n    tag_237:\n      dup1\n      iszero\n      tag_238\n      jumpi\n      dup1\n      0x1f\n      lt\n      tag_239\n      jumpi\n      0x0100\n      dup1\n      dup4\n      sload\n      div\n      mul\n      dup4\n      mstore\n      swap2\n      0x20\n      add\n      swap2\n      jump(tag_238)\n    tag_239:\n      dup3\n      add\n      swap2\n      swap1\n      0x00\n      mstore\n      keccak256(0x00, 0x20)\n      swap1\n    tag_240:\n      dup2\n      sload\n      dup2\n      mstore\n      swap1\n      0x01\n      add\n      swap1\n      0x20\n      add\n      dup1\n      dup4\n      gt\n      tag_240\n      jumpi\n      dup3\n      swap1\n      sub\n      0x1f\n      and\n      dup3\n      add\n      swap2\n    tag_238:\n      pop\n      pop\n      pop\n      pop\n      pop\n      swap1\n      dup1\n      0x01\n      add\n      dup1\n      sload\n      tag_241\n      swap1\n      tag_113\n      jump\t// in\n    tag_241:\n      dup1\n      0x1f\n      add\n      0x20\n      dup1\n      swap2\n      div\n      mul\n      0x20\n      add\n      mload(0x40)\n      swap1\n      dup2\n      add\n      0x40\n      mstore\n      dup1\n      swap3\n      swap2\n      swap1\n      dup2\n      dup2\n      mstore\n      0x20\n      add\n      dup3\n      dup1\n      sload\n      tag_242\n      swap1\n      tag_113\n      jump\t// in\n    tag_242:\n      dup1\n      iszero\n      tag_243\n      jumpi\n      dup1\n      0x1f\n      lt\n      tag_244\n      jumpi\n      0x0100\n      dup1\n      dup4\n      sload\n      div\n      mul\n      dup4\n      mstore\n      swap2\n      0x20\n      add\n      swap2\n      jump(tag_243)\n    tag_244:\n      dup3\n      add\n      swap2\n      swap1\n      0x00\n      mstore\n      keccak256(0x00, 0x20)\n      swap1\n    tag_245:\n      dup2\n      sload\n      dup2\n      mstore\n      swap1\n      0x01\n      add\n      swap1\n      0x20\n      add\n      dup1\n      dup4\n      gt\n      tag_245\n      jumpi\n      dup3\n      swap1\n      sub\n      0x1f\n      and\n      dup3\n      add\n      swap2\n    tag_243:\n      pop\n      pop\n      pop\n      pop\n      pop\n      swap1\n      dup1\n      0x02\n      add\n      dup1\n      sload\n      tag_246\n      swap1\n      tag_113\n      jump\t// in\n    tag_246:\n      dup1\n      0x1f\n      add\n      0x20\n      dup1\n      swap2\n      div\n      mul\n      0x20\n      add\n      mload(0x40)\n      swap1\n      dup2\n      add\n      0x40\n      mstore\n      dup1\n      swap3\n      swap2\n      swap1\n      dup2\n      dup2\n      mstore\n      0x20\n      add\n      dup3\n      dup1\n      sload\n      tag_247\n      swap1\n      tag_113\n      jump\t// in\n    tag_247:\n      dup1\n      iszero\n      tag_248\n      jumpi\n      dup1\n      0x1f\n      lt\n      tag_249\n      jumpi\n      0x0100\n      dup1\n      dup4\n      sload\n      div\n      mul\n      dup4\n      mstore\n      swap2\n      0x20\n      add\n      swap2\n      jump(tag_248)\n    tag_249:\n      dup3\n      add\n      swap2\n      swap1\n      0x00\n      mstore\n      keccak256(0x00, 0x20)\n      swap1\n    tag_250:\n      dup2\n      sload\n      dup2\n      mstore\n      swap1\n      0x01\n      add\n      swap1\n      0x20\n      add\n      dup1\n      dup4\n      gt\n      tag_250\n      jumpi\n      dup3\n      swap1\n      sub\n      0x1f\n      and\n      dup3\n      add\n      swap2\n    tag_248:\n      pop\n      pop\n      pop\n      pop\n      pop\n      swap1\n      dup1\n      0x03\n      add\n      dup1\n      sload\n      tag_251\n      swap1\n      tag_113\n      jump\t// in\n    tag_251:\n      dup1\n      0x1f\n      add\n      0x20\n      dup1\n      swap2\n      div\n      mul\n      0x20\n      add\n      mload(0x40)\n      swap1\n      dup2\n      add\n      0x40\n      mstore\n      dup1\n      swap3\n      swap2\n      swap1\n      dup2\n      dup2\n      mstore\n      0x20\n      add\n      dup3\n      dup1\n      sload\n      tag_252\n      swap1\n      tag_113\n      jump\t// in\n    tag_252:\n      dup1\n      iszero\n      tag_253\n      jumpi\n      dup1\n      0x1f\n      lt\n      tag_254\n      jumpi\n      0x0100\n      dup1\n      dup4\n      sload\n      div\n      mul\n      dup4\n      mstore\n      swap2\n      0x20\n      add\n      swap2\n      jump(tag_253)\n    tag_254:\n      dup3\n      add\n      swap2\n      swap1\n      0x00\n      mstore\n      keccak256(0x00, 0x20)\n      swap1\n    tag_255:\n      dup2\n      sload\n      dup2\n      mstore\n      swap1\n      0x01\n      add\n      swap1\n      0x20\n      add\n      dup1\n      dup4\n      gt\n      tag_255\n      jumpi\n      dup3\n      swap1\n      sub\n      0x1f\n      and\n      dup3\n      add\n      swap2\n    tag_253:\n      pop\n      pop\n      pop\n      pop\n      pop\n      swap1\n      dup1\n      0x04\n      add\n      dup1\n      sload\n      tag_256\n      swap1\n      tag_113\n      jump\t// in\n    tag_256:\n      dup1\n      0x1f\n      add\n      0x20\n      dup1\n      swap2\n      div\n      mul\n      0x20\n      add\n      mload(0x40)\n      swap1\n      dup2\n      add\n      0x40\n      mstore\n      dup1\n      swap3\n      swap2\n      swap1\n      dup2\n      dup2\n      mstore\n      0x20\n      add\n      dup3\n      dup1\n      sload\n      tag_257\n      swap1\n      tag_113\n      jump\t// in\n    tag_257:\n      dup1\n      iszero\n      tag_258\n      jumpi\n      dup1\n      0x1f\n      lt\n      tag_259\n      jumpi\n      0x0100\n      dup1\n      dup4\n      sload\n      div\n      mul\n      dup4\n      mstore\n      swap2\n      0x20\n      add\n      swap2\n      jump(tag_258)\n    tag_259:\n      dup3\n      add\n      swap2\n      swap1\n      0x00\n      mstore\n      keccak256(0x00, 0x20)\n      swap1\n    tag_260:\n      dup2\n      sload\n      dup2\n      mstore\n      swap1\n      0x01\n      add\n      swap1\n      0x20\n      add\n      dup1\n      dup4\n      gt\n      tag_260\n      jumpi\n      dup3\n      swap1\n      sub\n      0x1f\n      and\n      dup3\n      add\n      swap2\n    tag_258:\n      pop\n      pop\n      pop\n      pop\n      pop\n      swap1\n      dup1\n      0x05\n      add\n      dup1\n      sload\n      tag_261\n      swap1\n      tag_113\n      jump\t// in\n    tag_261:\n      dup1\n      0x1f\n      add\n      0x20\n      dup1\n      swap2\n      div\n      mul\n      0x20\n      add\n      mload(0x40)\n      swap1\n      dup2\n      add\n      0x40\n      mstore\n      dup1\n      swap3\n      swap2\n      swap1\n      dup2\n      dup2\n      mstore\n      0x20\n      add\n      dup3\n      dup1\n      sload\n      tag_262\n      swap1\n      tag_113\n      jump\t// in\n    tag_262:\n      dup1\n      iszero\n      tag_263\n      jumpi\n      dup1\n      0x1f\n      lt\n      tag_264\n      jumpi\n      0x0100\n      dup1\n      dup4\n      sload\n      div\n      mul\n      dup4\n      mstore\n      swap2\n      0x20\n      add\n      swap2\n      jump(tag_263)\n    tag_264:\n      dup3\n      add\n      swap2\n      swap1\n      0x00\n      mstore\n      keccak256(0x00, 0x20)\n      swap1\n    tag_265:\n      dup2\n      sload\n      dup2\n      mstore\n      swap1\n      0x01\n      add\n      swap1\n      0x20\n      add\n      dup1\n      dup4\n      gt\n      tag_265\n      jumpi\n      dup3\n      swap1\n      sub\n      0x1f\n      and\n      dup3\n      add\n      swap2\n    tag_263:\n      pop\n      pop\n      pop\n      pop\n      pop\n      swap1\n      dup1\n      0x06\n      add\n      dup1\n      sload\n      tag_266\n      swap1\n      tag_113\n      jump\t// in\n    tag_266:\n      dup1\n      0x1f\n      add\n      0x20\n      dup1\n      swap2\n      div\n      mul\n      0x20\n      add\n      mload(0x40)\n      swap1\n      dup2\n      add\n      0x40\n      mstore\n      dup1\n      swap3\n      swap2\n      swap1\n      dup2\n      dup2\n      mstore\n      0x20\n      add\n      dup3\n      dup1\n      sload\n      tag_267\n      swap1\n      tag_113\n      jump\t// in\n    tag_267:\n      dup1\n      iszero\n      tag_268\n      jumpi\n      dup1\n      0x1f\n      lt\n      tag_269\n      jumpi\n      0x0100\n      dup1\n      dup4\n      sload\n      div\n      mul\n      dup4\n      mstore\n      swap2\n      0x20\n      add\n      swap2\n      jump(tag_268)\n    tag_269:\n      dup3\n      add\n      swap2\n      swap1\n      0x00\n      mstore\n      keccak256(0x00, 0x20)\n      swap1\n    tag_270:\n      dup2\n      sload\n      dup2\n      mstore\n      swap1\n      0x01\n      add\n      swap1\n      0x20\n      add\n      dup1\n      dup4\n      gt\n      tag_270\n      jumpi\n      dup3\n      swap1\n      sub\n      0x1f\n      and\n      dup3\n      add\n      swap2\n    tag_268:\n      pop\n      pop\n      pop\n      pop\n      pop\n      swap1\n      dup1\n      0x07\n      add\n      dup1\n      sload\n      tag_271\n      swap1\n      tag_113\n      jump\t// in\n    tag_271:\n      dup1\n      0x1f\n      add\n      0x20\n      dup1\n      swap2\n      div\n      mul\n      0x20\n      add\n      mload(0x40)\n      swap1\n      dup2\n      add\n      0x40\n      mstore\n      dup1\n      swap3\n      swap2\n      swap1\n      dup2\n      dup2\n      mstore\n      0x20\n      add\n      dup3\n      dup1\n      sload\n      tag_272\n      swap1\n      tag_113\n      jump\t// in\n    tag_272:\n      dup1\n      iszero\n      tag_273\n      jumpi\n      dup1\n      0x1f\n      lt\n      tag_274\n      jumpi\n      0x0100\n      dup1\n      dup4\n      sload\n      div\n      mul\n      dup4\n      mstore\n      swap2\n      0x20\n      add\n      swap2\n      jump(tag_273)\n    tag_274:\n      dup3\n      add\n      swap2\n      swap1\n      0x00\n      mstore\n      keccak256(0x00, 0x20)\n      swap1\n    tag_275:\n      dup2\n      sload\n      dup2\n      mstore\n      swap1\n      0x01\n      add\n      swap1\n      0x20\n      add\n      dup1\n      dup4\n      gt\n      tag_275\n      jumpi\n      dup3\n      swap1\n      sub\n      0x1f\n      and\n      dup3\n      add\n      swap2\n    tag_273:\n      pop\n      pop\n      pop\n      pop\n      pop\n      swap1\n      dup1\n      0x08\n      add\n      dup1\n      sload\n      tag_276\n      swap1\n      tag_113\n      jump\t// in\n    tag_276:\n      dup1\n      0x1f\n      add\n      0x20\n      dup1\n      swap2\n      div\n      mul\n      0x20\n      add\n      mload(0x40)\n      swap1\n      dup2\n      add\n      0x40\n      mstore\n      dup1\n      swap3\n      swap2\n      swap1\n      dup2\n      dup2\n      mstore\n      0x20\n      add\n      dup3\n      dup1\n      sload\n      tag_277\n      swap1\n      tag_113\n      jump\t// in\n    tag_277:\n      dup1\n      iszero\n      tag_278\n      jumpi\n      dup1\n      0x1f\n      lt\n      tag_279\n      jumpi\n      0x0100\n      dup1\n      dup4\n      sload\n      div\n      mul\n      dup4\n      mstore\n      swap2\n      0x20\n      add\n      swap2\n      jump(tag_278)\n    tag_279:\n      dup3\n      add\n      swap2\n      swap1\n      0x00\n      mstore\n      keccak256(0x00, 0x20)\n      swap1\n    tag_280:\n      dup2\n      sload\n      dup2\n      mstore\n      swap1\n      0x01\n      add\n      swap1\n      0x20\n      add\n      dup1\n      dup4\n      gt\n      tag_280\n      jumpi\n      dup3\n      swap1\n      sub\n      0x1f\n      and\n      dup3\n      add\n      swap2\n    tag_278:\n      pop\n      pop\n      pop\n      pop\n      pop\n      swap1\n      dup1\n      0x09\n      add\n      dup1\n      sload\n      tag_281\n      swap1\n      tag_113\n      jump\t// in\n    tag_281:\n      dup1\n      0x1f\n      add\n      0x20\n      dup1\n      swap2\n      div\n      mul\n      0x20\n      add\n      mload(0x40)\n      swap1\n      dup2\n      add\n      0x40\n      mstore\n      dup1\n      swap3\n      swap2\n      swap1\n      dup2\n      dup2\n      mstore\n      0x20\n      add\n      dup3\n      dup1\n      sload\n      tag_282\n      swap1\n      tag_113\n      jump\t// in\n    tag_282:\n      dup1\n      iszero\n      tag_283\n      jumpi\n      dup1\n      0x1f\n      lt\n      tag_284\n      jumpi\n      0x0100\n      dup1\n      dup4\n      sload\n      div\n      mul\n      dup4\n      mstore\n      swap2\n      0x20\n      add\n      swap2\n      jump(tag_283)\n    tag_284:\n      dup3\n      add\n      swap2\n      swap1\n      0x00\n      mstore\n      keccak256(0x00, 0x20)\n      swap1\n    tag_285:\n      dup2\n      sload\n      dup2\n      mstore\n      swap1\n      0x01\n      add\n      swap1\n      0x20\n      add\n      dup1\n      dup4\n      gt\n      tag_285\n      jumpi\n      dup3\n      swap1\n      sub\n      0x1f\n      and\n      dup3\n      add\n      swap2\n    tag_283:\n      pop\n      pop\n      pop\n      pop\n      pop\n      swap1\n      dup1\n      0x0a\n      add\n      dup1\n      sload\n      tag_286\n      swap1\n      tag_113\n      jump\t// in\n    tag_286:\n      dup1\n      0x1f\n      add\n      0x20\n      dup1\n      swap2\n      div\n      mul\n      0x20\n      add\n      mload(0x40)\n      swap1\n      dup2\n      add\n      0x40\n      mstore\n      dup1\n      swap3\n      swap2\n      swap1\n      dup2\n      dup2\n      mstore\n      0x20\n      add\n      dup3\n      dup1\n      sload\n      tag_287\n      swap1\n      tag_113\n      jump\t// in\n    tag_287:\n      dup1\n      iszero\n      tag_288\n      jumpi\n      dup1\n      0x1f\n      lt\n      tag_289\n      jumpi\n      0x0100\n      dup1\n      dup4\n      sload\n      div\n      mul\n      dup4\n      mstore\n      swap2\n      0x20\n      add\n      swap2\n      jump(tag_288)\n    tag_289:\n      dup3\n      add\n      swap2\n      swap1\n      0x00\n      mstore\n      keccak256(0x00, 0x20)\n      swap1\n    tag_290:\n      dup2\n      sload\n      dup2\n      mstore\n      swap1\n      0x01\n      add\n      swap1\n      0x20\n      add\n      dup1\n      dup4\n      gt\n      tag_290\n      jumpi\n      dup3\n      swap1\n      sub\n      0x1f\n      and\n      dup3\n      add\n      swap2\n    tag_288:\n      pop\n      pop\n      pop\n      pop\n      pop\n      swap1\n      pop\n      dup12\n      jump\t// out\n        /* \"Test9.sol\":3413:3666  function getUserBasicInfo(uint256 index) external view returns (string memory, string memory, string memory) {... */\n    tag_49:\n        /* \"Test9.sol\":3477:3490  string memory */\n      0x60\n        /* \"Test9.sol\":3492:3505  string memory */\n      dup1\n        /* \"Test9.sol\":3507:3520  string memory */\n      0x60\n        /* \"Test9.sol\":3548:3553  users */\n      0x00\n        /* \"Test9.sol\":3548:3560  users.length */\n      dup1\n      sload\n      swap1\n      pop\n        /* \"Test9.sol\":3540:3545  index */\n      dup5\n        /* \"Test9.sol\":3540:3560  index < users.length */\n      lt\n        /* \"Test9.sol\":3532:3584  require(index < users.length, \"Index out of bounds\") */\n      tag_292\n      jumpi\n      mload(0x40)\n      0x08c379a000000000000000000000000000000000000000000000000000000000\n      dup2\n      mstore\n      0x04\n      add\n      tag_293\n      swap1\n      tag_92\n      jump\t// in\n    tag_293:\n      mload(0x40)\n      dup1\n      swap2\n      sub\n      swap1\n      revert\n    tag_292:\n        /* \"Test9.sol\":3602:3607  users */\n      0x00\n        /* \"Test9.sol\":3608:3613  index */\n      dup5\n        /* \"Test9.sol\":3602:3614  users[index] */\n      dup2\n      sload\n      dup2\n      lt\n      tag_294\n      jumpi\n      tag_295\n      tag_95\n      jump\t// in\n    tag_295:\n    tag_294:\n      swap1\n      0x00\n      mstore\n      keccak256(0x00, 0x20)\n      swap1\n      0x0b\n      mul\n      add\n        /* \"Test9.sol\":3602:3619  users[index].name */\n      0x00\n      add\n        /* \"Test9.sol\":3621:3626  users */\n      0x00\n        /* \"Test9.sol\":3627:3632  index */\n      dup6\n        /* \"Test9.sol\":3621:3633  users[index] */\n      dup2\n      sload\n      dup2\n      lt\n      tag_297\n      jumpi\n      tag_298\n      tag_95\n      jump\t// in\n    tag_298:\n    tag_297:\n      swap1\n      0x00\n      mstore\n      keccak256(0x00, 0x20)\n      swap1\n      0x0b\n      mul\n      add\n        /* \"Test9.sol\":3621:3639  users[index].email */\n      0x01\n      add\n        /* \"Test9.sol\":3641:3646  users */\n      0x00\n        /* \"Test9.sol\":3647:3652  index */\n      dup7\n        /* \"Test9.sol\":3641:3653  users[index] */\n      dup2\n      sload\n      dup2\n      lt\n      tag_300\n      jumpi\n      tag_301\n      tag_95\n      jump\t// in\n    tag_301:\n    tag_300:\n      swap1\n      0x00\n      mstore\n      keccak256(0x00, 0x20)\n      swap1\n      0x0b\n      mul\n      add\n        /* \"Test9.sol\":3641:3658  users[index].pass */\n      0x02\n      add\n        /* \"Test9.sol\":3594:3659  return (users[index].name, users[index].email, users[index].pass) */\n      dup3\n      dup1\n      sload\n      tag_303\n      swap1\n      tag_113\n      jump\t// in\n    tag_303:\n      dup1\n      0x1f\n      add\n      0x20\n      dup1\n      swap2\n      div\n      mul\n      0x20\n      add\n      mload(0x40)\n      swap1\n      dup2\n      add\n      0x40\n      mstore\n      dup1\n      swap3\n      swap2\n      swap1\n      dup2\n      dup2\n      mstore\n      0x20\n      add\n      dup3\n      dup1\n      sload\n      tag_304\n      swap1\n      tag_113\n      jump\t// in\n    tag_304:\n      dup1\n      iszero\n      tag_305\n      jumpi\n      dup1\n      0x1f\n      lt\n      tag_306\n      jumpi\n      0x0100\n      dup1\n      dup4\n      sload\n      div\n      mul\n      dup4\n      mstore\n      swap2\n      0x20\n      add\n      swap2\n      jump(tag_305)\n    tag_306:\n      dup3\n      add\n      swap2\n      swap1\n      0x00\n      mstore\n      keccak256(0x00, 0x20)\n      swap1\n    tag_307:\n      dup2\n      sload\n      dup2\n      mstore\n      swap1\n      0x01\n      add\n      swap1\n      0x20\n      add\n      dup1\n      dup4\n      gt\n      tag_307\n      jumpi\n      dup3\n      swap1\n      sub\n      0x1f\n      and\n      dup3\n      add\n      swap2\n    tag_305:\n      pop\n      pop\n      pop\n      pop\n      pop\n      swap3\n      pop\n      dup2\n      dup1\n      sload\n      tag_308\n      swap1\n      tag_113\n      jump\t// in\n    tag_308:\n      dup1\n      0x1f\n      add\n      0x20\n      dup1\n      swap2\n      div\n      mul\n      0x20\n      add\n      mload(0x40)\n      swap1\n      dup2\n      add\n      0x40\n      mstore\n      dup1\n      swap3\n      swap2\n      swap1\n      dup2\n      dup2\n      mstore\n      0x20\n      add\n      dup3\n      dup1\n      sload\n      tag_309\n      swap1\n      tag_113\n      jump\t// in\n    tag_309:\n      dup1\n      iszero\n      tag_310\n      jumpi\n      dup1\n      0x1f\n      lt\n      tag_311\n      jumpi\n      0x0100\n      dup1\n      dup4\n      sload\n      div\n      mul\n      dup4\n      mstore\n      swap2\n      0x20\n      add\n      swap2\n      jump(tag_310)\n    tag_311:\n      dup3\n      add\n      swap2\n      swap1\n      0x00\n      mstore\n      keccak256(0x00, 0x20)\n      swap1\n    tag_312:\n      dup2\n      sload\n      dup2\n      mstore\n      swap1\n      0x01\n      add\n      swap1\n      0x20\n      add\n      dup1\n      dup4\n      gt\n      tag_312\n      jumpi\n      dup3\n      swap1\n      sub\n      0x1f\n      and\n      dup3\n      add\n      swap2\n    tag_310:\n      pop\n      pop\n      pop\n      pop\n      pop\n      swap2\n      pop\n      dup1\n      dup1\n      sload\n      tag_313\n      swap1\n      tag_113\n      jump\t// in\n    tag_313:\n      dup1\n      0x1f\n      add\n      0x20\n      dup1\n      swap2\n      div\n      mul\n      0x20\n      add\n      mload(0x40)\n      swap1\n      dup2\n      add\n      0x40\n      mstore\n      dup1\n      swap3\n      swap2\n      swap1\n      dup2\n      dup2\n      mstore\n      0x20\n      add\n      dup3\n      dup1\n      sload\n      tag_314\n      swap1\n      tag_113\n      jump\t// in\n    tag_314:\n      dup1\n      iszero\n      tag_315\n      jumpi\n      dup1\n      0x1f\n      lt\n      tag_316\n      jumpi\n      0x0100\n      dup1\n      dup4\n      sload\n      div\n      mul\n      dup4\n      mstore\n      swap2\n      0x20\n      add\n      swap2\n      jump(tag_315)\n    tag_316:\n      dup3\n      add\n      swap2\n      swap1\n      0x00\n      mstore\n      keccak256(0x00, 0x20)\n      swap1\n    tag_317:\n      dup2\n      sload\n      dup2\n      mstore\n      swap1\n      0x01\n      add\n      swap1\n      0x20\n      add\n      dup1\n      dup4\n      gt\n      tag_317\n      jumpi\n      dup3\n      swap1\n      sub\n      0x1f\n      and\n      dup3\n      add\n      swap2\n    tag_315:\n      pop\n      pop\n      pop\n      pop\n      pop\n      swap1\n      pop\n      swap3\n      pop\n      swap3\n      pop\n      swap3\n      pop\n        /* \"Test9.sol\":3413:3666  function getUserBasicInfo(uint256 index) external view returns (string memory, string memory, string memory) {... */\n      swap2\n      swap4\n      swap1\n      swap3\n      pop\n      jump\t// out\n        /* \"Test9.sol\":5063:5160  function patientsLength() external view returns (uint256) {... */\n    tag_53:\n        /* \"Test9.sol\":5112:5119  uint256 */\n      0x00\n        /* \"Test9.sol\":5138:5146  patients */\n      0x01\n        /* \"Test9.sol\":5138:5153  patients.length */\n      dup1\n      sload\n      swap1\n      pop\n        /* \"Test9.sol\":5131:5153  return patients.length */\n      swap1\n      pop\n        /* \"Test9.sol\":5063:5160  function patientsLength() external view returns (uint256) {... */\n      swap1\n      jump\t// out\n        /* \"Test9.sol\":784:809  Patient[] public patients */\n    tag_58:\n      0x01\n      dup2\n      dup2\n      sload\n      dup2\n      lt\n      tag_319\n      jumpi\n      0x00\n      dup1\n      revert\n    tag_319:\n      swap1\n      0x00\n      mstore\n      keccak256(0x00, 0x20)\n      swap1\n      0x0a\n      mul\n      add\n      0x00\n      swap2\n      pop\n      swap1\n      pop\n      dup1\n      0x00\n      add\n      dup1\n      sload\n      tag_321\n      swap1\n      tag_113\n      jump\t// in\n    tag_321:\n      dup1\n      0x1f\n      add\n      0x20\n      dup1\n      swap2\n      div\n      mul\n      0x20\n      add\n      mload(0x40)\n      swap1\n      dup2\n      add\n      0x40\n      mstore\n      dup1\n      swap3\n      swap2\n      swap1\n      dup2\n      dup2\n      mstore\n      0x20\n      add\n      dup3\n      dup1\n      sload\n      tag_322\n      swap1\n      tag_113\n      jump\t// in\n    tag_322:\n      dup1\n      iszero\n      tag_323\n      jumpi\n      dup1\n      0x1f\n      lt\n      tag_324\n      jumpi\n      0x0100\n      dup1\n      dup4\n      sload\n      div\n      mul\n      dup4\n      mstore\n      swap2\n      0x20\n      add\n      swap2\n      jump(tag_323)\n    tag_324:\n      dup3\n      add\n      swap2\n      swap1\n      0x00\n      mstore\n      keccak256(0x00, 0x20)\n      swap1\n    tag_325:\n      dup2\n      sload\n      dup2\n      mstore\n      swap1\n      0x01\n      add\n      swap1\n      0x20\n      add\n      dup1\n      dup4\n      gt\n      tag_325\n      jumpi\n      dup3\n      swap1\n      sub\n      0x1f\n      and\n      dup3\n      add\n      swap2\n    tag_323:\n      pop\n      pop\n      pop\n      pop\n      pop\n      swap1\n      dup1\n      0x01\n      add\n      dup1\n      sload\n      tag_326\n      swap1\n      tag_113\n      jump\t// in\n    tag_326:\n      dup1\n      0x1f\n      add\n      0x20\n      dup1\n      swap2\n      div\n      mul\n      0x20\n      add\n      mload(0x40)\n      swap1\n      dup2\n      add\n      0x40\n      mstore\n      dup1\n      swap3\n      swap2\n      swap1\n      dup2\n      dup2\n      mstore\n      0x20\n      add\n      dup3\n      dup1\n      sload\n      tag_327\n      swap1\n      tag_113\n      jump\t// in\n    tag_327:\n      dup1\n      iszero\n      tag_328\n      jumpi\n      dup1\n      0x1f\n      lt\n      tag_329\n      jumpi\n      0x0100\n      dup1\n      dup4\n      sload\n      div\n      mul\n      dup4\n      mstore\n      swap2\n      0x20\n      add\n      swap2\n      jump(tag_328)\n    tag_329:\n      dup3\n      add\n      swap2\n      swap1\n      0x00\n      mstore\n      keccak256(0x00, 0x20)\n      swap1\n    tag_330:\n      dup2\n      sload\n      dup2\n      mstore\n      swap1\n      0x01\n      add\n      swap1\n      0x20\n      add\n      dup1\n      dup4\n      gt\n      tag_330\n      jumpi\n      dup3\n      swap1\n      sub\n      0x1f\n      and\n      dup3\n      add\n      swap2\n    tag_328:\n      pop\n      pop\n      pop\n      pop\n      pop\n      swap1\n      dup1\n      0x02\n      add\n      dup1\n      sload\n      tag_331\n      swap1\n      tag_113\n      jump\t// in\n    tag_331:\n      dup1\n      0x1f\n      add\n      0x20\n      dup1\n      swap2\n      div\n      mul\n      0x20\n      add\n      mload(0x40)\n      swap1\n      dup2\n      add\n      0x40\n      mstore\n      dup1\n      swap3\n      swap2\n      swap1\n      dup2\n      dup2\n      mstore\n      0x20\n      add\n      dup3\n      dup1\n      sload\n      tag_332\n      swap1\n      tag_113\n      jump\t// in\n    tag_332:\n      dup1\n      iszero\n      tag_333\n      jumpi\n      dup1\n      0x1f\n      lt\n      tag_334\n      jumpi\n      0x0100\n      dup1\n      dup4\n      sload\n      div\n      mul\n      dup4\n      mstore\n      swap2\n      0x20\n      add\n      swap2\n      jump(tag_333)\n    tag_334:\n      dup3\n      add\n      swap2\n      swap1\n      0x00\n      mstore\n      keccak256(0x00, 0x20)\n      swap1\n    tag_335:\n      dup2\n      sload\n      dup2\n      mstore\n      swap1\n      0x01\n      add\n      swap1\n      0x20\n      add\n      dup1\n      dup4\n      gt\n      tag_335\n      jumpi\n      dup3\n      swap1\n      sub\n      0x1f\n      and\n      dup3\n      add\n      swap2\n    tag_333:\n      pop\n      pop\n      pop\n      pop\n      pop\n      swap1\n      dup1\n      0x03\n      add\n      dup1\n      sload\n      tag_336\n      swap1\n      tag_113\n      jump\t// in\n    tag_336:\n      dup1\n      0x1f\n      add\n      0x20\n      dup1\n      swap2\n      div\n      mul\n      0x20\n      add\n      mload(0x40)\n      swap1\n      dup2\n      add\n      0x40\n      mstore\n      dup1\n      swap3\n      swap2\n      swap1\n      dup2\n      dup2\n      mstore\n      0x20\n      add\n      dup3\n      dup1\n      sload\n      tag_337\n      swap1\n      tag_113\n      jump\t// in\n    tag_337:\n      dup1\n      iszero\n      tag_338\n      jumpi\n      dup1\n      0x1f\n      lt\n      tag_339\n      jumpi\n      0x0100\n      dup1\n      dup4\n      sload\n      div\n      mul\n      dup4\n      mstore\n      swap2\n      0x20\n      add\n      swap2\n      jump(tag_338)\n    tag_339:\n      dup3\n      add\n      swap2\n      swap1\n      0x00\n      mstore\n      keccak256(0x00, 0x20)\n      swap1\n    tag_340:\n      dup2\n      sload\n      dup2\n      mstore\n      swap1\n      0x01\n      add\n      swap1\n      0x20\n      add\n      dup1\n      dup4\n      gt\n      tag_340\n      jumpi\n      dup3\n      swap1\n      sub\n      0x1f\n      and\n      dup3\n      add\n      swap2\n    tag_338:\n      pop\n      pop\n      pop\n      pop\n      pop\n      swap1\n      dup1\n      0x04\n      add\n      dup1\n      sload\n      tag_341\n      swap1\n      tag_113\n      jump\t// in\n    tag_341:\n      dup1\n      0x1f\n      add\n      0x20\n      dup1\n      swap2\n      div\n      mul\n      0x20\n      add\n      mload(0x40)\n      swap1\n      dup2\n      add\n      0x40\n      mstore\n      dup1\n      swap3\n      swap2\n      swap1\n      dup2\n      dup2\n      mstore\n      0x20\n      add\n      dup3\n      dup1\n      sload\n      tag_342\n      swap1\n      tag_113\n      jump\t// in\n    tag_342:\n      dup1\n      iszero\n      tag_343\n      jumpi\n      dup1\n      0x1f\n      lt\n      tag_344\n      jumpi\n      0x0100\n      dup1\n      dup4\n      sload\n      div\n      mul\n      dup4\n      mstore\n      swap2\n      0x20\n      add\n      swap2\n      jump(tag_343)\n    tag_344:\n      dup3\n      add\n      swap2\n      swap1\n      0x00\n      mstore\n      keccak256(0x00, 0x20)\n      swap1\n    tag_345:\n      dup2\n      sload\n      dup2\n      mstore\n      swap1\n      0x01\n      add\n      swap1\n      0x20\n      add\n      dup1\n      dup4\n      gt\n      tag_345\n      jumpi\n      dup3\n      swap1\n      sub\n      0x1f\n      and\n      dup3\n      add\n      swap2\n    tag_343:\n      pop\n      pop\n      pop\n      pop\n      pop\n      swap1\n      dup1\n      0x05\n      add\n      dup1\n      sload\n      tag_346\n      swap1\n      tag_113\n      jump\t// in\n    tag_346:\n      dup1\n      0x1f\n      add\n      0x20\n      dup1\n      swap2\n      div\n      mul\n      0x20\n      add\n      mload(0x40)\n      swap1\n      dup2\n      add\n      0x40\n      mstore\n      dup1\n      swap3\n      swap2\n      swap1\n      dup2\n      dup2\n      mstore\n      0x20\n      add\n      dup3\n      dup1\n      sload\n      tag_347\n      swap1\n      tag_113\n      jump\t// in\n    tag_347:\n      dup1\n      iszero\n      tag_348\n      jumpi\n      dup1\n      0x1f\n      lt\n      tag_349\n      jumpi\n      0x0100\n      dup1\n      dup4\n      sload\n      div\n      mul\n      dup4\n      mstore\n      swap2\n      0x20\n      add\n      swap2\n      jump(tag_348)\n    tag_349:\n      dup3\n      add\n      swap2\n      swap1\n      0x00\n      mstore\n      keccak256(0x00, 0x20)\n      swap1\n    tag_350:\n      dup2\n      sload\n      dup2\n      mstore\n      swap1\n      0x01\n      add\n      swap1\n      0x20\n      add\n      dup1\n      dup4\n      gt\n      tag_350\n      jumpi\n      dup3\n      swap1\n      sub\n      0x1f\n      and\n      dup3\n      add\n      swap2\n    tag_348:\n      pop\n      pop\n      pop\n      pop\n      pop\n      swap1\n      dup1\n      0x06\n      add\n      dup1\n      sload\n      tag_351\n      swap1\n      tag_113\n      jump\t// in\n    tag_351:\n      dup1\n      0x1f\n      add\n      0x20\n      dup1\n      swap2\n      div\n      mul\n      0x20\n      add\n      mload(0x40)\n      swap1\n      dup2\n      add\n      0x40\n      mstore\n      dup1\n      swap3\n      swap2\n      swap1\n      dup2\n      dup2\n      mstore\n      0x20\n      add\n      dup3\n      dup1\n      sload\n      tag_352\n      swap1\n      tag_113\n      jump\t// in\n    tag_352:\n      dup1\n      iszero\n      tag_353\n      jumpi\n      dup1\n      0x1f\n      lt\n      tag_354\n      jumpi\n      0x0100\n      dup1\n      dup4\n      sload\n      div\n      mul\n      dup4\n      mstore\n      swap2\n      0x20\n      add\n      swap2\n      jump(tag_353)\n    tag_354:\n      dup3\n      add\n      swap2\n      swap1\n      0x00\n      mstore\n      keccak256(0x00, 0x20)\n      swap1\n    tag_355:\n      dup2\n      sload\n      dup2\n      mstore\n      swap1\n      0x01\n      add\n      swap1\n      0x20\n      add\n      dup1\n      dup4\n      gt\n      tag_355\n      jumpi\n      dup3\n      swap1\n      sub\n      0x1f\n      and\n      dup3\n      add\n      swap2\n    tag_353:\n      pop\n      pop\n      pop\n      pop\n      pop\n      swap1\n      dup1\n      0x07\n      add\n      dup1\n      sload\n      tag_356\n      swap1\n      tag_113\n      jump\t// in\n    tag_356:\n      dup1\n      0x1f\n      add\n      0x20\n      dup1\n      swap2\n      div\n      mul\n      0x20\n      add\n      mload(0x40)\n      swap1\n      dup2\n      add\n      0x40\n      mstore\n      dup1\n      swap3\n      swap2\n      swap1\n      dup2\n      dup2\n      mstore\n      0x20\n      add\n      dup3\n      dup1\n      sload\n      tag_357\n      swap1\n      tag_113\n      jump\t// in\n    tag_357:\n      dup1\n      iszero\n      tag_358\n      jumpi\n      dup1\n      0x1f\n      lt\n      tag_359\n      jumpi\n      0x0100\n      dup1\n      dup4\n      sload\n      div\n      mul\n      dup4\n      mstore\n      swap2\n      0x20\n      add\n      swap2\n      jump(tag_358)\n    tag_359:\n      dup3\n      add\n      swap2\n      swap1\n      0x00\n      mstore\n      keccak256(0x00, 0x20)\n      swap1\n    tag_360:\n      dup2\n      sload\n      dup2\n      mstore\n      swap1\n      0x01\n      add\n      swap1\n      0x20\n      add\n      dup1\n      dup4\n      gt\n      tag_360\n      jumpi\n      dup3\n      swap1\n      sub\n      0x1f\n      and\n      dup3\n      add\n      swap2\n    tag_358:\n      pop\n      pop\n      pop\n      pop\n      pop\n      swap1\n      dup1\n      0x08\n      add\n      dup1\n      sload\n      tag_361\n      swap1\n      tag_113\n      jump\t// in\n    tag_361:\n      dup1\n      0x1f\n      add\n      0x20\n      dup1\n      swap2\n      div\n      mul\n      0x20\n      add\n      mload(0x40)\n      swap1\n      dup2\n      add\n      0x40\n      mstore\n      dup1\n      swap3\n      swap2\n      swap1\n      dup2\n      dup2\n      mstore\n      0x20\n      add\n      dup3\n      dup1\n      sload\n      tag_362\n      swap1\n      tag_113\n      jump\t// in\n    tag_362:\n      dup1\n      iszero\n      tag_363\n      jumpi\n      dup1\n      0x1f\n      lt\n      tag_364\n      jumpi\n      0x0100\n      dup1\n      dup4\n      sload\n      div\n      mul\n      dup4\n      mstore\n      swap2\n      0x20\n      add\n      swap2\n      jump(tag_363)\n    tag_364:\n      dup3\n      add\n      swap2\n      swap1\n      0x00\n      mstore\n      keccak256(0x00, 0x20)\n      swap1\n    tag_365:\n      dup2\n      sload\n      dup2\n      mstore\n      swap1\n      0x01\n      add\n      swap1\n      0x20\n      add\n      dup1\n      dup4\n      gt\n      tag_365\n      jumpi\n      dup3\n      swap1\n      sub\n      0x1f\n      and\n      dup3\n      add\n      swap2\n    tag_363:\n      pop\n      pop\n      pop\n      pop\n      pop\n      swap1\n      dup1\n      0x09\n      add\n      dup1\n      sload\n      tag_366\n      swap1\n      tag_113\n      jump\t// in\n    tag_366:\n      dup1\n      0x1f\n      add\n      0x20\n      dup1\n      swap2\n      div\n      mul\n      0x20\n      add\n      mload(0x40)\n      swap1\n      dup2\n      add\n      0x40\n      mstore\n      dup1\n      swap3\n      swap2\n      swap1\n      dup2\n      dup2\n      mstore\n      0x20\n      add\n      dup3\n      dup1\n      sload\n      tag_367\n      swap1\n      tag_113\n      jump\t// in\n    tag_367:\n      dup1\n      iszero\n      tag_368\n      jumpi\n      dup1\n      0x1f\n      lt\n      tag_369\n      jumpi\n      0x0100\n      dup1\n      dup4\n      sload\n      div\n      mul\n      dup4\n      mstore\n      swap2\n      0x20\n      add\n      swap2\n      jump(tag_368)\n    tag_369:\n      dup3\n      add\n      swap2\n      swap1\n      0x00\n      mstore\n      keccak256(0x00, 0x20)\n      swap1\n    tag_370:\n      dup2\n      sload\n      dup2\n      mstore\n      swap1\n      0x01\n      add\n      swap1\n      0x20\n      add\n      dup1\n      dup4\n      gt\n      tag_370\n      jumpi\n      dup3\n      swap1\n      sub\n      0x1f\n      and\n      dup3\n      add\n      swap2\n    tag_368:\n      pop\n      pop\n      pop\n      pop\n      pop\n      swap1\n      pop\n      dup11\n      jump\t// out\n        /* \"Test9.sol\":2445:2622  function updateUserFees(uint256 index, string memory newFees) external {... */\n    tag_64:\n        /* \"Test9.sol\":2542:2547  users */\n      0x00\n        /* \"Test9.sol\":2542:2554  users.length */\n      dup1\n      sload\n      swap1\n      pop\n        /* \"Test9.sol\":2534:2539  index */\n      dup3\n        /* \"Test9.sol\":2534:2554  index < users.length */\n      lt\n        /* \"Test9.sol\":2526:2578  require(index < users.length, \"Index out of bounds\") */\n      tag_372\n      jumpi\n      mload(0x40)\n      0x08c379a000000000000000000000000000000000000000000000000000000000\n      dup2\n      mstore\n      0x04\n      add\n      tag_373\n      swap1\n      tag_92\n      jump\t// in\n    tag_373:\n      mload(0x40)\n      dup1\n      swap2\n      sub\n      swap1\n      revert\n    tag_372:\n        /* \"Test9.sol\":2608:2615  newFees */\n      dup1\n        /* \"Test9.sol\":2588:2593  users */\n      0x00\n        /* \"Test9.sol\":2594:2599  index */\n      dup4\n        /* \"Test9.sol\":2588:2600  users[index] */\n      dup2\n      sload\n      dup2\n      lt\n      tag_374\n      jumpi\n      tag_375\n      tag_95\n      jump\t// in\n    tag_375:\n    tag_374:\n      swap1\n      0x00\n      mstore\n      keccak256(0x00, 0x20)\n      swap1\n      0x0b\n      mul\n      add\n        /* \"Test9.sol\":2588:2605  users[index].fees */\n      0x0a\n      add\n        /* \"Test9.sol\":2588:2615  users[index].fees = newFees */\n      swap1\n      dup2\n      tag_377\n      swap2\n      swap1\n      tag_79\n      jump\t// in\n    tag_377:\n      pop\n        /* \"Test9.sol\":2445:2622  function updateUserFees(uint256 index, string memory newFees) external {... */\n      pop\n      pop\n      jump\t// out\n        /* \"Test9.sol\":4321:4588  function getPatientBasicInfo(uint256 index) external view returns ( string memory, string memory,string memory) {... */\n    tag_67:\n        /* \"Test9.sol\":4389:4402  string memory */\n      0x60\n        /* \"Test9.sol\":4404:4417  string memory */\n      dup1\n        /* \"Test9.sol\":4418:4431  string memory */\n      0x60\n        /* \"Test9.sol\":4459:4467  patients */\n      0x01\n        /* \"Test9.sol\":4459:4474  patients.length */\n      dup1\n      sload\n      swap1\n      pop\n        /* \"Test9.sol\":4451:4456  index */\n      dup5\n        /* \"Test9.sol\":4451:4474  index < patients.length */\n      lt\n        /* \"Test9.sol\":4443:4498  require(index < patients.length, \"Index out of bounds\") */\n      tag_379\n      jumpi\n      mload(0x40)\n      0x08c379a000000000000000000000000000000000000000000000000000000000\n      dup2\n      mstore\n      0x04\n      add\n      tag_380\n      swap1\n      tag_92\n      jump\t// in\n    tag_380:\n      mload(0x40)\n      dup1\n      swap2\n      sub\n      swap1\n      revert\n    tag_379:\n        /* \"Test9.sol\":4516:4524  patients */\n      0x01\n        /* \"Test9.sol\":4525:4530  index */\n      dup5\n        /* \"Test9.sol\":4516:4531  patients[index] */\n      dup2\n      sload\n      dup2\n      lt\n      tag_381\n      jumpi\n      tag_382\n      tag_95\n      jump\t// in\n    tag_382:\n    tag_381:\n      swap1\n      0x00\n      mstore\n      keccak256(0x00, 0x20)\n      swap1\n      0x0a\n      mul\n      add\n        /* \"Test9.sol\":4516:4536  patients[index].name */\n      0x01\n      add\n        /* \"Test9.sol\":4538:4546  patients */\n      0x01\n        /* \"Test9.sol\":4547:4552  index */\n      dup6\n        /* \"Test9.sol\":4538:4553  patients[index] */\n      dup2\n      sload\n      dup2\n      lt\n      tag_384\n      jumpi\n      tag_385\n      tag_95\n      jump\t// in\n    tag_385:\n    tag_384:\n      swap1\n      0x00\n      mstore\n      keccak256(0x00, 0x20)\n      swap1\n      0x0a\n      mul\n      add\n        /* \"Test9.sol\":4538:4559  patients[index].email */\n      0x02\n      add\n        /* \"Test9.sol\":4560:4568  patients */\n      0x01\n        /* \"Test9.sol\":4569:4574  index */\n      dup7\n        /* \"Test9.sol\":4560:4575  patients[index] */\n      dup2\n      sload\n      dup2\n      lt\n      tag_387\n      jumpi\n      tag_388\n      tag_95\n      jump\t// in\n    tag_388:\n    tag_387:\n      swap1\n      0x00\n      mstore\n      keccak256(0x00, 0x20)\n      swap1\n      0x0a\n      mul\n      add\n        /* \"Test9.sol\":4560:4580  patients[index].pass */\n      0x03\n      add\n        /* \"Test9.sol\":4508:4581  return (patients[index].name, patients[index].email,patients[index].pass) */\n      dup3\n      dup1\n      sload\n      tag_390\n      swap1\n      tag_113\n      jump\t// in\n    tag_390:\n      dup1\n      0x1f\n      add\n      0x20\n      dup1\n      swap2\n      div\n      mul\n      0x20\n      add\n      mload(0x40)\n      swap1\n      dup2\n      add\n      0x40\n      mstore\n      dup1\n      swap3\n      swap2\n      swap1\n      dup2\n      dup2\n      mstore\n      0x20\n      add\n      dup3\n      dup1\n      sload\n      tag_391\n      swap1\n      tag_113\n      jump\t// in\n    tag_391:\n      dup1\n      iszero\n      tag_392\n      jumpi\n      dup1\n      0x1f\n      lt\n      tag_393\n      jumpi\n      0x0100\n      dup1\n      dup4\n      sload\n      div\n      mul\n      dup4\n      mstore\n      swap2\n      0x20\n      add\n      swap2\n      jump(tag_392)\n    tag_393:\n      dup3\n      add\n      swap2\n      swap1\n      0x00\n      mstore\n      keccak256(0x00, 0x20)\n      swap1\n    tag_394:\n      dup2\n      sload\n      dup2\n      mstore\n      swap1\n      0x01\n      add\n      swap1\n      0x20\n      add\n      dup1\n      dup4\n      gt\n      tag_394\n      jumpi\n      dup3\n      swap1\n      sub\n      0x1f\n      and\n      dup3\n      add\n      swap2\n    tag_392:\n      pop\n      pop\n      pop\n      pop\n      pop\n      swap3\n      pop\n      dup2\n      dup1\n      sload\n      tag_395\n      swap1\n      tag_113\n      jump\t// in\n    tag_395:\n      dup1\n      0x1f\n      add\n      0x20\n      dup1\n      swap2\n      div\n      mul\n      0x20\n      add\n      mload(0x40)\n      swap1\n      dup2\n      add\n      0x40\n      mstore\n      dup1\n      swap3\n      swap2\n      swap1\n      dup2\n      dup2\n      mstore\n      0x20\n      add\n      dup3\n      dup1\n      sload\n      tag_396\n      swap1\n      tag_113\n      jump\t// in\n    tag_396:\n      dup1\n      iszero\n      tag_397\n      jumpi\n      dup1\n      0x1f\n      lt\n      tag_398\n      jumpi\n      0x0100\n      dup1\n      dup4\n      sload\n      div\n      mul\n      dup4\n      mstore\n      swap2\n      0x20\n      add\n      swap2\n      jump(tag_397)\n    tag_398:\n      dup3\n      add\n      swap2\n      swap1\n      0x00\n      mstore\n      keccak256(0x00, 0x20)\n      swap1\n    tag_399:\n      dup2\n      sload\n      dup2\n      mstore\n      swap1\n      0x01\n      add\n      swap1\n      0x20\n      add\n      dup1\n      dup4\n      gt\n      tag_399\n      jumpi\n      dup3\n      swap1\n      sub\n      0x1f\n      and\n      dup3\n      add\n      swap2\n    tag_397:\n      pop\n      pop\n      pop\n      pop\n      pop\n      swap2\n      pop\n      dup1\n      dup1\n      sload\n      tag_400\n      swap1\n      tag_113\n      jump\t// in\n    tag_400:\n      dup1\n      0x1f\n      add\n      0x20\n      dup1\n      swap2\n      div\n      mul\n      0x20\n      add\n      mload(0x40)\n      swap1\n      dup2\n      add\n      0x40\n      mstore\n      dup1\n      swap3\n      swap2\n      swap1\n      dup2\n      dup2\n      mstore\n      0x20\n      add\n      dup3\n      dup1\n      sload\n      tag_401\n      swap1\n      tag_113\n      jump\t// in\n    tag_401:\n      dup1\n      iszero\n      tag_402\n      jumpi\n      dup1\n      0x1f\n      lt\n      tag_403\n      jumpi\n      0x0100\n      dup1\n      dup4\n      sload\n      div\n      mul\n      dup4\n      mstore\n      swap2\n      0x20\n      add\n      swap2\n      jump(tag_402)\n    tag_403:\n      dup3\n      add\n      swap2\n      swap1\n      0x00\n      mstore\n      keccak256(0x00, 0x20)\n      swap1\n    tag_404:\n      dup2\n      sload\n      dup2\n      mstore\n      swap1\n      0x01\n      add\n      swap1\n      0x20\n      add\n      dup1\n      dup4\n      gt\n      tag_404\n      jumpi\n      dup3\n      swap1\n      sub\n      0x1f\n      and\n      dup3\n      add\n      swap2\n    tag_402:\n      pop\n      pop\n      pop\n      pop\n      pop\n      swap1\n      pop\n      swap3\n      pop\n      swap3\n      pop\n      swap3\n      pop\n        /* \"Test9.sol\":4321:4588  function getPatientBasicInfo(uint256 index) external view returns ( string memory, string memory,string memory) {... */\n      swap2\n      swap4\n      swap1\n      swap3\n      pop\n      jump\t// out\n        /* \"Test9.sol\":2635:3404  function updatePatient(... */\n    tag_72:\n        /* \"Test9.sol\":3071:3079  patients */\n      0x01\n        /* \"Test9.sol\":3071:3086  patients.length */\n      dup1\n      sload\n      swap1\n      pop\n        /* \"Test9.sol\":3063:3068  index */\n      dup12\n        /* \"Test9.sol\":3063:3086  index < patients.length */\n      lt\n        /* \"Test9.sol\":3055:3110  require(index < patients.length, \"Index out of bounds\") */\n      tag_406\n      jumpi\n      mload(0x40)\n      0x08c379a000000000000000000000000000000000000000000000000000000000\n      dup2\n      mstore\n      0x04\n      add\n      tag_407\n      swap1\n      tag_92\n      jump\t// in\n    tag_407:\n      mload(0x40)\n      dup1\n      swap2\n      sub\n      swap1\n      revert\n    tag_406:\n        /* \"Test9.sol\":3138:3397  Patient(... */\n      mload(0x40)\n      dup1\n      0x0140\n      add\n      0x40\n      mstore\n      dup1\n        /* \"Test9.sol\":3159:3174  _professionalID */\n      dup12\n        /* \"Test9.sol\":3138:3397  Patient(... */\n      dup2\n      mstore\n      0x20\n      add\n        /* \"Test9.sol\":3188:3193  _name */\n      dup11\n        /* \"Test9.sol\":3138:3397  Patient(... */\n      dup2\n      mstore\n      0x20\n      add\n        /* \"Test9.sol\":3207:3213  _email */\n      dup10\n        /* \"Test9.sol\":3138:3397  Patient(... */\n      dup2\n      mstore\n      0x20\n      add\n        /* \"Test9.sol\":3227:3232  _pass */\n      dup9\n        /* \"Test9.sol\":3138:3397  Patient(... */\n      dup2\n      mstore\n      0x20\n      add\n        /* \"Test9.sol\":3246:3254  _eegData */\n      dup8\n        /* \"Test9.sol\":3138:3397  Patient(... */\n      dup2\n      mstore\n      0x20\n      add\n        /* \"Test9.sol\":3267:3275  _ecgData */\n      dup7\n        /* \"Test9.sol\":3138:3397  Patient(... */\n      dup2\n      mstore\n      0x20\n      add\n        /* \"Test9.sol\":3288:3297  _spo2Data */\n      dup6\n        /* \"Test9.sol\":3138:3397  Patient(... */\n      dup2\n      mstore\n      0x20\n      add\n        /* \"Test9.sol\":3311:3326  _medicalHistory */\n      dup5\n        /* \"Test9.sol\":3138:3397  Patient(... */\n      dup2\n      mstore\n      0x20\n      add\n        /* \"Test9.sol\":3340:3361  _nextConsultationDate */\n      dup4\n        /* \"Test9.sol\":3138:3397  Patient(... */\n      dup2\n      mstore\n      0x20\n      add\n        /* \"Test9.sol\":3375:3387  _paymentType */\n      dup3\n        /* \"Test9.sol\":3138:3397  Patient(... */\n      dup2\n      mstore\n      pop\n        /* \"Test9.sol\":3120:3128  patients */\n      0x01\n        /* \"Test9.sol\":3129:3134  index */\n      dup13\n        /* \"Test9.sol\":3120:3135  patients[index] */\n      dup2\n      sload\n      dup2\n      lt\n      tag_408\n      jumpi\n      tag_409\n      tag_95\n      jump\t// in\n    tag_409:\n    tag_408:\n      swap1\n      0x00\n      mstore\n      keccak256(0x00, 0x20)\n      swap1\n      0x0a\n      mul\n      add\n        /* \"Test9.sol\":3120:3397  patients[index] = Patient(... */\n      0x00\n      dup3\n      add\n      mload\n      dup2\n      0x00\n      add\n      swap1\n      dup2\n      tag_411\n      swap2\n      swap1\n      tag_79\n      jump\t// in\n    tag_411:\n      pop\n      0x20\n      dup3\n      add\n      mload\n      dup2\n      0x01\n      add\n      swap1\n      dup2\n      tag_412\n      swap2\n      swap1\n      tag_79\n      jump\t// in\n    tag_412:\n      pop\n      0x40\n      dup3\n      add\n      mload\n      dup2\n      0x02\n      add\n      swap1\n      dup2\n      tag_413\n      swap2\n      swap1\n      tag_79\n      jump\t// in\n    tag_413:\n      pop\n      0x60\n      dup3\n      add\n      mload\n      dup2\n      0x03\n      add\n      swap1\n      dup2\n      tag_414\n      swap2\n      swap1\n      tag_79\n      jump\t// in\n    tag_414:\n      pop\n      0x80\n      dup3\n      add\n      mload\n      dup2\n      0x04\n      add\n      swap1\n      dup2\n      tag_415\n      swap2\n      swap1\n      tag_79\n      jump\t// in\n    tag_415:\n      pop\n      0xa0\n      dup3\n      add\n      mload\n      dup2\n      0x05\n      add\n      swap1\n      dup2\n      tag_416\n      swap2\n      swap1\n      tag_79\n      jump\t// in\n    tag_416:\n      pop\n      0xc0\n      dup3\n      add\n      mload\n      dup2\n      0x06\n      add\n      swap1\n      dup2\n      tag_417\n      swap2\n      swap1\n      tag_79\n      jump\t// in\n    tag_417:\n      pop\n      0xe0\n      dup3\n      add\n      mload\n      dup2\n      0x07\n      add\n      swap1\n      dup2\n      tag_418\n      swap2\n      swap1\n      tag_79\n      jump\t// in\n    tag_418:\n      pop\n      0x0100\n      dup3\n      add\n      mload\n      dup2\n      0x08\n      add\n      swap1\n      dup2\n      tag_419\n      swap2\n      swap1\n      tag_79\n      jump\t// in\n    tag_419:\n      pop\n      0x0120\n      dup3\n      add\n      mload\n      dup2\n      0x09\n      add\n      swap1\n      dup2\n      tag_420\n      swap2\n      swap1\n      tag_79\n      jump\t// in\n    tag_420:\n      pop\n      swap1\n      pop\n      pop\n        /* \"Test9.sol\":2635:3404  function updatePatient(... */\n      pop\n      pop\n      pop\n      pop\n      pop\n      pop\n      pop\n      pop\n      pop\n      pop\n      pop\n      jump\t// out\n        /* \"Test9.sol\":5175:5266  function usersLength() external view returns (uint256) {... */\n    tag_74:\n        /* \"Test9.sol\":5221:5228  uint256 */\n      0x00\n        /* \"Test9.sol\":5247:5252  users */\n      dup1\n        /* \"Test9.sol\":5247:5259  users.length */\n      dup1\n      sload\n      swap1\n      pop\n        /* \"Test9.sol\":5240:5259  return users.length */\n      swap1\n      pop\n        /* \"Test9.sol\":5175:5266  function usersLength() external view returns (uint256) {... */\n      swap1\n      jump\t// out\n        /* \"#utility.yul\":7:82   */\n    tag_422:\n        /* \"#utility.yul\":40:46   */\n      0x00\n        /* \"#utility.yul\":73:75   */\n      0x40\n        /* \"#utility.yul\":67:76   */\n      mload\n        /* \"#utility.yul\":57:76   */\n      swap1\n      pop\n        /* \"#utility.yul\":7:82   */\n      swap1\n      jump\t// out\n        /* \"#utility.yul\":88:205   */\n    tag_423:\n        /* \"#utility.yul\":197:198   */\n      0x00\n        /* \"#utility.yul\":194:195   */\n      dup1\n        /* \"#utility.yul\":187:199   */\n      revert\n        /* \"#utility.yul\":211:328   */\n    tag_424:\n        /* \"#utility.yul\":320:321   */\n      0x00\n        /* \"#utility.yul\":317:318   */\n      dup1\n        /* \"#utility.yul\":310:322   */\n      revert\n        /* \"#utility.yul\":334:451   */\n    tag_425:\n        /* \"#utility.yul\":443:444   */\n      0x00\n        /* \"#utility.yul\":440:441   */\n      dup1\n        /* \"#utility.yul\":433:445   */\n      revert\n        /* \"#utility.yul\":457:574   */\n    tag_426:\n        /* \"#utility.yul\":566:567   */\n      0x00\n        /* \"#utility.yul\":563:564   */\n      dup1\n        /* \"#utility.yul\":556:568   */\n      revert\n        /* \"#utility.yul\":580:682   */\n    tag_427:\n        /* \"#utility.yul\":621:627   */\n      0x00\n        /* \"#utility.yul\":672:674   */\n      0x1f\n        /* \"#utility.yul\":668:675   */\n      not\n        /* \"#utility.yul\":663:665   */\n      0x1f\n        /* \"#utility.yul\":656:661   */\n      dup4\n        /* \"#utility.yul\":652:666   */\n      add\n        /* \"#utility.yul\":648:676   */\n      and\n        /* \"#utility.yul\":638:676   */\n      swap1\n      pop\n        /* \"#utility.yul\":580:682   */\n      swap2\n      swap1\n      pop\n      jump\t// out\n        /* \"#utility.yul\":688:868   */\n    tag_428:\n        /* \"#utility.yul\":736:813   */\n      0x4e487b7100000000000000000000000000000000000000000000000000000000\n        /* \"#utility.yul\":733:734   */\n      0x00\n        /* \"#utility.yul\":726:814   */\n      mstore\n        /* \"#utility.yul\":833:837   */\n      0x41\n        /* \"#utility.yul\":830:831   */\n      0x04\n        /* \"#utility.yul\":823:838   */\n      mstore\n        /* \"#utility.yul\":857:861   */\n      0x24\n        /* \"#utility.yul\":854:855   */\n      0x00\n        /* \"#utility.yul\":847:862   */\n      revert\n        /* \"#utility.yul\":874:1155   */\n    tag_429:\n        /* \"#utility.yul\":957:984   */\n      tag_470\n        /* \"#utility.yul\":979:983   */\n      dup3\n        /* \"#utility.yul\":957:984   */\n      tag_427\n      jump\t// in\n    tag_470:\n        /* \"#utility.yul\":949:955   */\n      dup2\n        /* \"#utility.yul\":945:985   */\n      add\n        /* \"#utility.yul\":1087:1093   */\n      dup2\n        /* \"#utility.yul\":1075:1085   */\n      dup2\n        /* \"#utility.yul\":1072:1094   */\n      lt\n        /* \"#utility.yul\":1051:1069   */\n      0xffffffffffffffff\n        /* \"#utility.yul\":1039:1049   */\n      dup3\n        /* \"#utility.yul\":1036:1070   */\n      gt\n        /* \"#utility.yul\":1033:1095   */\n      or\n        /* \"#utility.yul\":1030:1118   */\n      iszero\n      tag_471\n      jumpi\n        /* \"#utility.yul\":1098:1116   */\n      tag_472\n      tag_428\n      jump\t// in\n    tag_472:\n        /* \"#utility.yul\":1030:1118   */\n    tag_471:\n        /* \"#utility.yul\":1138:1148   */\n      dup1\n        /* \"#utility.yul\":1134:1136   */\n      0x40\n        /* \"#utility.yul\":1127:1149   */\n      mstore\n        /* \"#utility.yul\":917:1155   */\n      pop\n        /* \"#utility.yul\":874:1155   */\n      pop\n      pop\n      jump\t// out\n        /* \"#utility.yul\":1161:1290   */\n    tag_430:\n        /* \"#utility.yul\":1195:1201   */\n      0x00\n        /* \"#utility.yul\":1222:1242   */\n      tag_474\n      tag_422\n      jump\t// in\n    tag_474:\n        /* \"#utility.yul\":1212:1242   */\n      swap1\n      pop\n        /* \"#utility.yul\":1251:1284   */\n      tag_475\n        /* \"#utility.yul\":1279:1283   */\n      dup3\n        /* \"#utility.yul\":1271:1277   */\n      dup3\n        /* \"#utility.yul\":1251:1284   */\n      tag_429\n      jump\t// in\n    tag_475:\n        /* \"#utility.yul\":1161:1290   */\n      swap2\n      swap1\n      pop\n      jump\t// out\n        /* \"#utility.yul\":1296:1604   */\n    tag_431:\n        /* \"#utility.yul\":1358:1362   */\n      0x00\n        /* \"#utility.yul\":1448:1466   */\n      0xffffffffffffffff\n        /* \"#utility.yul\":1440:1446   */\n      dup3\n        /* \"#utility.yul\":1437:1467   */\n      gt\n        /* \"#utility.yul\":1434:1490   */\n      iszero\n      tag_477\n      jumpi\n        /* \"#utility.yul\":1470:1488   */\n      tag_478\n      tag_428\n      jump\t// in\n    tag_478:\n        /* \"#utility.yul\":1434:1490   */\n    tag_477:\n        /* \"#utility.yul\":1508:1537   */\n      tag_479\n        /* \"#utility.yul\":1530:1536   */\n      dup3\n        /* \"#utility.yul\":1508:1537   */\n      tag_427\n      jump\t// in\n    tag_479:\n        /* \"#utility.yul\":1500:1537   */\n      swap1\n      pop\n        /* \"#utility.yul\":1592:1596   */\n      0x20\n        /* \"#utility.yul\":1586:1590   */\n      dup2\n        /* \"#utility.yul\":1582:1597   */\n      add\n        /* \"#utility.yul\":1574:1597   */\n      swap1\n      pop\n        /* \"#utility.yul\":1296:1604   */\n      swap2\n      swap1\n      pop\n      jump\t// out\n        /* \"#utility.yul\":1610:1758   */\n    tag_432:\n        /* \"#utility.yul\":1708:1714   */\n      dup3\n        /* \"#utility.yul\":1703:1706   */\n      dup2\n        /* \"#utility.yul\":1698:1701   */\n      dup4\n        /* \"#utility.yul\":1685:1715   */\n      calldatacopy\n        /* \"#utility.yul\":1749:1750   */\n      0x00\n        /* \"#utility.yul\":1740:1746   */\n      dup4\n        /* \"#utility.yul\":1735:1738   */\n      dup4\n        /* \"#utility.yul\":1731:1747   */\n      add\n        /* \"#utility.yul\":1724:1751   */\n      mstore\n        /* \"#utility.yul\":1610:1758   */\n      pop\n      pop\n      pop\n      jump\t// out\n        /* \"#utility.yul\":1764:2189   */\n    tag_433:\n        /* \"#utility.yul\":1842:1847   */\n      0x00\n        /* \"#utility.yul\":1867:1933   */\n      tag_482\n        /* \"#utility.yul\":1883:1932   */\n      tag_483\n        /* \"#utility.yul\":1925:1931   */\n      dup5\n        /* \"#utility.yul\":1883:1932   */\n      tag_431\n      jump\t// in\n    tag_483:\n        /* \"#utility.yul\":1867:1933   */\n      tag_430\n      jump\t// in\n    tag_482:\n        /* \"#utility.yul\":1858:1933   */\n      swap1\n      pop\n        /* \"#utility.yul\":1956:1962   */\n      dup3\n        /* \"#utility.yul\":1949:1954   */\n      dup2\n        /* \"#utility.yul\":1942:1963   */\n      mstore\n        /* \"#utility.yul\":1994:1998   */\n      0x20\n        /* \"#utility.yul\":1987:1992   */\n      dup2\n        /* \"#utility.yul\":1983:1999   */\n      add\n        /* \"#utility.yul\":2032:2035   */\n      dup5\n        /* \"#utility.yul\":2023:2029   */\n      dup5\n        /* \"#utility.yul\":2018:2021   */\n      dup5\n        /* \"#utility.yul\":2014:2030   */\n      add\n        /* \"#utility.yul\":2011:2036   */\n      gt\n        /* \"#utility.yul\":2008:2120   */\n      iszero\n      tag_484\n      jumpi\n        /* \"#utility.yul\":2039:2118   */\n      tag_485\n      tag_426\n      jump\t// in\n    tag_485:\n        /* \"#utility.yul\":2008:2120   */\n    tag_484:\n        /* \"#utility.yul\":2129:2183   */\n      tag_486\n        /* \"#utility.yul\":2176:2182   */\n      dup5\n        /* \"#utility.yul\":2171:2174   */\n      dup3\n        /* \"#utility.yul\":2166:2169   */\n      dup6\n        /* \"#utility.yul\":2129:2183   */\n      tag_432\n      jump\t// in\n    tag_486:\n        /* \"#utility.yul\":1848:2189   */\n      pop\n        /* \"#utility.yul\":1764:2189   */\n      swap4\n      swap3\n      pop\n      pop\n      pop\n      jump\t// out\n        /* \"#utility.yul\":2209:2549   */\n    tag_434:\n        /* \"#utility.yul\":2265:2270   */\n      0x00\n        /* \"#utility.yul\":2314:2317   */\n      dup3\n        /* \"#utility.yul\":2307:2311   */\n      0x1f\n        /* \"#utility.yul\":2299:2305   */\n      dup4\n        /* \"#utility.yul\":2295:2312   */\n      add\n        /* \"#utility.yul\":2291:2318   */\n      slt\n        /* \"#utility.yul\":2281:2403   */\n      tag_488\n      jumpi\n        /* \"#utility.yul\":2322:2401   */\n      tag_489\n      tag_425\n      jump\t// in\n    tag_489:\n        /* \"#utility.yul\":2281:2403   */\n    tag_488:\n        /* \"#utility.yul\":2439:2445   */\n      dup2\n        /* \"#utility.yul\":2426:2446   */\n      calldataload\n        /* \"#utility.yul\":2464:2543   */\n      tag_490\n        /* \"#utility.yul\":2539:2542   */\n      dup5\n        /* \"#utility.yul\":2531:2537   */\n      dup3\n        /* \"#utility.yul\":2524:2528   */\n      0x20\n        /* \"#utility.yul\":2516:2522   */\n      dup7\n        /* \"#utility.yul\":2512:2529   */\n      add\n        /* \"#utility.yul\":2464:2543   */\n      tag_433\n      jump\t// in\n    tag_490:\n        /* \"#utility.yul\":2455:2543   */\n      swap2\n      pop\n        /* \"#utility.yul\":2271:2549   */\n      pop\n        /* \"#utility.yul\":2209:2549   */\n      swap3\n      swap2\n      pop\n      pop\n      jump\t// out\n        /* \"#utility.yul\":2555:5996   */\n    tag_20:\n        /* \"#utility.yul\":2795:2801   */\n      0x00\n        /* \"#utility.yul\":2803:2809   */\n      dup1\n        /* \"#utility.yul\":2811:2817   */\n      0x00\n        /* \"#utility.yul\":2819:2825   */\n      dup1\n        /* \"#utility.yul\":2827:2833   */\n      0x00\n        /* \"#utility.yul\":2835:2841   */\n      dup1\n        /* \"#utility.yul\":2843:2849   */\n      0x00\n        /* \"#utility.yul\":2851:2857   */\n      dup1\n        /* \"#utility.yul\":2859:2865   */\n      0x00\n        /* \"#utility.yul\":2867:2873   */\n      dup1\n        /* \"#utility.yul\":2916:2919   */\n      0x0140\n        /* \"#utility.yul\":2904:2913   */\n      dup12\n        /* \"#utility.yul\":2895:2902   */\n      dup14\n        /* \"#utility.yul\":2891:2914   */\n      sub\n        /* \"#utility.yul\":2887:2920   */\n      slt\n        /* \"#utility.yul\":2884:3004   */\n      iszero\n      tag_492\n      jumpi\n        /* \"#utility.yul\":2923:3002   */\n      tag_493\n      tag_423\n      jump\t// in\n    tag_493:\n        /* \"#utility.yul\":2884:3004   */\n    tag_492:\n        /* \"#utility.yul\":3071:3072   */\n      0x00\n        /* \"#utility.yul\":3060:3069   */\n      dup12\n        /* \"#utility.yul\":3056:3073   */\n      add\n        /* \"#utility.yul\":3043:3074   */\n      calldataload\n        /* \"#utility.yul\":3101:3119   */\n      0xffffffffffffffff\n        /* \"#utility.yul\":3093:3099   */\n      dup2\n        /* \"#utility.yul\":3090:3120   */\n      gt\n        /* \"#utility.yul\":3087:3204   */\n      iszero\n      tag_494\n      jumpi\n        /* \"#utility.yul\":3123:3202   */\n      tag_495\n      tag_424\n      jump\t// in\n    tag_495:\n        /* \"#utility.yul\":3087:3204   */\n    tag_494:\n        /* \"#utility.yul\":3228:3291   */\n      tag_496\n        /* \"#utility.yul\":3283:3290   */\n      dup14\n        /* \"#utility.yul\":3274:3280   */\n      dup3\n        /* \"#utility.yul\":3263:3272   */\n      dup15\n        /* \"#utility.yul\":3259:3281   */\n      add\n        /* \"#utility.yul\":3228:3291   */\n      tag_434\n      jump\t// in\n    tag_496:\n        /* \"#utility.yul\":3218:3291   */\n      swap11\n      pop\n        /* \"#utility.yul\":3014:3301   */\n      pop\n        /* \"#utility.yul\":3368:3370   */\n      0x20\n        /* \"#utility.yul\":3357:3366   */\n      dup12\n        /* \"#utility.yul\":3353:3371   */\n      add\n        /* \"#utility.yul\":3340:3372   */\n      calldataload\n        /* \"#utility.yul\":3399:3417   */\n      0xffffffffffffffff\n        /* \"#utility.yul\":3391:3397   */\n      dup2\n        /* \"#utility.yul\":3388:3418   */\n      gt\n        /* \"#utility.yul\":3385:3502   */\n      iszero\n      tag_497\n      jumpi\n        /* \"#utility.yul\":3421:3500   */\n      tag_498\n      tag_424\n      jump\t// in\n    tag_498:\n        /* \"#utility.yul\":3385:3502   */\n    tag_497:\n        /* \"#utility.yul\":3526:3589   */\n      tag_499\n        /* \"#utility.yul\":3581:3588   */\n      dup14\n        /* \"#utility.yul\":3572:3578   */\n      dup3\n        /* \"#utility.yul\":3561:3570   */\n      dup15\n        /* \"#utility.yul\":3557:3579   */\n      add\n        /* \"#utility.yul\":3526:3589   */\n      tag_434\n      jump\t// in\n    tag_499:\n        /* \"#utility.yul\":3516:3589   */\n      swap10\n      pop\n        /* \"#utility.yul\":3311:3599   */\n      pop\n        /* \"#utility.yul\":3666:3668   */\n      0x40\n        /* \"#utility.yul\":3655:3664   */\n      dup12\n        /* \"#utility.yul\":3651:3669   */\n      add\n        /* \"#utility.yul\":3638:3670   */\n      calldataload\n        /* \"#utility.yul\":3697:3715   */\n      0xffffffffffffffff\n        /* \"#utility.yul\":3689:3695   */\n      dup2\n        /* \"#utility.yul\":3686:3716   */\n      gt\n        /* \"#utility.yul\":3683:3800   */\n      iszero\n      tag_500\n      jumpi\n        /* \"#utility.yul\":3719:3798   */\n      tag_501\n      tag_424\n      jump\t// in\n    tag_501:\n        /* \"#utility.yul\":3683:3800   */\n    tag_500:\n        /* \"#utility.yul\":3824:3887   */\n      tag_502\n        /* \"#utility.yul\":3879:3886   */\n      dup14\n        /* \"#utility.yul\":3870:3876   */\n      dup3\n        /* \"#utility.yul\":3859:3868   */\n      dup15\n        /* \"#utility.yul\":3855:3877   */\n      add\n        /* \"#utility.yul\":3824:3887   */\n      tag_434\n      jump\t// in\n    tag_502:\n        /* \"#utility.yul\":3814:3887   */\n      swap9\n      pop\n        /* \"#utility.yul\":3609:3897   */\n      pop\n        /* \"#utility.yul\":3964:3966   */\n      0x60\n        /* \"#utility.yul\":3953:3962   */\n      dup12\n        /* \"#utility.yul\":3949:3967   */\n      add\n        /* \"#utility.yul\":3936:3968   */\n      calldataload\n        /* \"#utility.yul\":3995:4013   */\n      0xffffffffffffffff\n        /* \"#utility.yul\":3987:3993   */\n      dup2\n        /* \"#utility.yul\":3984:4014   */\n      gt\n        /* \"#utility.yul\":3981:4098   */\n      iszero\n      tag_503\n      jumpi\n        /* \"#utility.yul\":4017:4096   */\n      tag_504\n      tag_424\n      jump\t// in\n    tag_504:\n        /* \"#utility.yul\":3981:4098   */\n    tag_503:\n        /* \"#utility.yul\":4122:4185   */\n      tag_505\n        /* \"#utility.yul\":4177:4184   */\n      dup14\n        /* \"#utility.yul\":4168:4174   */\n      dup3\n        /* \"#utility.yul\":4157:4166   */\n      dup15\n        /* \"#utility.yul\":4153:4175   */\n      add\n        /* \"#utility.yul\":4122:4185   */\n      tag_434\n      jump\t// in\n    tag_505:\n        /* \"#utility.yul\":4112:4185   */\n      swap8\n      pop\n        /* \"#utility.yul\":3907:4195   */\n      pop\n        /* \"#utility.yul\":4262:4265   */\n      0x80\n        /* \"#utility.yul\":4251:4260   */\n      dup12\n        /* \"#utility.yul\":4247:4266   */\n      add\n        /* \"#utility.yul\":4234:4267   */\n      calldataload\n        /* \"#utility.yul\":4294:4312   */\n      0xffffffffffffffff\n        /* \"#utility.yul\":4286:4292   */\n      dup2\n        /* \"#utility.yul\":4283:4313   */\n      gt\n        /* \"#utility.yul\":4280:4397   */\n      iszero\n      tag_506\n      jumpi\n        /* \"#utility.yul\":4316:4395   */\n      tag_507\n      tag_424\n      jump\t// in\n    tag_507:\n        /* \"#utility.yul\":4280:4397   */\n    tag_506:\n        /* \"#utility.yul\":4421:4484   */\n      tag_508\n        /* \"#utility.yul\":4476:4483   */\n      dup14\n        /* \"#utility.yul\":4467:4473   */\n      dup3\n        /* \"#utility.yul\":4456:4465   */\n      dup15\n        /* \"#utility.yul\":4452:4474   */\n      add\n        /* \"#utility.yul\":4421:4484   */\n      tag_434\n      jump\t// in\n    tag_508:\n        /* \"#utility.yul\":4411:4484   */\n      swap7\n      pop\n        /* \"#utility.yul\":4205:4494   */\n      pop\n        /* \"#utility.yul\":4561:4564   */\n      0xa0\n        /* \"#utility.yul\":4550:4559   */\n      dup12\n        /* \"#utility.yul\":4546:4565   */\n      add\n        /* \"#utility.yul\":4533:4566   */\n      calldataload\n        /* \"#utility.yul\":4593:4611   */\n      0xffffffffffffffff\n        /* \"#utility.yul\":4585:4591   */\n      dup2\n        /* \"#utility.yul\":4582:4612   */\n      gt\n        /* \"#utility.yul\":4579:4696   */\n      iszero\n      tag_509\n      jumpi\n        /* \"#utility.yul\":4615:4694   */\n      tag_510\n      tag_424\n      jump\t// in\n    tag_510:\n        /* \"#utility.yul\":4579:4696   */\n    tag_509:\n        /* \"#utility.yul\":4720:4783   */\n      tag_511\n        /* \"#utility.yul\":4775:4782   */\n      dup14\n        /* \"#utility.yul\":4766:4772   */\n      dup3\n        /* \"#utility.yul\":4755:4764   */\n      dup15\n        /* \"#utility.yul\":4751:4773   */\n      add\n        /* \"#utility.yul\":4720:4783   */\n      tag_434\n      jump\t// in\n    tag_511:\n        /* \"#utility.yul\":4710:4783   */\n      swap6\n      pop\n        /* \"#utility.yul\":4504:4793   */\n      pop\n        /* \"#utility.yul\":4860:4863   */\n      0xc0\n        /* \"#utility.yul\":4849:4858   */\n      dup12\n        /* \"#utility.yul\":4845:4864   */\n      add\n        /* \"#utility.yul\":4832:4865   */\n      calldataload\n        /* \"#utility.yul\":4892:4910   */\n      0xffffffffffffffff\n        /* \"#utility.yul\":4884:4890   */\n      dup2\n        /* \"#utility.yul\":4881:4911   */\n      gt\n        /* \"#utility.yul\":4878:4995   */\n      iszero\n      tag_512\n      jumpi\n        /* \"#utility.yul\":4914:4993   */\n      tag_513\n      tag_424\n      jump\t// in\n    tag_513:\n        /* \"#utility.yul\":4878:4995   */\n    tag_512:\n        /* \"#utility.yul\":5019:5082   */\n      tag_514\n        /* \"#utility.yul\":5074:5081   */\n      dup14\n        /* \"#utility.yul\":5065:5071   */\n      dup3\n        /* \"#utility.yul\":5054:5063   */\n      dup15\n        /* \"#utility.yul\":5050:5072   */\n      add\n        /* \"#utility.yul\":5019:5082   */\n      tag_434\n      jump\t// in\n    tag_514:\n        /* \"#utility.yul\":5009:5082   */\n      swap5\n      pop\n        /* \"#utility.yul\":4803:5092   */\n      pop\n        /* \"#utility.yul\":5159:5162   */\n      0xe0\n        /* \"#utility.yul\":5148:5157   */\n      dup12\n        /* \"#utility.yul\":5144:5163   */\n      add\n        /* \"#utility.yul\":5131:5164   */\n      calldataload\n        /* \"#utility.yul\":5191:5209   */\n      0xffffffffffffffff\n        /* \"#utility.yul\":5183:5189   */\n      dup2\n        /* \"#utility.yul\":5180:5210   */\n      gt\n        /* \"#utility.yul\":5177:5294   */\n      iszero\n      tag_515\n      jumpi\n        /* \"#utility.yul\":5213:5292   */\n      tag_516\n      tag_424\n      jump\t// in\n    tag_516:\n        /* \"#utility.yul\":5177:5294   */\n    tag_515:\n        /* \"#utility.yul\":5318:5381   */\n      tag_517\n        /* \"#utility.yul\":5373:5380   */\n      dup14\n        /* \"#utility.yul\":5364:5370   */\n      dup3\n        /* \"#utility.yul\":5353:5362   */\n      dup15\n        /* \"#utility.yul\":5349:5371   */\n      add\n        /* \"#utility.yul\":5318:5381   */\n      tag_434\n      jump\t// in\n    tag_517:\n        /* \"#utility.yul\":5308:5381   */\n      swap4\n      pop\n        /* \"#utility.yul\":5102:5391   */\n      pop\n        /* \"#utility.yul\":5458:5461   */\n      0x0100\n        /* \"#utility.yul\":5447:5456   */\n      dup12\n        /* \"#utility.yul\":5443:5462   */\n      add\n        /* \"#utility.yul\":5430:5463   */\n      calldataload\n        /* \"#utility.yul\":5490:5508   */\n      0xffffffffffffffff\n        /* \"#utility.yul\":5482:5488   */\n      dup2\n        /* \"#utility.yul\":5479:5509   */\n      gt\n        /* \"#utility.yul\":5476:5593   */\n      iszero\n      tag_518\n      jumpi\n        /* \"#utility.yul\":5512:5591   */\n      tag_519\n      tag_424\n      jump\t// in\n    tag_519:\n        /* \"#utility.yul\":5476:5593   */\n    tag_518:\n        /* \"#utility.yul\":5617:5680   */\n      tag_520\n        /* \"#utility.yul\":5672:5679   */\n      dup14\n        /* \"#utility.yul\":5663:5669   */\n      dup3\n        /* \"#utility.yul\":5652:5661   */\n      dup15\n        /* \"#utility.yul\":5648:5670   */\n      add\n        /* \"#utility.yul\":5617:5680   */\n      tag_434\n      jump\t// in\n    tag_520:\n        /* \"#utility.yul\":5607:5680   */\n      swap3\n      pop\n        /* \"#utility.yul\":5401:5690   */\n      pop\n        /* \"#utility.yul\":5757:5760   */\n      0x0120\n        /* \"#utility.yul\":5746:5755   */\n      dup12\n        /* \"#utility.yul\":5742:5761   */\n      add\n        /* \"#utility.yul\":5729:5762   */\n      calldataload\n        /* \"#utility.yul\":5789:5807   */\n      0xffffffffffffffff\n        /* \"#utility.yul\":5781:5787   */\n      dup2\n        /* \"#utility.yul\":5778:5808   */\n      gt\n        /* \"#utility.yul\":5775:5892   */\n      iszero\n      tag_521\n      jumpi\n        /* \"#utility.yul\":5811:5890   */\n      tag_522\n      tag_424\n      jump\t// in\n    tag_522:\n        /* \"#utility.yul\":5775:5892   */\n    tag_521:\n        /* \"#utility.yul\":5916:5979   */\n      tag_523\n        /* \"#utility.yul\":5971:5978   */\n      dup14\n        /* \"#utility.yul\":5962:5968   */\n      dup3\n        /* \"#utility.yul\":5951:5960   */\n      dup15\n        /* \"#utility.yul\":5947:5969   */\n      add\n        /* \"#utility.yul\":5916:5979   */\n      tag_434\n      jump\t// in\n    tag_523:\n        /* \"#utility.yul\":5906:5979   */\n      swap2\n      pop\n        /* \"#utility.yul\":5700:5989   */\n      pop\n        /* \"#utility.yul\":2555:5996   */\n      swap3\n      swap6\n      swap9\n      swap12\n      swap2\n      swap5\n      swap8\n      swap11\n      pop\n      swap3\n      swap6\n      swap9\n      pop\n      jump\t// out\n        /* \"#utility.yul\":6002:6079   */\n    tag_435:\n        /* \"#utility.yul\":6039:6046   */\n      0x00\n        /* \"#utility.yul\":6068:6073   */\n      dup2\n        /* \"#utility.yul\":6057:6073   */\n      swap1\n      pop\n        /* \"#utility.yul\":6002:6079   */\n      swap2\n      swap1\n      pop\n      jump\t// out\n        /* \"#utility.yul\":6085:6207   */\n    tag_436:\n        /* \"#utility.yul\":6158:6182   */\n      tag_526\n        /* \"#utility.yul\":6176:6181   */\n      dup2\n        /* \"#utility.yul\":6158:6182   */\n      tag_435\n      jump\t// in\n    tag_526:\n        /* \"#utility.yul\":6151:6156   */\n      dup2\n        /* \"#utility.yul\":6148:6183   */\n      eq\n        /* \"#utility.yul\":6138:6201   */\n      tag_527\n      jumpi\n        /* \"#utility.yul\":6197:6198   */\n      0x00\n        /* \"#utility.yul\":6194:6195   */\n      dup1\n        /* \"#utility.yul\":6187:6199   */\n      revert\n        /* \"#utility.yul\":6138:6201   */\n    tag_527:\n        /* \"#utility.yul\":6085:6207   */\n      pop\n      jump\t// out\n        /* \"#utility.yul\":6213:6352   */\n    tag_437:\n        /* \"#utility.yul\":6259:6264   */\n      0x00\n        /* \"#utility.yul\":6297:6303   */\n      dup2\n        /* \"#utility.yul\":6284:6304   */\n      calldataload\n        /* \"#utility.yul\":6275:6304   */\n      swap1\n      pop\n        /* \"#utility.yul\":6313:6346   */\n      tag_529\n        /* \"#utility.yul\":6340:6345   */\n      dup2\n        /* \"#utility.yul\":6313:6346   */\n      tag_436\n      jump\t// in\n    tag_529:\n        /* \"#utility.yul\":6213:6352   */\n      swap3\n      swap2\n      pop\n      pop\n      jump\t// out\n        /* \"#utility.yul\":6358:6687   */\n    tag_24:\n        /* \"#utility.yul\":6417:6423   */\n      0x00\n        /* \"#utility.yul\":6466:6468   */\n      0x20\n        /* \"#utility.yul\":6454:6463   */\n      dup3\n        /* \"#utility.yul\":6445:6452   */\n      dup5\n        /* \"#utility.yul\":6441:6464   */\n      sub\n        /* \"#utility.yul\":6437:6469   */\n      slt\n        /* \"#utility.yul\":6434:6553   */\n      iszero\n      tag_531\n      jumpi\n        /* \"#utility.yul\":6472:6551   */\n      tag_532\n      tag_423\n      jump\t// in\n    tag_532:\n        /* \"#utility.yul\":6434:6553   */\n    tag_531:\n        /* \"#utility.yul\":6592:6593   */\n      0x00\n        /* \"#utility.yul\":6617:6670   */\n      tag_533\n        /* \"#utility.yul\":6662:6669   */\n      dup5\n        /* \"#utility.yul\":6653:6659   */\n      dup3\n        /* \"#utility.yul\":6642:6651   */\n      dup6\n        /* \"#utility.yul\":6638:6660   */\n      add\n        /* \"#utility.yul\":6617:6670   */\n      tag_437\n      jump\t// in\n    tag_533:\n        /* \"#utility.yul\":6607:6670   */\n      swap2\n      pop\n        /* \"#utility.yul\":6563:6680   */\n      pop\n        /* \"#utility.yul\":6358:6687   */\n      swap3\n      swap2\n      pop\n      pop\n      jump\t// out\n        /* \"#utility.yul\":6693:6792   */\n    tag_438:\n        /* \"#utility.yul\":6745:6751   */\n      0x00\n        /* \"#utility.yul\":6779:6784   */\n      dup2\n        /* \"#utility.yul\":6773:6785   */\n      mload\n        /* \"#utility.yul\":6763:6785   */\n      swap1\n      pop\n        /* \"#utility.yul\":6693:6792   */\n      swap2\n      swap1\n      pop\n      jump\t// out\n        /* \"#utility.yul\":6798:6967   */\n    tag_439:\n        /* \"#utility.yul\":6882:6893   */\n      0x00\n        /* \"#utility.yul\":6916:6922   */\n      dup3\n        /* \"#utility.yul\":6911:6914   */\n      dup3\n        /* \"#utility.yul\":6904:6923   */\n      mstore\n        /* \"#utility.yul\":6956:6960   */\n      0x20\n        /* \"#utility.yul\":6951:6954   */\n      dup3\n        /* \"#utility.yul\":6947:6961   */\n      add\n        /* \"#utility.yul\":6932:6961   */\n      swap1\n      pop\n        /* \"#utility.yul\":6798:6967   */\n      swap3\n      swap2\n      pop\n      pop\n      jump\t// out\n        /* \"#utility.yul\":6973:7112   */\n    tag_440:\n        /* \"#utility.yul\":7062:7068   */\n      dup3\n        /* \"#utility.yul\":7057:7060   */\n      dup2\n        /* \"#utility.yul\":7052:7055   */\n      dup4\n        /* \"#utility.yul\":7046:7069   */\n      mcopy\n        /* \"#utility.yul\":7103:7104   */\n      0x00\n        /* \"#utility.yul\":7094:7100   */\n      dup4\n        /* \"#utility.yul\":7089:7092   */\n      dup4\n        /* \"#utility.yul\":7085:7101   */\n      add\n        /* \"#utility.yul\":7078:7105   */\n      mstore\n        /* \"#utility.yul\":6973:7112   */\n      pop\n      pop\n      pop\n      jump\t// out\n        /* \"#utility.yul\":7118:7495   */\n    tag_441:\n        /* \"#utility.yul\":7206:7209   */\n      0x00\n        /* \"#utility.yul\":7234:7273   */\n      tag_538\n        /* \"#utility.yul\":7267:7272   */\n      dup3\n        /* \"#utility.yul\":7234:7273   */\n      tag_438\n      jump\t// in\n    tag_538:\n        /* \"#utility.yul\":7289:7360   */\n      tag_539\n        /* \"#utility.yul\":7353:7359   */\n      dup2\n        /* \"#utility.yul\":7348:7351   */\n      dup6\n        /* \"#utility.yul\":7289:7360   */\n      tag_439\n      jump\t// in\n    tag_539:\n        /* \"#utility.yul\":7282:7360   */\n      swap4\n      pop\n        /* \"#utility.yul\":7369:7434   */\n      tag_540\n        /* \"#utility.yul\":7427:7433   */\n      dup2\n        /* \"#utility.yul\":7422:7425   */\n      dup6\n        /* \"#utility.yul\":7415:7419   */\n      0x20\n        /* \"#utility.yul\":7408:7413   */\n      dup7\n        /* \"#utility.yul\":7404:7420   */\n      add\n        /* \"#utility.yul\":7369:7434   */\n      tag_440\n      jump\t// in\n    tag_540:\n        /* \"#utility.yul\":7459:7488   */\n      tag_541\n        /* \"#utility.yul\":7481:7487   */\n      dup2\n        /* \"#utility.yul\":7459:7488   */\n      tag_427\n      jump\t// in\n    tag_541:\n        /* \"#utility.yul\":7454:7457   */\n      dup5\n        /* \"#utility.yul\":7450:7489   */\n      add\n        /* \"#utility.yul\":7443:7489   */\n      swap2\n      pop\n        /* \"#utility.yul\":7210:7495   */\n      pop\n        /* \"#utility.yul\":7118:7495   */\n      swap3\n      swap2\n      pop\n      pop\n      jump\t// out\n        /* \"#utility.yul\":7501:8822   */\n    tag_27:\n        /* \"#utility.yul\":7854:7858   */\n      0x00\n        /* \"#utility.yul\":7892:7895   */\n      0xc0\n        /* \"#utility.yul\":7881:7890   */\n      dup3\n        /* \"#utility.yul\":7877:7896   */\n      add\n        /* \"#utility.yul\":7869:7896   */\n      swap1\n      pop\n        /* \"#utility.yul\":7942:7951   */\n      dup2\n        /* \"#utility.yul\":7936:7940   */\n      dup2\n        /* \"#utility.yul\":7932:7952   */\n      sub\n        /* \"#utility.yul\":7928:7929   */\n      0x00\n        /* \"#utility.yul\":7917:7926   */\n      dup4\n        /* \"#utility.yul\":7913:7930   */\n      add\n        /* \"#utility.yul\":7906:7953   */\n      mstore\n        /* \"#utility.yul\":7970:8048   */\n      tag_543\n        /* \"#utility.yul\":8043:8047   */\n      dup2\n        /* \"#utility.yul\":8034:8040   */\n      dup10\n        /* \"#utility.yul\":7970:8048   */\n      tag_441\n      jump\t// in\n    tag_543:\n        /* \"#utility.yul\":7962:8048   */\n      swap1\n      pop\n        /* \"#utility.yul\":8095:8104   */\n      dup2\n        /* \"#utility.yul\":8089:8093   */\n      dup2\n        /* \"#utility.yul\":8085:8105   */\n      sub\n        /* \"#utility.yul\":8080:8082   */\n      0x20\n        /* \"#utility.yul\":8069:8078   */\n      dup4\n        /* \"#utility.yul\":8065:8083   */\n      add\n        /* \"#utility.yul\":8058:8106   */\n      mstore\n        /* \"#utility.yul\":8123:8201   */\n      tag_544\n        /* \"#utility.yul\":8196:8200   */\n      dup2\n        /* \"#utility.yul\":8187:8193   */\n      dup9\n        /* \"#utility.yul\":8123:8201   */\n      tag_441\n      jump\t// in\n    tag_544:\n        /* \"#utility.yul\":8115:8201   */\n      swap1\n      pop\n        /* \"#utility.yul\":8248:8257   */\n      dup2\n        /* \"#utility.yul\":8242:8246   */\n      dup2\n        /* \"#utility.yul\":8238:8258   */\n      sub\n        /* \"#utility.yul\":8233:8235   */\n      0x40\n        /* \"#utility.yul\":8222:8231   */\n      dup4\n        /* \"#utility.yul\":8218:8236   */\n      add\n        /* \"#utility.yul\":8211:8259   */\n      mstore\n        /* \"#utility.yul\":8276:8354   */\n      tag_545\n        /* \"#utility.yul\":8349:8353   */\n      dup2\n        /* \"#utility.yul\":8340:8346   */\n      dup8\n        /* \"#utility.yul\":8276:8354   */\n      tag_441\n      jump\t// in\n    tag_545:\n        /* \"#utility.yul\":8268:8354   */\n      swap1\n      pop\n        /* \"#utility.yul\":8401:8410   */\n      dup2\n        /* \"#utility.yul\":8395:8399   */\n      dup2\n        /* \"#utility.yul\":8391:8411   */\n      sub\n        /* \"#utility.yul\":8386:8388   */\n      0x60\n        /* \"#utility.yul\":8375:8384   */\n      dup4\n        /* \"#utility.yul\":8371:8389   */\n      add\n        /* \"#utility.yul\":8364:8412   */\n      mstore\n        /* \"#utility.yul\":8429:8507   */\n      tag_546\n        /* \"#utility.yul\":8502:8506   */\n      dup2\n        /* \"#utility.yul\":8493:8499   */\n      dup7\n        /* \"#utility.yul\":8429:8507   */\n      tag_441\n      jump\t// in\n    tag_546:\n        /* \"#utility.yul\":8421:8507   */\n      swap1\n      pop\n        /* \"#utility.yul\":8555:8564   */\n      dup2\n        /* \"#utility.yul\":8549:8553   */\n      dup2\n        /* \"#utility.yul\":8545:8565   */\n      sub\n        /* \"#utility.yul\":8539:8542   */\n      0x80\n        /* \"#utility.yul\":8528:8537   */\n      dup4\n        /* \"#utility.yul\":8524:8543   */\n      add\n        /* \"#utility.yul\":8517:8566   */\n      mstore\n        /* \"#utility.yul\":8583:8661   */\n      tag_547\n        /* \"#utility.yul\":8656:8660   */\n      dup2\n        /* \"#utility.yul\":8647:8653   */\n      dup6\n        /* \"#utility.yul\":8583:8661   */\n      tag_441\n      jump\t// in\n    tag_547:\n        /* \"#utility.yul\":8575:8661   */\n      swap1\n      pop\n        /* \"#utility.yul\":8709:8718   */\n      dup2\n        /* \"#utility.yul\":8703:8707   */\n      dup2\n        /* \"#utility.yul\":8699:8719   */\n      sub\n        /* \"#utility.yul\":8693:8696   */\n      0xa0\n        /* \"#utility.yul\":8682:8691   */\n      dup4\n        /* \"#utility.yul\":8678:8697   */\n      add\n        /* \"#utility.yul\":8671:8720   */\n      mstore\n        /* \"#utility.yul\":8737:8815   */\n      tag_548\n        /* \"#utility.yul\":8810:8814   */\n      dup2\n        /* \"#utility.yul\":8801:8807   */\n      dup5\n        /* \"#utility.yul\":8737:8815   */\n      tag_441\n      jump\t// in\n    tag_548:\n        /* \"#utility.yul\":8729:8815   */\n      swap1\n      pop\n        /* \"#utility.yul\":7501:8822   */\n      swap8\n      swap7\n      pop\n      pop\n      pop\n      pop\n      pop\n      pop\n      pop\n      jump\t// out\n        /* \"#utility.yul\":8828:10351   */\n    tag_32:\n        /* \"#utility.yul\":9229:9233   */\n      0x00\n        /* \"#utility.yul\":9267:9270   */\n      0xe0\n        /* \"#utility.yul\":9256:9265   */\n      dup3\n        /* \"#utility.yul\":9252:9271   */\n      add\n        /* \"#utility.yul\":9244:9271   */\n      swap1\n      pop\n        /* \"#utility.yul\":9317:9326   */\n      dup2\n        /* \"#utility.yul\":9311:9315   */\n      dup2\n        /* \"#utility.yul\":9307:9327   */\n      sub\n        /* \"#utility.yul\":9303:9304   */\n      0x00\n        /* \"#utility.yul\":9292:9301   */\n      dup4\n        /* \"#utility.yul\":9288:9305   */\n      add\n        /* \"#utility.yul\":9281:9328   */\n      mstore\n        /* \"#utility.yul\":9345:9423   */\n      tag_550\n        /* \"#utility.yul\":9418:9422   */\n      dup2\n        /* \"#utility.yul\":9409:9415   */\n      dup11\n        /* \"#utility.yul\":9345:9423   */\n      tag_441\n      jump\t// in\n    tag_550:\n        /* \"#utility.yul\":9337:9423   */\n      swap1\n      pop\n        /* \"#utility.yul\":9470:9479   */\n      dup2\n        /* \"#utility.yul\":9464:9468   */\n      dup2\n        /* \"#utility.yul\":9460:9480   */\n      sub\n        /* \"#utility.yul\":9455:9457   */\n      0x20\n        /* \"#utility.yul\":9444:9453   */\n      dup4\n        /* \"#utility.yul\":9440:9458   */\n      add\n        /* \"#utility.yul\":9433:9481   */\n      mstore\n        /* \"#utility.yul\":9498:9576   */\n      tag_551\n        /* \"#utility.yul\":9571:9575   */\n      dup2\n        /* \"#utility.yul\":9562:9568   */\n      dup10\n        /* \"#utility.yul\":9498:9576   */\n      tag_441\n      jump\t// in\n    tag_551:\n        /* \"#utility.yul\":9490:9576   */\n      swap1\n      pop\n        /* \"#utility.yul\":9623:9632   */\n      dup2\n        /* \"#utility.yul\":9617:9621   */\n      dup2\n        /* \"#utility.yul\":9613:9633   */\n      sub\n        /* \"#utility.yul\":9608:9610   */\n      0x40\n        /* \"#utility.yul\":9597:9606   */\n      dup4\n        /* \"#utility.yul\":9593:9611   */\n      add\n        /* \"#utility.yul\":9586:9634   */\n      mstore\n        /* \"#utility.yul\":9651:9729   */\n      tag_552\n        /* \"#utility.yul\":9724:9728   */\n      dup2\n        /* \"#utility.yul\":9715:9721   */\n      dup9\n        /* \"#utility.yul\":9651:9729   */\n      tag_441\n      jump\t// in\n    tag_552:\n        /* \"#utility.yul\":9643:9729   */\n      swap1\n      pop\n        /* \"#utility.yul\":9776:9785   */\n      dup2\n        /* \"#utility.yul\":9770:9774   */\n      dup2\n        /* \"#utility.yul\":9766:9786   */\n      sub\n        /* \"#utility.yul\":9761:9763   */\n      0x60\n        /* \"#utility.yul\":9750:9759   */\n      dup4\n        /* \"#utility.yul\":9746:9764   */\n      add\n        /* \"#utility.yul\":9739:9787   */\n      mstore\n        /* \"#utility.yul\":9804:9882   */\n      tag_553\n        /* \"#utility.yul\":9877:9881   */\n      dup2\n        /* \"#utility.yul\":9868:9874   */\n      dup8\n        /* \"#utility.yul\":9804:9882   */\n      tag_441\n      jump\t// in\n    tag_553:\n        /* \"#utility.yul\":9796:9882   */\n      swap1\n      pop\n        /* \"#utility.yul\":9930:9939   */\n      dup2\n        /* \"#utility.yul\":9924:9928   */\n      dup2\n        /* \"#utility.yul\":9920:9940   */\n      sub\n        /* \"#utility.yul\":9914:9917   */\n      0x80\n        /* \"#utility.yul\":9903:9912   */\n      dup4\n        /* \"#utility.yul\":9899:9918   */\n      add\n        /* \"#utility.yul\":9892:9941   */\n      mstore\n        /* \"#utility.yul\":9958:10036   */\n      tag_554\n        /* \"#utility.yul\":10031:10035   */\n      dup2\n        /* \"#utility.yul\":10022:10028   */\n      dup7\n        /* \"#utility.yul\":9958:10036   */\n      tag_441\n      jump\t// in\n    tag_554:\n        /* \"#utility.yul\":9950:10036   */\n      swap1\n      pop\n        /* \"#utility.yul\":10084:10093   */\n      dup2\n        /* \"#utility.yul\":10078:10082   */\n      dup2\n        /* \"#utility.yul\":10074:10094   */\n      sub\n        /* \"#utility.yul\":10068:10071   */\n      0xa0\n        /* \"#utility.yul\":10057:10066   */\n      dup4\n        /* \"#utility.yul\":10053:10072   */\n      add\n        /* \"#utility.yul\":10046:10095   */\n      mstore\n        /* \"#utility.yul\":10112:10190   */\n      tag_555\n        /* \"#utility.yul\":10185:10189   */\n      dup2\n        /* \"#utility.yul\":10176:10182   */\n      dup6\n        /* \"#utility.yul\":10112:10190   */\n      tag_441\n      jump\t// in\n    tag_555:\n        /* \"#utility.yul\":10104:10190   */\n      swap1\n      pop\n        /* \"#utility.yul\":10238:10247   */\n      dup2\n        /* \"#utility.yul\":10232:10236   */\n      dup2\n        /* \"#utility.yul\":10228:10248   */\n      sub\n        /* \"#utility.yul\":10222:10225   */\n      0xc0\n        /* \"#utility.yul\":10211:10220   */\n      dup4\n        /* \"#utility.yul\":10207:10226   */\n      add\n        /* \"#utility.yul\":10200:10249   */\n      mstore\n        /* \"#utility.yul\":10266:10344   */\n      tag_556\n        /* \"#utility.yul\":10339:10343   */\n      dup2\n        /* \"#utility.yul\":10330:10336   */\n      dup5\n        /* \"#utility.yul\":10266:10344   */\n      tag_441\n      jump\t// in\n    tag_556:\n        /* \"#utility.yul\":10258:10344   */\n      swap1\n      pop\n        /* \"#utility.yul\":8828:10351   */\n      swap9\n      swap8\n      pop\n      pop\n      pop\n      pop\n      pop\n      pop\n      pop\n      pop\n      jump\t// out\n        /* \"#utility.yul\":10357:10871   */\n    tag_37:\n        /* \"#utility.yul\":10518:10522   */\n      0x00\n        /* \"#utility.yul\":10556:10558   */\n      0x40\n        /* \"#utility.yul\":10545:10554   */\n      dup3\n        /* \"#utility.yul\":10541:10559   */\n      add\n        /* \"#utility.yul\":10533:10559   */\n      swap1\n      pop\n        /* \"#utility.yul\":10605:10614   */\n      dup2\n        /* \"#utility.yul\":10599:10603   */\n      dup2\n        /* \"#utility.yul\":10595:10615   */\n      sub\n        /* \"#utility.yul\":10591:10592   */\n      0x00\n        /* \"#utility.yul\":10580:10589   */\n      dup4\n        /* \"#utility.yul\":10576:10593   */\n      add\n        /* \"#utility.yul\":10569:10616   */\n      mstore\n        /* \"#utility.yul\":10633:10711   */\n      tag_558\n        /* \"#utility.yul\":10706:10710   */\n      dup2\n        /* \"#utility.yul\":10697:10703   */\n      dup6\n        /* \"#utility.yul\":10633:10711   */\n      tag_441\n      jump\t// in\n    tag_558:\n        /* \"#utility.yul\":10625:10711   */\n      swap1\n      pop\n        /* \"#utility.yul\":10758:10767   */\n      dup2\n        /* \"#utility.yul\":10752:10756   */\n      dup2\n        /* \"#utility.yul\":10748:10768   */\n      sub\n        /* \"#utility.yul\":10743:10745   */\n      0x20\n        /* \"#utility.yul\":10732:10741   */\n      dup4\n        /* \"#utility.yul\":10728:10746   */\n      add\n        /* \"#utility.yul\":10721:10769   */\n      mstore\n        /* \"#utility.yul\":10786:10864   */\n      tag_559\n        /* \"#utility.yul\":10859:10863   */\n      dup2\n        /* \"#utility.yul\":10850:10856   */\n      dup5\n        /* \"#utility.yul\":10786:10864   */\n      tag_441\n      jump\t// in\n    tag_559:\n        /* \"#utility.yul\":10778:10864   */\n      swap1\n      pop\n        /* \"#utility.yul\":10357:10871   */\n      swap4\n      swap3\n      pop\n      pop\n      pop\n      jump\t// out\n        /* \"#utility.yul\":10877:14646   */\n    tag_40:\n        /* \"#utility.yul\":11136:11142   */\n      0x00\n        /* \"#utility.yul\":11144:11150   */\n      dup1\n        /* \"#utility.yul\":11152:11158   */\n      0x00\n        /* \"#utility.yul\":11160:11166   */\n      dup1\n        /* \"#utility.yul\":11168:11174   */\n      0x00\n        /* \"#utility.yul\":11176:11182   */\n      dup1\n        /* \"#utility.yul\":11184:11190   */\n      0x00\n        /* \"#utility.yul\":11192:11198   */\n      dup1\n        /* \"#utility.yul\":11200:11206   */\n      0x00\n        /* \"#utility.yul\":11208:11214   */\n      dup1\n        /* \"#utility.yul\":11216:11223   */\n      0x00\n        /* \"#utility.yul\":11266:11269   */\n      0x0160\n        /* \"#utility.yul\":11254:11263   */\n      dup13\n        /* \"#utility.yul\":11245:11252   */\n      dup15\n        /* \"#utility.yul\":11241:11264   */\n      sub\n        /* \"#utility.yul\":11237:11270   */\n      slt\n        /* \"#utility.yul\":11234:11354   */\n      iszero\n      tag_561\n      jumpi\n        /* \"#utility.yul\":11273:11352   */\n      tag_562\n      tag_423\n      jump\t// in\n    tag_562:\n        /* \"#utility.yul\":11234:11354   */\n    tag_561:\n        /* \"#utility.yul\":11421:11422   */\n      0x00\n        /* \"#utility.yul\":11410:11419   */\n      dup13\n        /* \"#utility.yul\":11406:11423   */\n      add\n        /* \"#utility.yul\":11393:11424   */\n      calldataload\n        /* \"#utility.yul\":11451:11469   */\n      0xffffffffffffffff\n        /* \"#utility.yul\":11443:11449   */\n      dup2\n        /* \"#utility.yul\":11440:11470   */\n      gt\n        /* \"#utility.yul\":11437:11554   */\n      iszero\n      tag_563\n      jumpi\n        /* \"#utility.yul\":11473:11552   */\n      tag_564\n      tag_424\n      jump\t// in\n    tag_564:\n        /* \"#utility.yul\":11437:11554   */\n    tag_563:\n        /* \"#utility.yul\":11578:11641   */\n      tag_565\n        /* \"#utility.yul\":11633:11640   */\n      dup15\n        /* \"#utility.yul\":11624:11630   */\n      dup3\n        /* \"#utility.yul\":11613:11622   */\n      dup16\n        /* \"#utility.yul\":11609:11631   */\n      add\n        /* \"#utility.yul\":11578:11641   */\n      tag_434\n      jump\t// in\n    tag_565:\n        /* \"#utility.yul\":11568:11641   */\n      swap12\n      pop\n        /* \"#utility.yul\":11364:11651   */\n      pop\n        /* \"#utility.yul\":11718:11720   */\n      0x20\n        /* \"#utility.yul\":11707:11716   */\n      dup13\n        /* \"#utility.yul\":11703:11721   */\n      add\n        /* \"#utility.yul\":11690:11722   */\n      calldataload\n        /* \"#utility.yul\":11749:11767   */\n      0xffffffffffffffff\n        /* \"#utility.yul\":11741:11747   */\n      dup2\n        /* \"#utility.yul\":11738:11768   */\n      gt\n        /* \"#utility.yul\":11735:11852   */\n      iszero\n      tag_566\n      jumpi\n        /* \"#utility.yul\":11771:11850   */\n      tag_567\n      tag_424\n      jump\t// in\n    tag_567:\n        /* \"#utility.yul\":11735:11852   */\n    tag_566:\n        /* \"#utility.yul\":11876:11939   */\n      tag_568\n        /* \"#utility.yul\":11931:11938   */\n      dup15\n        /* \"#utility.yul\":11922:11928   */\n      dup3\n        /* \"#utility.yul\":11911:11920   */\n      dup16\n        /* \"#utility.yul\":11907:11929   */\n      add\n        /* \"#utility.yul\":11876:11939   */\n      tag_434\n      jump\t// in\n    tag_568:\n        /* \"#utility.yul\":11866:11939   */\n      swap11\n      pop\n        /* \"#utility.yul\":11661:11949   */\n      pop\n        /* \"#utility.yul\":12016:12018   */\n      0x40\n        /* \"#utility.yul\":12005:12014   */\n      dup13\n        /* \"#utility.yul\":12001:12019   */\n      add\n        /* \"#utility.yul\":11988:12020   */\n      calldataload\n        /* \"#utility.yul\":12047:12065   */\n      0xffffffffffffffff\n        /* \"#utility.yul\":12039:12045   */\n      dup2\n        /* \"#utility.yul\":12036:12066   */\n      gt\n        /* \"#utility.yul\":12033:12150   */\n      iszero\n      tag_569\n      jumpi\n        /* \"#utility.yul\":12069:12148   */\n      tag_570\n      tag_424\n      jump\t// in\n    tag_570:\n        /* \"#utility.yul\":12033:12150   */\n    tag_569:\n        /* \"#utility.yul\":12174:12237   */\n      tag_571\n        /* \"#utility.yul\":12229:12236   */\n      dup15\n        /* \"#utility.yul\":12220:12226   */\n      dup3\n        /* \"#utility.yul\":12209:12218   */\n      dup16\n        /* \"#utility.yul\":12205:12227   */\n      add\n        /* \"#utility.yul\":12174:12237   */\n      tag_434\n      jump\t// in\n    tag_571:\n        /* \"#utility.yul\":12164:12237   */\n      swap10\n      pop\n        /* \"#utility.yul\":11959:12247   */\n      pop\n        /* \"#utility.yul\":12314:12316   */\n      0x60\n        /* \"#utility.yul\":12303:12312   */\n      dup13\n        /* \"#utility.yul\":12299:12317   */\n      add\n        /* \"#utility.yul\":12286:12318   */\n      calldataload\n        /* \"#utility.yul\":12345:12363   */\n      0xffffffffffffffff\n        /* \"#utility.yul\":12337:12343   */\n      dup2\n        /* \"#utility.yul\":12334:12364   */\n      gt\n        /* \"#utility.yul\":12331:12448   */\n      iszero\n      tag_572\n      jumpi\n        /* \"#utility.yul\":12367:12446   */\n      tag_573\n      tag_424\n      jump\t// in\n    tag_573:\n        /* \"#utility.yul\":12331:12448   */\n    tag_572:\n        /* \"#utility.yul\":12472:12535   */\n      tag_574\n        /* \"#utility.yul\":12527:12534   */\n      dup15\n        /* \"#utility.yul\":12518:12524   */\n      dup3\n        /* \"#utility.yul\":12507:12516   */\n      dup16\n        /* \"#utility.yul\":12503:12525   */\n      add\n        /* \"#utility.yul\":12472:12535   */\n      tag_434\n      jump\t// in\n    tag_574:\n        /* \"#utility.yul\":12462:12535   */\n      swap9\n      pop\n        /* \"#utility.yul\":12257:12545   */\n      pop\n        /* \"#utility.yul\":12612:12615   */\n      0x80\n        /* \"#utility.yul\":12601:12610   */\n      dup13\n        /* \"#utility.yul\":12597:12616   */\n      add\n        /* \"#utility.yul\":12584:12617   */\n      calldataload\n        /* \"#utility.yul\":12644:12662   */\n      0xffffffffffffffff\n        /* \"#utility.yul\":12636:12642   */\n      dup2\n        /* \"#utility.yul\":12633:12663   */\n      gt\n        /* \"#utility.yul\":12630:12747   */\n      iszero\n      tag_575\n      jumpi\n        /* \"#utility.yul\":12666:12745   */\n      tag_576\n      tag_424\n      jump\t// in\n    tag_576:\n        /* \"#utility.yul\":12630:12747   */\n    tag_575:\n        /* \"#utility.yul\":12771:12834   */\n      tag_577\n        /* \"#utility.yul\":12826:12833   */\n      dup15\n        /* \"#utility.yul\":12817:12823   */\n      dup3\n        /* \"#utility.yul\":12806:12815   */\n      dup16\n        /* \"#utility.yul\":12802:12824   */\n      add\n        /* \"#utility.yul\":12771:12834   */\n      tag_434\n      jump\t// in\n    tag_577:\n        /* \"#utility.yul\":12761:12834   */\n      swap8\n      pop\n        /* \"#utility.yul\":12555:12844   */\n      pop\n        /* \"#utility.yul\":12911:12914   */\n      0xa0\n        /* \"#utility.yul\":12900:12909   */\n      dup13\n        /* \"#utility.yul\":12896:12915   */\n      add\n        /* \"#utility.yul\":12883:12916   */\n      calldataload\n        /* \"#utility.yul\":12943:12961   */\n      0xffffffffffffffff\n        /* \"#utility.yul\":12935:12941   */\n      dup2\n        /* \"#utility.yul\":12932:12962   */\n      gt\n        /* \"#utility.yul\":12929:13046   */\n      iszero\n      tag_578\n      jumpi\n        /* \"#utility.yul\":12965:13044   */\n      tag_579\n      tag_424\n      jump\t// in\n    tag_579:\n        /* \"#utility.yul\":12929:13046   */\n    tag_578:\n        /* \"#utility.yul\":13070:13133   */\n      tag_580\n        /* \"#utility.yul\":13125:13132   */\n      dup15\n        /* \"#utility.yul\":13116:13122   */\n      dup3\n        /* \"#utility.yul\":13105:13114   */\n      dup16\n        /* \"#utility.yul\":13101:13123   */\n      add\n        /* \"#utility.yul\":13070:13133   */\n      tag_434\n      jump\t// in\n    tag_580:\n        /* \"#utility.yul\":13060:13133   */\n      swap7\n      pop\n        /* \"#utility.yul\":12854:13143   */\n      pop\n        /* \"#utility.yul\":13210:13213   */\n      0xc0\n        /* \"#utility.yul\":13199:13208   */\n      dup13\n        /* \"#utility.yul\":13195:13214   */\n      add\n        /* \"#utility.yul\":13182:13215   */\n      calldataload\n        /* \"#utility.yul\":13242:13260   */\n      0xffffffffffffffff\n        /* \"#utility.yul\":13234:13240   */\n      dup2\n        /* \"#utility.yul\":13231:13261   */\n      gt\n        /* \"#utility.yul\":13228:13345   */\n      iszero\n      tag_581\n      jumpi\n        /* \"#utility.yul\":13264:13343   */\n      tag_582\n      tag_424\n      jump\t// in\n    tag_582:\n        /* \"#utility.yul\":13228:13345   */\n    tag_581:\n        /* \"#utility.yul\":13369:13432   */\n      tag_583\n        /* \"#utility.yul\":13424:13431   */\n      dup15\n        /* \"#utility.yul\":13415:13421   */\n      dup3\n        /* \"#utility.yul\":13404:13413   */\n      dup16\n        /* \"#utility.yul\":13400:13422   */\n      add\n        /* \"#utility.yul\":13369:13432   */\n      tag_434\n      jump\t// in\n    tag_583:\n        /* \"#utility.yul\":13359:13432   */\n      swap6\n      pop\n        /* \"#utility.yul\":13153:13442   */\n      pop\n        /* \"#utility.yul\":13509:13512   */\n      0xe0\n        /* \"#utility.yul\":13498:13507   */\n      dup13\n        /* \"#utility.yul\":13494:13513   */\n      add\n        /* \"#utility.yul\":13481:13514   */\n      calldataload\n        /* \"#utility.yul\":13541:13559   */\n      0xffffffffffffffff\n        /* \"#utility.yul\":13533:13539   */\n      dup2\n        /* \"#utility.yul\":13530:13560   */\n      gt\n        /* \"#utility.yul\":13527:13644   */\n      iszero\n      tag_584\n      jumpi\n        /* \"#utility.yul\":13563:13642   */\n      tag_585\n      tag_424\n      jump\t// in\n    tag_585:\n        /* \"#utility.yul\":13527:13644   */\n    tag_584:\n        /* \"#utility.yul\":13668:13731   */\n      tag_586\n        /* \"#utility.yul\":13723:13730   */\n      dup15\n        /* \"#utility.yul\":13714:13720   */\n      dup3\n        /* \"#utility.yul\":13703:13712   */\n      dup16\n        /* \"#utility.yul\":13699:13721   */\n      add\n        /* \"#utility.yul\":13668:13731   */\n      tag_434\n      jump\t// in\n    tag_586:\n        /* \"#utility.yul\":13658:13731   */\n      swap5\n      pop\n        /* \"#utility.yul\":13452:13741   */\n      pop\n        /* \"#utility.yul\":13808:13811   */\n      0x0100\n        /* \"#utility.yul\":13797:13806   */\n      dup13\n        /* \"#utility.yul\":13793:13812   */\n      add\n        /* \"#utility.yul\":13780:13813   */\n      calldataload\n        /* \"#utility.yul\":13840:13858   */\n      0xffffffffffffffff\n        /* \"#utility.yul\":13832:13838   */\n      dup2\n        /* \"#utility.yul\":13829:13859   */\n      gt\n        /* \"#utility.yul\":13826:13943   */\n      iszero\n      tag_587\n      jumpi\n        /* \"#utility.yul\":13862:13941   */\n      tag_588\n      tag_424\n      jump\t// in\n    tag_588:\n        /* \"#utility.yul\":13826:13943   */\n    tag_587:\n        /* \"#utility.yul\":13967:14030   */\n      tag_589\n        /* \"#utility.yul\":14022:14029   */\n      dup15\n        /* \"#utility.yul\":14013:14019   */\n      dup3\n        /* \"#utility.yul\":14002:14011   */\n      dup16\n        /* \"#utility.yul\":13998:14020   */\n      add\n        /* \"#utility.yul\":13967:14030   */\n      tag_434\n      jump\t// in\n    tag_589:\n        /* \"#utility.yul\":13957:14030   */\n      swap4\n      pop\n        /* \"#utility.yul\":13751:14040   */\n      pop\n        /* \"#utility.yul\":14107:14110   */\n      0x0120\n        /* \"#utility.yul\":14096:14105   */\n      dup13\n        /* \"#utility.yul\":14092:14111   */\n      add\n        /* \"#utility.yul\":14079:14112   */\n      calldataload\n        /* \"#utility.yul\":14139:14157   */\n      0xffffffffffffffff\n        /* \"#utility.yul\":14131:14137   */\n      dup2\n        /* \"#utility.yul\":14128:14158   */\n      gt\n        /* \"#utility.yul\":14125:14242   */\n      iszero\n      tag_590\n      jumpi\n        /* \"#utility.yul\":14161:14240   */\n      tag_591\n      tag_424\n      jump\t// in\n    tag_591:\n        /* \"#utility.yul\":14125:14242   */\n    tag_590:\n        /* \"#utility.yul\":14266:14329   */\n      tag_592\n        /* \"#utility.yul\":14321:14328   */\n      dup15\n        /* \"#utility.yul\":14312:14318   */\n      dup3\n        /* \"#utility.yul\":14301:14310   */\n      dup16\n        /* \"#utility.yul\":14297:14319   */\n      add\n        /* \"#utility.yul\":14266:14329   */\n      tag_434\n      jump\t// in\n    tag_592:\n        /* \"#utility.yul\":14256:14329   */\n      swap3\n      pop\n        /* \"#utility.yul\":14050:14339   */\n      pop\n        /* \"#utility.yul\":14406:14409   */\n      0x0140\n        /* \"#utility.yul\":14395:14404   */\n      dup13\n        /* \"#utility.yul\":14391:14410   */\n      add\n        /* \"#utility.yul\":14378:14411   */\n      calldataload\n        /* \"#utility.yul\":14438:14456   */\n      0xffffffffffffffff\n        /* \"#utility.yul\":14430:14436   */\n      dup2\n        /* \"#utility.yul\":14427:14457   */\n      gt\n        /* \"#utility.yul\":14424:14541   */\n      iszero\n      tag_593\n      jumpi\n        /* \"#utility.yul\":14460:14539   */\n      tag_594\n      tag_424\n      jump\t// in\n    tag_594:\n        /* \"#utility.yul\":14424:14541   */\n    tag_593:\n        /* \"#utility.yul\":14566:14629   */\n      tag_595\n        /* \"#utility.yul\":14621:14628   */\n      dup15\n        /* \"#utility.yul\":14612:14618   */\n      dup3\n        /* \"#utility.yul\":14601:14610   */\n      dup16\n        /* \"#utility.yul\":14597:14619   */\n      add\n        /* \"#utility.yul\":14566:14629   */\n      tag_434\n      jump\t// in\n    tag_595:\n        /* \"#utility.yul\":14555:14629   */\n      swap2\n      pop\n        /* \"#utility.yul\":14349:14639   */\n      pop\n        /* \"#utility.yul\":10877:14646   */\n      swap3\n      swap6\n      swap9\n      swap12\n      pop\n      swap3\n      swap6\n      swap9\n      swap12\n      swap1\n      swap4\n      swap7\n      swap10\n      pop\n      jump\t// out\n        /* \"#utility.yul\":14652:16985   */\n    tag_46:\n        /* \"#utility.yul\":15246:15250   */\n      0x00\n        /* \"#utility.yul\":15284:15287   */\n      0x0160\n        /* \"#utility.yul\":15273:15282   */\n      dup3\n        /* \"#utility.yul\":15269:15288   */\n      add\n        /* \"#utility.yul\":15261:15288   */\n      swap1\n      pop\n        /* \"#utility.yul\":15334:15343   */\n      dup2\n        /* \"#utility.yul\":15328:15332   */\n      dup2\n        /* \"#utility.yul\":15324:15344   */\n      sub\n        /* \"#utility.yul\":15320:15321   */\n      0x00\n        /* \"#utility.yul\":15309:15318   */\n      dup4\n        /* \"#utility.yul\":15305:15322   */\n      add\n        /* \"#utility.yul\":15298:15345   */\n      mstore\n        /* \"#utility.yul\":15362:15440   */\n      tag_597\n        /* \"#utility.yul\":15435:15439   */\n      dup2\n        /* \"#utility.yul\":15426:15432   */\n      dup15\n        /* \"#utility.yul\":15362:15440   */\n      tag_441\n      jump\t// in\n    tag_597:\n        /* \"#utility.yul\":15354:15440   */\n      swap1\n      pop\n        /* \"#utility.yul\":15487:15496   */\n      dup2\n        /* \"#utility.yul\":15481:15485   */\n      dup2\n        /* \"#utility.yul\":15477:15497   */\n      sub\n        /* \"#utility.yul\":15472:15474   */\n      0x20\n        /* \"#utility.yul\":15461:15470   */\n      dup4\n        /* \"#utility.yul\":15457:15475   */\n      add\n        /* \"#utility.yul\":15450:15498   */\n      mstore\n        /* \"#utility.yul\":15515:15593   */\n      tag_598\n        /* \"#utility.yul\":15588:15592   */\n      dup2\n        /* \"#utility.yul\":15579:15585   */\n      dup14\n        /* \"#utility.yul\":15515:15593   */\n      tag_441\n      jump\t// in\n    tag_598:\n        /* \"#utility.yul\":15507:15593   */\n      swap1\n      pop\n        /* \"#utility.yul\":15640:15649   */\n      dup2\n        /* \"#utility.yul\":15634:15638   */\n      dup2\n        /* \"#utility.yul\":15630:15650   */\n      sub\n        /* \"#utility.yul\":15625:15627   */\n      0x40\n        /* \"#utility.yul\":15614:15623   */\n      dup4\n        /* \"#utility.yul\":15610:15628   */\n      add\n        /* \"#utility.yul\":15603:15651   */\n      mstore\n        /* \"#utility.yul\":15668:15746   */\n      tag_599\n        /* \"#utility.yul\":15741:15745   */\n      dup2\n        /* \"#utility.yul\":15732:15738   */\n      dup13\n        /* \"#utility.yul\":15668:15746   */\n      tag_441\n      jump\t// in\n    tag_599:\n        /* \"#utility.yul\":15660:15746   */\n      swap1\n      pop\n        /* \"#utility.yul\":15793:15802   */\n      dup2\n        /* \"#utility.yul\":15787:15791   */\n      dup2\n        /* \"#utility.yul\":15783:15803   */\n      sub\n        /* \"#utility.yul\":15778:15780   */\n      0x60\n        /* \"#utility.yul\":15767:15776   */\n      dup4\n        /* \"#utility.yul\":15763:15781   */\n      add\n        /* \"#utility.yul\":15756:15804   */\n      mstore\n        /* \"#utility.yul\":15821:15899   */\n      tag_600\n        /* \"#utility.yul\":15894:15898   */\n      dup2\n        /* \"#utility.yul\":15885:15891   */\n      dup12\n        /* \"#utility.yul\":15821:15899   */\n      tag_441\n      jump\t// in\n    tag_600:\n        /* \"#utility.yul\":15813:15899   */\n      swap1\n      pop\n        /* \"#utility.yul\":15947:15956   */\n      dup2\n        /* \"#utility.yul\":15941:15945   */\n      dup2\n        /* \"#utility.yul\":15937:15957   */\n      sub\n        /* \"#utility.yul\":15931:15934   */\n      0x80\n        /* \"#utility.yul\":15920:15929   */\n      dup4\n        /* \"#utility.yul\":15916:15935   */\n      add\n        /* \"#utility.yul\":15909:15958   */\n      mstore\n        /* \"#utility.yul\":15975:16053   */\n      tag_601\n        /* \"#utility.yul\":16048:16052   */\n      dup2\n        /* \"#utility.yul\":16039:16045   */\n      dup11\n        /* \"#utility.yul\":15975:16053   */\n      tag_441\n      jump\t// in\n    tag_601:\n        /* \"#utility.yul\":15967:16053   */\n      swap1\n      pop\n        /* \"#utility.yul\":16101:16110   */\n      dup2\n        /* \"#utility.yul\":16095:16099   */\n      dup2\n        /* \"#utility.yul\":16091:16111   */\n      sub\n        /* \"#utility.yul\":16085:16088   */\n      0xa0\n        /* \"#utility.yul\":16074:16083   */\n      dup4\n        /* \"#utility.yul\":16070:16089   */\n      add\n        /* \"#utility.yul\":16063:16112   */\n      mstore\n        /* \"#utility.yul\":16129:16207   */\n      tag_602\n        /* \"#utility.yul\":16202:16206   */\n      dup2\n        /* \"#utility.yul\":16193:16199   */\n      dup10\n        /* \"#utility.yul\":16129:16207   */\n      tag_441\n      jump\t// in\n    tag_602:\n        /* \"#utility.yul\":16121:16207   */\n      swap1\n      pop\n        /* \"#utility.yul\":16255:16264   */\n      dup2\n        /* \"#utility.yul\":16249:16253   */\n      dup2\n        /* \"#utility.yul\":16245:16265   */\n      sub\n        /* \"#utility.yul\":16239:16242   */\n      0xc0\n        /* \"#utility.yul\":16228:16237   */\n      dup4\n        /* \"#utility.yul\":16224:16243   */\n      add\n        /* \"#utility.yul\":16217:16266   */\n      mstore\n        /* \"#utility.yul\":16283:16361   */\n      tag_603\n        /* \"#utility.yul\":16356:16360   */\n      dup2\n        /* \"#utility.yul\":16347:16353   */\n      dup9\n        /* \"#utility.yul\":16283:16361   */\n      tag_441\n      jump\t// in\n    tag_603:\n        /* \"#utility.yul\":16275:16361   */\n      swap1\n      pop\n        /* \"#utility.yul\":16409:16418   */\n      dup2\n        /* \"#utility.yul\":16403:16407   */\n      dup2\n        /* \"#utility.yul\":16399:16419   */\n      sub\n        /* \"#utility.yul\":16393:16396   */\n      0xe0\n        /* \"#utility.yul\":16382:16391   */\n      dup4\n        /* \"#utility.yul\":16378:16397   */\n      add\n        /* \"#utility.yul\":16371:16420   */\n      mstore\n        /* \"#utility.yul\":16437:16515   */\n      tag_604\n        /* \"#utility.yul\":16510:16514   */\n      dup2\n        /* \"#utility.yul\":16501:16507   */\n      dup8\n        /* \"#utility.yul\":16437:16515   */\n      tag_441\n      jump\t// in\n    tag_604:\n        /* \"#utility.yul\":16429:16515   */\n      swap1\n      pop\n        /* \"#utility.yul\":16563:16572   */\n      dup2\n        /* \"#utility.yul\":16557:16561   */\n      dup2\n        /* \"#utility.yul\":16553:16573   */\n      sub\n        /* \"#utility.yul\":16547:16550   */\n      0x0100\n        /* \"#utility.yul\":16536:16545   */\n      dup4\n        /* \"#utility.yul\":16532:16551   */\n      add\n        /* \"#utility.yul\":16525:16574   */\n      mstore\n        /* \"#utility.yul\":16591:16669   */\n      tag_605\n        /* \"#utility.yul\":16664:16668   */\n      dup2\n        /* \"#utility.yul\":16655:16661   */\n      dup7\n        /* \"#utility.yul\":16591:16669   */\n      tag_441\n      jump\t// in\n    tag_605:\n        /* \"#utility.yul\":16583:16669   */\n      swap1\n      pop\n        /* \"#utility.yul\":16717:16726   */\n      dup2\n        /* \"#utility.yul\":16711:16715   */\n      dup2\n        /* \"#utility.yul\":16707:16727   */\n      sub\n        /* \"#utility.yul\":16701:16704   */\n      0x0120\n        /* \"#utility.yul\":16690:16699   */\n      dup4\n        /* \"#utility.yul\":16686:16705   */\n      add\n        /* \"#utility.yul\":16679:16728   */\n      mstore\n        /* \"#utility.yul\":16745:16823   */\n      tag_606\n        /* \"#utility.yul\":16818:16822   */\n      dup2\n        /* \"#utility.yul\":16809:16815   */\n      dup6\n        /* \"#utility.yul\":16745:16823   */\n      tag_441\n      jump\t// in\n    tag_606:\n        /* \"#utility.yul\":16737:16823   */\n      swap1\n      pop\n        /* \"#utility.yul\":16871:16880   */\n      dup2\n        /* \"#utility.yul\":16865:16869   */\n      dup2\n        /* \"#utility.yul\":16861:16881   */\n      sub\n        /* \"#utility.yul\":16855:16858   */\n      0x0140\n        /* \"#utility.yul\":16844:16853   */\n      dup4\n        /* \"#utility.yul\":16840:16859   */\n      add\n        /* \"#utility.yul\":16833:16882   */\n      mstore\n        /* \"#utility.yul\":16899:16978   */\n      tag_607\n        /* \"#utility.yul\":16973:16977   */\n      dup2\n        /* \"#utility.yul\":16963:16970   */\n      dup5\n        /* \"#utility.yul\":16899:16978   */\n      tag_441\n      jump\t// in\n    tag_607:\n        /* \"#utility.yul\":16891:16978   */\n      swap1\n      pop\n        /* \"#utility.yul\":14652:16985   */\n      swap13\n      swap12\n      pop\n      pop\n      pop\n      pop\n      pop\n      pop\n      pop\n      pop\n      pop\n      pop\n      pop\n      pop\n      jump\t// out\n        /* \"#utility.yul\":16991:17706   */\n    tag_51:\n        /* \"#utility.yul\":17200:17204   */\n      0x00\n        /* \"#utility.yul\":17238:17240   */\n      0x60\n        /* \"#utility.yul\":17227:17236   */\n      dup3\n        /* \"#utility.yul\":17223:17241   */\n      add\n        /* \"#utility.yul\":17215:17241   */\n      swap1\n      pop\n        /* \"#utility.yul\":17287:17296   */\n      dup2\n        /* \"#utility.yul\":17281:17285   */\n      dup2\n        /* \"#utility.yul\":17277:17297   */\n      sub\n        /* \"#utility.yul\":17273:17274   */\n      0x00\n        /* \"#utility.yul\":17262:17271   */\n      dup4\n        /* \"#utility.yul\":17258:17275   */\n      add\n        /* \"#utility.yul\":17251:17298   */\n      mstore\n        /* \"#utility.yul\":17315:17393   */\n      tag_609\n        /* \"#utility.yul\":17388:17392   */\n      dup2\n        /* \"#utility.yul\":17379:17385   */\n      dup7\n        /* \"#utility.yul\":17315:17393   */\n      tag_441\n      jump\t// in\n    tag_609:\n        /* \"#utility.yul\":17307:17393   */\n      swap1\n      pop\n        /* \"#utility.yul\":17440:17449   */\n      dup2\n        /* \"#utility.yul\":17434:17438   */\n      dup2\n        /* \"#utility.yul\":17430:17450   */\n      sub\n        /* \"#utility.yul\":17425:17427   */\n      0x20\n        /* \"#utility.yul\":17414:17423   */\n      dup4\n        /* \"#utility.yul\":17410:17428   */\n      add\n        /* \"#utility.yul\":17403:17451   */\n      mstore\n        /* \"#utility.yul\":17468:17546   */\n      tag_610\n        /* \"#utility.yul\":17541:17545   */\n      dup2\n        /* \"#utility.yul\":17532:17538   */\n      dup6\n        /* \"#utility.yul\":17468:17546   */\n      tag_441\n      jump\t// in\n    tag_610:\n        /* \"#utility.yul\":17460:17546   */\n      swap1\n      pop\n        /* \"#utility.yul\":17593:17602   */\n      dup2\n        /* \"#utility.yul\":17587:17591   */\n      dup2\n        /* \"#utility.yul\":17583:17603   */\n      sub\n        /* \"#utility.yul\":17578:17580   */\n      0x40\n        /* \"#utility.yul\":17567:17576   */\n      dup4\n        /* \"#utility.yul\":17563:17581   */\n      add\n        /* \"#utility.yul\":17556:17604   */\n      mstore\n        /* \"#utility.yul\":17621:17699   */\n      tag_611\n        /* \"#utility.yul\":17694:17698   */\n      dup2\n        /* \"#utility.yul\":17685:17691   */\n      dup5\n        /* \"#utility.yul\":17621:17699   */\n      tag_441\n      jump\t// in\n    tag_611:\n        /* \"#utility.yul\":17613:17699   */\n      swap1\n      pop\n        /* \"#utility.yul\":16991:17706   */\n      swap5\n      swap4\n      pop\n      pop\n      pop\n      pop\n      jump\t// out\n        /* \"#utility.yul\":17712:17830   */\n    tag_442:\n        /* \"#utility.yul\":17799:17823   */\n      tag_613\n        /* \"#utility.yul\":17817:17822   */\n      dup2\n        /* \"#utility.yul\":17799:17823   */\n      tag_435\n      jump\t// in\n    tag_613:\n        /* \"#utility.yul\":17794:17797   */\n      dup3\n        /* \"#utility.yul\":17787:17824   */\n      mstore\n        /* \"#utility.yul\":17712:17830   */\n      pop\n      pop\n      jump\t// out\n        /* \"#utility.yul\":17836:18058   */\n    tag_55:\n        /* \"#utility.yul\":17929:17933   */\n      0x00\n        /* \"#utility.yul\":17967:17969   */\n      0x20\n        /* \"#utility.yul\":17956:17965   */\n      dup3\n        /* \"#utility.yul\":17952:17970   */\n      add\n        /* \"#utility.yul\":17944:17970   */\n      swap1\n      pop\n        /* \"#utility.yul\":17980:18051   */\n      tag_615\n        /* \"#utility.yul\":18048:18049   */\n      0x00\n        /* \"#utility.yul\":18037:18046   */\n      dup4\n        /* \"#utility.yul\":18033:18050   */\n      add\n        /* \"#utility.yul\":18024:18030   */\n      dup5\n        /* \"#utility.yul\":17980:18051   */\n      tag_442\n      jump\t// in\n    tag_615:\n        /* \"#utility.yul\":17836:18058   */\n      swap3\n      swap2\n      pop\n      pop\n      jump\t// out\n        /* \"#utility.yul\":18064:20193   */\n    tag_60:\n        /* \"#utility.yul\":18609:18613   */\n      0x00\n        /* \"#utility.yul\":18647:18650   */\n      0x0140\n        /* \"#utility.yul\":18636:18645   */\n      dup3\n        /* \"#utility.yul\":18632:18651   */\n      add\n        /* \"#utility.yul\":18624:18651   */\n      swap1\n      pop\n        /* \"#utility.yul\":18697:18706   */\n      dup2\n        /* \"#utility.yul\":18691:18695   */\n      dup2\n        /* \"#utility.yul\":18687:18707   */\n      sub\n        /* \"#utility.yul\":18683:18684   */\n      0x00\n        /* \"#utility.yul\":18672:18681   */\n      dup4\n        /* \"#utility.yul\":18668:18685   */\n      add\n        /* \"#utility.yul\":18661:18708   */\n      mstore\n        /* \"#utility.yul\":18725:18803   */\n      tag_617\n        /* \"#utility.yul\":18798:18802   */\n      dup2\n        /* \"#utility.yul\":18789:18795   */\n      dup14\n        /* \"#utility.yul\":18725:18803   */\n      tag_441\n      jump\t// in\n    tag_617:\n        /* \"#utility.yul\":18717:18803   */\n      swap1\n      pop\n        /* \"#utility.yul\":18850:18859   */\n      dup2\n        /* \"#utility.yul\":18844:18848   */\n      dup2\n        /* \"#utility.yul\":18840:18860   */\n      sub\n        /* \"#utility.yul\":18835:18837   */\n      0x20\n        /* \"#utility.yul\":18824:18833   */\n      dup4\n        /* \"#utility.yul\":18820:18838   */\n      add\n        /* \"#utility.yul\":18813:18861   */\n      mstore\n        /* \"#utility.yul\":18878:18956   */\n      tag_618\n        /* \"#utility.yul\":18951:18955   */\n      dup2\n        /* \"#utility.yul\":18942:18948   */\n      dup13\n        /* \"#utility.yul\":18878:18956   */\n      tag_441\n      jump\t// in\n    tag_618:\n        /* \"#utility.yul\":18870:18956   */\n      swap1\n      pop\n        /* \"#utility.yul\":19003:19012   */\n      dup2\n        /* \"#utility.yul\":18997:19001   */\n      dup2\n        /* \"#utility.yul\":18993:19013   */\n      sub\n        /* \"#utility.yul\":18988:18990   */\n      0x40\n        /* \"#utility.yul\":18977:18986   */\n      dup4\n        /* \"#utility.yul\":18973:18991   */\n      add\n        /* \"#utility.yul\":18966:19014   */\n      mstore\n        /* \"#utility.yul\":19031:19109   */\n      tag_619\n        /* \"#utility.yul\":19104:19108   */\n      dup2\n        /* \"#utility.yul\":19095:19101   */\n      dup12\n        /* \"#utility.yul\":19031:19109   */\n      tag_441\n      jump\t// in\n    tag_619:\n        /* \"#utility.yul\":19023:19109   */\n      swap1\n      pop\n        /* \"#utility.yul\":19156:19165   */\n      dup2\n        /* \"#utility.yul\":19150:19154   */\n      dup2\n        /* \"#utility.yul\":19146:19166   */\n      sub\n        /* \"#utility.yul\":19141:19143   */\n      0x60\n        /* \"#utility.yul\":19130:19139   */\n      dup4\n        /* \"#utility.yul\":19126:19144   */\n      add\n        /* \"#utility.yul\":19119:19167   */\n      mstore\n        /* \"#utility.yul\":19184:19262   */\n      tag_620\n        /* \"#utility.yul\":19257:19261   */\n      dup2\n        /* \"#utility.yul\":19248:19254   */\n      dup11\n        /* \"#utility.yul\":19184:19262   */\n      tag_441\n      jump\t// in\n    tag_620:\n        /* \"#utility.yul\":19176:19262   */\n      swap1\n      pop\n        /* \"#utility.yul\":19310:19319   */\n      dup2\n        /* \"#utility.yul\":19304:19308   */\n      dup2\n        /* \"#utility.yul\":19300:19320   */\n      sub\n        /* \"#utility.yul\":19294:19297   */\n      0x80\n        /* \"#utility.yul\":19283:19292   */\n      dup4\n        /* \"#utility.yul\":19279:19298   */\n      add\n        /* \"#utility.yul\":19272:19321   */\n      mstore\n        /* \"#utility.yul\":19338:19416   */\n      tag_621\n        /* \"#utility.yul\":19411:19415   */\n      dup2\n        /* \"#utility.yul\":19402:19408   */\n      dup10\n        /* \"#utility.yul\":19338:19416   */\n      tag_441\n      jump\t// in\n    tag_621:\n        /* \"#utility.yul\":19330:19416   */\n      swap1\n      pop\n        /* \"#utility.yul\":19464:19473   */\n      dup2\n        /* \"#utility.yul\":19458:19462   */\n      dup2\n        /* \"#utility.yul\":19454:19474   */\n      sub\n        /* \"#utility.yul\":19448:19451   */\n      0xa0\n        /* \"#utility.yul\":19437:19446   */\n      dup4\n        /* \"#utility.yul\":19433:19452   */\n      add\n        /* \"#utility.yul\":19426:19475   */\n      mstore\n        /* \"#utility.yul\":19492:19570   */\n      tag_622\n        /* \"#utility.yul\":19565:19569   */\n      dup2\n        /* \"#utility.yul\":19556:19562   */\n      dup9\n        /* \"#utility.yul\":19492:19570   */\n      tag_441\n      jump\t// in\n    tag_622:\n        /* \"#utility.yul\":19484:19570   */\n      swap1\n      pop\n        /* \"#utility.yul\":19618:19627   */\n      dup2\n        /* \"#utility.yul\":19612:19616   */\n      dup2\n        /* \"#utility.yul\":19608:19628   */\n      sub\n        /* \"#utility.yul\":19602:19605   */\n      0xc0\n        /* \"#utility.yul\":19591:19600   */\n      dup4\n        /* \"#utility.yul\":19587:19606   */\n      add\n        /* \"#utility.yul\":19580:19629   */\n      mstore\n        /* \"#utility.yul\":19646:19724   */\n      tag_623\n        /* \"#utility.yul\":19719:19723   */\n      dup2\n        /* \"#utility.yul\":19710:19716   */\n      dup8\n        /* \"#utility.yul\":19646:19724   */\n      tag_441\n      jump\t// in\n    tag_623:\n        /* \"#utility.yul\":19638:19724   */\n      swap1\n      pop\n        /* \"#utility.yul\":19772:19781   */\n      dup2\n        /* \"#utility.yul\":19766:19770   */\n      dup2\n        /* \"#utility.yul\":19762:19782   */\n      sub\n        /* \"#utility.yul\":19756:19759   */\n      0xe0\n        /* \"#utility.yul\":19745:19754   */\n      dup4\n        /* \"#utility.yul\":19741:19760   */\n      add\n        /* \"#utility.yul\":19734:19783   */\n      mstore\n        /* \"#utility.yul\":19800:19878   */\n      tag_624\n        /* \"#utility.yul\":19873:19877   */\n      dup2\n        /* \"#utility.yul\":19864:19870   */\n      dup7\n        /* \"#utility.yul\":19800:19878   */\n      tag_441\n      jump\t// in\n    tag_624:\n        /* \"#utility.yul\":19792:19878   */\n      swap1\n      pop\n        /* \"#utility.yul\":19926:19935   */\n      dup2\n        /* \"#utility.yul\":19920:19924   */\n      dup2\n        /* \"#utility.yul\":19916:19936   */\n      sub\n        /* \"#utility.yul\":19910:19913   */\n      0x0100\n        /* \"#utility.yul\":19899:19908   */\n      dup4\n        /* \"#utility.yul\":19895:19914   */\n      add\n        /* \"#utility.yul\":19888:19937   */\n      mstore\n        /* \"#utility.yul\":19954:20032   */\n      tag_625\n        /* \"#utility.yul\":20027:20031   */\n      dup2\n        /* \"#utility.yul\":20018:20024   */\n      dup6\n        /* \"#utility.yul\":19954:20032   */\n      tag_441\n      jump\t// in\n    tag_625:\n        /* \"#utility.yul\":19946:20032   */\n      swap1\n      pop\n        /* \"#utility.yul\":20080:20089   */\n      dup2\n        /* \"#utility.yul\":20074:20078   */\n      dup2\n        /* \"#utility.yul\":20070:20090   */\n      sub\n        /* \"#utility.yul\":20064:20067   */\n      0x0120\n        /* \"#utility.yul\":20053:20062   */\n      dup4\n        /* \"#utility.yul\":20049:20068   */\n      add\n        /* \"#utility.yul\":20042:20091   */\n      mstore\n        /* \"#utility.yul\":20108:20186   */\n      tag_626\n        /* \"#utility.yul\":20181:20185   */\n      dup2\n        /* \"#utility.yul\":20172:20178   */\n      dup5\n        /* \"#utility.yul\":20108:20186   */\n      tag_441\n      jump\t// in\n    tag_626:\n        /* \"#utility.yul\":20100:20186   */\n      swap1\n      pop\n        /* \"#utility.yul\":18064:20193   */\n      swap12\n      swap11\n      pop\n      pop\n      pop\n      pop\n      pop\n      pop\n      pop\n      pop\n      pop\n      pop\n      pop\n      jump\t// out\n        /* \"#utility.yul\":20199:20853   */\n    tag_63:\n        /* \"#utility.yul\":20277:20283   */\n      0x00\n        /* \"#utility.yul\":20285:20291   */\n      dup1\n        /* \"#utility.yul\":20334:20336   */\n      0x40\n        /* \"#utility.yul\":20322:20331   */\n      dup4\n        /* \"#utility.yul\":20313:20320   */\n      dup6\n        /* \"#utility.yul\":20309:20332   */\n      sub\n        /* \"#utility.yul\":20305:20337   */\n      slt\n        /* \"#utility.yul\":20302:20421   */\n      iszero\n      tag_628\n      jumpi\n        /* \"#utility.yul\":20340:20419   */\n      tag_629\n      tag_423\n      jump\t// in\n    tag_629:\n        /* \"#utility.yul\":20302:20421   */\n    tag_628:\n        /* \"#utility.yul\":20460:20461   */\n      0x00\n        /* \"#utility.yul\":20485:20538   */\n      tag_630\n        /* \"#utility.yul\":20530:20537   */\n      dup6\n        /* \"#utility.yul\":20521:20527   */\n      dup3\n        /* \"#utility.yul\":20510:20519   */\n      dup7\n        /* \"#utility.yul\":20506:20528   */\n      add\n        /* \"#utility.yul\":20485:20538   */\n      tag_437\n      jump\t// in\n    tag_630:\n        /* \"#utility.yul\":20475:20538   */\n      swap3\n      pop\n        /* \"#utility.yul\":20431:20548   */\n      pop\n        /* \"#utility.yul\":20615:20617   */\n      0x20\n        /* \"#utility.yul\":20604:20613   */\n      dup4\n        /* \"#utility.yul\":20600:20618   */\n      add\n        /* \"#utility.yul\":20587:20619   */\n      calldataload\n        /* \"#utility.yul\":20646:20664   */\n      0xffffffffffffffff\n        /* \"#utility.yul\":20638:20644   */\n      dup2\n        /* \"#utility.yul\":20635:20665   */\n      gt\n        /* \"#utility.yul\":20632:20749   */\n      iszero\n      tag_631\n      jumpi\n        /* \"#utility.yul\":20668:20747   */\n      tag_632\n      tag_424\n      jump\t// in\n    tag_632:\n        /* \"#utility.yul\":20632:20749   */\n    tag_631:\n        /* \"#utility.yul\":20773:20836   */\n      tag_633\n        /* \"#utility.yul\":20828:20835   */\n      dup6\n        /* \"#utility.yul\":20819:20825   */\n      dup3\n        /* \"#utility.yul\":20808:20817   */\n      dup7\n        /* \"#utility.yul\":20804:20826   */\n      add\n        /* \"#utility.yul\":20773:20836   */\n      tag_434\n      jump\t// in\n    tag_633:\n        /* \"#utility.yul\":20763:20836   */\n      swap2\n      pop\n        /* \"#utility.yul\":20558:20846   */\n      pop\n        /* \"#utility.yul\":20199:20853   */\n      swap3\n      pop\n      swap3\n      swap1\n      pop\n      jump\t// out\n        /* \"#utility.yul\":20859:24448   */\n    tag_71:\n        /* \"#utility.yul\":21108:21114   */\n      0x00\n        /* \"#utility.yul\":21116:21122   */\n      dup1\n        /* \"#utility.yul\":21124:21130   */\n      0x00\n        /* \"#utility.yul\":21132:21138   */\n      dup1\n        /* \"#utility.yul\":21140:21146   */\n      0x00\n        /* \"#utility.yul\":21148:21154   */\n      dup1\n        /* \"#utility.yul\":21156:21162   */\n      0x00\n        /* \"#utility.yul\":21164:21170   */\n      dup1\n        /* \"#utility.yul\":21172:21178   */\n      0x00\n        /* \"#utility.yul\":21180:21186   */\n      dup1\n        /* \"#utility.yul\":21188:21195   */\n      0x00\n        /* \"#utility.yul\":21238:21241   */\n      0x0160\n        /* \"#utility.yul\":21226:21235   */\n      dup13\n        /* \"#utility.yul\":21217:21224   */\n      dup15\n        /* \"#utility.yul\":21213:21236   */\n      sub\n        /* \"#utility.yul\":21209:21242   */\n      slt\n        /* \"#utility.yul\":21206:21326   */\n      iszero\n      tag_635\n      jumpi\n        /* \"#utility.yul\":21245:21324   */\n      tag_636\n      tag_423\n      jump\t// in\n    tag_636:\n        /* \"#utility.yul\":21206:21326   */\n    tag_635:\n        /* \"#utility.yul\":21365:21366   */\n      0x00\n        /* \"#utility.yul\":21390:21443   */\n      tag_637\n        /* \"#utility.yul\":21435:21442   */\n      dup15\n        /* \"#utility.yul\":21426:21432   */\n      dup3\n        /* \"#utility.yul\":21415:21424   */\n      dup16\n        /* \"#utility.yul\":21411:21433   */\n      add\n        /* \"#utility.yul\":21390:21443   */\n      tag_437\n      jump\t// in\n    tag_637:\n        /* \"#utility.yul\":21380:21443   */\n      swap12\n      pop\n        /* \"#utility.yul\":21336:21453   */\n      pop\n        /* \"#utility.yul\":21520:21522   */\n      0x20\n        /* \"#utility.yul\":21509:21518   */\n      dup13\n        /* \"#utility.yul\":21505:21523   */\n      add\n        /* \"#utility.yul\":21492:21524   */\n      calldataload\n        /* \"#utility.yul\":21551:21569   */\n      0xffffffffffffffff\n        /* \"#utility.yul\":21543:21549   */\n      dup2\n        /* \"#utility.yul\":21540:21570   */\n      gt\n        /* \"#utility.yul\":21537:21654   */\n      iszero\n      tag_638\n      jumpi\n        /* \"#utility.yul\":21573:21652   */\n      tag_639\n      tag_424\n      jump\t// in\n    tag_639:\n        /* \"#utility.yul\":21537:21654   */\n    tag_638:\n        /* \"#utility.yul\":21678:21741   */\n      tag_640\n        /* \"#utility.yul\":21733:21740   */\n      dup15\n        /* \"#utility.yul\":21724:21730   */\n      dup3\n        /* \"#utility.yul\":21713:21722   */\n      dup16\n        /* \"#utility.yul\":21709:21731   */\n      add\n        /* \"#utility.yul\":21678:21741   */\n      tag_434\n      jump\t// in\n    tag_640:\n        /* \"#utility.yul\":21668:21741   */\n      swap11\n      pop\n        /* \"#utility.yul\":21463:21751   */\n      pop\n        /* \"#utility.yul\":21818:21820   */\n      0x40\n        /* \"#utility.yul\":21807:21816   */\n      dup13\n        /* \"#utility.yul\":21803:21821   */\n      add\n        /* \"#utility.yul\":21790:21822   */\n      calldataload\n        /* \"#utility.yul\":21849:21867   */\n      0xffffffffffffffff\n        /* \"#utility.yul\":21841:21847   */\n      dup2\n        /* \"#utility.yul\":21838:21868   */\n      gt\n        /* \"#utility.yul\":21835:21952   */\n      iszero\n      tag_641\n      jumpi\n        /* \"#utility.yul\":21871:21950   */\n      tag_642\n      tag_424\n      jump\t// in\n    tag_642:\n        /* \"#utility.yul\":21835:21952   */\n    tag_641:\n        /* \"#utility.yul\":21976:22039   */\n      tag_643\n        /* \"#utility.yul\":22031:22038   */\n      dup15\n        /* \"#utility.yul\":22022:22028   */\n      dup3\n        /* \"#utility.yul\":22011:22020   */\n      dup16\n        /* \"#utility.yul\":22007:22029   */\n      add\n        /* \"#utility.yul\":21976:22039   */\n      tag_434\n      jump\t// in\n    tag_643:\n        /* \"#utility.yul\":21966:22039   */\n      swap10\n      pop\n        /* \"#utility.yul\":21761:22049   */\n      pop\n        /* \"#utility.yul\":22116:22118   */\n      0x60\n        /* \"#utility.yul\":22105:22114   */\n      dup13\n        /* \"#utility.yul\":22101:22119   */\n      add\n        /* \"#utility.yul\":22088:22120   */\n      calldataload\n        /* \"#utility.yul\":22147:22165   */\n      0xffffffffffffffff\n        /* \"#utility.yul\":22139:22145   */\n      dup2\n        /* \"#utility.yul\":22136:22166   */\n      gt\n        /* \"#utility.yul\":22133:22250   */\n      iszero\n      tag_644\n      jumpi\n        /* \"#utility.yul\":22169:22248   */\n      tag_645\n      tag_424\n      jump\t// in\n    tag_645:\n        /* \"#utility.yul\":22133:22250   */\n    tag_644:\n        /* \"#utility.yul\":22274:22337   */\n      tag_646\n        /* \"#utility.yul\":22329:22336   */\n      dup15\n        /* \"#utility.yul\":22320:22326   */\n      dup3\n        /* \"#utility.yul\":22309:22318   */\n      dup16\n        /* \"#utility.yul\":22305:22327   */\n      add\n        /* \"#utility.yul\":22274:22337   */\n      tag_434\n      jump\t// in\n    tag_646:\n        /* \"#utility.yul\":22264:22337   */\n      swap9\n      pop\n        /* \"#utility.yul\":22059:22347   */\n      pop\n        /* \"#utility.yul\":22414:22417   */\n      0x80\n        /* \"#utility.yul\":22403:22412   */\n      dup13\n        /* \"#utility.yul\":22399:22418   */\n      add\n        /* \"#utility.yul\":22386:22419   */\n      calldataload\n        /* \"#utility.yul\":22446:22464   */\n      0xffffffffffffffff\n        /* \"#utility.yul\":22438:22444   */\n      dup2\n        /* \"#utility.yul\":22435:22465   */\n      gt\n        /* \"#utility.yul\":22432:22549   */\n      iszero\n      tag_647\n      jumpi\n        /* \"#utility.yul\":22468:22547   */\n      tag_648\n      tag_424\n      jump\t// in\n    tag_648:\n        /* \"#utility.yul\":22432:22549   */\n    tag_647:\n        /* \"#utility.yul\":22573:22636   */\n      tag_649\n        /* \"#utility.yul\":22628:22635   */\n      dup15\n        /* \"#utility.yul\":22619:22625   */\n      dup3\n        /* \"#utility.yul\":22608:22617   */\n      dup16\n        /* \"#utility.yul\":22604:22626   */\n      add\n        /* \"#utility.yul\":22573:22636   */\n      tag_434\n      jump\t// in\n    tag_649:\n        /* \"#utility.yul\":22563:22636   */\n      swap8\n      pop\n        /* \"#utility.yul\":22357:22646   */\n      pop\n        /* \"#utility.yul\":22713:22716   */\n      0xa0\n        /* \"#utility.yul\":22702:22711   */\n      dup13\n        /* \"#utility.yul\":22698:22717   */\n      add\n        /* \"#utility.yul\":22685:22718   */\n      calldataload\n        /* \"#utility.yul\":22745:22763   */\n      0xffffffffffffffff\n        /* \"#utility.yul\":22737:22743   */\n      dup2\n        /* \"#utility.yul\":22734:22764   */\n      gt\n        /* \"#utility.yul\":22731:22848   */\n      iszero\n      tag_650\n      jumpi\n        /* \"#utility.yul\":22767:22846   */\n      tag_651\n      tag_424\n      jump\t// in\n    tag_651:\n        /* \"#utility.yul\":22731:22848   */\n    tag_650:\n        /* \"#utility.yul\":22872:22935   */\n      tag_652\n        /* \"#utility.yul\":22927:22934   */\n      dup15\n        /* \"#utility.yul\":22918:22924   */\n      dup3\n        /* \"#utility.yul\":22907:22916   */\n      dup16\n        /* \"#utility.yul\":22903:22925   */\n      add\n        /* \"#utility.yul\":22872:22935   */\n      tag_434\n      jump\t// in\n    tag_652:\n        /* \"#utility.yul\":22862:22935   */\n      swap7\n      pop\n        /* \"#utility.yul\":22656:22945   */\n      pop\n        /* \"#utility.yul\":23012:23015   */\n      0xc0\n        /* \"#utility.yul\":23001:23010   */\n      dup13\n        /* \"#utility.yul\":22997:23016   */\n      add\n        /* \"#utility.yul\":22984:23017   */\n      calldataload\n        /* \"#utility.yul\":23044:23062   */\n      0xffffffffffffffff\n        /* \"#utility.yul\":23036:23042   */\n      dup2\n        /* \"#utility.yul\":23033:23063   */\n      gt\n        /* \"#utility.yul\":23030:23147   */\n      iszero\n      tag_653\n      jumpi\n        /* \"#utility.yul\":23066:23145   */\n      tag_654\n      tag_424\n      jump\t// in\n    tag_654:\n        /* \"#utility.yul\":23030:23147   */\n    tag_653:\n        /* \"#utility.yul\":23171:23234   */\n      tag_655\n        /* \"#utility.yul\":23226:23233   */\n      dup15\n        /* \"#utility.yul\":23217:23223   */\n      dup3\n        /* \"#utility.yul\":23206:23215   */\n      dup16\n        /* \"#utility.yul\":23202:23224   */\n      add\n        /* \"#utility.yul\":23171:23234   */\n      tag_434\n      jump\t// in\n    tag_655:\n        /* \"#utility.yul\":23161:23234   */\n      swap6\n      pop\n        /* \"#utility.yul\":22955:23244   */\n      pop\n        /* \"#utility.yul\":23311:23314   */\n      0xe0\n        /* \"#utility.yul\":23300:23309   */\n      dup13\n        /* \"#utility.yul\":23296:23315   */\n      add\n        /* \"#utility.yul\":23283:23316   */\n      calldataload\n        /* \"#utility.yul\":23343:23361   */\n      0xffffffffffffffff\n        /* \"#utility.yul\":23335:23341   */\n      dup2\n        /* \"#utility.yul\":23332:23362   */\n      gt\n        /* \"#utility.yul\":23329:23446   */\n      iszero\n      tag_656\n      jumpi\n        /* \"#utility.yul\":23365:23444   */\n      tag_657\n      tag_424\n      jump\t// in\n    tag_657:\n        /* \"#utility.yul\":23329:23446   */\n    tag_656:\n        /* \"#utility.yul\":23470:23533   */\n      tag_658\n        /* \"#utility.yul\":23525:23532   */\n      dup15\n        /* \"#utility.yul\":23516:23522   */\n      dup3\n        /* \"#utility.yul\":23505:23514   */\n      dup16\n        /* \"#utility.yul\":23501:23523   */\n      add\n        /* \"#utility.yul\":23470:23533   */\n      tag_434\n      jump\t// in\n    tag_658:\n        /* \"#utility.yul\":23460:23533   */\n      swap5\n      pop\n        /* \"#utility.yul\":23254:23543   */\n      pop\n        /* \"#utility.yul\":23610:23613   */\n      0x0100\n        /* \"#utility.yul\":23599:23608   */\n      dup13\n        /* \"#utility.yul\":23595:23614   */\n      add\n        /* \"#utility.yul\":23582:23615   */\n      calldataload\n        /* \"#utility.yul\":23642:23660   */\n      0xffffffffffffffff\n        /* \"#utility.yul\":23634:23640   */\n      dup2\n        /* \"#utility.yul\":23631:23661   */\n      gt\n        /* \"#utility.yul\":23628:23745   */\n      iszero\n      tag_659\n      jumpi\n        /* \"#utility.yul\":23664:23743   */\n      tag_660\n      tag_424\n      jump\t// in\n    tag_660:\n        /* \"#utility.yul\":23628:23745   */\n    tag_659:\n        /* \"#utility.yul\":23769:23832   */\n      tag_661\n        /* \"#utility.yul\":23824:23831   */\n      dup15\n        /* \"#utility.yul\":23815:23821   */\n      dup3\n        /* \"#utility.yul\":23804:23813   */\n      dup16\n        /* \"#utility.yul\":23800:23822   */\n      add\n        /* \"#utility.yul\":23769:23832   */\n      tag_434\n      jump\t// in\n    tag_661:\n        /* \"#utility.yul\":23759:23832   */\n      swap4\n      pop\n        /* \"#utility.yul\":23553:23842   */\n      pop\n        /* \"#utility.yul\":23909:23912   */\n      0x0120\n        /* \"#utility.yul\":23898:23907   */\n      dup13\n        /* \"#utility.yul\":23894:23913   */\n      add\n        /* \"#utility.yul\":23881:23914   */\n      calldataload\n        /* \"#utility.yul\":23941:23959   */\n      0xffffffffffffffff\n        /* \"#utility.yul\":23933:23939   */\n      dup2\n        /* \"#utility.yul\":23930:23960   */\n      gt\n        /* \"#utility.yul\":23927:24044   */\n      iszero\n      tag_662\n      jumpi\n        /* \"#utility.yul\":23963:24042   */\n      tag_663\n      tag_424\n      jump\t// in\n    tag_663:\n        /* \"#utility.yul\":23927:24044   */\n    tag_662:\n        /* \"#utility.yul\":24068:24131   */\n      tag_664\n        /* \"#utility.yul\":24123:24130   */\n      dup15\n        /* \"#utility.yul\":24114:24120   */\n      dup3\n        /* \"#utility.yul\":24103:24112   */\n      dup16\n        /* \"#utility.yul\":24099:24121   */\n      add\n        /* \"#utility.yul\":24068:24131   */\n      tag_434\n      jump\t// in\n    tag_664:\n        /* \"#utility.yul\":24058:24131   */\n      swap3\n      pop\n        /* \"#utility.yul\":23852:24141   */\n      pop\n        /* \"#utility.yul\":24208:24211   */\n      0x0140\n        /* \"#utility.yul\":24197:24206   */\n      dup13\n        /* \"#utility.yul\":24193:24212   */\n      add\n        /* \"#utility.yul\":24180:24213   */\n      calldataload\n        /* \"#utility.yul\":24240:24258   */\n      0xffffffffffffffff\n        /* \"#utility.yul\":24232:24238   */\n      dup2\n        /* \"#utility.yul\":24229:24259   */\n      gt\n        /* \"#utility.yul\":24226:24343   */\n      iszero\n      tag_665\n      jumpi\n        /* \"#utility.yul\":24262:24341   */\n      tag_666\n      tag_424\n      jump\t// in\n    tag_666:\n        /* \"#utility.yul\":24226:24343   */\n    tag_665:\n        /* \"#utility.yul\":24368:24431   */\n      tag_667\n        /* \"#utility.yul\":24423:24430   */\n      dup15\n        /* \"#utility.yul\":24414:24420   */\n      dup3\n        /* \"#utility.yul\":24403:24412   */\n      dup16\n        /* \"#utility.yul\":24399:24421   */\n      add\n        /* \"#utility.yul\":24368:24431   */\n      tag_434\n      jump\t// in\n    tag_667:\n        /* \"#utility.yul\":24357:24431   */\n      swap2\n      pop\n        /* \"#utility.yul\":24151:24441   */\n      pop\n        /* \"#utility.yul\":20859:24448   */\n      swap3\n      swap6\n      swap9\n      swap12\n      pop\n      swap3\n      swap6\n      swap9\n      swap12\n      swap1\n      swap4\n      swap7\n      swap10\n      pop\n      jump\t// out\n        /* \"#utility.yul\":24454:24634   */\n    tag_443:\n        /* \"#utility.yul\":24502:24579   */\n      0x4e487b7100000000000000000000000000000000000000000000000000000000\n        /* \"#utility.yul\":24499:24500   */\n      0x00\n        /* \"#utility.yul\":24492:24580   */\n      mstore\n        /* \"#utility.yul\":24599:24603   */\n      0x22\n        /* \"#utility.yul\":24596:24597   */\n      0x04\n        /* \"#utility.yul\":24589:24604   */\n      mstore\n        /* \"#utility.yul\":24623:24627   */\n      0x24\n        /* \"#utility.yul\":24620:24621   */\n      0x00\n        /* \"#utility.yul\":24613:24628   */\n      revert\n        /* \"#utility.yul\":24640:24960   */\n    tag_113:\n        /* \"#utility.yul\":24684:24690   */\n      0x00\n        /* \"#utility.yul\":24721:24722   */\n      0x02\n        /* \"#utility.yul\":24715:24719   */\n      dup3\n        /* \"#utility.yul\":24711:24723   */\n      div\n        /* \"#utility.yul\":24701:24723   */\n      swap1\n      pop\n        /* \"#utility.yul\":24768:24769   */\n      0x01\n        /* \"#utility.yul\":24762:24766   */\n      dup3\n        /* \"#utility.yul\":24758:24770   */\n      and\n        /* \"#utility.yul\":24789:24807   */\n      dup1\n        /* \"#utility.yul\":24779:24860   */\n      tag_670\n      jumpi\n        /* \"#utility.yul\":24845:24849   */\n      0x7f\n        /* \"#utility.yul\":24837:24843   */\n      dup3\n        /* \"#utility.yul\":24833:24850   */\n      and\n        /* \"#utility.yul\":24823:24850   */\n      swap2\n      pop\n        /* \"#utility.yul\":24779:24860   */\n    tag_670:\n        /* \"#utility.yul\":24907:24909   */\n      0x20\n        /* \"#utility.yul\":24899:24905   */\n      dup3\n        /* \"#utility.yul\":24896:24910   */\n      lt\n        /* \"#utility.yul\":24876:24894   */\n      dup2\n        /* \"#utility.yul\":24873:24911   */\n      sub\n        /* \"#utility.yul\":24870:24954   */\n      tag_671\n      jumpi\n        /* \"#utility.yul\":24926:24944   */\n      tag_672\n      tag_443\n      jump\t// in\n    tag_672:\n        /* \"#utility.yul\":24870:24954   */\n    tag_671:\n        /* \"#utility.yul\":24691:24960   */\n      pop\n        /* \"#utility.yul\":24640:24960   */\n      swap2\n      swap1\n      pop\n      jump\t// out\n        /* \"#utility.yul\":24966:25107   */\n    tag_444:\n        /* \"#utility.yul\":25015:25019   */\n      0x00\n        /* \"#utility.yul\":25038:25041   */\n      dup2\n        /* \"#utility.yul\":25030:25041   */\n      swap1\n      pop\n        /* \"#utility.yul\":25061:25064   */\n      dup2\n        /* \"#utility.yul\":25058:25059   */\n      0x00\n        /* \"#utility.yul\":25051:25065   */\n      mstore\n        /* \"#utility.yul\":25095:25099   */\n      0x20\n        /* \"#utility.yul\":25092:25093   */\n      0x00\n        /* \"#utility.yul\":25082:25100   */\n      keccak256\n        /* \"#utility.yul\":25074:25100   */\n      swap1\n      pop\n        /* \"#utility.yul\":24966:25107   */\n      swap2\n      swap1\n      pop\n      jump\t// out\n        /* \"#utility.yul\":25113:25206   */\n    tag_445:\n        /* \"#utility.yul\":25150:25156   */\n      0x00\n        /* \"#utility.yul\":25197:25199   */\n      0x20\n        /* \"#utility.yul\":25192:25194   */\n      0x1f\n        /* \"#utility.yul\":25185:25190   */\n      dup4\n        /* \"#utility.yul\":25181:25195   */\n      add\n        /* \"#utility.yul\":25177:25200   */\n      div\n        /* \"#utility.yul\":25167:25200   */\n      swap1\n      pop\n        /* \"#utility.yul\":25113:25206   */\n      swap2\n      swap1\n      pop\n      jump\t// out\n        /* \"#utility.yul\":25212:25319   */\n    tag_446:\n        /* \"#utility.yul\":25256:25264   */\n      0x00\n        /* \"#utility.yul\":25306:25311   */\n      dup3\n        /* \"#utility.yul\":25300:25304   */\n      dup3\n        /* \"#utility.yul\":25296:25312   */\n      shl\n        /* \"#utility.yul\":25275:25312   */\n      swap1\n      pop\n        /* \"#utility.yul\":25212:25319   */\n      swap3\n      swap2\n      pop\n      pop\n      jump\t// out\n        /* \"#utility.yul\":25325:25718   */\n    tag_447:\n        /* \"#utility.yul\":25394:25400   */\n      0x00\n        /* \"#utility.yul\":25444:25445   */\n      0x08\n        /* \"#utility.yul\":25432:25442   */\n      dup4\n        /* \"#utility.yul\":25428:25446   */\n      mul\n        /* \"#utility.yul\":25467:25564   */\n      tag_677\n        /* \"#utility.yul\":25497:25563   */\n      0xffffffffffffffffffffffffffffffffffffffffffffffffffffffffffffffff\n        /* \"#utility.yul\":25486:25495   */\n      dup3\n        /* \"#utility.yul\":25467:25564   */\n      tag_446\n      jump\t// in\n    tag_677:\n        /* \"#utility.yul\":25585:25624   */\n      tag_678\n        /* \"#utility.yul\":25615:25623   */\n      dup7\n        /* \"#utility.yul\":25604:25613   */\n      dup4\n        /* \"#utility.yul\":25585:25624   */\n      tag_446\n      jump\t// in\n    tag_678:\n        /* \"#utility.yul\":25573:25624   */\n      swap6\n      pop\n        /* \"#utility.yul\":25657:25661   */\n      dup1\n        /* \"#utility.yul\":25653:25662   */\n      not\n        /* \"#utility.yul\":25646:25651   */\n      dup5\n        /* \"#utility.yul\":25642:25663   */\n      and\n        /* \"#utility.yul\":25633:25663   */\n      swap4\n      pop\n        /* \"#utility.yul\":25706:25710   */\n      dup1\n        /* \"#utility.yul\":25696:25704   */\n      dup7\n        /* \"#utility.yul\":25692:25711   */\n      and\n        /* \"#utility.yul\":25685:25690   */\n      dup5\n        /* \"#utility.yul\":25682:25712   */\n      or\n        /* \"#utility.yul\":25672:25712   */\n      swap3\n      pop\n        /* \"#utility.yul\":25401:25718   */\n      pop\n      pop\n        /* \"#utility.yul\":25325:25718   */\n      swap4\n      swap3\n      pop\n      pop\n      pop\n      jump\t// out\n        /* \"#utility.yul\":25724:25784   */\n    tag_448:\n        /* \"#utility.yul\":25752:25755   */\n      0x00\n        /* \"#utility.yul\":25773:25778   */\n      dup2\n        /* \"#utility.yul\":25766:25778   */\n      swap1\n      pop\n        /* \"#utility.yul\":25724:25784   */\n      swap2\n      swap1\n      pop\n      jump\t// out\n        /* \"#utility.yul\":25790:25932   */\n    tag_449:\n        /* \"#utility.yul\":25840:25849   */\n      0x00\n        /* \"#utility.yul\":25873:25926   */\n      tag_681\n        /* \"#utility.yul\":25891:25925   */\n      tag_682\n        /* \"#utility.yul\":25900:25924   */\n      tag_683\n        /* \"#utility.yul\":25918:25923   */\n      dup5\n        /* \"#utility.yul\":25900:25924   */\n      tag_435\n      jump\t// in\n    tag_683:\n        /* \"#utility.yul\":25891:25925   */\n      tag_448\n      jump\t// in\n    tag_682:\n        /* \"#utility.yul\":25873:25926   */\n      tag_435\n      jump\t// in\n    tag_681:\n        /* \"#utility.yul\":25860:25926   */\n      swap1\n      pop\n        /* \"#utility.yul\":25790:25932   */\n      swap2\n      swap1\n      pop\n      jump\t// out\n        /* \"#utility.yul\":25938:26013   */\n    tag_450:\n        /* \"#utility.yul\":25981:25984   */\n      0x00\n        /* \"#utility.yul\":26002:26007   */\n      dup2\n        /* \"#utility.yul\":25995:26007   */\n      swap1\n      pop\n        /* \"#utility.yul\":25938:26013   */\n      swap2\n      swap1\n      pop\n      jump\t// out\n        /* \"#utility.yul\":26019:26288   */\n    tag_451:\n        /* \"#utility.yul\":26129:26168   */\n      tag_686\n        /* \"#utility.yul\":26160:26167   */\n      dup4\n        /* \"#utility.yul\":26129:26168   */\n      tag_449\n      jump\t// in\n    tag_686:\n        /* \"#utility.yul\":26190:26281   */\n      tag_687\n        /* \"#utility.yul\":26239:26280   */\n      tag_688\n        /* \"#utility.yul\":26263:26279   */\n      dup3\n        /* \"#utility.yul\":26239:26280   */\n      tag_450\n      jump\t// in\n    tag_688:\n        /* \"#utility.yul\":26231:26237   */\n      dup5\n        /* \"#utility.yul\":26224:26228   */\n      dup5\n        /* \"#utility.yul\":26218:26229   */\n      sload\n        /* \"#utility.yul\":26190:26281   */\n      tag_447\n      jump\t// in\n    tag_687:\n        /* \"#utility.yul\":26184:26188   */\n      dup3\n        /* \"#utility.yul\":26177:26282   */\n      sstore\n        /* \"#utility.yul\":26095:26288   */\n      pop\n        /* \"#utility.yul\":26019:26288   */\n      pop\n      pop\n      pop\n      jump\t// out\n        /* \"#utility.yul\":26294:26367   */\n    tag_452:\n        /* \"#utility.yul\":26339:26342   */\n      0x00\n        /* \"#utility.yul\":26294:26367   */\n      swap1\n      jump\t// out\n        /* \"#utility.yul\":26373:26562   */\n    tag_453:\n        /* \"#utility.yul\":26450:26482   */\n      tag_691\n      tag_452\n      jump\t// in\n    tag_691:\n        /* \"#utility.yul\":26491:26556   */\n      tag_692\n        /* \"#utility.yul\":26549:26555   */\n      dup2\n        /* \"#utility.yul\":26541:26547   */\n      dup5\n        /* \"#utility.yul\":26535:26539   */\n      dup5\n        /* \"#utility.yul\":26491:26556   */\n      tag_451\n      jump\t// in\n    tag_692:\n        /* \"#utility.yul\":26426:26562   */\n      pop\n        /* \"#utility.yul\":26373:26562   */\n      pop\n      pop\n      jump\t// out\n        /* \"#utility.yul\":26568:26754   */\n    tag_454:\n        /* \"#utility.yul\":26628:26748   */\n    tag_694:\n        /* \"#utility.yul\":26645:26648   */\n      dup2\n        /* \"#utility.yul\":26638:26643   */\n      dup2\n        /* \"#utility.yul\":26635:26649   */\n      lt\n        /* \"#utility.yul\":26628:26748   */\n      iszero\n      tag_696\n      jumpi\n        /* \"#utility.yul\":26699:26738   */\n      tag_697\n        /* \"#utility.yul\":26736:26737   */\n      0x00\n        /* \"#utility.yul\":26729:26734   */\n      dup3\n        /* \"#utility.yul\":26699:26738   */\n      tag_453\n      jump\t// in\n    tag_697:\n        /* \"#utility.yul\":26672:26673   */\n      0x01\n        /* \"#utility.yul\":26665:26670   */\n      dup2\n        /* \"#utility.yul\":26661:26674   */\n      add\n        /* \"#utility.yul\":26652:26674   */\n      swap1\n      pop\n        /* \"#utility.yul\":26628:26748   */\n      jump(tag_694)\n    tag_696:\n        /* \"#utility.yul\":26568:26754   */\n      pop\n      pop\n      jump\t// out\n        /* \"#utility.yul\":26760:27303   */\n    tag_455:\n        /* \"#utility.yul\":26861:26863   */\n      0x1f\n        /* \"#utility.yul\":26856:26859   */\n      dup3\n        /* \"#utility.yul\":26853:26864   */\n      gt\n        /* \"#utility.yul\":26850:27296   */\n      iszero\n      tag_699\n      jumpi\n        /* \"#utility.yul\":26895:26933   */\n      tag_700\n        /* \"#utility.yul\":26927:26932   */\n      dup2\n        /* \"#utility.yul\":26895:26933   */\n      tag_444\n      jump\t// in\n    tag_700:\n        /* \"#utility.yul\":26979:27008   */\n      tag_701\n        /* \"#utility.yul\":26997:27007   */\n      dup5\n        /* \"#utility.yul\":26979:27008   */\n      tag_445\n      jump\t// in\n    tag_701:\n        /* \"#utility.yul\":26969:26977   */\n      dup2\n        /* \"#utility.yul\":26965:27009   */\n      add\n        /* \"#utility.yul\":27162:27164   */\n      0x20\n        /* \"#utility.yul\":27150:27160   */\n      dup6\n        /* \"#utility.yul\":27147:27165   */\n      lt\n        /* \"#utility.yul\":27144:27193   */\n      iszero\n      tag_702\n      jumpi\n        /* \"#utility.yul\":27183:27191   */\n      dup2\n        /* \"#utility.yul\":27168:27191   */\n      swap1\n      pop\n        /* \"#utility.yul\":27144:27193   */\n    tag_702:\n        /* \"#utility.yul\":27206:27286   */\n      tag_703\n        /* \"#utility.yul\":27262:27284   */\n      tag_704\n        /* \"#utility.yul\":27280:27283   */\n      dup6\n        /* \"#utility.yul\":27262:27284   */\n      tag_445\n      jump\t// in\n    tag_704:\n        /* \"#utility.yul\":27252:27260   */\n      dup4\n        /* \"#utility.yul\":27248:27285   */\n      add\n        /* \"#utility.yul\":27235:27246   */\n      dup3\n        /* \"#utility.yul\":27206:27286   */\n      tag_454\n      jump\t// in\n    tag_703:\n        /* \"#utility.yul\":26865:27296   */\n      pop\n      pop\n        /* \"#utility.yul\":26850:27296   */\n    tag_699:\n        /* \"#utility.yul\":26760:27303   */\n      pop\n      pop\n      pop\n      jump\t// out\n        /* \"#utility.yul\":27309:27426   */\n    tag_456:\n        /* \"#utility.yul\":27363:27371   */\n      0x00\n        /* \"#utility.yul\":27413:27418   */\n      dup3\n        /* \"#utility.yul\":27407:27411   */\n      dup3\n        /* \"#utility.yul\":27403:27419   */\n      shr\n        /* \"#utility.yul\":27382:27419   */\n      swap1\n      pop\n        /* \"#utility.yul\":27309:27426   */\n      swap3\n      swap2\n      pop\n      pop\n      jump\t// out\n        /* \"#utility.yul\":27432:27601   */\n    tag_457:\n        /* \"#utility.yul\":27476:27482   */\n      0x00\n        /* \"#utility.yul\":27509:27560   */\n      tag_707\n        /* \"#utility.yul\":27557:27558   */\n      0x00\n        /* \"#utility.yul\":27553:27559   */\n      not\n        /* \"#utility.yul\":27545:27550   */\n      dup5\n        /* \"#utility.yul\":27542:27543   */\n      0x08\n        /* \"#utility.yul\":27538:27551   */\n      mul\n        /* \"#utility.yul\":27509:27560   */\n      tag_456\n      jump\t// in\n    tag_707:\n        /* \"#utility.yul\":27505:27561   */\n      not\n        /* \"#utility.yul\":27590:27594   */\n      dup1\n        /* \"#utility.yul\":27584:27588   */\n      dup4\n        /* \"#utility.yul\":27580:27595   */\n      and\n        /* \"#utility.yul\":27570:27595   */\n      swap2\n      pop\n        /* \"#utility.yul\":27483:27601   */\n      pop\n        /* \"#utility.yul\":27432:27601   */\n      swap3\n      swap2\n      pop\n      pop\n      jump\t// out\n        /* \"#utility.yul\":27606:27901   */\n    tag_458:\n        /* \"#utility.yul\":27682:27686   */\n      0x00\n        /* \"#utility.yul\":27828:27857   */\n      tag_709\n        /* \"#utility.yul\":27853:27856   */\n      dup4\n        /* \"#utility.yul\":27847:27851   */\n      dup4\n        /* \"#utility.yul\":27828:27857   */\n      tag_457\n      jump\t// in\n    tag_709:\n        /* \"#utility.yul\":27820:27857   */\n      swap2\n      pop\n        /* \"#utility.yul\":27890:27893   */\n      dup3\n        /* \"#utility.yul\":27887:27888   */\n      0x02\n        /* \"#utility.yul\":27883:27894   */\n      mul\n        /* \"#utility.yul\":27877:27881   */\n      dup3\n        /* \"#utility.yul\":27874:27895   */\n      or\n        /* \"#utility.yul\":27866:27895   */\n      swap1\n      pop\n        /* \"#utility.yul\":27606:27901   */\n      swap3\n      swap2\n      pop\n      pop\n      jump\t// out\n        /* \"#utility.yul\":27906:29301   */\n    tag_79:\n        /* \"#utility.yul\":28023:28060   */\n      tag_711\n        /* \"#utility.yul\":28056:28059   */\n      dup3\n        /* \"#utility.yul\":28023:28060   */\n      tag_438\n      jump\t// in\n    tag_711:\n        /* \"#utility.yul\":28125:28143   */\n      0xffffffffffffffff\n        /* \"#utility.yul\":28117:28123   */\n      dup2\n        /* \"#utility.yul\":28114:28144   */\n      gt\n        /* \"#utility.yul\":28111:28167   */\n      iszero\n      tag_712\n      jumpi\n        /* \"#utility.yul\":28147:28165   */\n      tag_713\n      tag_428\n      jump\t// in\n    tag_713:\n        /* \"#utility.yul\":28111:28167   */\n    tag_712:\n        /* \"#utility.yul\":28191:28229   */\n      tag_714\n        /* \"#utility.yul\":28223:28227   */\n      dup3\n        /* \"#utility.yul\":28217:28228   */\n      sload\n        /* \"#utility.yul\":28191:28229   */\n      tag_113\n      jump\t// in\n    tag_714:\n        /* \"#utility.yul\":28276:28343   */\n      tag_715\n        /* \"#utility.yul\":28336:28342   */\n      dup3\n        /* \"#utility.yul\":28328:28334   */\n      dup3\n        /* \"#utility.yul\":28322:28326   */\n      dup6\n        /* \"#utility.yul\":28276:28343   */\n      tag_455\n      jump\t// in\n    tag_715:\n        /* \"#utility.yul\":28370:28371   */\n      0x00\n        /* \"#utility.yul\":28394:28398   */\n      0x20\n        /* \"#utility.yul\":28381:28398   */\n      swap1\n      pop\n        /* \"#utility.yul\":28426:28428   */\n      0x1f\n        /* \"#utility.yul\":28418:28424   */\n      dup4\n        /* \"#utility.yul\":28415:28429   */\n      gt\n        /* \"#utility.yul\":28443:28444   */\n      0x01\n        /* \"#utility.yul\":28438:29056   */\n      dup2\n      eq\n      tag_717\n      jumpi\n        /* \"#utility.yul\":29100:29101   */\n      0x00\n        /* \"#utility.yul\":29117:29123   */\n      dup5\n        /* \"#utility.yul\":29114:29191   */\n      iszero\n      tag_718\n      jumpi\n        /* \"#utility.yul\":29166:29175   */\n      dup3\n        /* \"#utility.yul\":29161:29164   */\n      dup8\n        /* \"#utility.yul\":29157:29176   */\n      add\n        /* \"#utility.yul\":29151:29177   */\n      mload\n        /* \"#utility.yul\":29142:29177   */\n      swap1\n      pop\n        /* \"#utility.yul\":29114:29191   */\n    tag_718:\n        /* \"#utility.yul\":29217:29284   */\n      tag_719\n        /* \"#utility.yul\":29277:29283   */\n      dup6\n        /* \"#utility.yul\":29270:29275   */\n      dup3\n        /* \"#utility.yul\":29217:29284   */\n      tag_458\n      jump\t// in\n    tag_719:\n        /* \"#utility.yul\":29211:29215   */\n      dup7\n        /* \"#utility.yul\":29204:29285   */\n      sstore\n        /* \"#utility.yul\":29073:29295   */\n      pop\n        /* \"#utility.yul\":28408:29295   */\n      jump(tag_716)\n        /* \"#utility.yul\":28438:29056   */\n    tag_717:\n        /* \"#utility.yul\":28490:28494   */\n      0x1f\n        /* \"#utility.yul\":28486:28495   */\n      not\n        /* \"#utility.yul\":28478:28484   */\n      dup5\n        /* \"#utility.yul\":28474:28496   */\n      and\n        /* \"#utility.yul\":28524:28561   */\n      tag_720\n        /* \"#utility.yul\":28556:28560   */\n      dup7\n        /* \"#utility.yul\":28524:28561   */\n      tag_444\n      jump\t// in\n    tag_720:\n        /* \"#utility.yul\":28583:28584   */\n      0x00\n        /* \"#utility.yul\":28597:28805   */\n    tag_721:\n        /* \"#utility.yul\":28611:28618   */\n      dup3\n        /* \"#utility.yul\":28608:28609   */\n      dup2\n        /* \"#utility.yul\":28605:28619   */\n      lt\n        /* \"#utility.yul\":28597:28805   */\n      iszero\n      tag_723\n      jumpi\n        /* \"#utility.yul\":28690:28699   */\n      dup5\n        /* \"#utility.yul\":28685:28688   */\n      dup10\n        /* \"#utility.yul\":28681:28700   */\n      add\n        /* \"#utility.yul\":28675:28701   */\n      mload\n        /* \"#utility.yul\":28667:28673   */\n      dup3\n        /* \"#utility.yul\":28660:28702   */\n      sstore\n        /* \"#utility.yul\":28741:28742   */\n      0x01\n        /* \"#utility.yul\":28733:28739   */\n      dup3\n        /* \"#utility.yul\":28729:28743   */\n      add\n        /* \"#utility.yul\":28719:28743   */\n      swap2\n      pop\n        /* \"#utility.yul\":28788:28790   */\n      0x20\n        /* \"#utility.yul\":28777:28786   */\n      dup6\n        /* \"#utility.yul\":28773:28791   */\n      add\n        /* \"#utility.yul\":28760:28791   */\n      swap5\n      pop\n        /* \"#utility.yul\":28634:28638   */\n      0x20\n        /* \"#utility.yul\":28631:28632   */\n      dup2\n        /* \"#utility.yul\":28627:28639   */\n      add\n        /* \"#utility.yul\":28622:28639   */\n      swap1\n      pop\n        /* \"#utility.yul\":28597:28805   */\n      jump(tag_721)\n    tag_723:\n        /* \"#utility.yul\":28833:28839   */\n      dup7\n        /* \"#utility.yul\":28824:28831   */\n      dup4\n        /* \"#utility.yul\":28821:28840   */\n      lt\n        /* \"#utility.yul\":28818:28997   */\n      iszero\n      tag_724\n      jumpi\n        /* \"#utility.yul\":28891:28900   */\n      dup5\n        /* \"#utility.yul\":28886:28889   */\n      dup10\n        /* \"#utility.yul\":28882:28901   */\n      add\n        /* \"#utility.yul\":28876:28902   */\n      mload\n        /* \"#utility.yul\":28934:28982   */\n      tag_725\n        /* \"#utility.yul\":28976:28980   */\n      0x1f\n        /* \"#utility.yul\":28968:28974   */\n      dup10\n        /* \"#utility.yul\":28964:28981   */\n      and\n        /* \"#utility.yul\":28953:28962   */\n      dup3\n        /* \"#utility.yul\":28934:28982   */\n      tag_457\n      jump\t// in\n    tag_725:\n        /* \"#utility.yul\":28926:28932   */\n      dup4\n        /* \"#utility.yul\":28919:28983   */\n      sstore\n        /* \"#utility.yul\":28841:28997   */\n      pop\n        /* \"#utility.yul\":28818:28997   */\n    tag_724:\n        /* \"#utility.yul\":29043:29044   */\n      0x01\n        /* \"#utility.yul\":29039:29040   */\n      0x02\n        /* \"#utility.yul\":29031:29037   */\n      dup9\n        /* \"#utility.yul\":29027:29041   */\n      mul\n        /* \"#utility.yul\":29023:29045   */\n      add\n        /* \"#utility.yul\":29017:29021   */\n      dup9\n        /* \"#utility.yul\":29010:29046   */\n      sstore\n        /* \"#utility.yul\":28445:29056   */\n      pop\n      pop\n      pop\n        /* \"#utility.yul\":28408:29295   */\n    tag_716:\n      pop\n        /* \"#utility.yul\":27998:29301   */\n      pop\n      pop\n      pop\n        /* \"#utility.yul\":27906:29301   */\n      pop\n      pop\n      jump\t// out\n        /* \"#utility.yul\":29307:29476   */\n    tag_459:\n        /* \"#utility.yul\":29447:29468   */\n      0x496e646578206f7574206f6620626f756e647300000000000000000000000000\n        /* \"#utility.yul\":29443:29444   */\n      0x00\n        /* \"#utility.yul\":29435:29441   */\n      dup3\n        /* \"#utility.yul\":29431:29445   */\n      add\n        /* \"#utility.yul\":29424:29469   */\n      mstore\n        /* \"#utility.yul\":29307:29476   */\n      pop\n      jump\t// out\n        /* \"#utility.yul\":29482:29848   */\n    tag_460:\n        /* \"#utility.yul\":29624:29627   */\n      0x00\n        /* \"#utility.yul\":29645:29712   */\n      tag_728\n        /* \"#utility.yul\":29709:29711   */\n      0x13\n        /* \"#utility.yul\":29704:29707   */\n      dup4\n        /* \"#utility.yul\":29645:29712   */\n      tag_439\n      jump\t// in\n    tag_728:\n        /* \"#utility.yul\":29638:29712   */\n      swap2\n      pop\n        /* \"#utility.yul\":29721:29814   */\n      tag_729\n        /* \"#utility.yul\":29810:29813   */\n      dup3\n        /* \"#utility.yul\":29721:29814   */\n      tag_459\n      jump\t// in\n    tag_729:\n        /* \"#utility.yul\":29839:29841   */\n      0x20\n        /* \"#utility.yul\":29834:29837   */\n      dup3\n        /* \"#utility.yul\":29830:29842   */\n      add\n        /* \"#utility.yul\":29823:29842   */\n      swap1\n      pop\n        /* \"#utility.yul\":29482:29848   */\n      swap2\n      swap1\n      pop\n      jump\t// out\n        /* \"#utility.yul\":29854:30273   */\n    tag_92:\n        /* \"#utility.yul\":30020:30024   */\n      0x00\n        /* \"#utility.yul\":30058:30060   */\n      0x20\n        /* \"#utility.yul\":30047:30056   */\n      dup3\n        /* \"#utility.yul\":30043:30061   */\n      add\n        /* \"#utility.yul\":30035:30061   */\n      swap1\n      pop\n        /* \"#utility.yul\":30107:30116   */\n      dup2\n        /* \"#utility.yul\":30101:30105   */\n      dup2\n        /* \"#utility.yul\":30097:30117   */\n      sub\n        /* \"#utility.yul\":30093:30094   */\n      0x00\n        /* \"#utility.yul\":30082:30091   */\n      dup4\n        /* \"#utility.yul\":30078:30095   */\n      add\n        /* \"#utility.yul\":30071:30118   */\n      mstore\n        /* \"#utility.yul\":30135:30266   */\n      tag_731\n        /* \"#utility.yul\":30261:30265   */\n      dup2\n        /* \"#utility.yul\":30135:30266   */\n      tag_460\n      jump\t// in\n    tag_731:\n        /* \"#utility.yul\":30127:30266   */\n      swap1\n      pop\n        /* \"#utility.yul\":29854:30273   */\n      swap2\n      swap1\n      pop\n      jump\t// out\n        /* \"#utility.yul\":30279:30459   */\n    tag_95:\n        /* \"#utility.yul\":30327:30404   */\n      0x4e487b7100000000000000000000000000000000000000000000000000000000\n        /* \"#utility.yul\":30324:30325   */\n      0x00\n        /* \"#utility.yul\":30317:30405   */\n      mstore\n        /* \"#utility.yul\":30424:30428   */\n      0x32\n        /* \"#utility.yul\":30421:30422   */\n      0x04\n        /* \"#utility.yul\":30414:30429   */\n      mstore\n        /* \"#utility.yul\":30448:30452   */\n      0x24\n        /* \"#utility.yul\":30445:30446   */\n      0x00\n        /* \"#utility.yul\":30438:30453   */\n      revert\n\n    auxdata: 0xa264697066735822122079a5f6517329f0129a9a20e327b54dc3a1622320b85ac91692c2b400951ae7f664736f6c63430008190033\n}\n",
				"bytecode": {
					"linkReferences": {},
					"object": "6080604052348015600e575f80fd5b5061335c8061001c5f395ff3fe608060405234801561000f575f80fd5b50600436106100cd575f3560e01c8063671361351161008a578063aa48b8b611610064578063aa48b8b614610268578063bad4882114610284578063ce39c07e146102b6578063eab11db1146102d2576100cd565b806367136135146101df578063687f037e1461021157806393119a831461022f576100cd565b80631ed6ad1b146100d15780631f52b76c146100ed578063211a6edc146101225780632d50fe6a14610158578063311cc83114610189578063365b98b2146101a5575b5f80fd5b6100eb60048036038101906100e691906124f5565b6102f0565b005b61010760048036038101906101029190612719565b61044d565b604051610119969594939291906127a4565b60405180910390f35b61013c60048036038101906101379190612719565b6108b9565b60405161014f979695949392919061282d565b60405180910390f35b610172600480360381019061016d9190612719565b610dde565b6040516101809291906128cb565b60405180910390f35b6101a3600480360381019061019e9190612900565b610f88565b005b6101bf60048036038101906101ba9190612719565b611102565b6040516101d69b9a99989796959493929190612b21565b60405180910390f35b6101f960048036038101906101f49190612719565b611728565b60405161020893929190612c17565b60405180910390f35b610219611983565b6040516102269190612c70565b60405180910390f35b61024960048036038101906102449190612719565b61198f565b60405161025f9a99989796959493929190612c89565b60405180910390f35b610282600480360381019061027d9190612d69565b611f2a565b005b61029e60048036038101906102999190612719565b611fa4565b6040516102ad93929190612c17565b60405180910390f35b6102d060048036038101906102cb9190612dc3565b612204565b005b6102da61239d565b6040516102e79190612c70565b60405180910390f35b5f6040518061014001604052808c81526020018b81526020018a8152602001898152602001888152602001878152602001868152602001858152602001848152602001838152509050600181908060018154018082558091505060019003905f5260205f2090600a02015f909190919091505f820151815f01908161037591906131c2565b50602082015181600101908161038b91906131c2565b5060408201518160020190816103a191906131c2565b5060608201518160030190816103b791906131c2565b5060808201518160040190816103cd91906131c2565b5060a08201518160050190816103e391906131c2565b5060c08201518160060190816103f991906131c2565b5060e082015181600701908161040f91906131c2565b5061010082015181600801908161042691906131c2565b5061012082015181600901908161043d91906131c2565b5050505050505050505050505050565b6060806060806060805f80549050871061049c576040517f08c379a0000000000000000000000000000000000000000000000000000000008152600401610493906132db565b60405180910390fd5b5f87815481106104af576104ae6132f9565b5b905f5260205f2090600b02016003015f88815481106104d1576104d06132f9565b5b905f5260205f2090600b02016004015f89815481106104f3576104f26132f9565b5b905f5260205f2090600b02016005015f8a81548110610515576105146132f9565b5b905f5260205f2090600b02016006015f8b81548110610537576105366132f9565b5b905f5260205f2090600b02016007015f8c81548110610559576105586132f9565b5b905f5260205f2090600b020160080185805461057490612ff5565b80601f01602080910402602001604051908101604052809291908181526020018280546105a090612ff5565b80156105eb5780601f106105c2576101008083540402835291602001916105eb565b820191905f5260205f20905b8154815290600101906020018083116105ce57829003601f168201915b505050505095508480546105fe90612ff5565b80601f016020809104026020016040519081016040528092919081815260200182805461062a90612ff5565b80156106755780601f1061064c57610100808354040283529160200191610675565b820191905f5260205f20905b81548152906001019060200180831161065857829003601f168201915b5050505050945083805461068890612ff5565b80601f01602080910402602001604051908101604052809291908181526020018280546106b490612ff5565b80156106ff5780601f106106d6576101008083540402835291602001916106ff565b820191905f5260205f20905b8154815290600101906020018083116106e257829003601f168201915b5050505050935082805461071290612ff5565b80601f016020809104026020016040519081016040528092919081815260200182805461073e90612ff5565b80156107895780601f1061076057610100808354040283529160200191610789565b820191905f5260205f20905b81548152906001019060200180831161076c57829003601f168201915b5050505050925081805461079c90612ff5565b80601f01602080910402602001604051908101604052809291908181526020018280546107c890612ff5565b80156108135780601f106107ea57610100808354040283529160200191610813565b820191905f5260205f20905b8154815290600101906020018083116107f657829003601f168201915b5050505050915080805461082690612ff5565b80601f016020809104026020016040519081016040528092919081815260200182805461085290612ff5565b801561089d5780601f106108745761010080835404028352916020019161089d565b820191905f5260205f20905b81548152906001019060200180831161088057829003601f168201915b5050505050905095509550955095509550955091939550919395565b6060806060806060806060600180549050881061090b576040517f08c379a0000000000000000000000000000000000000000000000000000000008152600401610902906132db565b60405180910390fd5b6001888154811061091f5761091e6132f9565b5b905f5260205f2090600a02015f0160018981548110610941576109406132f9565b5b905f5260205f2090600a020160040160018a81548110610964576109636132f9565b5b905f5260205f2090600a020160050160018b81548110610987576109866132f9565b5b905f5260205f2090600a020160060160018c815481106109aa576109a96132f9565b5b905f5260205f2090600a020160070160018d815481106109cd576109cc6132f9565b5b905f5260205f2090600a020160080160018e815481106109f0576109ef6132f9565b5b905f5260205f2090600a0201600901868054610a0b90612ff5565b80601f0160208091040260200160405190810160405280929190818152602001828054610a3790612ff5565b8015610a825780601f10610a5957610100808354040283529160200191610a82565b820191905f5260205f20905b815481529060010190602001808311610a6557829003601f168201915b50505050509650858054610a9590612ff5565b80601f0160208091040260200160405190810160405280929190818152602001828054610ac190612ff5565b8015610b0c5780601f10610ae357610100808354040283529160200191610b0c565b820191905f5260205f20905b815481529060010190602001808311610aef57829003601f168201915b50505050509550848054610b1f90612ff5565b80601f0160208091040260200160405190810160405280929190818152602001828054610b4b90612ff5565b8015610b965780601f10610b6d57610100808354040283529160200191610b96565b820191905f5260205f20905b815481529060010190602001808311610b7957829003601f168201915b50505050509450838054610ba990612ff5565b80601f0160208091040260200160405190810160405280929190818152602001828054610bd590612ff5565b8015610c205780601f10610bf757610100808354040283529160200191610c20565b820191905f5260205f20905b815481529060010190602001808311610c0357829003601f168201915b50505050509350828054610c3390612ff5565b80601f0160208091040260200160405190810160405280929190818152602001828054610c5f90612ff5565b8015610caa5780601f10610c8157610100808354040283529160200191610caa565b820191905f5260205f20905b815481529060010190602001808311610c8d57829003601f168201915b50505050509250818054610cbd90612ff5565b80601f0160208091040260200160405190810160405280929190818152602001828054610ce990612ff5565b8015610d345780601f10610d0b57610100808354040283529160200191610d34565b820191905f5260205f20905b815481529060010190602001808311610d1757829003601f168201915b50505050509150808054610d4790612ff5565b80601f0160208091040260200160405190810160405280929190818152602001828054610d7390612ff5565b8015610dbe5780601f10610d9557610100808354040283529160200191610dbe565b820191905f5260205f20905b815481529060010190602001808311610da157829003601f168201915b505050505090509650965096509650965096509650919395979092949650565b6060805f805490508310610e27576040517f08c379a0000000000000000000000000000000000000000000000000000000008152600401610e1e906132db565b60405180910390fd5b5f8381548110610e3a57610e396132f9565b5b905f5260205f2090600b02016009015f8481548110610e5c57610e5b6132f9565b5b905f5260205f2090600b0201600a01818054610e7790612ff5565b80601f0160208091040260200160405190810160405280929190818152602001828054610ea390612ff5565b8015610eee5780601f10610ec557610100808354040283529160200191610eee565b820191905f5260205f20905b815481529060010190602001808311610ed157829003601f168201915b50505050509150808054610f0190612ff5565b80601f0160208091040260200160405190810160405280929190818152602001828054610f2d90612ff5565b8015610f785780601f10610f4f57610100808354040283529160200191610f78565b820191905f5260205f20905b815481529060010190602001808311610f5b57829003601f168201915b5050505050905091509150915091565b5f6040518061016001604052808d81526020018c81526020018b81526020018a81526020018981526020018881526020018781526020018681526020018581526020018481526020018381525090505f81908060018154018082558091505060019003905f5260205f2090600b02015f909190919091505f820151815f01908161101291906131c2565b50602082015181600101908161102891906131c2565b50604082015181600201908161103e91906131c2565b50606082015181600301908161105491906131c2565b50608082015181600401908161106a91906131c2565b5060a082015181600501908161108091906131c2565b5060c082015181600601908161109691906131c2565b5060e08201518160070190816110ac91906131c2565b506101008201518160080190816110c391906131c2565b506101208201518160090190816110da91906131c2565b5061014082015181600a0190816110f191906131c2565b505050505050505050505050505050565b5f8181548110611110575f80fd5b905f5260205f2090600b02015f91509050805f01805461112f90612ff5565b80601f016020809104026020016040519081016040528092919081815260200182805461115b90612ff5565b80156111a65780601f1061117d576101008083540402835291602001916111a6565b820191905f5260205f20905b81548152906001019060200180831161118957829003601f168201915b5050505050908060010180546111bb90612ff5565b80601f01602080910402602001604051908101604052809291908181526020018280546111e790612ff5565b80156112325780601f1061120957610100808354040283529160200191611232565b820191905f5260205f20905b81548152906001019060200180831161121557829003601f168201915b50505050509080600201805461124790612ff5565b80601f016020809104026020016040519081016040528092919081815260200182805461127390612ff5565b80156112be5780601f10611295576101008083540402835291602001916112be565b820191905f5260205f20905b8154815290600101906020018083116112a157829003601f168201915b5050505050908060030180546112d390612ff5565b80601f01602080910402602001604051908101604052809291908181526020018280546112ff90612ff5565b801561134a5780601f106113215761010080835404028352916020019161134a565b820191905f5260205f20905b81548152906001019060200180831161132d57829003601f168201915b50505050509080600401805461135f90612ff5565b80601f016020809104026020016040519081016040528092919081815260200182805461138b90612ff5565b80156113d65780601f106113ad576101008083540402835291602001916113d6565b820191905f5260205f20905b8154815290600101906020018083116113b957829003601f168201915b5050505050908060050180546113eb90612ff5565b80601f016020809104026020016040519081016040528092919081815260200182805461141790612ff5565b80156114625780601f1061143957610100808354040283529160200191611462565b820191905f5260205f20905b81548152906001019060200180831161144557829003601f168201915b50505050509080600601805461147790612ff5565b80601f01602080910402602001604051908101604052809291908181526020018280546114a390612ff5565b80156114ee5780601f106114c5576101008083540402835291602001916114ee565b820191905f5260205f20905b8154815290600101906020018083116114d157829003601f168201915b50505050509080600701805461150390612ff5565b80601f016020809104026020016040519081016040528092919081815260200182805461152f90612ff5565b801561157a5780601f106115515761010080835404028352916020019161157a565b820191905f5260205f20905b81548152906001019060200180831161155d57829003601f168201915b50505050509080600801805461158f90612ff5565b80601f01602080910402602001604051908101604052809291908181526020018280546115bb90612ff5565b80156116065780601f106115dd57610100808354040283529160200191611606565b820191905f5260205f20905b8154815290600101906020018083116115e957829003601f168201915b50505050509080600901805461161b90612ff5565b80601f016020809104026020016040519081016040528092919081815260200182805461164790612ff5565b80156116925780601f1061166957610100808354040283529160200191611692565b820191905f5260205f20905b81548152906001019060200180831161167557829003601f168201915b50505050509080600a0180546116a790612ff5565b80601f01602080910402602001604051908101604052809291908181526020018280546116d390612ff5565b801561171e5780601f106116f55761010080835404028352916020019161171e565b820191905f5260205f20905b81548152906001019060200180831161170157829003601f168201915b505050505090508b565b60608060605f805490508410611773576040517f08c379a000000000000000000000000000000000000000000000000000000000815260040161176a906132db565b60405180910390fd5b5f8481548110611786576117856132f9565b5b905f5260205f2090600b02015f015f85815481106117a7576117a66132f9565b5b905f5260205f2090600b02016001015f86815481106117c9576117c86132f9565b5b905f5260205f2090600b02016002018280546117e490612ff5565b80601f016020809104026020016040519081016040528092919081815260200182805461181090612ff5565b801561185b5780601f106118325761010080835404028352916020019161185b565b820191905f5260205f20905b81548152906001019060200180831161183e57829003601f168201915b5050505050925081805461186e90612ff5565b80601f016020809104026020016040519081016040528092919081815260200182805461189a90612ff5565b80156118e55780601f106118bc576101008083540402835291602001916118e5565b820191905f5260205f20905b8154815290600101906020018083116118c857829003601f168201915b505050505091508080546118f890612ff5565b80601f016020809104026020016040519081016040528092919081815260200182805461192490612ff5565b801561196f5780601f106119465761010080835404028352916020019161196f565b820191905f5260205f20905b81548152906001019060200180831161195257829003601f168201915b505050505090509250925092509193909250565b5f600180549050905090565b6001818154811061199e575f80fd5b905f5260205f2090600a02015f91509050805f0180546119bd90612ff5565b80601f01602080910402602001604051908101604052809291908181526020018280546119e990612ff5565b8015611a345780601f10611a0b57610100808354040283529160200191611a34565b820191905f5260205f20905b815481529060010190602001808311611a1757829003601f168201915b505050505090806001018054611a4990612ff5565b80601f0160208091040260200160405190810160405280929190818152602001828054611a7590612ff5565b8015611ac05780601f10611a9757610100808354040283529160200191611ac0565b820191905f5260205f20905b815481529060010190602001808311611aa357829003601f168201915b505050505090806002018054611ad590612ff5565b80601f0160208091040260200160405190810160405280929190818152602001828054611b0190612ff5565b8015611b4c5780601f10611b2357610100808354040283529160200191611b4c565b820191905f5260205f20905b815481529060010190602001808311611b2f57829003601f168201915b505050505090806003018054611b6190612ff5565b80601f0160208091040260200160405190810160405280929190818152602001828054611b8d90612ff5565b8015611bd85780601f10611baf57610100808354040283529160200191611bd8565b820191905f5260205f20905b815481529060010190602001808311611bbb57829003601f168201915b505050505090806004018054611bed90612ff5565b80601f0160208091040260200160405190810160405280929190818152602001828054611c1990612ff5565b8015611c645780601f10611c3b57610100808354040283529160200191611c64565b820191905f5260205f20905b815481529060010190602001808311611c4757829003601f168201915b505050505090806005018054611c7990612ff5565b80601f0160208091040260200160405190810160405280929190818152602001828054611ca590612ff5565b8015611cf05780601f10611cc757610100808354040283529160200191611cf0565b820191905f5260205f20905b815481529060010190602001808311611cd357829003601f168201915b505050505090806006018054611d0590612ff5565b80601f0160208091040260200160405190810160405280929190818152602001828054611d3190612ff5565b8015611d7c5780601f10611d5357610100808354040283529160200191611d7c565b820191905f5260205f20905b815481529060010190602001808311611d5f57829003601f168201915b505050505090806007018054611d9190612ff5565b80601f0160208091040260200160405190810160405280929190818152602001828054611dbd90612ff5565b8015611e085780601f10611ddf57610100808354040283529160200191611e08565b820191905f5260205f20905b815481529060010190602001808311611deb57829003601f168201915b505050505090806008018054611e1d90612ff5565b80601f0160208091040260200160405190810160405280929190818152602001828054611e4990612ff5565b8015611e945780601f10611e6b57610100808354040283529160200191611e94565b820191905f5260205f20905b815481529060010190602001808311611e7757829003601f168201915b505050505090806009018054611ea990612ff5565b80601f0160208091040260200160405190810160405280929190818152602001828054611ed590612ff5565b8015611f205780601f10611ef757610100808354040283529160200191611f20565b820191905f5260205f20905b815481529060010190602001808311611f0357829003601f168201915b505050505090508a565b5f805490508210611f70576040517f08c379a0000000000000000000000000000000000000000000000000000000008152600401611f67906132db565b60405180910390fd5b805f8381548110611f8457611f836132f9565b5b905f5260205f2090600b0201600a019081611f9f91906131c2565b505050565b60608060606001805490508410611ff0576040517f08c379a0000000000000000000000000000000000000000000000000000000008152600401611fe7906132db565b60405180910390fd5b60018481548110612004576120036132f9565b5b905f5260205f2090600a020160010160018581548110612027576120266132f9565b5b905f5260205f2090600a02016002016001868154811061204a576120496132f9565b5b905f5260205f2090600a020160030182805461206590612ff5565b80601f016020809104026020016040519081016040528092919081815260200182805461209190612ff5565b80156120dc5780601f106120b3576101008083540402835291602001916120dc565b820191905f5260205f20905b8154815290600101906020018083116120bf57829003601f168201915b505050505092508180546120ef90612ff5565b80601f016020809104026020016040519081016040528092919081815260200182805461211b90612ff5565b80156121665780601f1061213d57610100808354040283529160200191612166565b820191905f5260205f20905b81548152906001019060200180831161214957829003601f168201915b5050505050915080805461217990612ff5565b80601f01602080910402602001604051908101604052809291908181526020018280546121a590612ff5565b80156121f05780601f106121c7576101008083540402835291602001916121f0565b820191905f5260205f20905b8154815290600101906020018083116121d357829003601f168201915b505050505090509250925092509193909250565b6001805490508b1061224b576040517f08c379a0000000000000000000000000000000000000000000000000000000008152600401612242906132db565b60405180910390fd5b6040518061014001604052808b81526020018a81526020018981526020018881526020018781526020018681526020018581526020018481526020018381526020018281525060018c815481106122a5576122a46132f9565b5b905f5260205f2090600a02015f820151815f0190816122c491906131c2565b5060208201518160010190816122da91906131c2565b5060408201518160020190816122f091906131c2565b50606082015181600301908161230691906131c2565b50608082015181600401908161231c91906131c2565b5060a082015181600501908161233291906131c2565b5060c082015181600601908161234891906131c2565b5060e082015181600701908161235e91906131c2565b5061010082015181600801908161237591906131c2565b5061012082015181600901908161238c91906131c2565b509050505050505050505050505050565b5f8080549050905090565b5f604051905090565b5f80fd5b5f80fd5b5f80fd5b5f80fd5b5f601f19601f8301169050919050565b7f4e487b71000000000000000000000000000000000000000000000000000000005f52604160045260245ffd5b612407826123c1565b810181811067ffffffffffffffff82111715612426576124256123d1565b5b80604052505050565b5f6124386123a8565b905061244482826123fe565b919050565b5f67ffffffffffffffff821115612463576124626123d1565b5b61246c826123c1565b9050602081019050919050565b828183375f83830152505050565b5f61249961249484612449565b61242f565b9050828152602081018484840111156124b5576124b46123bd565b5b6124c0848285612479565b509392505050565b5f82601f8301126124dc576124db6123b9565b5b81356124ec848260208601612487565b91505092915050565b5f805f805f805f805f806101408b8d031215612514576125136123b1565b5b5f8b013567ffffffffffffffff811115612531576125306123b5565b5b61253d8d828e016124c8565b9a505060208b013567ffffffffffffffff81111561255e5761255d6123b5565b5b61256a8d828e016124c8565b99505060408b013567ffffffffffffffff81111561258b5761258a6123b5565b5b6125978d828e016124c8565b98505060608b013567ffffffffffffffff8111156125b8576125b76123b5565b5b6125c48d828e016124c8565b97505060808b013567ffffffffffffffff8111156125e5576125e46123b5565b5b6125f18d828e016124c8565b96505060a08b013567ffffffffffffffff811115612612576126116123b5565b5b61261e8d828e016124c8565b95505060c08b013567ffffffffffffffff81111561263f5761263e6123b5565b5b61264b8d828e016124c8565b94505060e08b013567ffffffffffffffff81111561266c5761266b6123b5565b5b6126788d828e016124c8565b9350506101008b013567ffffffffffffffff81111561269a576126996123b5565b5b6126a68d828e016124c8565b9250506101208b013567ffffffffffffffff8111156126c8576126c76123b5565b5b6126d48d828e016124c8565b9150509295989b9194979a5092959850565b5f819050919050565b6126f8816126e6565b8114612702575f80fd5b50565b5f81359050612713816126ef565b92915050565b5f6020828403121561272e5761272d6123b1565b5b5f61273b84828501612705565b91505092915050565b5f81519050919050565b5f82825260208201905092915050565b8281835e5f83830152505050565b5f61277682612744565b612780818561274e565b935061279081856020860161275e565b612799816123c1565b840191505092915050565b5f60c0820190508181035f8301526127bc818961276c565b905081810360208301526127d0818861276c565b905081810360408301526127e4818761276c565b905081810360608301526127f8818661276c565b9050818103608083015261280c818561276c565b905081810360a0830152612820818461276c565b9050979650505050505050565b5f60e0820190508181035f830152612845818a61276c565b90508181036020830152612859818961276c565b9050818103604083015261286d818861276c565b90508181036060830152612881818761276c565b90508181036080830152612895818661276c565b905081810360a08301526128a9818561276c565b905081810360c08301526128bd818461276c565b905098975050505050505050565b5f6040820190508181035f8301526128e3818561276c565b905081810360208301526128f7818461276c565b90509392505050565b5f805f805f805f805f805f6101608c8e0312156129205761291f6123b1565b5b5f8c013567ffffffffffffffff81111561293d5761293c6123b5565b5b6129498e828f016124c8565b9b505060208c013567ffffffffffffffff81111561296a576129696123b5565b5b6129768e828f016124c8565b9a505060408c013567ffffffffffffffff811115612997576129966123b5565b5b6129a38e828f016124c8565b99505060608c013567ffffffffffffffff8111156129c4576129c36123b5565b5b6129d08e828f016124c8565b98505060808c013567ffffffffffffffff8111156129f1576129f06123b5565b5b6129fd8e828f016124c8565b97505060a08c013567ffffffffffffffff811115612a1e57612a1d6123b5565b5b612a2a8e828f016124c8565b96505060c08c013567ffffffffffffffff811115612a4b57612a4a6123b5565b5b612a578e828f016124c8565b95505060e08c013567ffffffffffffffff811115612a7857612a776123b5565b5b612a848e828f016124c8565b9450506101008c013567ffffffffffffffff811115612aa657612aa56123b5565b5b612ab28e828f016124c8565b9350506101208c013567ffffffffffffffff811115612ad457612ad36123b5565b5b612ae08e828f016124c8565b9250506101408c013567ffffffffffffffff811115612b0257612b016123b5565b5b612b0e8e828f016124c8565b9150509295989b509295989b9093969950565b5f610160820190508181035f830152612b3a818e61276c565b90508181036020830152612b4e818d61276c565b90508181036040830152612b62818c61276c565b90508181036060830152612b76818b61276c565b90508181036080830152612b8a818a61276c565b905081810360a0830152612b9e818961276c565b905081810360c0830152612bb2818861276c565b905081810360e0830152612bc6818761276c565b9050818103610100830152612bdb818661276c565b9050818103610120830152612bf0818561276c565b9050818103610140830152612c05818461276c565b90509c9b505050505050505050505050565b5f6060820190508181035f830152612c2f818661276c565b90508181036020830152612c43818561276c565b90508181036040830152612c57818461276c565b9050949350505050565b612c6a816126e6565b82525050565b5f602082019050612c835f830184612c61565b92915050565b5f610140820190508181035f830152612ca2818d61276c565b90508181036020830152612cb6818c61276c565b90508181036040830152612cca818b61276c565b90508181036060830152612cde818a61276c565b90508181036080830152612cf2818961276c565b905081810360a0830152612d06818861276c565b905081810360c0830152612d1a818761276c565b905081810360e0830152612d2e818661276c565b9050818103610100830152612d43818561276c565b9050818103610120830152612d58818461276c565b90509b9a5050505050505050505050565b5f8060408385031215612d7f57612d7e6123b1565b5b5f612d8c85828601612705565b925050602083013567ffffffffffffffff811115612dad57612dac6123b5565b5b612db9858286016124c8565b9150509250929050565b5f805f805f805f805f805f6101608c8e031215612de357612de26123b1565b5b5f612df08e828f01612705565b9b505060208c013567ffffffffffffffff811115612e1157612e106123b5565b5b612e1d8e828f016124c8565b9a505060408c013567ffffffffffffffff811115612e3e57612e3d6123b5565b5b612e4a8e828f016124c8565b99505060608c013567ffffffffffffffff811115612e6b57612e6a6123b5565b5b612e778e828f016124c8565b98505060808c013567ffffffffffffffff811115612e9857612e976123b5565b5b612ea48e828f016124c8565b97505060a08c013567ffffffffffffffff811115612ec557612ec46123b5565b5b612ed18e828f016124c8565b96505060c08c013567ffffffffffffffff811115612ef257612ef16123b5565b5b612efe8e828f016124c8565b95505060e08c013567ffffffffffffffff811115612f1f57612f1e6123b5565b5b612f2b8e828f016124c8565b9450506101008c013567ffffffffffffffff811115612f4d57612f4c6123b5565b5b612f598e828f016124c8565b9350506101208c013567ffffffffffffffff811115612f7b57612f7a6123b5565b5b612f878e828f016124c8565b9250506101408c013567ffffffffffffffff811115612fa957612fa86123b5565b5b612fb58e828f016124c8565b9150509295989b509295989b9093969950565b7f4e487b71000000000000000000000000000000000000000000000000000000005f52602260045260245ffd5b5f600282049050600182168061300c57607f821691505b60208210810361301f5761301e612fc8565b5b50919050565b5f819050815f5260205f209050919050565b5f6020601f8301049050919050565b5f82821b905092915050565b5f600883026130817fffffffffffffffffffffffffffffffffffffffffffffffffffffffffffffffff82613046565b61308b8683613046565b95508019841693508086168417925050509392505050565b5f819050919050565b5f6130c66130c16130bc846126e6565b6130a3565b6126e6565b9050919050565b5f819050919050565b6130df836130ac565b6130f36130eb826130cd565b848454613052565b825550505050565b5f90565b6131076130fb565b6131128184846130d6565b505050565b5b818110156131355761312a5f826130ff565b600181019050613118565b5050565b601f82111561317a5761314b81613025565b61315484613037565b81016020851015613163578190505b61317761316f85613037565b830182613117565b50505b505050565b5f82821c905092915050565b5f61319a5f198460080261317f565b1980831691505092915050565b5f6131b2838361318b565b9150826002028217905092915050565b6131cb82612744565b67ffffffffffffffff8111156131e4576131e36123d1565b5b6131ee8254612ff5565b6131f9828285613139565b5f60209050601f83116001811461322a575f8415613218578287015190505b61322285826131a7565b865550613289565b601f19841661323886613025565b5f5b8281101561325f5784890151825560018201915060208501945060208101905061323a565b8683101561327c5784890151613278601f89168261318b565b8355505b6001600288020188555050505b505050505050565b7f496e646578206f7574206f6620626f756e6473000000000000000000000000005f82015250565b5f6132c560138361274e565b91506132d082613291565b602082019050919050565b5f6020820190508181035f8301526132f2816132b9565b9050919050565b7f4e487b71000000000000000000000000000000000000000000000000000000005f52603260045260245ffdfea264697066735822122079a5f6517329f0129a9a20e327b54dc3a1622320b85ac91692c2b400951ae7f664736f6c63430008190033",
					"opcodes": "PUSH1 0x80 PUSH1 0x40 MSTORE CALLVALUE DUP1 ISZERO PUSH1 0xE JUMPI PUSH0 DUP1 REVERT JUMPDEST POP PUSH2 0x335C DUP1 PUSH2 0x1C PUSH0 CODECOPY PUSH0 RETURN INVALID PUSH1 0x80 PUSH1 0x40 MSTORE CALLVALUE DUP1 ISZERO PUSH2 0xF JUMPI PUSH0 DUP1 REVERT JUMPDEST POP PUSH1 0x4 CALLDATASIZE LT PUSH2 0xCD JUMPI PUSH0 CALLDATALOAD PUSH1 0xE0 SHR DUP1 PUSH4 0x67136135 GT PUSH2 0x8A JUMPI DUP1 PUSH4 0xAA48B8B6 GT PUSH2 0x64 JUMPI DUP1 PUSH4 0xAA48B8B6 EQ PUSH2 0x268 JUMPI DUP1 PUSH4 0xBAD48821 EQ PUSH2 0x284 JUMPI DUP1 PUSH4 0xCE39C07E EQ PUSH2 0x2B6 JUMPI DUP1 PUSH4 0xEAB11DB1 EQ PUSH2 0x2D2 JUMPI PUSH2 0xCD JUMP JUMPDEST DUP1 PUSH4 0x67136135 EQ PUSH2 0x1DF JUMPI DUP1 PUSH4 0x687F037E EQ PUSH2 0x211 JUMPI DUP1 PUSH4 0x93119A83 EQ PUSH2 0x22F JUMPI PUSH2 0xCD JUMP JUMPDEST DUP1 PUSH4 0x1ED6AD1B EQ PUSH2 0xD1 JUMPI DUP1 PUSH4 0x1F52B76C EQ PUSH2 0xED JUMPI DUP1 PUSH4 0x211A6EDC EQ PUSH2 0x122 JUMPI DUP1 PUSH4 0x2D50FE6A EQ PUSH2 0x158 JUMPI DUP1 PUSH4 0x311CC831 EQ PUSH2 0x189 JUMPI DUP1 PUSH4 0x365B98B2 EQ PUSH2 0x1A5 JUMPI JUMPDEST PUSH0 DUP1 REVERT JUMPDEST PUSH2 0xEB PUSH1 0x4 DUP1 CALLDATASIZE SUB DUP2 ADD SWAP1 PUSH2 0xE6 SWAP2 SWAP1 PUSH2 0x24F5 JUMP JUMPDEST PUSH2 0x2F0 JUMP JUMPDEST STOP JUMPDEST PUSH2 0x107 PUSH1 0x4 DUP1 CALLDATASIZE SUB DUP2 ADD SWAP1 PUSH2 0x102 SWAP2 SWAP1 PUSH2 0x2719 JUMP JUMPDEST PUSH2 0x44D JUMP JUMPDEST PUSH1 0x40 MLOAD PUSH2 0x119 SWAP7 SWAP6 SWAP5 SWAP4 SWAP3 SWAP2 SWAP1 PUSH2 0x27A4 JUMP JUMPDEST PUSH1 0x40 MLOAD DUP1 SWAP2 SUB SWAP1 RETURN JUMPDEST PUSH2 0x13C PUSH1 0x4 DUP1 CALLDATASIZE SUB DUP2 ADD SWAP1 PUSH2 0x137 SWAP2 SWAP1 PUSH2 0x2719 JUMP JUMPDEST PUSH2 0x8B9 JUMP JUMPDEST PUSH1 0x40 MLOAD PUSH2 0x14F SWAP8 SWAP7 SWAP6 SWAP5 SWAP4 SWAP3 SWAP2 SWAP1 PUSH2 0x282D JUMP JUMPDEST PUSH1 0x40 MLOAD DUP1 SWAP2 SUB SWAP1 RETURN JUMPDEST PUSH2 0x172 PUSH1 0x4 DUP1 CALLDATASIZE SUB DUP2 ADD SWAP1 PUSH2 0x16D SWAP2 SWAP1 PUSH2 0x2719 JUMP JUMPDEST PUSH2 0xDDE JUMP JUMPDEST PUSH1 0x40 MLOAD PUSH2 0x180 SWAP3 SWAP2 SWAP1 PUSH2 0x28CB JUMP JUMPDEST PUSH1 0x40 MLOAD DUP1 SWAP2 SUB SWAP1 RETURN JUMPDEST PUSH2 0x1A3 PUSH1 0x4 DUP1 CALLDATASIZE SUB DUP2 ADD SWAP1 PUSH2 0x19E SWAP2 SWAP1 PUSH2 0x2900 JUMP JUMPDEST PUSH2 0xF88 JUMP JUMPDEST STOP JUMPDEST PUSH2 0x1BF PUSH1 0x4 DUP1 CALLDATASIZE SUB DUP2 ADD SWAP1 PUSH2 0x1BA SWAP2 SWAP1 PUSH2 0x2719 JUMP JUMPDEST PUSH2 0x1102 JUMP JUMPDEST PUSH1 0x40 MLOAD PUSH2 0x1D6 SWAP12 SWAP11 SWAP10 SWAP9 SWAP8 SWAP7 SWAP6 SWAP5 SWAP4 SWAP3 SWAP2 SWAP1 PUSH2 0x2B21 JUMP JUMPDEST PUSH1 0x40 MLOAD DUP1 SWAP2 SUB SWAP1 RETURN JUMPDEST PUSH2 0x1F9 PUSH1 0x4 DUP1 CALLDATASIZE SUB DUP2 ADD SWAP1 PUSH2 0x1F4 SWAP2 SWAP1 PUSH2 0x2719 JUMP JUMPDEST PUSH2 0x1728 JUMP JUMPDEST PUSH1 0x40 MLOAD PUSH2 0x208 SWAP4 SWAP3 SWAP2 SWAP1 PUSH2 0x2C17 JUMP JUMPDEST PUSH1 0x40 MLOAD DUP1 SWAP2 SUB SWAP1 RETURN JUMPDEST PUSH2 0x219 PUSH2 0x1983 JUMP JUMPDEST PUSH1 0x40 MLOAD PUSH2 0x226 SWAP2 SWAP1 PUSH2 0x2C70 JUMP JUMPDEST PUSH1 0x40 MLOAD DUP1 SWAP2 SUB SWAP1 RETURN JUMPDEST PUSH2 0x249 PUSH1 0x4 DUP1 CALLDATASIZE SUB DUP2 ADD SWAP1 PUSH2 0x244 SWAP2 SWAP1 PUSH2 0x2719 JUMP JUMPDEST PUSH2 0x198F JUMP JUMPDEST PUSH1 0x40 MLOAD PUSH2 0x25F SWAP11 SWAP10 SWAP9 SWAP8 SWAP7 SWAP6 SWAP5 SWAP4 SWAP3 SWAP2 SWAP1 PUSH2 0x2C89 JUMP JUMPDEST PUSH1 0x40 MLOAD DUP1 SWAP2 SUB SWAP1 RETURN JUMPDEST PUSH2 0x282 PUSH1 0x4 DUP1 CALLDATASIZE SUB DUP2 ADD SWAP1 PUSH2 0x27D SWAP2 SWAP1 PUSH2 0x2D69 JUMP JUMPDEST PUSH2 0x1F2A JUMP JUMPDEST STOP JUMPDEST PUSH2 0x29E PUSH1 0x4 DUP1 CALLDATASIZE SUB DUP2 ADD SWAP1 PUSH2 0x299 SWAP2 SWAP1 PUSH2 0x2719 JUMP JUMPDEST PUSH2 0x1FA4 JUMP JUMPDEST PUSH1 0x40 MLOAD PUSH2 0x2AD SWAP4 SWAP3 SWAP2 SWAP1 PUSH2 0x2C17 JUMP JUMPDEST PUSH1 0x40 MLOAD DUP1 SWAP2 SUB SWAP1 RETURN JUMPDEST PUSH2 0x2D0 PUSH1 0x4 DUP1 CALLDATASIZE SUB DUP2 ADD SWAP1 PUSH2 0x2CB SWAP2 SWAP1 PUSH2 0x2DC3 JUMP JUMPDEST PUSH2 0x2204 JUMP JUMPDEST STOP JUMPDEST PUSH2 0x2DA PUSH2 0x239D JUMP JUMPDEST PUSH1 0x40 MLOAD PUSH2 0x2E7 SWAP2 SWAP1 PUSH2 0x2C70 JUMP JUMPDEST PUSH1 0x40 MLOAD DUP1 SWAP2 SUB SWAP1 RETURN JUMPDEST PUSH0 PUSH1 0x40 MLOAD DUP1 PUSH2 0x140 ADD PUSH1 0x40 MSTORE DUP1 DUP13 DUP2 MSTORE PUSH1 0x20 ADD DUP12 DUP2 MSTORE PUSH1 0x20 ADD DUP11 DUP2 MSTORE PUSH1 0x20 ADD DUP10 DUP2 MSTORE PUSH1 0x20 ADD DUP9 DUP2 MSTORE PUSH1 0x20 ADD DUP8 DUP2 MSTORE PUSH1 0x20 ADD DUP7 DUP2 MSTORE PUSH1 0x20 ADD DUP6 DUP2 MSTORE PUSH1 0x20 ADD DUP5 DUP2 MSTORE PUSH1 0x20 ADD DUP4 DUP2 MSTORE POP SWAP1 POP PUSH1 0x1 DUP2 SWAP1 DUP1 PUSH1 0x1 DUP2 SLOAD ADD DUP1 DUP3 SSTORE DUP1 SWAP2 POP POP PUSH1 0x1 SWAP1 SUB SWAP1 PUSH0 MSTORE PUSH1 0x20 PUSH0 KECCAK256 SWAP1 PUSH1 0xA MUL ADD PUSH0 SWAP1 SWAP2 SWAP1 SWAP2 SWAP1 SWAP2 POP PUSH0 DUP3 ADD MLOAD DUP2 PUSH0 ADD SWAP1 DUP2 PUSH2 0x375 SWAP2 SWAP1 PUSH2 0x31C2 JUMP JUMPDEST POP PUSH1 0x20 DUP3 ADD MLOAD DUP2 PUSH1 0x1 ADD SWAP1 DUP2 PUSH2 0x38B SWAP2 SWAP1 PUSH2 0x31C2 JUMP JUMPDEST POP PUSH1 0x40 DUP3 ADD MLOAD DUP2 PUSH1 0x2 ADD SWAP1 DUP2 PUSH2 0x3A1 SWAP2 SWAP1 PUSH2 0x31C2 JUMP JUMPDEST POP PUSH1 0x60 DUP3 ADD MLOAD DUP2 PUSH1 0x3 ADD SWAP1 DUP2 PUSH2 0x3B7 SWAP2 SWAP1 PUSH2 0x31C2 JUMP JUMPDEST POP PUSH1 0x80 DUP3 ADD MLOAD DUP2 PUSH1 0x4 ADD SWAP1 DUP2 PUSH2 0x3CD SWAP2 SWAP1 PUSH2 0x31C2 JUMP JUMPDEST POP PUSH1 0xA0 DUP3 ADD MLOAD DUP2 PUSH1 0x5 ADD SWAP1 DUP2 PUSH2 0x3E3 SWAP2 SWAP1 PUSH2 0x31C2 JUMP JUMPDEST POP PUSH1 0xC0 DUP3 ADD MLOAD DUP2 PUSH1 0x6 ADD SWAP1 DUP2 PUSH2 0x3F9 SWAP2 SWAP1 PUSH2 0x31C2 JUMP JUMPDEST POP PUSH1 0xE0 DUP3 ADD MLOAD DUP2 PUSH1 0x7 ADD SWAP1 DUP2 PUSH2 0x40F SWAP2 SWAP1 PUSH2 0x31C2 JUMP JUMPDEST POP PUSH2 0x100 DUP3 ADD MLOAD DUP2 PUSH1 0x8 ADD SWAP1 DUP2 PUSH2 0x426 SWAP2 SWAP1 PUSH2 0x31C2 JUMP JUMPDEST POP PUSH2 0x120 DUP3 ADD MLOAD DUP2 PUSH1 0x9 ADD SWAP1 DUP2 PUSH2 0x43D SWAP2 SWAP1 PUSH2 0x31C2 JUMP JUMPDEST POP POP POP POP POP POP POP POP POP POP POP POP POP POP JUMP JUMPDEST PUSH1 0x60 DUP1 PUSH1 0x60 DUP1 PUSH1 0x60 DUP1 PUSH0 DUP1 SLOAD SWAP1 POP DUP8 LT PUSH2 0x49C JUMPI PUSH1 0x40 MLOAD PUSH32 0x8C379A000000000000000000000000000000000000000000000000000000000 DUP2 MSTORE PUSH1 0x4 ADD PUSH2 0x493 SWAP1 PUSH2 0x32DB JUMP JUMPDEST PUSH1 0x40 MLOAD DUP1 SWAP2 SUB SWAP1 REVERT JUMPDEST PUSH0 DUP8 DUP2 SLOAD DUP2 LT PUSH2 0x4AF JUMPI PUSH2 0x4AE PUSH2 0x32F9 JUMP JUMPDEST JUMPDEST SWAP1 PUSH0 MSTORE PUSH1 0x20 PUSH0 KECCAK256 SWAP1 PUSH1 0xB MUL ADD PUSH1 0x3 ADD PUSH0 DUP9 DUP2 SLOAD DUP2 LT PUSH2 0x4D1 JUMPI PUSH2 0x4D0 PUSH2 0x32F9 JUMP JUMPDEST JUMPDEST SWAP1 PUSH0 MSTORE PUSH1 0x20 PUSH0 KECCAK256 SWAP1 PUSH1 0xB MUL ADD PUSH1 0x4 ADD PUSH0 DUP10 DUP2 SLOAD DUP2 LT PUSH2 0x4F3 JUMPI PUSH2 0x4F2 PUSH2 0x32F9 JUMP JUMPDEST JUMPDEST SWAP1 PUSH0 MSTORE PUSH1 0x20 PUSH0 KECCAK256 SWAP1 PUSH1 0xB MUL ADD PUSH1 0x5 ADD PUSH0 DUP11 DUP2 SLOAD DUP2 LT PUSH2 0x515 JUMPI PUSH2 0x514 PUSH2 0x32F9 JUMP JUMPDEST JUMPDEST SWAP1 PUSH0 MSTORE PUSH1 0x20 PUSH0 KECCAK256 SWAP1 PUSH1 0xB MUL ADD PUSH1 0x6 ADD PUSH0 DUP12 DUP2 SLOAD DUP2 LT PUSH2 0x537 JUMPI PUSH2 0x536 PUSH2 0x32F9 JUMP JUMPDEST JUMPDEST SWAP1 PUSH0 MSTORE PUSH1 0x20 PUSH0 KECCAK256 SWAP1 PUSH1 0xB MUL ADD PUSH1 0x7 ADD PUSH0 DUP13 DUP2 SLOAD DUP2 LT PUSH2 0x559 JUMPI PUSH2 0x558 PUSH2 0x32F9 JUMP JUMPDEST JUMPDEST SWAP1 PUSH0 MSTORE PUSH1 0x20 PUSH0 KECCAK256 SWAP1 PUSH1 0xB MUL ADD PUSH1 0x8 ADD DUP6 DUP1 SLOAD PUSH2 0x574 SWAP1 PUSH2 0x2FF5 JUMP JUMPDEST DUP1 PUSH1 0x1F ADD PUSH1 0x20 DUP1 SWAP2 DIV MUL PUSH1 0x20 ADD PUSH1 0x40 MLOAD SWAP1 DUP2 ADD PUSH1 0x40 MSTORE DUP1 SWAP3 SWAP2 SWAP1 DUP2 DUP2 MSTORE PUSH1 0x20 ADD DUP3 DUP1 SLOAD PUSH2 0x5A0 SWAP1 PUSH2 0x2FF5 JUMP JUMPDEST DUP1 ISZERO PUSH2 0x5EB JUMPI DUP1 PUSH1 0x1F LT PUSH2 0x5C2 JUMPI PUSH2 0x100 DUP1 DUP4 SLOAD DIV MUL DUP4 MSTORE SWAP2 PUSH1 0x20 ADD SWAP2 PUSH2 0x5EB JUMP JUMPDEST DUP3 ADD SWAP2 SWAP1 PUSH0 MSTORE PUSH1 0x20 PUSH0 KECCAK256 SWAP1 JUMPDEST DUP2 SLOAD DUP2 MSTORE SWAP1 PUSH1 0x1 ADD SWAP1 PUSH1 0x20 ADD DUP1 DUP4 GT PUSH2 0x5CE JUMPI DUP3 SWAP1 SUB PUSH1 0x1F AND DUP3 ADD SWAP2 JUMPDEST POP POP POP POP POP SWAP6 POP DUP5 DUP1 SLOAD PUSH2 0x5FE SWAP1 PUSH2 0x2FF5 JUMP JUMPDEST DUP1 PUSH1 0x1F ADD PUSH1 0x20 DUP1 SWAP2 DIV MUL PUSH1 0x20 ADD PUSH1 0x40 MLOAD SWAP1 DUP2 ADD PUSH1 0x40 MSTORE DUP1 SWAP3 SWAP2 SWAP1 DUP2 DUP2 MSTORE PUSH1 0x20 ADD DUP3 DUP1 SLOAD PUSH2 0x62A SWAP1 PUSH2 0x2FF5 JUMP JUMPDEST DUP1 ISZERO PUSH2 0x675 JUMPI DUP1 PUSH1 0x1F LT PUSH2 0x64C JUMPI PUSH2 0x100 DUP1 DUP4 SLOAD DIV MUL DUP4 MSTORE SWAP2 PUSH1 0x20 ADD SWAP2 PUSH2 0x675 JUMP JUMPDEST DUP3 ADD SWAP2 SWAP1 PUSH0 MSTORE PUSH1 0x20 PUSH0 KECCAK256 SWAP1 JUMPDEST DUP2 SLOAD DUP2 MSTORE SWAP1 PUSH1 0x1 ADD SWAP1 PUSH1 0x20 ADD DUP1 DUP4 GT PUSH2 0x658 JUMPI DUP3 SWAP1 SUB PUSH1 0x1F AND DUP3 ADD SWAP2 JUMPDEST POP POP POP POP POP SWAP5 POP DUP4 DUP1 SLOAD PUSH2 0x688 SWAP1 PUSH2 0x2FF5 JUMP JUMPDEST DUP1 PUSH1 0x1F ADD PUSH1 0x20 DUP1 SWAP2 DIV MUL PUSH1 0x20 ADD PUSH1 0x40 MLOAD SWAP1 DUP2 ADD PUSH1 0x40 MSTORE DUP1 SWAP3 SWAP2 SWAP1 DUP2 DUP2 MSTORE PUSH1 0x20 ADD DUP3 DUP1 SLOAD PUSH2 0x6B4 SWAP1 PUSH2 0x2FF5 JUMP JUMPDEST DUP1 ISZERO PUSH2 0x6FF JUMPI DUP1 PUSH1 0x1F LT PUSH2 0x6D6 JUMPI PUSH2 0x100 DUP1 DUP4 SLOAD DIV MUL DUP4 MSTORE SWAP2 PUSH1 0x20 ADD SWAP2 PUSH2 0x6FF JUMP JUMPDEST DUP3 ADD SWAP2 SWAP1 PUSH0 MSTORE PUSH1 0x20 PUSH0 KECCAK256 SWAP1 JUMPDEST DUP2 SLOAD DUP2 MSTORE SWAP1 PUSH1 0x1 ADD SWAP1 PUSH1 0x20 ADD DUP1 DUP4 GT PUSH2 0x6E2 JUMPI DUP3 SWAP1 SUB PUSH1 0x1F AND DUP3 ADD SWAP2 JUMPDEST POP POP POP POP POP SWAP4 POP DUP3 DUP1 SLOAD PUSH2 0x712 SWAP1 PUSH2 0x2FF5 JUMP JUMPDEST DUP1 PUSH1 0x1F ADD PUSH1 0x20 DUP1 SWAP2 DIV MUL PUSH1 0x20 ADD PUSH1 0x40 MLOAD SWAP1 DUP2 ADD PUSH1 0x40 MSTORE DUP1 SWAP3 SWAP2 SWAP1 DUP2 DUP2 MSTORE PUSH1 0x20 ADD DUP3 DUP1 SLOAD PUSH2 0x73E SWAP1 PUSH2 0x2FF5 JUMP JUMPDEST DUP1 ISZERO PUSH2 0x789 JUMPI DUP1 PUSH1 0x1F LT PUSH2 0x760 JUMPI PUSH2 0x100 DUP1 DUP4 SLOAD DIV MUL DUP4 MSTORE SWAP2 PUSH1 0x20 ADD SWAP2 PUSH2 0x789 JUMP JUMPDEST DUP3 ADD SWAP2 SWAP1 PUSH0 MSTORE PUSH1 0x20 PUSH0 KECCAK256 SWAP1 JUMPDEST DUP2 SLOAD DUP2 MSTORE SWAP1 PUSH1 0x1 ADD SWAP1 PUSH1 0x20 ADD DUP1 DUP4 GT PUSH2 0x76C JUMPI DUP3 SWAP1 SUB PUSH1 0x1F AND DUP3 ADD SWAP2 JUMPDEST POP POP POP POP POP SWAP3 POP DUP2 DUP1 SLOAD PUSH2 0x79C SWAP1 PUSH2 0x2FF5 JUMP JUMPDEST DUP1 PUSH1 0x1F ADD PUSH1 0x20 DUP1 SWAP2 DIV MUL PUSH1 0x20 ADD PUSH1 0x40 MLOAD SWAP1 DUP2 ADD PUSH1 0x40 MSTORE DUP1 SWAP3 SWAP2 SWAP1 DUP2 DUP2 MSTORE PUSH1 0x20 ADD DUP3 DUP1 SLOAD PUSH2 0x7C8 SWAP1 PUSH2 0x2FF5 JUMP JUMPDEST DUP1 ISZERO PUSH2 0x813 JUMPI DUP1 PUSH1 0x1F LT PUSH2 0x7EA JUMPI PUSH2 0x100 DUP1 DUP4 SLOAD DIV MUL DUP4 MSTORE SWAP2 PUSH1 0x20 ADD SWAP2 PUSH2 0x813 JUMP JUMPDEST DUP3 ADD SWAP2 SWAP1 PUSH0 MSTORE PUSH1 0x20 PUSH0 KECCAK256 SWAP1 JUMPDEST DUP2 SLOAD DUP2 MSTORE SWAP1 PUSH1 0x1 ADD SWAP1 PUSH1 0x20 ADD DUP1 DUP4 GT PUSH2 0x7F6 JUMPI DUP3 SWAP1 SUB PUSH1 0x1F AND DUP3 ADD SWAP2 JUMPDEST POP POP POP POP POP SWAP2 POP DUP1 DUP1 SLOAD PUSH2 0x826 SWAP1 PUSH2 0x2FF5 JUMP JUMPDEST DUP1 PUSH1 0x1F ADD PUSH1 0x20 DUP1 SWAP2 DIV MUL PUSH1 0x20 ADD PUSH1 0x40 MLOAD SWAP1 DUP2 ADD PUSH1 0x40 MSTORE DUP1 SWAP3 SWAP2 SWAP1 DUP2 DUP2 MSTORE PUSH1 0x20 ADD DUP3 DUP1 SLOAD PUSH2 0x852 SWAP1 PUSH2 0x2FF5 JUMP JUMPDEST DUP1 ISZERO PUSH2 0x89D JUMPI DUP1 PUSH1 0x1F LT PUSH2 0x874 JUMPI PUSH2 0x100 DUP1 DUP4 SLOAD DIV MUL DUP4 MSTORE SWAP2 PUSH1 0x20 ADD SWAP2 PUSH2 0x89D JUMP JUMPDEST DUP3 ADD SWAP2 SWAP1 PUSH0 MSTORE PUSH1 0x20 PUSH0 KECCAK256 SWAP1 JUMPDEST DUP2 SLOAD DUP2 MSTORE SWAP1 PUSH1 0x1 ADD SWAP1 PUSH1 0x20 ADD DUP1 DUP4 GT PUSH2 0x880 JUMPI DUP3 SWAP1 SUB PUSH1 0x1F AND DUP3 ADD SWAP2 JUMPDEST POP POP POP POP POP SWAP1 POP SWAP6 POP SWAP6 POP SWAP6 POP SWAP6 POP SWAP6 POP SWAP6 POP SWAP2 SWAP4 SWAP6 POP SWAP2 SWAP4 SWAP6 JUMP JUMPDEST PUSH1 0x60 DUP1 PUSH1 0x60 DUP1 PUSH1 0x60 DUP1 PUSH1 0x60 PUSH1 0x1 DUP1 SLOAD SWAP1 POP DUP9 LT PUSH2 0x90B JUMPI PUSH1 0x40 MLOAD PUSH32 0x8C379A000000000000000000000000000000000000000000000000000000000 DUP2 MSTORE PUSH1 0x4 ADD PUSH2 0x902 SWAP1 PUSH2 0x32DB JUMP JUMPDEST PUSH1 0x40 MLOAD DUP1 SWAP2 SUB SWAP1 REVERT JUMPDEST PUSH1 0x1 DUP9 DUP2 SLOAD DUP2 LT PUSH2 0x91F JUMPI PUSH2 0x91E PUSH2 0x32F9 JUMP JUMPDEST JUMPDEST SWAP1 PUSH0 MSTORE PUSH1 0x20 PUSH0 KECCAK256 SWAP1 PUSH1 0xA MUL ADD PUSH0 ADD PUSH1 0x1 DUP10 DUP2 SLOAD DUP2 LT PUSH2 0x941 JUMPI PUSH2 0x940 PUSH2 0x32F9 JUMP JUMPDEST JUMPDEST SWAP1 PUSH0 MSTORE PUSH1 0x20 PUSH0 KECCAK256 SWAP1 PUSH1 0xA MUL ADD PUSH1 0x4 ADD PUSH1 0x1 DUP11 DUP2 SLOAD DUP2 LT PUSH2 0x964 JUMPI PUSH2 0x963 PUSH2 0x32F9 JUMP JUMPDEST JUMPDEST SWAP1 PUSH0 MSTORE PUSH1 0x20 PUSH0 KECCAK256 SWAP1 PUSH1 0xA MUL ADD PUSH1 0x5 ADD PUSH1 0x1 DUP12 DUP2 SLOAD DUP2 LT PUSH2 0x987 JUMPI PUSH2 0x986 PUSH2 0x32F9 JUMP JUMPDEST JUMPDEST SWAP1 PUSH0 MSTORE PUSH1 0x20 PUSH0 KECCAK256 SWAP1 PUSH1 0xA MUL ADD PUSH1 0x6 ADD PUSH1 0x1 DUP13 DUP2 SLOAD DUP2 LT PUSH2 0x9AA JUMPI PUSH2 0x9A9 PUSH2 0x32F9 JUMP JUMPDEST JUMPDEST SWAP1 PUSH0 MSTORE PUSH1 0x20 PUSH0 KECCAK256 SWAP1 PUSH1 0xA MUL ADD PUSH1 0x7 ADD PUSH1 0x1 DUP14 DUP2 SLOAD DUP2 LT PUSH2 0x9CD JUMPI PUSH2 0x9CC PUSH2 0x32F9 JUMP JUMPDEST JUMPDEST SWAP1 PUSH0 MSTORE PUSH1 0x20 PUSH0 KECCAK256 SWAP1 PUSH1 0xA MUL ADD PUSH1 0x8 ADD PUSH1 0x1 DUP15 DUP2 SLOAD DUP2 LT PUSH2 0x9F0 JUMPI PUSH2 0x9EF PUSH2 0x32F9 JUMP JUMPDEST JUMPDEST SWAP1 PUSH0 MSTORE PUSH1 0x20 PUSH0 KECCAK256 SWAP1 PUSH1 0xA MUL ADD PUSH1 0x9 ADD DUP7 DUP1 SLOAD PUSH2 0xA0B SWAP1 PUSH2 0x2FF5 JUMP JUMPDEST DUP1 PUSH1 0x1F ADD PUSH1 0x20 DUP1 SWAP2 DIV MUL PUSH1 0x20 ADD PUSH1 0x40 MLOAD SWAP1 DUP2 ADD PUSH1 0x40 MSTORE DUP1 SWAP3 SWAP2 SWAP1 DUP2 DUP2 MSTORE PUSH1 0x20 ADD DUP3 DUP1 SLOAD PUSH2 0xA37 SWAP1 PUSH2 0x2FF5 JUMP JUMPDEST DUP1 ISZERO PUSH2 0xA82 JUMPI DUP1 PUSH1 0x1F LT PUSH2 0xA59 JUMPI PUSH2 0x100 DUP1 DUP4 SLOAD DIV MUL DUP4 MSTORE SWAP2 PUSH1 0x20 ADD SWAP2 PUSH2 0xA82 JUMP JUMPDEST DUP3 ADD SWAP2 SWAP1 PUSH0 MSTORE PUSH1 0x20 PUSH0 KECCAK256 SWAP1 JUMPDEST DUP2 SLOAD DUP2 MSTORE SWAP1 PUSH1 0x1 ADD SWAP1 PUSH1 0x20 ADD DUP1 DUP4 GT PUSH2 0xA65 JUMPI DUP3 SWAP1 SUB PUSH1 0x1F AND DUP3 ADD SWAP2 JUMPDEST POP POP POP POP POP SWAP7 POP DUP6 DUP1 SLOAD PUSH2 0xA95 SWAP1 PUSH2 0x2FF5 JUMP JUMPDEST DUP1 PUSH1 0x1F ADD PUSH1 0x20 DUP1 SWAP2 DIV MUL PUSH1 0x20 ADD PUSH1 0x40 MLOAD SWAP1 DUP2 ADD PUSH1 0x40 MSTORE DUP1 SWAP3 SWAP2 SWAP1 DUP2 DUP2 MSTORE PUSH1 0x20 ADD DUP3 DUP1 SLOAD PUSH2 0xAC1 SWAP1 PUSH2 0x2FF5 JUMP JUMPDEST DUP1 ISZERO PUSH2 0xB0C JUMPI DUP1 PUSH1 0x1F LT PUSH2 0xAE3 JUMPI PUSH2 0x100 DUP1 DUP4 SLOAD DIV MUL DUP4 MSTORE SWAP2 PUSH1 0x20 ADD SWAP2 PUSH2 0xB0C JUMP JUMPDEST DUP3 ADD SWAP2 SWAP1 PUSH0 MSTORE PUSH1 0x20 PUSH0 KECCAK256 SWAP1 JUMPDEST DUP2 SLOAD DUP2 MSTORE SWAP1 PUSH1 0x1 ADD SWAP1 PUSH1 0x20 ADD DUP1 DUP4 GT PUSH2 0xAEF JUMPI DUP3 SWAP1 SUB PUSH1 0x1F AND DUP3 ADD SWAP2 JUMPDEST POP POP POP POP POP SWAP6 POP DUP5 DUP1 SLOAD PUSH2 0xB1F SWAP1 PUSH2 0x2FF5 JUMP JUMPDEST DUP1 PUSH1 0x1F ADD PUSH1 0x20 DUP1 SWAP2 DIV MUL PUSH1 0x20 ADD PUSH1 0x40 MLOAD SWAP1 DUP2 ADD PUSH1 0x40 MSTORE DUP1 SWAP3 SWAP2 SWAP1 DUP2 DUP2 MSTORE PUSH1 0x20 ADD DUP3 DUP1 SLOAD PUSH2 0xB4B SWAP1 PUSH2 0x2FF5 JUMP JUMPDEST DUP1 ISZERO PUSH2 0xB96 JUMPI DUP1 PUSH1 0x1F LT PUSH2 0xB6D JUMPI PUSH2 0x100 DUP1 DUP4 SLOAD DIV MUL DUP4 MSTORE SWAP2 PUSH1 0x20 ADD SWAP2 PUSH2 0xB96 JUMP JUMPDEST DUP3 ADD SWAP2 SWAP1 PUSH0 MSTORE PUSH1 0x20 PUSH0 KECCAK256 SWAP1 JUMPDEST DUP2 SLOAD DUP2 MSTORE SWAP1 PUSH1 0x1 ADD SWAP1 PUSH1 0x20 ADD DUP1 DUP4 GT PUSH2 0xB79 JUMPI DUP3 SWAP1 SUB PUSH1 0x1F AND DUP3 ADD SWAP2 JUMPDEST POP POP POP POP POP SWAP5 POP DUP4 DUP1 SLOAD PUSH2 0xBA9 SWAP1 PUSH2 0x2FF5 JUMP JUMPDEST DUP1 PUSH1 0x1F ADD PUSH1 0x20 DUP1 SWAP2 DIV MUL PUSH1 0x20 ADD PUSH1 0x40 MLOAD SWAP1 DUP2 ADD PUSH1 0x40 MSTORE DUP1 SWAP3 SWAP2 SWAP1 DUP2 DUP2 MSTORE PUSH1 0x20 ADD DUP3 DUP1 SLOAD PUSH2 0xBD5 SWAP1 PUSH2 0x2FF5 JUMP JUMPDEST DUP1 ISZERO PUSH2 0xC20 JUMPI DUP1 PUSH1 0x1F LT PUSH2 0xBF7 JUMPI PUSH2 0x100 DUP1 DUP4 SLOAD DIV MUL DUP4 MSTORE SWAP2 PUSH1 0x20 ADD SWAP2 PUSH2 0xC20 JUMP JUMPDEST DUP3 ADD SWAP2 SWAP1 PUSH0 MSTORE PUSH1 0x20 PUSH0 KECCAK256 SWAP1 JUMPDEST DUP2 SLOAD DUP2 MSTORE SWAP1 PUSH1 0x1 ADD SWAP1 PUSH1 0x20 ADD DUP1 DUP4 GT PUSH2 0xC03 JUMPI DUP3 SWAP1 SUB PUSH1 0x1F AND DUP3 ADD SWAP2 JUMPDEST POP POP POP POP POP SWAP4 POP DUP3 DUP1 SLOAD PUSH2 0xC33 SWAP1 PUSH2 0x2FF5 JUMP JUMPDEST DUP1 PUSH1 0x1F ADD PUSH1 0x20 DUP1 SWAP2 DIV MUL PUSH1 0x20 ADD PUSH1 0x40 MLOAD SWAP1 DUP2 ADD PUSH1 0x40 MSTORE DUP1 SWAP3 SWAP2 SWAP1 DUP2 DUP2 MSTORE PUSH1 0x20 ADD DUP3 DUP1 SLOAD PUSH2 0xC5F SWAP1 PUSH2 0x2FF5 JUMP JUMPDEST DUP1 ISZERO PUSH2 0xCAA JUMPI DUP1 PUSH1 0x1F LT PUSH2 0xC81 JUMPI PUSH2 0x100 DUP1 DUP4 SLOAD DIV MUL DUP4 MSTORE SWAP2 PUSH1 0x20 ADD SWAP2 PUSH2 0xCAA JUMP JUMPDEST DUP3 ADD SWAP2 SWAP1 PUSH0 MSTORE PUSH1 0x20 PUSH0 KECCAK256 SWAP1 JUMPDEST DUP2 SLOAD DUP2 MSTORE SWAP1 PUSH1 0x1 ADD SWAP1 PUSH1 0x20 ADD DUP1 DUP4 GT PUSH2 0xC8D JUMPI DUP3 SWAP1 SUB PUSH1 0x1F AND DUP3 ADD SWAP2 JUMPDEST POP POP POP POP POP SWAP3 POP DUP2 DUP1 SLOAD PUSH2 0xCBD SWAP1 PUSH2 0x2FF5 JUMP JUMPDEST DUP1 PUSH1 0x1F ADD PUSH1 0x20 DUP1 SWAP2 DIV MUL PUSH1 0x20 ADD PUSH1 0x40 MLOAD SWAP1 DUP2 ADD PUSH1 0x40 MSTORE DUP1 SWAP3 SWAP2 SWAP1 DUP2 DUP2 MSTORE PUSH1 0x20 ADD DUP3 DUP1 SLOAD PUSH2 0xCE9 SWAP1 PUSH2 0x2FF5 JUMP JUMPDEST DUP1 ISZERO PUSH2 0xD34 JUMPI DUP1 PUSH1 0x1F LT PUSH2 0xD0B JUMPI PUSH2 0x100 DUP1 DUP4 SLOAD DIV MUL DUP4 MSTORE SWAP2 PUSH1 0x20 ADD SWAP2 PUSH2 0xD34 JUMP JUMPDEST DUP3 ADD SWAP2 SWAP1 PUSH0 MSTORE PUSH1 0x20 PUSH0 KECCAK256 SWAP1 JUMPDEST DUP2 SLOAD DUP2 MSTORE SWAP1 PUSH1 0x1 ADD SWAP1 PUSH1 0x20 ADD DUP1 DUP4 GT PUSH2 0xD17 JUMPI DUP3 SWAP1 SUB PUSH1 0x1F AND DUP3 ADD SWAP2 JUMPDEST POP POP POP POP POP SWAP2 POP DUP1 DUP1 SLOAD PUSH2 0xD47 SWAP1 PUSH2 0x2FF5 JUMP JUMPDEST DUP1 PUSH1 0x1F ADD PUSH1 0x20 DUP1 SWAP2 DIV MUL PUSH1 0x20 ADD PUSH1 0x40 MLOAD SWAP1 DUP2 ADD PUSH1 0x40 MSTORE DUP1 SWAP3 SWAP2 SWAP1 DUP2 DUP2 MSTORE PUSH1 0x20 ADD DUP3 DUP1 SLOAD PUSH2 0xD73 SWAP1 PUSH2 0x2FF5 JUMP JUMPDEST DUP1 ISZERO PUSH2 0xDBE JUMPI DUP1 PUSH1 0x1F LT PUSH2 0xD95 JUMPI PUSH2 0x100 DUP1 DUP4 SLOAD DIV MUL DUP4 MSTORE SWAP2 PUSH1 0x20 ADD SWAP2 PUSH2 0xDBE JUMP JUMPDEST DUP3 ADD SWAP2 SWAP1 PUSH0 MSTORE PUSH1 0x20 PUSH0 KECCAK256 SWAP1 JUMPDEST DUP2 SLOAD DUP2 MSTORE SWAP1 PUSH1 0x1 ADD SWAP1 PUSH1 0x20 ADD DUP1 DUP4 GT PUSH2 0xDA1 JUMPI DUP3 SWAP1 SUB PUSH1 0x1F AND DUP3 ADD SWAP2 JUMPDEST POP POP POP POP POP SWAP1 POP SWAP7 POP SWAP7 POP SWAP7 POP SWAP7 POP SWAP7 POP SWAP7 POP SWAP7 POP SWAP2 SWAP4 SWAP6 SWAP8 SWAP1 SWAP3 SWAP5 SWAP7 POP JUMP JUMPDEST PUSH1 0x60 DUP1 PUSH0 DUP1 SLOAD SWAP1 POP DUP4 LT PUSH2 0xE27 JUMPI PUSH1 0x40 MLOAD PUSH32 0x8C379A000000000000000000000000000000000000000000000000000000000 DUP2 MSTORE PUSH1 0x4 ADD PUSH2 0xE1E SWAP1 PUSH2 0x32DB JUMP JUMPDEST PUSH1 0x40 MLOAD DUP1 SWAP2 SUB SWAP1 REVERT JUMPDEST PUSH0 DUP4 DUP2 SLOAD DUP2 LT PUSH2 0xE3A JUMPI PUSH2 0xE39 PUSH2 0x32F9 JUMP JUMPDEST JUMPDEST SWAP1 PUSH0 MSTORE PUSH1 0x20 PUSH0 KECCAK256 SWAP1 PUSH1 0xB MUL ADD PUSH1 0x9 ADD PUSH0 DUP5 DUP2 SLOAD DUP2 LT PUSH2 0xE5C JUMPI PUSH2 0xE5B PUSH2 0x32F9 JUMP JUMPDEST JUMPDEST SWAP1 PUSH0 MSTORE PUSH1 0x20 PUSH0 KECCAK256 SWAP1 PUSH1 0xB MUL ADD PUSH1 0xA ADD DUP2 DUP1 SLOAD PUSH2 0xE77 SWAP1 PUSH2 0x2FF5 JUMP JUMPDEST DUP1 PUSH1 0x1F ADD PUSH1 0x20 DUP1 SWAP2 DIV MUL PUSH1 0x20 ADD PUSH1 0x40 MLOAD SWAP1 DUP2 ADD PUSH1 0x40 MSTORE DUP1 SWAP3 SWAP2 SWAP1 DUP2 DUP2 MSTORE PUSH1 0x20 ADD DUP3 DUP1 SLOAD PUSH2 0xEA3 SWAP1 PUSH2 0x2FF5 JUMP JUMPDEST DUP1 ISZERO PUSH2 0xEEE JUMPI DUP1 PUSH1 0x1F LT PUSH2 0xEC5 JUMPI PUSH2 0x100 DUP1 DUP4 SLOAD DIV MUL DUP4 MSTORE SWAP2 PUSH1 0x20 ADD SWAP2 PUSH2 0xEEE JUMP JUMPDEST DUP3 ADD SWAP2 SWAP1 PUSH0 MSTORE PUSH1 0x20 PUSH0 KECCAK256 SWAP1 JUMPDEST DUP2 SLOAD DUP2 MSTORE SWAP1 PUSH1 0x1 ADD SWAP1 PUSH1 0x20 ADD DUP1 DUP4 GT PUSH2 0xED1 JUMPI DUP3 SWAP1 SUB PUSH1 0x1F AND DUP3 ADD SWAP2 JUMPDEST POP POP POP POP POP SWAP2 POP DUP1 DUP1 SLOAD PUSH2 0xF01 SWAP1 PUSH2 0x2FF5 JUMP JUMPDEST DUP1 PUSH1 0x1F ADD PUSH1 0x20 DUP1 SWAP2 DIV MUL PUSH1 0x20 ADD PUSH1 0x40 MLOAD SWAP1 DUP2 ADD PUSH1 0x40 MSTORE DUP1 SWAP3 SWAP2 SWAP1 DUP2 DUP2 MSTORE PUSH1 0x20 ADD DUP3 DUP1 SLOAD PUSH2 0xF2D SWAP1 PUSH2 0x2FF5 JUMP JUMPDEST DUP1 ISZERO PUSH2 0xF78 JUMPI DUP1 PUSH1 0x1F LT PUSH2 0xF4F JUMPI PUSH2 0x100 DUP1 DUP4 SLOAD DIV MUL DUP4 MSTORE SWAP2 PUSH1 0x20 ADD SWAP2 PUSH2 0xF78 JUMP JUMPDEST DUP3 ADD SWAP2 SWAP1 PUSH0 MSTORE PUSH1 0x20 PUSH0 KECCAK256 SWAP1 JUMPDEST DUP2 SLOAD DUP2 MSTORE SWAP1 PUSH1 0x1 ADD SWAP1 PUSH1 0x20 ADD DUP1 DUP4 GT PUSH2 0xF5B JUMPI DUP3 SWAP1 SUB PUSH1 0x1F AND DUP3 ADD SWAP2 JUMPDEST POP POP POP POP POP SWAP1 POP SWAP2 POP SWAP2 POP SWAP2 POP SWAP2 JUMP JUMPDEST PUSH0 PUSH1 0x40 MLOAD DUP1 PUSH2 0x160 ADD PUSH1 0x40 MSTORE DUP1 DUP14 DUP2 MSTORE PUSH1 0x20 ADD DUP13 DUP2 MSTORE PUSH1 0x20 ADD DUP12 DUP2 MSTORE PUSH1 0x20 ADD DUP11 DUP2 MSTORE PUSH1 0x20 ADD DUP10 DUP2 MSTORE PUSH1 0x20 ADD DUP9 DUP2 MSTORE PUSH1 0x20 ADD DUP8 DUP2 MSTORE PUSH1 0x20 ADD DUP7 DUP2 MSTORE PUSH1 0x20 ADD DUP6 DUP2 MSTORE PUSH1 0x20 ADD DUP5 DUP2 MSTORE PUSH1 0x20 ADD DUP4 DUP2 MSTORE POP SWAP1 POP PUSH0 DUP2 SWAP1 DUP1 PUSH1 0x1 DUP2 SLOAD ADD DUP1 DUP3 SSTORE DUP1 SWAP2 POP POP PUSH1 0x1 SWAP1 SUB SWAP1 PUSH0 MSTORE PUSH1 0x20 PUSH0 KECCAK256 SWAP1 PUSH1 0xB MUL ADD PUSH0 SWAP1 SWAP2 SWAP1 SWAP2 SWAP1 SWAP2 POP PUSH0 DUP3 ADD MLOAD DUP2 PUSH0 ADD SWAP1 DUP2 PUSH2 0x1012 SWAP2 SWAP1 PUSH2 0x31C2 JUMP JUMPDEST POP PUSH1 0x20 DUP3 ADD MLOAD DUP2 PUSH1 0x1 ADD SWAP1 DUP2 PUSH2 0x1028 SWAP2 SWAP1 PUSH2 0x31C2 JUMP JUMPDEST POP PUSH1 0x40 DUP3 ADD MLOAD DUP2 PUSH1 0x2 ADD SWAP1 DUP2 PUSH2 0x103E SWAP2 SWAP1 PUSH2 0x31C2 JUMP JUMPDEST POP PUSH1 0x60 DUP3 ADD MLOAD DUP2 PUSH1 0x3 ADD SWAP1 DUP2 PUSH2 0x1054 SWAP2 SWAP1 PUSH2 0x31C2 JUMP JUMPDEST POP PUSH1 0x80 DUP3 ADD MLOAD DUP2 PUSH1 0x4 ADD SWAP1 DUP2 PUSH2 0x106A SWAP2 SWAP1 PUSH2 0x31C2 JUMP JUMPDEST POP PUSH1 0xA0 DUP3 ADD MLOAD DUP2 PUSH1 0x5 ADD SWAP1 DUP2 PUSH2 0x1080 SWAP2 SWAP1 PUSH2 0x31C2 JUMP JUMPDEST POP PUSH1 0xC0 DUP3 ADD MLOAD DUP2 PUSH1 0x6 ADD SWAP1 DUP2 PUSH2 0x1096 SWAP2 SWAP1 PUSH2 0x31C2 JUMP JUMPDEST POP PUSH1 0xE0 DUP3 ADD MLOAD DUP2 PUSH1 0x7 ADD SWAP1 DUP2 PUSH2 0x10AC SWAP2 SWAP1 PUSH2 0x31C2 JUMP JUMPDEST POP PUSH2 0x100 DUP3 ADD MLOAD DUP2 PUSH1 0x8 ADD SWAP1 DUP2 PUSH2 0x10C3 SWAP2 SWAP1 PUSH2 0x31C2 JUMP JUMPDEST POP PUSH2 0x120 DUP3 ADD MLOAD DUP2 PUSH1 0x9 ADD SWAP1 DUP2 PUSH2 0x10DA SWAP2 SWAP1 PUSH2 0x31C2 JUMP JUMPDEST POP PUSH2 0x140 DUP3 ADD MLOAD DUP2 PUSH1 0xA ADD SWAP1 DUP2 PUSH2 0x10F1 SWAP2 SWAP1 PUSH2 0x31C2 JUMP JUMPDEST POP POP POP POP POP POP POP POP POP POP POP POP POP POP POP JUMP JUMPDEST PUSH0 DUP2 DUP2 SLOAD DUP2 LT PUSH2 0x1110 JUMPI PUSH0 DUP1 REVERT JUMPDEST SWAP1 PUSH0 MSTORE PUSH1 0x20 PUSH0 KECCAK256 SWAP1 PUSH1 0xB MUL ADD PUSH0 SWAP2 POP SWAP1 POP DUP1 PUSH0 ADD DUP1 SLOAD PUSH2 0x112F SWAP1 PUSH2 0x2FF5 JUMP JUMPDEST DUP1 PUSH1 0x1F ADD PUSH1 0x20 DUP1 SWAP2 DIV MUL PUSH1 0x20 ADD PUSH1 0x40 MLOAD SWAP1 DUP2 ADD PUSH1 0x40 MSTORE DUP1 SWAP3 SWAP2 SWAP1 DUP2 DUP2 MSTORE PUSH1 0x20 ADD DUP3 DUP1 SLOAD PUSH2 0x115B SWAP1 PUSH2 0x2FF5 JUMP JUMPDEST DUP1 ISZERO PUSH2 0x11A6 JUMPI DUP1 PUSH1 0x1F LT PUSH2 0x117D JUMPI PUSH2 0x100 DUP1 DUP4 SLOAD DIV MUL DUP4 MSTORE SWAP2 PUSH1 0x20 ADD SWAP2 PUSH2 0x11A6 JUMP JUMPDEST DUP3 ADD SWAP2 SWAP1 PUSH0 MSTORE PUSH1 0x20 PUSH0 KECCAK256 SWAP1 JUMPDEST DUP2 SLOAD DUP2 MSTORE SWAP1 PUSH1 0x1 ADD SWAP1 PUSH1 0x20 ADD DUP1 DUP4 GT PUSH2 0x1189 JUMPI DUP3 SWAP1 SUB PUSH1 0x1F AND DUP3 ADD SWAP2 JUMPDEST POP POP POP POP POP SWAP1 DUP1 PUSH1 0x1 ADD DUP1 SLOAD PUSH2 0x11BB SWAP1 PUSH2 0x2FF5 JUMP JUMPDEST DUP1 PUSH1 0x1F ADD PUSH1 0x20 DUP1 SWAP2 DIV MUL PUSH1 0x20 ADD PUSH1 0x40 MLOAD SWAP1 DUP2 ADD PUSH1 0x40 MSTORE DUP1 SWAP3 SWAP2 SWAP1 DUP2 DUP2 MSTORE PUSH1 0x20 ADD DUP3 DUP1 SLOAD PUSH2 0x11E7 SWAP1 PUSH2 0x2FF5 JUMP JUMPDEST DUP1 ISZERO PUSH2 0x1232 JUMPI DUP1 PUSH1 0x1F LT PUSH2 0x1209 JUMPI PUSH2 0x100 DUP1 DUP4 SLOAD DIV MUL DUP4 MSTORE SWAP2 PUSH1 0x20 ADD SWAP2 PUSH2 0x1232 JUMP JUMPDEST DUP3 ADD SWAP2 SWAP1 PUSH0 MSTORE PUSH1 0x20 PUSH0 KECCAK256 SWAP1 JUMPDEST DUP2 SLOAD DUP2 MSTORE SWAP1 PUSH1 0x1 ADD SWAP1 PUSH1 0x20 ADD DUP1 DUP4 GT PUSH2 0x1215 JUMPI DUP3 SWAP1 SUB PUSH1 0x1F AND DUP3 ADD SWAP2 JUMPDEST POP POP POP POP POP SWAP1 DUP1 PUSH1 0x2 ADD DUP1 SLOAD PUSH2 0x1247 SWAP1 PUSH2 0x2FF5 JUMP JUMPDEST DUP1 PUSH1 0x1F ADD PUSH1 0x20 DUP1 SWAP2 DIV MUL PUSH1 0x20 ADD PUSH1 0x40 MLOAD SWAP1 DUP2 ADD PUSH1 0x40 MSTORE DUP1 SWAP3 SWAP2 SWAP1 DUP2 DUP2 MSTORE PUSH1 0x20 ADD DUP3 DUP1 SLOAD PUSH2 0x1273 SWAP1 PUSH2 0x2FF5 JUMP JUMPDEST DUP1 ISZERO PUSH2 0x12BE JUMPI DUP1 PUSH1 0x1F LT PUSH2 0x1295 JUMPI PUSH2 0x100 DUP1 DUP4 SLOAD DIV MUL DUP4 MSTORE SWAP2 PUSH1 0x20 ADD SWAP2 PUSH2 0x12BE JUMP JUMPDEST DUP3 ADD SWAP2 SWAP1 PUSH0 MSTORE PUSH1 0x20 PUSH0 KECCAK256 SWAP1 JUMPDEST DUP2 SLOAD DUP2 MSTORE SWAP1 PUSH1 0x1 ADD SWAP1 PUSH1 0x20 ADD DUP1 DUP4 GT PUSH2 0x12A1 JUMPI DUP3 SWAP1 SUB PUSH1 0x1F AND DUP3 ADD SWAP2 JUMPDEST POP POP POP POP POP SWAP1 DUP1 PUSH1 0x3 ADD DUP1 SLOAD PUSH2 0x12D3 SWAP1 PUSH2 0x2FF5 JUMP JUMPDEST DUP1 PUSH1 0x1F ADD PUSH1 0x20 DUP1 SWAP2 DIV MUL PUSH1 0x20 ADD PUSH1 0x40 MLOAD SWAP1 DUP2 ADD PUSH1 0x40 MSTORE DUP1 SWAP3 SWAP2 SWAP1 DUP2 DUP2 MSTORE PUSH1 0x20 ADD DUP3 DUP1 SLOAD PUSH2 0x12FF SWAP1 PUSH2 0x2FF5 JUMP JUMPDEST DUP1 ISZERO PUSH2 0x134A JUMPI DUP1 PUSH1 0x1F LT PUSH2 0x1321 JUMPI PUSH2 0x100 DUP1 DUP4 SLOAD DIV MUL DUP4 MSTORE SWAP2 PUSH1 0x20 ADD SWAP2 PUSH2 0x134A JUMP JUMPDEST DUP3 ADD SWAP2 SWAP1 PUSH0 MSTORE PUSH1 0x20 PUSH0 KECCAK256 SWAP1 JUMPDEST DUP2 SLOAD DUP2 MSTORE SWAP1 PUSH1 0x1 ADD SWAP1 PUSH1 0x20 ADD DUP1 DUP4 GT PUSH2 0x132D JUMPI DUP3 SWAP1 SUB PUSH1 0x1F AND DUP3 ADD SWAP2 JUMPDEST POP POP POP POP POP SWAP1 DUP1 PUSH1 0x4 ADD DUP1 SLOAD PUSH2 0x135F SWAP1 PUSH2 0x2FF5 JUMP JUMPDEST DUP1 PUSH1 0x1F ADD PUSH1 0x20 DUP1 SWAP2 DIV MUL PUSH1 0x20 ADD PUSH1 0x40 MLOAD SWAP1 DUP2 ADD PUSH1 0x40 MSTORE DUP1 SWAP3 SWAP2 SWAP1 DUP2 DUP2 MSTORE PUSH1 0x20 ADD DUP3 DUP1 SLOAD PUSH2 0x138B SWAP1 PUSH2 0x2FF5 JUMP JUMPDEST DUP1 ISZERO PUSH2 0x13D6 JUMPI DUP1 PUSH1 0x1F LT PUSH2 0x13AD JUMPI PUSH2 0x100 DUP1 DUP4 SLOAD DIV MUL DUP4 MSTORE SWAP2 PUSH1 0x20 ADD SWAP2 PUSH2 0x13D6 JUMP JUMPDEST DUP3 ADD SWAP2 SWAP1 PUSH0 MSTORE PUSH1 0x20 PUSH0 KECCAK256 SWAP1 JUMPDEST DUP2 SLOAD DUP2 MSTORE SWAP1 PUSH1 0x1 ADD SWAP1 PUSH1 0x20 ADD DUP1 DUP4 GT PUSH2 0x13B9 JUMPI DUP3 SWAP1 SUB PUSH1 0x1F AND DUP3 ADD SWAP2 JUMPDEST POP POP POP POP POP SWAP1 DUP1 PUSH1 0x5 ADD DUP1 SLOAD PUSH2 0x13EB SWAP1 PUSH2 0x2FF5 JUMP JUMPDEST DUP1 PUSH1 0x1F ADD PUSH1 0x20 DUP1 SWAP2 DIV MUL PUSH1 0x20 ADD PUSH1 0x40 MLOAD SWAP1 DUP2 ADD PUSH1 0x40 MSTORE DUP1 SWAP3 SWAP2 SWAP1 DUP2 DUP2 MSTORE PUSH1 0x20 ADD DUP3 DUP1 SLOAD PUSH2 0x1417 SWAP1 PUSH2 0x2FF5 JUMP JUMPDEST DUP1 ISZERO PUSH2 0x1462 JUMPI DUP1 PUSH1 0x1F LT PUSH2 0x1439 JUMPI PUSH2 0x100 DUP1 DUP4 SLOAD DIV MUL DUP4 MSTORE SWAP2 PUSH1 0x20 ADD SWAP2 PUSH2 0x1462 JUMP JUMPDEST DUP3 ADD SWAP2 SWAP1 PUSH0 MSTORE PUSH1 0x20 PUSH0 KECCAK256 SWAP1 JUMPDEST DUP2 SLOAD DUP2 MSTORE SWAP1 PUSH1 0x1 ADD SWAP1 PUSH1 0x20 ADD DUP1 DUP4 GT PUSH2 0x1445 JUMPI DUP3 SWAP1 SUB PUSH1 0x1F AND DUP3 ADD SWAP2 JUMPDEST POP POP POP POP POP SWAP1 DUP1 PUSH1 0x6 ADD DUP1 SLOAD PUSH2 0x1477 SWAP1 PUSH2 0x2FF5 JUMP JUMPDEST DUP1 PUSH1 0x1F ADD PUSH1 0x20 DUP1 SWAP2 DIV MUL PUSH1 0x20 ADD PUSH1 0x40 MLOAD SWAP1 DUP2 ADD PUSH1 0x40 MSTORE DUP1 SWAP3 SWAP2 SWAP1 DUP2 DUP2 MSTORE PUSH1 0x20 ADD DUP3 DUP1 SLOAD PUSH2 0x14A3 SWAP1 PUSH2 0x2FF5 JUMP JUMPDEST DUP1 ISZERO PUSH2 0x14EE JUMPI DUP1 PUSH1 0x1F LT PUSH2 0x14C5 JUMPI PUSH2 0x100 DUP1 DUP4 SLOAD DIV MUL DUP4 MSTORE SWAP2 PUSH1 0x20 ADD SWAP2 PUSH2 0x14EE JUMP JUMPDEST DUP3 ADD SWAP2 SWAP1 PUSH0 MSTORE PUSH1 0x20 PUSH0 KECCAK256 SWAP1 JUMPDEST DUP2 SLOAD DUP2 MSTORE SWAP1 PUSH1 0x1 ADD SWAP1 PUSH1 0x20 ADD DUP1 DUP4 GT PUSH2 0x14D1 JUMPI DUP3 SWAP1 SUB PUSH1 0x1F AND DUP3 ADD SWAP2 JUMPDEST POP POP POP POP POP SWAP1 DUP1 PUSH1 0x7 ADD DUP1 SLOAD PUSH2 0x1503 SWAP1 PUSH2 0x2FF5 JUMP JUMPDEST DUP1 PUSH1 0x1F ADD PUSH1 0x20 DUP1 SWAP2 DIV MUL PUSH1 0x20 ADD PUSH1 0x40 MLOAD SWAP1 DUP2 ADD PUSH1 0x40 MSTORE DUP1 SWAP3 SWAP2 SWAP1 DUP2 DUP2 MSTORE PUSH1 0x20 ADD DUP3 DUP1 SLOAD PUSH2 0x152F SWAP1 PUSH2 0x2FF5 JUMP JUMPDEST DUP1 ISZERO PUSH2 0x157A JUMPI DUP1 PUSH1 0x1F LT PUSH2 0x1551 JUMPI PUSH2 0x100 DUP1 DUP4 SLOAD DIV MUL DUP4 MSTORE SWAP2 PUSH1 0x20 ADD SWAP2 PUSH2 0x157A JUMP JUMPDEST DUP3 ADD SWAP2 SWAP1 PUSH0 MSTORE PUSH1 0x20 PUSH0 KECCAK256 SWAP1 JUMPDEST DUP2 SLOAD DUP2 MSTORE SWAP1 PUSH1 0x1 ADD SWAP1 PUSH1 0x20 ADD DUP1 DUP4 GT PUSH2 0x155D JUMPI DUP3 SWAP1 SUB PUSH1 0x1F AND DUP3 ADD SWAP2 JUMPDEST POP POP POP POP POP SWAP1 DUP1 PUSH1 0x8 ADD DUP1 SLOAD PUSH2 0x158F SWAP1 PUSH2 0x2FF5 JUMP JUMPDEST DUP1 PUSH1 0x1F ADD PUSH1 0x20 DUP1 SWAP2 DIV MUL PUSH1 0x20 ADD PUSH1 0x40 MLOAD SWAP1 DUP2 ADD PUSH1 0x40 MSTORE DUP1 SWAP3 SWAP2 SWAP1 DUP2 DUP2 MSTORE PUSH1 0x20 ADD DUP3 DUP1 SLOAD PUSH2 0x15BB SWAP1 PUSH2 0x2FF5 JUMP JUMPDEST DUP1 ISZERO PUSH2 0x1606 JUMPI DUP1 PUSH1 0x1F LT PUSH2 0x15DD JUMPI PUSH2 0x100 DUP1 DUP4 SLOAD DIV MUL DUP4 MSTORE SWAP2 PUSH1 0x20 ADD SWAP2 PUSH2 0x1606 JUMP JUMPDEST DUP3 ADD SWAP2 SWAP1 PUSH0 MSTORE PUSH1 0x20 PUSH0 KECCAK256 SWAP1 JUMPDEST DUP2 SLOAD DUP2 MSTORE SWAP1 PUSH1 0x1 ADD SWAP1 PUSH1 0x20 ADD DUP1 DUP4 GT PUSH2 0x15E9 JUMPI DUP3 SWAP1 SUB PUSH1 0x1F AND DUP3 ADD SWAP2 JUMPDEST POP POP POP POP POP SWAP1 DUP1 PUSH1 0x9 ADD DUP1 SLOAD PUSH2 0x161B SWAP1 PUSH2 0x2FF5 JUMP JUMPDEST DUP1 PUSH1 0x1F ADD PUSH1 0x20 DUP1 SWAP2 DIV MUL PUSH1 0x20 ADD PUSH1 0x40 MLOAD SWAP1 DUP2 ADD PUSH1 0x40 MSTORE DUP1 SWAP3 SWAP2 SWAP1 DUP2 DUP2 MSTORE PUSH1 0x20 ADD DUP3 DUP1 SLOAD PUSH2 0x1647 SWAP1 PUSH2 0x2FF5 JUMP JUMPDEST DUP1 ISZERO PUSH2 0x1692 JUMPI DUP1 PUSH1 0x1F LT PUSH2 0x1669 JUMPI PUSH2 0x100 DUP1 DUP4 SLOAD DIV MUL DUP4 MSTORE SWAP2 PUSH1 0x20 ADD SWAP2 PUSH2 0x1692 JUMP JUMPDEST DUP3 ADD SWAP2 SWAP1 PUSH0 MSTORE PUSH1 0x20 PUSH0 KECCAK256 SWAP1 JUMPDEST DUP2 SLOAD DUP2 MSTORE SWAP1 PUSH1 0x1 ADD SWAP1 PUSH1 0x20 ADD DUP1 DUP4 GT PUSH2 0x1675 JUMPI DUP3 SWAP1 SUB PUSH1 0x1F AND DUP3 ADD SWAP2 JUMPDEST POP POP POP POP POP SWAP1 DUP1 PUSH1 0xA ADD DUP1 SLOAD PUSH2 0x16A7 SWAP1 PUSH2 0x2FF5 JUMP JUMPDEST DUP1 PUSH1 0x1F ADD PUSH1 0x20 DUP1 SWAP2 DIV MUL PUSH1 0x20 ADD PUSH1 0x40 MLOAD SWAP1 DUP2 ADD PUSH1 0x40 MSTORE DUP1 SWAP3 SWAP2 SWAP1 DUP2 DUP2 MSTORE PUSH1 0x20 ADD DUP3 DUP1 SLOAD PUSH2 0x16D3 SWAP1 PUSH2 0x2FF5 JUMP JUMPDEST DUP1 ISZERO PUSH2 0x171E JUMPI DUP1 PUSH1 0x1F LT PUSH2 0x16F5 JUMPI PUSH2 0x100 DUP1 DUP4 SLOAD DIV MUL DUP4 MSTORE SWAP2 PUSH1 0x20 ADD SWAP2 PUSH2 0x171E JUMP JUMPDEST DUP3 ADD SWAP2 SWAP1 PUSH0 MSTORE PUSH1 0x20 PUSH0 KECCAK256 SWAP1 JUMPDEST DUP2 SLOAD DUP2 MSTORE SWAP1 PUSH1 0x1 ADD SWAP1 PUSH1 0x20 ADD DUP1 DUP4 GT PUSH2 0x1701 JUMPI DUP3 SWAP1 SUB PUSH1 0x1F AND DUP3 ADD SWAP2 JUMPDEST POP POP POP POP POP SWAP1 POP DUP12 JUMP JUMPDEST PUSH1 0x60 DUP1 PUSH1 0x60 PUSH0 DUP1 SLOAD SWAP1 POP DUP5 LT PUSH2 0x1773 JUMPI PUSH1 0x40 MLOAD PUSH32 0x8C379A000000000000000000000000000000000000000000000000000000000 DUP2 MSTORE PUSH1 0x4 ADD PUSH2 0x176A SWAP1 PUSH2 0x32DB JUMP JUMPDEST PUSH1 0x40 MLOAD DUP1 SWAP2 SUB SWAP1 REVERT JUMPDEST PUSH0 DUP5 DUP2 SLOAD DUP2 LT PUSH2 0x1786 JUMPI PUSH2 0x1785 PUSH2 0x32F9 JUMP JUMPDEST JUMPDEST SWAP1 PUSH0 MSTORE PUSH1 0x20 PUSH0 KECCAK256 SWAP1 PUSH1 0xB MUL ADD PUSH0 ADD PUSH0 DUP6 DUP2 SLOAD DUP2 LT PUSH2 0x17A7 JUMPI PUSH2 0x17A6 PUSH2 0x32F9 JUMP JUMPDEST JUMPDEST SWAP1 PUSH0 MSTORE PUSH1 0x20 PUSH0 KECCAK256 SWAP1 PUSH1 0xB MUL ADD PUSH1 0x1 ADD PUSH0 DUP7 DUP2 SLOAD DUP2 LT PUSH2 0x17C9 JUMPI PUSH2 0x17C8 PUSH2 0x32F9 JUMP JUMPDEST JUMPDEST SWAP1 PUSH0 MSTORE PUSH1 0x20 PUSH0 KECCAK256 SWAP1 PUSH1 0xB MUL ADD PUSH1 0x2 ADD DUP3 DUP1 SLOAD PUSH2 0x17E4 SWAP1 PUSH2 0x2FF5 JUMP JUMPDEST DUP1 PUSH1 0x1F ADD PUSH1 0x20 DUP1 SWAP2 DIV MUL PUSH1 0x20 ADD PUSH1 0x40 MLOAD SWAP1 DUP2 ADD PUSH1 0x40 MSTORE DUP1 SWAP3 SWAP2 SWAP1 DUP2 DUP2 MSTORE PUSH1 0x20 ADD DUP3 DUP1 SLOAD PUSH2 0x1810 SWAP1 PUSH2 0x2FF5 JUMP JUMPDEST DUP1 ISZERO PUSH2 0x185B JUMPI DUP1 PUSH1 0x1F LT PUSH2 0x1832 JUMPI PUSH2 0x100 DUP1 DUP4 SLOAD DIV MUL DUP4 MSTORE SWAP2 PUSH1 0x20 ADD SWAP2 PUSH2 0x185B JUMP JUMPDEST DUP3 ADD SWAP2 SWAP1 PUSH0 MSTORE PUSH1 0x20 PUSH0 KECCAK256 SWAP1 JUMPDEST DUP2 SLOAD DUP2 MSTORE SWAP1 PUSH1 0x1 ADD SWAP1 PUSH1 0x20 ADD DUP1 DUP4 GT PUSH2 0x183E JUMPI DUP3 SWAP1 SUB PUSH1 0x1F AND DUP3 ADD SWAP2 JUMPDEST POP POP POP POP POP SWAP3 POP DUP2 DUP1 SLOAD PUSH2 0x186E SWAP1 PUSH2 0x2FF5 JUMP JUMPDEST DUP1 PUSH1 0x1F ADD PUSH1 0x20 DUP1 SWAP2 DIV MUL PUSH1 0x20 ADD PUSH1 0x40 MLOAD SWAP1 DUP2 ADD PUSH1 0x40 MSTORE DUP1 SWAP3 SWAP2 SWAP1 DUP2 DUP2 MSTORE PUSH1 0x20 ADD DUP3 DUP1 SLOAD PUSH2 0x189A SWAP1 PUSH2 0x2FF5 JUMP JUMPDEST DUP1 ISZERO PUSH2 0x18E5 JUMPI DUP1 PUSH1 0x1F LT PUSH2 0x18BC JUMPI PUSH2 0x100 DUP1 DUP4 SLOAD DIV MUL DUP4 MSTORE SWAP2 PUSH1 0x20 ADD SWAP2 PUSH2 0x18E5 JUMP JUMPDEST DUP3 ADD SWAP2 SWAP1 PUSH0 MSTORE PUSH1 0x20 PUSH0 KECCAK256 SWAP1 JUMPDEST DUP2 SLOAD DUP2 MSTORE SWAP1 PUSH1 0x1 ADD SWAP1 PUSH1 0x20 ADD DUP1 DUP4 GT PUSH2 0x18C8 JUMPI DUP3 SWAP1 SUB PUSH1 0x1F AND DUP3 ADD SWAP2 JUMPDEST POP POP POP POP POP SWAP2 POP DUP1 DUP1 SLOAD PUSH2 0x18F8 SWAP1 PUSH2 0x2FF5 JUMP JUMPDEST DUP1 PUSH1 0x1F ADD PUSH1 0x20 DUP1 SWAP2 DIV MUL PUSH1 0x20 ADD PUSH1 0x40 MLOAD SWAP1 DUP2 ADD PUSH1 0x40 MSTORE DUP1 SWAP3 SWAP2 SWAP1 DUP2 DUP2 MSTORE PUSH1 0x20 ADD DUP3 DUP1 SLOAD PUSH2 0x1924 SWAP1 PUSH2 0x2FF5 JUMP JUMPDEST DUP1 ISZERO PUSH2 0x196F JUMPI DUP1 PUSH1 0x1F LT PUSH2 0x1946 JUMPI PUSH2 0x100 DUP1 DUP4 SLOAD DIV MUL DUP4 MSTORE SWAP2 PUSH1 0x20 ADD SWAP2 PUSH2 0x196F JUMP JUMPDEST DUP3 ADD SWAP2 SWAP1 PUSH0 MSTORE PUSH1 0x20 PUSH0 KECCAK256 SWAP1 JUMPDEST DUP2 SLOAD DUP2 MSTORE SWAP1 PUSH1 0x1 ADD SWAP1 PUSH1 0x20 ADD DUP1 DUP4 GT PUSH2 0x1952 JUMPI DUP3 SWAP1 SUB PUSH1 0x1F AND DUP3 ADD SWAP2 JUMPDEST POP POP POP POP POP SWAP1 POP SWAP3 POP SWAP3 POP SWAP3 POP SWAP2 SWAP4 SWAP1 SWAP3 POP JUMP JUMPDEST PUSH0 PUSH1 0x1 DUP1 SLOAD SWAP1 POP SWAP1 POP SWAP1 JUMP JUMPDEST PUSH1 0x1 DUP2 DUP2 SLOAD DUP2 LT PUSH2 0x199E JUMPI PUSH0 DUP1 REVERT JUMPDEST SWAP1 PUSH0 MSTORE PUSH1 0x20 PUSH0 KECCAK256 SWAP1 PUSH1 0xA MUL ADD PUSH0 SWAP2 POP SWAP1 POP DUP1 PUSH0 ADD DUP1 SLOAD PUSH2 0x19BD SWAP1 PUSH2 0x2FF5 JUMP JUMPDEST DUP1 PUSH1 0x1F ADD PUSH1 0x20 DUP1 SWAP2 DIV MUL PUSH1 0x20 ADD PUSH1 0x40 MLOAD SWAP1 DUP2 ADD PUSH1 0x40 MSTORE DUP1 SWAP3 SWAP2 SWAP1 DUP2 DUP2 MSTORE PUSH1 0x20 ADD DUP3 DUP1 SLOAD PUSH2 0x19E9 SWAP1 PUSH2 0x2FF5 JUMP JUMPDEST DUP1 ISZERO PUSH2 0x1A34 JUMPI DUP1 PUSH1 0x1F LT PUSH2 0x1A0B JUMPI PUSH2 0x100 DUP1 DUP4 SLOAD DIV MUL DUP4 MSTORE SWAP2 PUSH1 0x20 ADD SWAP2 PUSH2 0x1A34 JUMP JUMPDEST DUP3 ADD SWAP2 SWAP1 PUSH0 MSTORE PUSH1 0x20 PUSH0 KECCAK256 SWAP1 JUMPDEST DUP2 SLOAD DUP2 MSTORE SWAP1 PUSH1 0x1 ADD SWAP1 PUSH1 0x20 ADD DUP1 DUP4 GT PUSH2 0x1A17 JUMPI DUP3 SWAP1 SUB PUSH1 0x1F AND DUP3 ADD SWAP2 JUMPDEST POP POP POP POP POP SWAP1 DUP1 PUSH1 0x1 ADD DUP1 SLOAD PUSH2 0x1A49 SWAP1 PUSH2 0x2FF5 JUMP JUMPDEST DUP1 PUSH1 0x1F ADD PUSH1 0x20 DUP1 SWAP2 DIV MUL PUSH1 0x20 ADD PUSH1 0x40 MLOAD SWAP1 DUP2 ADD PUSH1 0x40 MSTORE DUP1 SWAP3 SWAP2 SWAP1 DUP2 DUP2 MSTORE PUSH1 0x20 ADD DUP3 DUP1 SLOAD PUSH2 0x1A75 SWAP1 PUSH2 0x2FF5 JUMP JUMPDEST DUP1 ISZERO PUSH2 0x1AC0 JUMPI DUP1 PUSH1 0x1F LT PUSH2 0x1A97 JUMPI PUSH2 0x100 DUP1 DUP4 SLOAD DIV MUL DUP4 MSTORE SWAP2 PUSH1 0x20 ADD SWAP2 PUSH2 0x1AC0 JUMP JUMPDEST DUP3 ADD SWAP2 SWAP1 PUSH0 MSTORE PUSH1 0x20 PUSH0 KECCAK256 SWAP1 JUMPDEST DUP2 SLOAD DUP2 MSTORE SWAP1 PUSH1 0x1 ADD SWAP1 PUSH1 0x20 ADD DUP1 DUP4 GT PUSH2 0x1AA3 JUMPI DUP3 SWAP1 SUB PUSH1 0x1F AND DUP3 ADD SWAP2 JUMPDEST POP POP POP POP POP SWAP1 DUP1 PUSH1 0x2 ADD DUP1 SLOAD PUSH2 0x1AD5 SWAP1 PUSH2 0x2FF5 JUMP JUMPDEST DUP1 PUSH1 0x1F ADD PUSH1 0x20 DUP1 SWAP2 DIV MUL PUSH1 0x20 ADD PUSH1 0x40 MLOAD SWAP1 DUP2 ADD PUSH1 0x40 MSTORE DUP1 SWAP3 SWAP2 SWAP1 DUP2 DUP2 MSTORE PUSH1 0x20 ADD DUP3 DUP1 SLOAD PUSH2 0x1B01 SWAP1 PUSH2 0x2FF5 JUMP JUMPDEST DUP1 ISZERO PUSH2 0x1B4C JUMPI DUP1 PUSH1 0x1F LT PUSH2 0x1B23 JUMPI PUSH2 0x100 DUP1 DUP4 SLOAD DIV MUL DUP4 MSTORE SWAP2 PUSH1 0x20 ADD SWAP2 PUSH2 0x1B4C JUMP JUMPDEST DUP3 ADD SWAP2 SWAP1 PUSH0 MSTORE PUSH1 0x20 PUSH0 KECCAK256 SWAP1 JUMPDEST DUP2 SLOAD DUP2 MSTORE SWAP1 PUSH1 0x1 ADD SWAP1 PUSH1 0x20 ADD DUP1 DUP4 GT PUSH2 0x1B2F JUMPI DUP3 SWAP1 SUB PUSH1 0x1F AND DUP3 ADD SWAP2 JUMPDEST POP POP POP POP POP SWAP1 DUP1 PUSH1 0x3 ADD DUP1 SLOAD PUSH2 0x1B61 SWAP1 PUSH2 0x2FF5 JUMP JUMPDEST DUP1 PUSH1 0x1F ADD PUSH1 0x20 DUP1 SWAP2 DIV MUL PUSH1 0x20 ADD PUSH1 0x40 MLOAD SWAP1 DUP2 ADD PUSH1 0x40 MSTORE DUP1 SWAP3 SWAP2 SWAP1 DUP2 DUP2 MSTORE PUSH1 0x20 ADD DUP3 DUP1 SLOAD PUSH2 0x1B8D SWAP1 PUSH2 0x2FF5 JUMP JUMPDEST DUP1 ISZERO PUSH2 0x1BD8 JUMPI DUP1 PUSH1 0x1F LT PUSH2 0x1BAF JUMPI PUSH2 0x100 DUP1 DUP4 SLOAD DIV MUL DUP4 MSTORE SWAP2 PUSH1 0x20 ADD SWAP2 PUSH2 0x1BD8 JUMP JUMPDEST DUP3 ADD SWAP2 SWAP1 PUSH0 MSTORE PUSH1 0x20 PUSH0 KECCAK256 SWAP1 JUMPDEST DUP2 SLOAD DUP2 MSTORE SWAP1 PUSH1 0x1 ADD SWAP1 PUSH1 0x20 ADD DUP1 DUP4 GT PUSH2 0x1BBB JUMPI DUP3 SWAP1 SUB PUSH1 0x1F AND DUP3 ADD SWAP2 JUMPDEST POP POP POP POP POP SWAP1 DUP1 PUSH1 0x4 ADD DUP1 SLOAD PUSH2 0x1BED SWAP1 PUSH2 0x2FF5 JUMP JUMPDEST DUP1 PUSH1 0x1F ADD PUSH1 0x20 DUP1 SWAP2 DIV MUL PUSH1 0x20 ADD PUSH1 0x40 MLOAD SWAP1 DUP2 ADD PUSH1 0x40 MSTORE DUP1 SWAP3 SWAP2 SWAP1 DUP2 DUP2 MSTORE PUSH1 0x20 ADD DUP3 DUP1 SLOAD PUSH2 0x1C19 SWAP1 PUSH2 0x2FF5 JUMP JUMPDEST DUP1 ISZERO PUSH2 0x1C64 JUMPI DUP1 PUSH1 0x1F LT PUSH2 0x1C3B JUMPI PUSH2 0x100 DUP1 DUP4 SLOAD DIV MUL DUP4 MSTORE SWAP2 PUSH1 0x20 ADD SWAP2 PUSH2 0x1C64 JUMP JUMPDEST DUP3 ADD SWAP2 SWAP1 PUSH0 MSTORE PUSH1 0x20 PUSH0 KECCAK256 SWAP1 JUMPDEST DUP2 SLOAD DUP2 MSTORE SWAP1 PUSH1 0x1 ADD SWAP1 PUSH1 0x20 ADD DUP1 DUP4 GT PUSH2 0x1C47 JUMPI DUP3 SWAP1 SUB PUSH1 0x1F AND DUP3 ADD SWAP2 JUMPDEST POP POP POP POP POP SWAP1 DUP1 PUSH1 0x5 ADD DUP1 SLOAD PUSH2 0x1C79 SWAP1 PUSH2 0x2FF5 JUMP JUMPDEST DUP1 PUSH1 0x1F ADD PUSH1 0x20 DUP1 SWAP2 DIV MUL PUSH1 0x20 ADD PUSH1 0x40 MLOAD SWAP1 DUP2 ADD PUSH1 0x40 MSTORE DUP1 SWAP3 SWAP2 SWAP1 DUP2 DUP2 MSTORE PUSH1 0x20 ADD DUP3 DUP1 SLOAD PUSH2 0x1CA5 SWAP1 PUSH2 0x2FF5 JUMP JUMPDEST DUP1 ISZERO PUSH2 0x1CF0 JUMPI DUP1 PUSH1 0x1F LT PUSH2 0x1CC7 JUMPI PUSH2 0x100 DUP1 DUP4 SLOAD DIV MUL DUP4 MSTORE SWAP2 PUSH1 0x20 ADD SWAP2 PUSH2 0x1CF0 JUMP JUMPDEST DUP3 ADD SWAP2 SWAP1 PUSH0 MSTORE PUSH1 0x20 PUSH0 KECCAK256 SWAP1 JUMPDEST DUP2 SLOAD DUP2 MSTORE SWAP1 PUSH1 0x1 ADD SWAP1 PUSH1 0x20 ADD DUP1 DUP4 GT PUSH2 0x1CD3 JUMPI DUP3 SWAP1 SUB PUSH1 0x1F AND DUP3 ADD SWAP2 JUMPDEST POP POP POP POP POP SWAP1 DUP1 PUSH1 0x6 ADD DUP1 SLOAD PUSH2 0x1D05 SWAP1 PUSH2 0x2FF5 JUMP JUMPDEST DUP1 PUSH1 0x1F ADD PUSH1 0x20 DUP1 SWAP2 DIV MUL PUSH1 0x20 ADD PUSH1 0x40 MLOAD SWAP1 DUP2 ADD PUSH1 0x40 MSTORE DUP1 SWAP3 SWAP2 SWAP1 DUP2 DUP2 MSTORE PUSH1 0x20 ADD DUP3 DUP1 SLOAD PUSH2 0x1D31 SWAP1 PUSH2 0x2FF5 JUMP JUMPDEST DUP1 ISZERO PUSH2 0x1D7C JUMPI DUP1 PUSH1 0x1F LT PUSH2 0x1D53 JUMPI PUSH2 0x100 DUP1 DUP4 SLOAD DIV MUL DUP4 MSTORE SWAP2 PUSH1 0x20 ADD SWAP2 PUSH2 0x1D7C JUMP JUMPDEST DUP3 ADD SWAP2 SWAP1 PUSH0 MSTORE PUSH1 0x20 PUSH0 KECCAK256 SWAP1 JUMPDEST DUP2 SLOAD DUP2 MSTORE SWAP1 PUSH1 0x1 ADD SWAP1 PUSH1 0x20 ADD DUP1 DUP4 GT PUSH2 0x1D5F JUMPI DUP3 SWAP1 SUB PUSH1 0x1F AND DUP3 ADD SWAP2 JUMPDEST POP POP POP POP POP SWAP1 DUP1 PUSH1 0x7 ADD DUP1 SLOAD PUSH2 0x1D91 SWAP1 PUSH2 0x2FF5 JUMP JUMPDEST DUP1 PUSH1 0x1F ADD PUSH1 0x20 DUP1 SWAP2 DIV MUL PUSH1 0x20 ADD PUSH1 0x40 MLOAD SWAP1 DUP2 ADD PUSH1 0x40 MSTORE DUP1 SWAP3 SWAP2 SWAP1 DUP2 DUP2 MSTORE PUSH1 0x20 ADD DUP3 DUP1 SLOAD PUSH2 0x1DBD SWAP1 PUSH2 0x2FF5 JUMP JUMPDEST DUP1 ISZERO PUSH2 0x1E08 JUMPI DUP1 PUSH1 0x1F LT PUSH2 0x1DDF JUMPI PUSH2 0x100 DUP1 DUP4 SLOAD DIV MUL DUP4 MSTORE SWAP2 PUSH1 0x20 ADD SWAP2 PUSH2 0x1E08 JUMP JUMPDEST DUP3 ADD SWAP2 SWAP1 PUSH0 MSTORE PUSH1 0x20 PUSH0 KECCAK256 SWAP1 JUMPDEST DUP2 SLOAD DUP2 MSTORE SWAP1 PUSH1 0x1 ADD SWAP1 PUSH1 0x20 ADD DUP1 DUP4 GT PUSH2 0x1DEB JUMPI DUP3 SWAP1 SUB PUSH1 0x1F AND DUP3 ADD SWAP2 JUMPDEST POP POP POP POP POP SWAP1 DUP1 PUSH1 0x8 ADD DUP1 SLOAD PUSH2 0x1E1D SWAP1 PUSH2 0x2FF5 JUMP JUMPDEST DUP1 PUSH1 0x1F ADD PUSH1 0x20 DUP1 SWAP2 DIV MUL PUSH1 0x20 ADD PUSH1 0x40 MLOAD SWAP1 DUP2 ADD PUSH1 0x40 MSTORE DUP1 SWAP3 SWAP2 SWAP1 DUP2 DUP2 MSTORE PUSH1 0x20 ADD DUP3 DUP1 SLOAD PUSH2 0x1E49 SWAP1 PUSH2 0x2FF5 JUMP JUMPDEST DUP1 ISZERO PUSH2 0x1E94 JUMPI DUP1 PUSH1 0x1F LT PUSH2 0x1E6B JUMPI PUSH2 0x100 DUP1 DUP4 SLOAD DIV MUL DUP4 MSTORE SWAP2 PUSH1 0x20 ADD SWAP2 PUSH2 0x1E94 JUMP JUMPDEST DUP3 ADD SWAP2 SWAP1 PUSH0 MSTORE PUSH1 0x20 PUSH0 KECCAK256 SWAP1 JUMPDEST DUP2 SLOAD DUP2 MSTORE SWAP1 PUSH1 0x1 ADD SWAP1 PUSH1 0x20 ADD DUP1 DUP4 GT PUSH2 0x1E77 JUMPI DUP3 SWAP1 SUB PUSH1 0x1F AND DUP3 ADD SWAP2 JUMPDEST POP POP POP POP POP SWAP1 DUP1 PUSH1 0x9 ADD DUP1 SLOAD PUSH2 0x1EA9 SWAP1 PUSH2 0x2FF5 JUMP JUMPDEST DUP1 PUSH1 0x1F ADD PUSH1 0x20 DUP1 SWAP2 DIV MUL PUSH1 0x20 ADD PUSH1 0x40 MLOAD SWAP1 DUP2 ADD PUSH1 0x40 MSTORE DUP1 SWAP3 SWAP2 SWAP1 DUP2 DUP2 MSTORE PUSH1 0x20 ADD DUP3 DUP1 SLOAD PUSH2 0x1ED5 SWAP1 PUSH2 0x2FF5 JUMP JUMPDEST DUP1 ISZERO PUSH2 0x1F20 JUMPI DUP1 PUSH1 0x1F LT PUSH2 0x1EF7 JUMPI PUSH2 0x100 DUP1 DUP4 SLOAD DIV MUL DUP4 MSTORE SWAP2 PUSH1 0x20 ADD SWAP2 PUSH2 0x1F20 JUMP JUMPDEST DUP3 ADD SWAP2 SWAP1 PUSH0 MSTORE PUSH1 0x20 PUSH0 KECCAK256 SWAP1 JUMPDEST DUP2 SLOAD DUP2 MSTORE SWAP1 PUSH1 0x1 ADD SWAP1 PUSH1 0x20 ADD DUP1 DUP4 GT PUSH2 0x1F03 JUMPI DUP3 SWAP1 SUB PUSH1 0x1F AND DUP3 ADD SWAP2 JUMPDEST POP POP POP POP POP SWAP1 POP DUP11 JUMP JUMPDEST PUSH0 DUP1 SLOAD SWAP1 POP DUP3 LT PUSH2 0x1F70 JUMPI PUSH1 0x40 MLOAD PUSH32 0x8C379A000000000000000000000000000000000000000000000000000000000 DUP2 MSTORE PUSH1 0x4 ADD PUSH2 0x1F67 SWAP1 PUSH2 0x32DB JUMP JUMPDEST PUSH1 0x40 MLOAD DUP1 SWAP2 SUB SWAP1 REVERT JUMPDEST DUP1 PUSH0 DUP4 DUP2 SLOAD DUP2 LT PUSH2 0x1F84 JUMPI PUSH2 0x1F83 PUSH2 0x32F9 JUMP JUMPDEST JUMPDEST SWAP1 PUSH0 MSTORE PUSH1 0x20 PUSH0 KECCAK256 SWAP1 PUSH1 0xB MUL ADD PUSH1 0xA ADD SWAP1 DUP2 PUSH2 0x1F9F SWAP2 SWAP1 PUSH2 0x31C2 JUMP JUMPDEST POP POP POP JUMP JUMPDEST PUSH1 0x60 DUP1 PUSH1 0x60 PUSH1 0x1 DUP1 SLOAD SWAP1 POP DUP5 LT PUSH2 0x1FF0 JUMPI PUSH1 0x40 MLOAD PUSH32 0x8C379A000000000000000000000000000000000000000000000000000000000 DUP2 MSTORE PUSH1 0x4 ADD PUSH2 0x1FE7 SWAP1 PUSH2 0x32DB JUMP JUMPDEST PUSH1 0x40 MLOAD DUP1 SWAP2 SUB SWAP1 REVERT JUMPDEST PUSH1 0x1 DUP5 DUP2 SLOAD DUP2 LT PUSH2 0x2004 JUMPI PUSH2 0x2003 PUSH2 0x32F9 JUMP JUMPDEST JUMPDEST SWAP1 PUSH0 MSTORE PUSH1 0x20 PUSH0 KECCAK256 SWAP1 PUSH1 0xA MUL ADD PUSH1 0x1 ADD PUSH1 0x1 DUP6 DUP2 SLOAD DUP2 LT PUSH2 0x2027 JUMPI PUSH2 0x2026 PUSH2 0x32F9 JUMP JUMPDEST JUMPDEST SWAP1 PUSH0 MSTORE PUSH1 0x20 PUSH0 KECCAK256 SWAP1 PUSH1 0xA MUL ADD PUSH1 0x2 ADD PUSH1 0x1 DUP7 DUP2 SLOAD DUP2 LT PUSH2 0x204A JUMPI PUSH2 0x2049 PUSH2 0x32F9 JUMP JUMPDEST JUMPDEST SWAP1 PUSH0 MSTORE PUSH1 0x20 PUSH0 KECCAK256 SWAP1 PUSH1 0xA MUL ADD PUSH1 0x3 ADD DUP3 DUP1 SLOAD PUSH2 0x2065 SWAP1 PUSH2 0x2FF5 JUMP JUMPDEST DUP1 PUSH1 0x1F ADD PUSH1 0x20 DUP1 SWAP2 DIV MUL PUSH1 0x20 ADD PUSH1 0x40 MLOAD SWAP1 DUP2 ADD PUSH1 0x40 MSTORE DUP1 SWAP3 SWAP2 SWAP1 DUP2 DUP2 MSTORE PUSH1 0x20 ADD DUP3 DUP1 SLOAD PUSH2 0x2091 SWAP1 PUSH2 0x2FF5 JUMP JUMPDEST DUP1 ISZERO PUSH2 0x20DC JUMPI DUP1 PUSH1 0x1F LT PUSH2 0x20B3 JUMPI PUSH2 0x100 DUP1 DUP4 SLOAD DIV MUL DUP4 MSTORE SWAP2 PUSH1 0x20 ADD SWAP2 PUSH2 0x20DC JUMP JUMPDEST DUP3 ADD SWAP2 SWAP1 PUSH0 MSTORE PUSH1 0x20 PUSH0 KECCAK256 SWAP1 JUMPDEST DUP2 SLOAD DUP2 MSTORE SWAP1 PUSH1 0x1 ADD SWAP1 PUSH1 0x20 ADD DUP1 DUP4 GT PUSH2 0x20BF JUMPI DUP3 SWAP1 SUB PUSH1 0x1F AND DUP3 ADD SWAP2 JUMPDEST POP POP POP POP POP SWAP3 POP DUP2 DUP1 SLOAD PUSH2 0x20EF SWAP1 PUSH2 0x2FF5 JUMP JUMPDEST DUP1 PUSH1 0x1F ADD PUSH1 0x20 DUP1 SWAP2 DIV MUL PUSH1 0x20 ADD PUSH1 0x40 MLOAD SWAP1 DUP2 ADD PUSH1 0x40 MSTORE DUP1 SWAP3 SWAP2 SWAP1 DUP2 DUP2 MSTORE PUSH1 0x20 ADD DUP3 DUP1 SLOAD PUSH2 0x211B SWAP1 PUSH2 0x2FF5 JUMP JUMPDEST DUP1 ISZERO PUSH2 0x2166 JUMPI DUP1 PUSH1 0x1F LT PUSH2 0x213D JUMPI PUSH2 0x100 DUP1 DUP4 SLOAD DIV MUL DUP4 MSTORE SWAP2 PUSH1 0x20 ADD SWAP2 PUSH2 0x2166 JUMP JUMPDEST DUP3 ADD SWAP2 SWAP1 PUSH0 MSTORE PUSH1 0x20 PUSH0 KECCAK256 SWAP1 JUMPDEST DUP2 SLOAD DUP2 MSTORE SWAP1 PUSH1 0x1 ADD SWAP1 PUSH1 0x20 ADD DUP1 DUP4 GT PUSH2 0x2149 JUMPI DUP3 SWAP1 SUB PUSH1 0x1F AND DUP3 ADD SWAP2 JUMPDEST POP POP POP POP POP SWAP2 POP DUP1 DUP1 SLOAD PUSH2 0x2179 SWAP1 PUSH2 0x2FF5 JUMP JUMPDEST DUP1 PUSH1 0x1F ADD PUSH1 0x20 DUP1 SWAP2 DIV MUL PUSH1 0x20 ADD PUSH1 0x40 MLOAD SWAP1 DUP2 ADD PUSH1 0x40 MSTORE DUP1 SWAP3 SWAP2 SWAP1 DUP2 DUP2 MSTORE PUSH1 0x20 ADD DUP3 DUP1 SLOAD PUSH2 0x21A5 SWAP1 PUSH2 0x2FF5 JUMP JUMPDEST DUP1 ISZERO PUSH2 0x21F0 JUMPI DUP1 PUSH1 0x1F LT PUSH2 0x21C7 JUMPI PUSH2 0x100 DUP1 DUP4 SLOAD DIV MUL DUP4 MSTORE SWAP2 PUSH1 0x20 ADD SWAP2 PUSH2 0x21F0 JUMP JUMPDEST DUP3 ADD SWAP2 SWAP1 PUSH0 MSTORE PUSH1 0x20 PUSH0 KECCAK256 SWAP1 JUMPDEST DUP2 SLOAD DUP2 MSTORE SWAP1 PUSH1 0x1 ADD SWAP1 PUSH1 0x20 ADD DUP1 DUP4 GT PUSH2 0x21D3 JUMPI DUP3 SWAP1 SUB PUSH1 0x1F AND DUP3 ADD SWAP2 JUMPDEST POP POP POP POP POP SWAP1 POP SWAP3 POP SWAP3 POP SWAP3 POP SWAP2 SWAP4 SWAP1 SWAP3 POP JUMP JUMPDEST PUSH1 0x1 DUP1 SLOAD SWAP1 POP DUP12 LT PUSH2 0x224B JUMPI PUSH1 0x40 MLOAD PUSH32 0x8C379A000000000000000000000000000000000000000000000000000000000 DUP2 MSTORE PUSH1 0x4 ADD PUSH2 0x2242 SWAP1 PUSH2 0x32DB JUMP JUMPDEST PUSH1 0x40 MLOAD DUP1 SWAP2 SUB SWAP1 REVERT JUMPDEST PUSH1 0x40 MLOAD DUP1 PUSH2 0x140 ADD PUSH1 0x40 MSTORE DUP1 DUP12 DUP2 MSTORE PUSH1 0x20 ADD DUP11 DUP2 MSTORE PUSH1 0x20 ADD DUP10 DUP2 MSTORE PUSH1 0x20 ADD DUP9 DUP2 MSTORE PUSH1 0x20 ADD DUP8 DUP2 MSTORE PUSH1 0x20 ADD DUP7 DUP2 MSTORE PUSH1 0x20 ADD DUP6 DUP2 MSTORE PUSH1 0x20 ADD DUP5 DUP2 MSTORE PUSH1 0x20 ADD DUP4 DUP2 MSTORE PUSH1 0x20 ADD DUP3 DUP2 MSTORE POP PUSH1 0x1 DUP13 DUP2 SLOAD DUP2 LT PUSH2 0x22A5 JUMPI PUSH2 0x22A4 PUSH2 0x32F9 JUMP JUMPDEST JUMPDEST SWAP1 PUSH0 MSTORE PUSH1 0x20 PUSH0 KECCAK256 SWAP1 PUSH1 0xA MUL ADD PUSH0 DUP3 ADD MLOAD DUP2 PUSH0 ADD SWAP1 DUP2 PUSH2 0x22C4 SWAP2 SWAP1 PUSH2 0x31C2 JUMP JUMPDEST POP PUSH1 0x20 DUP3 ADD MLOAD DUP2 PUSH1 0x1 ADD SWAP1 DUP2 PUSH2 0x22DA SWAP2 SWAP1 PUSH2 0x31C2 JUMP JUMPDEST POP PUSH1 0x40 DUP3 ADD MLOAD DUP2 PUSH1 0x2 ADD SWAP1 DUP2 PUSH2 0x22F0 SWAP2 SWAP1 PUSH2 0x31C2 JUMP JUMPDEST POP PUSH1 0x60 DUP3 ADD MLOAD DUP2 PUSH1 0x3 ADD SWAP1 DUP2 PUSH2 0x2306 SWAP2 SWAP1 PUSH2 0x31C2 JUMP JUMPDEST POP PUSH1 0x80 DUP3 ADD MLOAD DUP2 PUSH1 0x4 ADD SWAP1 DUP2 PUSH2 0x231C SWAP2 SWAP1 PUSH2 0x31C2 JUMP JUMPDEST POP PUSH1 0xA0 DUP3 ADD MLOAD DUP2 PUSH1 0x5 ADD SWAP1 DUP2 PUSH2 0x2332 SWAP2 SWAP1 PUSH2 0x31C2 JUMP JUMPDEST POP PUSH1 0xC0 DUP3 ADD MLOAD DUP2 PUSH1 0x6 ADD SWAP1 DUP2 PUSH2 0x2348 SWAP2 SWAP1 PUSH2 0x31C2 JUMP JUMPDEST POP PUSH1 0xE0 DUP3 ADD MLOAD DUP2 PUSH1 0x7 ADD SWAP1 DUP2 PUSH2 0x235E SWAP2 SWAP1 PUSH2 0x31C2 JUMP JUMPDEST POP PUSH2 0x100 DUP3 ADD MLOAD DUP2 PUSH1 0x8 ADD SWAP1 DUP2 PUSH2 0x2375 SWAP2 SWAP1 PUSH2 0x31C2 JUMP JUMPDEST POP PUSH2 0x120 DUP3 ADD MLOAD DUP2 PUSH1 0x9 ADD SWAP1 DUP2 PUSH2 0x238C SWAP2 SWAP1 PUSH2 0x31C2 JUMP JUMPDEST POP SWAP1 POP POP POP POP POP POP POP POP POP POP POP POP POP JUMP JUMPDEST PUSH0 DUP1 DUP1 SLOAD SWAP1 POP SWAP1 POP SWAP1 JUMP JUMPDEST PUSH0 PUSH1 0x40 MLOAD SWAP1 POP SWAP1 JUMP JUMPDEST PUSH0 DUP1 REVERT JUMPDEST PUSH0 DUP1 REVERT JUMPDEST PUSH0 DUP1 REVERT JUMPDEST PUSH0 DUP1 REVERT JUMPDEST PUSH0 PUSH1 0x1F NOT PUSH1 0x1F DUP4 ADD AND SWAP1 POP SWAP2 SWAP1 POP JUMP JUMPDEST PUSH32 0x4E487B7100000000000000000000000000000000000000000000000000000000 PUSH0 MSTORE PUSH1 0x41 PUSH1 0x4 MSTORE PUSH1 0x24 PUSH0 REVERT JUMPDEST PUSH2 0x2407 DUP3 PUSH2 0x23C1 JUMP JUMPDEST DUP2 ADD DUP2 DUP2 LT PUSH8 0xFFFFFFFFFFFFFFFF DUP3 GT OR ISZERO PUSH2 0x2426 JUMPI PUSH2 0x2425 PUSH2 0x23D1 JUMP JUMPDEST JUMPDEST DUP1 PUSH1 0x40 MSTORE POP POP POP JUMP JUMPDEST PUSH0 PUSH2 0x2438 PUSH2 0x23A8 JUMP JUMPDEST SWAP1 POP PUSH2 0x2444 DUP3 DUP3 PUSH2 0x23FE JUMP JUMPDEST SWAP2 SWAP1 POP JUMP JUMPDEST PUSH0 PUSH8 0xFFFFFFFFFFFFFFFF DUP3 GT ISZERO PUSH2 0x2463 JUMPI PUSH2 0x2462 PUSH2 0x23D1 JUMP JUMPDEST JUMPDEST PUSH2 0x246C DUP3 PUSH2 0x23C1 JUMP JUMPDEST SWAP1 POP PUSH1 0x20 DUP2 ADD SWAP1 POP SWAP2 SWAP1 POP JUMP JUMPDEST DUP3 DUP2 DUP4 CALLDATACOPY PUSH0 DUP4 DUP4 ADD MSTORE POP POP POP JUMP JUMPDEST PUSH0 PUSH2 0x2499 PUSH2 0x2494 DUP5 PUSH2 0x2449 JUMP JUMPDEST PUSH2 0x242F JUMP JUMPDEST SWAP1 POP DUP3 DUP2 MSTORE PUSH1 0x20 DUP2 ADD DUP5 DUP5 DUP5 ADD GT ISZERO PUSH2 0x24B5 JUMPI PUSH2 0x24B4 PUSH2 0x23BD JUMP JUMPDEST JUMPDEST PUSH2 0x24C0 DUP5 DUP3 DUP6 PUSH2 0x2479 JUMP JUMPDEST POP SWAP4 SWAP3 POP POP POP JUMP JUMPDEST PUSH0 DUP3 PUSH1 0x1F DUP4 ADD SLT PUSH2 0x24DC JUMPI PUSH2 0x24DB PUSH2 0x23B9 JUMP JUMPDEST JUMPDEST DUP2 CALLDATALOAD PUSH2 0x24EC DUP5 DUP3 PUSH1 0x20 DUP7 ADD PUSH2 0x2487 JUMP JUMPDEST SWAP2 POP POP SWAP3 SWAP2 POP POP JUMP JUMPDEST PUSH0 DUP1 PUSH0 DUP1 PUSH0 DUP1 PUSH0 DUP1 PUSH0 DUP1 PUSH2 0x140 DUP12 DUP14 SUB SLT ISZERO PUSH2 0x2514 JUMPI PUSH2 0x2513 PUSH2 0x23B1 JUMP JUMPDEST JUMPDEST PUSH0 DUP12 ADD CALLDATALOAD PUSH8 0xFFFFFFFFFFFFFFFF DUP2 GT ISZERO PUSH2 0x2531 JUMPI PUSH2 0x2530 PUSH2 0x23B5 JUMP JUMPDEST JUMPDEST PUSH2 0x253D DUP14 DUP3 DUP15 ADD PUSH2 0x24C8 JUMP JUMPDEST SWAP11 POP POP PUSH1 0x20 DUP12 ADD CALLDATALOAD PUSH8 0xFFFFFFFFFFFFFFFF DUP2 GT ISZERO PUSH2 0x255E JUMPI PUSH2 0x255D PUSH2 0x23B5 JUMP JUMPDEST JUMPDEST PUSH2 0x256A DUP14 DUP3 DUP15 ADD PUSH2 0x24C8 JUMP JUMPDEST SWAP10 POP POP PUSH1 0x40 DUP12 ADD CALLDATALOAD PUSH8 0xFFFFFFFFFFFFFFFF DUP2 GT ISZERO PUSH2 0x258B JUMPI PUSH2 0x258A PUSH2 0x23B5 JUMP JUMPDEST JUMPDEST PUSH2 0x2597 DUP14 DUP3 DUP15 ADD PUSH2 0x24C8 JUMP JUMPDEST SWAP9 POP POP PUSH1 0x60 DUP12 ADD CALLDATALOAD PUSH8 0xFFFFFFFFFFFFFFFF DUP2 GT ISZERO PUSH2 0x25B8 JUMPI PUSH2 0x25B7 PUSH2 0x23B5 JUMP JUMPDEST JUMPDEST PUSH2 0x25C4 DUP14 DUP3 DUP15 ADD PUSH2 0x24C8 JUMP JUMPDEST SWAP8 POP POP PUSH1 0x80 DUP12 ADD CALLDATALOAD PUSH8 0xFFFFFFFFFFFFFFFF DUP2 GT ISZERO PUSH2 0x25E5 JUMPI PUSH2 0x25E4 PUSH2 0x23B5 JUMP JUMPDEST JUMPDEST PUSH2 0x25F1 DUP14 DUP3 DUP15 ADD PUSH2 0x24C8 JUMP JUMPDEST SWAP7 POP POP PUSH1 0xA0 DUP12 ADD CALLDATALOAD PUSH8 0xFFFFFFFFFFFFFFFF DUP2 GT ISZERO PUSH2 0x2612 JUMPI PUSH2 0x2611 PUSH2 0x23B5 JUMP JUMPDEST JUMPDEST PUSH2 0x261E DUP14 DUP3 DUP15 ADD PUSH2 0x24C8 JUMP JUMPDEST SWAP6 POP POP PUSH1 0xC0 DUP12 ADD CALLDATALOAD PUSH8 0xFFFFFFFFFFFFFFFF DUP2 GT ISZERO PUSH2 0x263F JUMPI PUSH2 0x263E PUSH2 0x23B5 JUMP JUMPDEST JUMPDEST PUSH2 0x264B DUP14 DUP3 DUP15 ADD PUSH2 0x24C8 JUMP JUMPDEST SWAP5 POP POP PUSH1 0xE0 DUP12 ADD CALLDATALOAD PUSH8 0xFFFFFFFFFFFFFFFF DUP2 GT ISZERO PUSH2 0x266C JUMPI PUSH2 0x266B PUSH2 0x23B5 JUMP JUMPDEST JUMPDEST PUSH2 0x2678 DUP14 DUP3 DUP15 ADD PUSH2 0x24C8 JUMP JUMPDEST SWAP4 POP POP PUSH2 0x100 DUP12 ADD CALLDATALOAD PUSH8 0xFFFFFFFFFFFFFFFF DUP2 GT ISZERO PUSH2 0x269A JUMPI PUSH2 0x2699 PUSH2 0x23B5 JUMP JUMPDEST JUMPDEST PUSH2 0x26A6 DUP14 DUP3 DUP15 ADD PUSH2 0x24C8 JUMP JUMPDEST SWAP3 POP POP PUSH2 0x120 DUP12 ADD CALLDATALOAD PUSH8 0xFFFFFFFFFFFFFFFF DUP2 GT ISZERO PUSH2 0x26C8 JUMPI PUSH2 0x26C7 PUSH2 0x23B5 JUMP JUMPDEST JUMPDEST PUSH2 0x26D4 DUP14 DUP3 DUP15 ADD PUSH2 0x24C8 JUMP JUMPDEST SWAP2 POP POP SWAP3 SWAP6 SWAP9 SWAP12 SWAP2 SWAP5 SWAP8 SWAP11 POP SWAP3 SWAP6 SWAP9 POP JUMP JUMPDEST PUSH0 DUP2 SWAP1 POP SWAP2 SWAP1 POP JUMP JUMPDEST PUSH2 0x26F8 DUP2 PUSH2 0x26E6 JUMP JUMPDEST DUP2 EQ PUSH2 0x2702 JUMPI PUSH0 DUP1 REVERT JUMPDEST POP JUMP JUMPDEST PUSH0 DUP2 CALLDATALOAD SWAP1 POP PUSH2 0x2713 DUP2 PUSH2 0x26EF JUMP JUMPDEST SWAP3 SWAP2 POP POP JUMP JUMPDEST PUSH0 PUSH1 0x20 DUP3 DUP5 SUB SLT ISZERO PUSH2 0x272E JUMPI PUSH2 0x272D PUSH2 0x23B1 JUMP JUMPDEST JUMPDEST PUSH0 PUSH2 0x273B DUP5 DUP3 DUP6 ADD PUSH2 0x2705 JUMP JUMPDEST SWAP2 POP POP SWAP3 SWAP2 POP POP JUMP JUMPDEST PUSH0 DUP2 MLOAD SWAP1 POP SWAP2 SWAP1 POP JUMP JUMPDEST PUSH0 DUP3 DUP3 MSTORE PUSH1 0x20 DUP3 ADD SWAP1 POP SWAP3 SWAP2 POP POP JUMP JUMPDEST DUP3 DUP2 DUP4 MCOPY PUSH0 DUP4 DUP4 ADD MSTORE POP POP POP JUMP JUMPDEST PUSH0 PUSH2 0x2776 DUP3 PUSH2 0x2744 JUMP JUMPDEST PUSH2 0x2780 DUP2 DUP6 PUSH2 0x274E JUMP JUMPDEST SWAP4 POP PUSH2 0x2790 DUP2 DUP6 PUSH1 0x20 DUP7 ADD PUSH2 0x275E JUMP JUMPDEST PUSH2 0x2799 DUP2 PUSH2 0x23C1 JUMP JUMPDEST DUP5 ADD SWAP2 POP POP SWAP3 SWAP2 POP POP JUMP JUMPDEST PUSH0 PUSH1 0xC0 DUP3 ADD SWAP1 POP DUP2 DUP2 SUB PUSH0 DUP4 ADD MSTORE PUSH2 0x27BC DUP2 DUP10 PUSH2 0x276C JUMP JUMPDEST SWAP1 POP DUP2 DUP2 SUB PUSH1 0x20 DUP4 ADD MSTORE PUSH2 0x27D0 DUP2 DUP9 PUSH2 0x276C JUMP JUMPDEST SWAP1 POP DUP2 DUP2 SUB PUSH1 0x40 DUP4 ADD MSTORE PUSH2 0x27E4 DUP2 DUP8 PUSH2 0x276C JUMP JUMPDEST SWAP1 POP DUP2 DUP2 SUB PUSH1 0x60 DUP4 ADD MSTORE PUSH2 0x27F8 DUP2 DUP7 PUSH2 0x276C JUMP JUMPDEST SWAP1 POP DUP2 DUP2 SUB PUSH1 0x80 DUP4 ADD MSTORE PUSH2 0x280C DUP2 DUP6 PUSH2 0x276C JUMP JUMPDEST SWAP1 POP DUP2 DUP2 SUB PUSH1 0xA0 DUP4 ADD MSTORE PUSH2 0x2820 DUP2 DUP5 PUSH2 0x276C JUMP JUMPDEST SWAP1 POP SWAP8 SWAP7 POP POP POP POP POP POP POP JUMP JUMPDEST PUSH0 PUSH1 0xE0 DUP3 ADD SWAP1 POP DUP2 DUP2 SUB PUSH0 DUP4 ADD MSTORE PUSH2 0x2845 DUP2 DUP11 PUSH2 0x276C JUMP JUMPDEST SWAP1 POP DUP2 DUP2 SUB PUSH1 0x20 DUP4 ADD MSTORE PUSH2 0x2859 DUP2 DUP10 PUSH2 0x276C JUMP JUMPDEST SWAP1 POP DUP2 DUP2 SUB PUSH1 0x40 DUP4 ADD MSTORE PUSH2 0x286D DUP2 DUP9 PUSH2 0x276C JUMP JUMPDEST SWAP1 POP DUP2 DUP2 SUB PUSH1 0x60 DUP4 ADD MSTORE PUSH2 0x2881 DUP2 DUP8 PUSH2 0x276C JUMP JUMPDEST SWAP1 POP DUP2 DUP2 SUB PUSH1 0x80 DUP4 ADD MSTORE PUSH2 0x2895 DUP2 DUP7 PUSH2 0x276C JUMP JUMPDEST SWAP1 POP DUP2 DUP2 SUB PUSH1 0xA0 DUP4 ADD MSTORE PUSH2 0x28A9 DUP2 DUP6 PUSH2 0x276C JUMP JUMPDEST SWAP1 POP DUP2 DUP2 SUB PUSH1 0xC0 DUP4 ADD MSTORE PUSH2 0x28BD DUP2 DUP5 PUSH2 0x276C JUMP JUMPDEST SWAP1 POP SWAP9 SWAP8 POP POP POP POP POP POP POP POP JUMP JUMPDEST PUSH0 PUSH1 0x40 DUP3 ADD SWAP1 POP DUP2 DUP2 SUB PUSH0 DUP4 ADD MSTORE PUSH2 0x28E3 DUP2 DUP6 PUSH2 0x276C JUMP JUMPDEST SWAP1 POP DUP2 DUP2 SUB PUSH1 0x20 DUP4 ADD MSTORE PUSH2 0x28F7 DUP2 DUP5 PUSH2 0x276C JUMP JUMPDEST SWAP1 POP SWAP4 SWAP3 POP POP POP JUMP JUMPDEST PUSH0 DUP1 PUSH0 DUP1 PUSH0 DUP1 PUSH0 DUP1 PUSH0 DUP1 PUSH0 PUSH2 0x160 DUP13 DUP15 SUB SLT ISZERO PUSH2 0x2920 JUMPI PUSH2 0x291F PUSH2 0x23B1 JUMP JUMPDEST JUMPDEST PUSH0 DUP13 ADD CALLDATALOAD PUSH8 0xFFFFFFFFFFFFFFFF DUP2 GT ISZERO PUSH2 0x293D JUMPI PUSH2 0x293C PUSH2 0x23B5 JUMP JUMPDEST JUMPDEST PUSH2 0x2949 DUP15 DUP3 DUP16 ADD PUSH2 0x24C8 JUMP JUMPDEST SWAP12 POP POP PUSH1 0x20 DUP13 ADD CALLDATALOAD PUSH8 0xFFFFFFFFFFFFFFFF DUP2 GT ISZERO PUSH2 0x296A JUMPI PUSH2 0x2969 PUSH2 0x23B5 JUMP JUMPDEST JUMPDEST PUSH2 0x2976 DUP15 DUP3 DUP16 ADD PUSH2 0x24C8 JUMP JUMPDEST SWAP11 POP POP PUSH1 0x40 DUP13 ADD CALLDATALOAD PUSH8 0xFFFFFFFFFFFFFFFF DUP2 GT ISZERO PUSH2 0x2997 JUMPI PUSH2 0x2996 PUSH2 0x23B5 JUMP JUMPDEST JUMPDEST PUSH2 0x29A3 DUP15 DUP3 DUP16 ADD PUSH2 0x24C8 JUMP JUMPDEST SWAP10 POP POP PUSH1 0x60 DUP13 ADD CALLDATALOAD PUSH8 0xFFFFFFFFFFFFFFFF DUP2 GT ISZERO PUSH2 0x29C4 JUMPI PUSH2 0x29C3 PUSH2 0x23B5 JUMP JUMPDEST JUMPDEST PUSH2 0x29D0 DUP15 DUP3 DUP16 ADD PUSH2 0x24C8 JUMP JUMPDEST SWAP9 POP POP PUSH1 0x80 DUP13 ADD CALLDATALOAD PUSH8 0xFFFFFFFFFFFFFFFF DUP2 GT ISZERO PUSH2 0x29F1 JUMPI PUSH2 0x29F0 PUSH2 0x23B5 JUMP JUMPDEST JUMPDEST PUSH2 0x29FD DUP15 DUP3 DUP16 ADD PUSH2 0x24C8 JUMP JUMPDEST SWAP8 POP POP PUSH1 0xA0 DUP13 ADD CALLDATALOAD PUSH8 0xFFFFFFFFFFFFFFFF DUP2 GT ISZERO PUSH2 0x2A1E JUMPI PUSH2 0x2A1D PUSH2 0x23B5 JUMP JUMPDEST JUMPDEST PUSH2 0x2A2A DUP15 DUP3 DUP16 ADD PUSH2 0x24C8 JUMP JUMPDEST SWAP7 POP POP PUSH1 0xC0 DUP13 ADD CALLDATALOAD PUSH8 0xFFFFFFFFFFFFFFFF DUP2 GT ISZERO PUSH2 0x2A4B JUMPI PUSH2 0x2A4A PUSH2 0x23B5 JUMP JUMPDEST JUMPDEST PUSH2 0x2A57 DUP15 DUP3 DUP16 ADD PUSH2 0x24C8 JUMP JUMPDEST SWAP6 POP POP PUSH1 0xE0 DUP13 ADD CALLDATALOAD PUSH8 0xFFFFFFFFFFFFFFFF DUP2 GT ISZERO PUSH2 0x2A78 JUMPI PUSH2 0x2A77 PUSH2 0x23B5 JUMP JUMPDEST JUMPDEST PUSH2 0x2A84 DUP15 DUP3 DUP16 ADD PUSH2 0x24C8 JUMP JUMPDEST SWAP5 POP POP PUSH2 0x100 DUP13 ADD CALLDATALOAD PUSH8 0xFFFFFFFFFFFFFFFF DUP2 GT ISZERO PUSH2 0x2AA6 JUMPI PUSH2 0x2AA5 PUSH2 0x23B5 JUMP JUMPDEST JUMPDEST PUSH2 0x2AB2 DUP15 DUP3 DUP16 ADD PUSH2 0x24C8 JUMP JUMPDEST SWAP4 POP POP PUSH2 0x120 DUP13 ADD CALLDATALOAD PUSH8 0xFFFFFFFFFFFFFFFF DUP2 GT ISZERO PUSH2 0x2AD4 JUMPI PUSH2 0x2AD3 PUSH2 0x23B5 JUMP JUMPDEST JUMPDEST PUSH2 0x2AE0 DUP15 DUP3 DUP16 ADD PUSH2 0x24C8 JUMP JUMPDEST SWAP3 POP POP PUSH2 0x140 DUP13 ADD CALLDATALOAD PUSH8 0xFFFFFFFFFFFFFFFF DUP2 GT ISZERO PUSH2 0x2B02 JUMPI PUSH2 0x2B01 PUSH2 0x23B5 JUMP JUMPDEST JUMPDEST PUSH2 0x2B0E DUP15 DUP3 DUP16 ADD PUSH2 0x24C8 JUMP JUMPDEST SWAP2 POP POP SWAP3 SWAP6 SWAP9 SWAP12 POP SWAP3 SWAP6 SWAP9 SWAP12 SWAP1 SWAP4 SWAP7 SWAP10 POP JUMP JUMPDEST PUSH0 PUSH2 0x160 DUP3 ADD SWAP1 POP DUP2 DUP2 SUB PUSH0 DUP4 ADD MSTORE PUSH2 0x2B3A DUP2 DUP15 PUSH2 0x276C JUMP JUMPDEST SWAP1 POP DUP2 DUP2 SUB PUSH1 0x20 DUP4 ADD MSTORE PUSH2 0x2B4E DUP2 DUP14 PUSH2 0x276C JUMP JUMPDEST SWAP1 POP DUP2 DUP2 SUB PUSH1 0x40 DUP4 ADD MSTORE PUSH2 0x2B62 DUP2 DUP13 PUSH2 0x276C JUMP JUMPDEST SWAP1 POP DUP2 DUP2 SUB PUSH1 0x60 DUP4 ADD MSTORE PUSH2 0x2B76 DUP2 DUP12 PUSH2 0x276C JUMP JUMPDEST SWAP1 POP DUP2 DUP2 SUB PUSH1 0x80 DUP4 ADD MSTORE PUSH2 0x2B8A DUP2 DUP11 PUSH2 0x276C JUMP JUMPDEST SWAP1 POP DUP2 DUP2 SUB PUSH1 0xA0 DUP4 ADD MSTORE PUSH2 0x2B9E DUP2 DUP10 PUSH2 0x276C JUMP JUMPDEST SWAP1 POP DUP2 DUP2 SUB PUSH1 0xC0 DUP4 ADD MSTORE PUSH2 0x2BB2 DUP2 DUP9 PUSH2 0x276C JUMP JUMPDEST SWAP1 POP DUP2 DUP2 SUB PUSH1 0xE0 DUP4 ADD MSTORE PUSH2 0x2BC6 DUP2 DUP8 PUSH2 0x276C JUMP JUMPDEST SWAP1 POP DUP2 DUP2 SUB PUSH2 0x100 DUP4 ADD MSTORE PUSH2 0x2BDB DUP2 DUP7 PUSH2 0x276C JUMP JUMPDEST SWAP1 POP DUP2 DUP2 SUB PUSH2 0x120 DUP4 ADD MSTORE PUSH2 0x2BF0 DUP2 DUP6 PUSH2 0x276C JUMP JUMPDEST SWAP1 POP DUP2 DUP2 SUB PUSH2 0x140 DUP4 ADD MSTORE PUSH2 0x2C05 DUP2 DUP5 PUSH2 0x276C JUMP JUMPDEST SWAP1 POP SWAP13 SWAP12 POP POP POP POP POP POP POP POP POP POP POP POP JUMP JUMPDEST PUSH0 PUSH1 0x60 DUP3 ADD SWAP1 POP DUP2 DUP2 SUB PUSH0 DUP4 ADD MSTORE PUSH2 0x2C2F DUP2 DUP7 PUSH2 0x276C JUMP JUMPDEST SWAP1 POP DUP2 DUP2 SUB PUSH1 0x20 DUP4 ADD MSTORE PUSH2 0x2C43 DUP2 DUP6 PUSH2 0x276C JUMP JUMPDEST SWAP1 POP DUP2 DUP2 SUB PUSH1 0x40 DUP4 ADD MSTORE PUSH2 0x2C57 DUP2 DUP5 PUSH2 0x276C JUMP JUMPDEST SWAP1 POP SWAP5 SWAP4 POP POP POP POP JUMP JUMPDEST PUSH2 0x2C6A DUP2 PUSH2 0x26E6 JUMP JUMPDEST DUP3 MSTORE POP POP JUMP JUMPDEST PUSH0 PUSH1 0x20 DUP3 ADD SWAP1 POP PUSH2 0x2C83 PUSH0 DUP4 ADD DUP5 PUSH2 0x2C61 JUMP JUMPDEST SWAP3 SWAP2 POP POP JUMP JUMPDEST PUSH0 PUSH2 0x140 DUP3 ADD SWAP1 POP DUP2 DUP2 SUB PUSH0 DUP4 ADD MSTORE PUSH2 0x2CA2 DUP2 DUP14 PUSH2 0x276C JUMP JUMPDEST SWAP1 POP DUP2 DUP2 SUB PUSH1 0x20 DUP4 ADD MSTORE PUSH2 0x2CB6 DUP2 DUP13 PUSH2 0x276C JUMP JUMPDEST SWAP1 POP DUP2 DUP2 SUB PUSH1 0x40 DUP4 ADD MSTORE PUSH2 0x2CCA DUP2 DUP12 PUSH2 0x276C JUMP JUMPDEST SWAP1 POP DUP2 DUP2 SUB PUSH1 0x60 DUP4 ADD MSTORE PUSH2 0x2CDE DUP2 DUP11 PUSH2 0x276C JUMP JUMPDEST SWAP1 POP DUP2 DUP2 SUB PUSH1 0x80 DUP4 ADD MSTORE PUSH2 0x2CF2 DUP2 DUP10 PUSH2 0x276C JUMP JUMPDEST SWAP1 POP DUP2 DUP2 SUB PUSH1 0xA0 DUP4 ADD MSTORE PUSH2 0x2D06 DUP2 DUP9 PUSH2 0x276C JUMP JUMPDEST SWAP1 POP DUP2 DUP2 SUB PUSH1 0xC0 DUP4 ADD MSTORE PUSH2 0x2D1A DUP2 DUP8 PUSH2 0x276C JUMP JUMPDEST SWAP1 POP DUP2 DUP2 SUB PUSH1 0xE0 DUP4 ADD MSTORE PUSH2 0x2D2E DUP2 DUP7 PUSH2 0x276C JUMP JUMPDEST SWAP1 POP DUP2 DUP2 SUB PUSH2 0x100 DUP4 ADD MSTORE PUSH2 0x2D43 DUP2 DUP6 PUSH2 0x276C JUMP JUMPDEST SWAP1 POP DUP2 DUP2 SUB PUSH2 0x120 DUP4 ADD MSTORE PUSH2 0x2D58 DUP2 DUP5 PUSH2 0x276C JUMP JUMPDEST SWAP1 POP SWAP12 SWAP11 POP POP POP POP POP POP POP POP POP POP POP JUMP JUMPDEST PUSH0 DUP1 PUSH1 0x40 DUP4 DUP6 SUB SLT ISZERO PUSH2 0x2D7F JUMPI PUSH2 0x2D7E PUSH2 0x23B1 JUMP JUMPDEST JUMPDEST PUSH0 PUSH2 0x2D8C DUP6 DUP3 DUP7 ADD PUSH2 0x2705 JUMP JUMPDEST SWAP3 POP POP PUSH1 0x20 DUP4 ADD CALLDATALOAD PUSH8 0xFFFFFFFFFFFFFFFF DUP2 GT ISZERO PUSH2 0x2DAD JUMPI PUSH2 0x2DAC PUSH2 0x23B5 JUMP JUMPDEST JUMPDEST PUSH2 0x2DB9 DUP6 DUP3 DUP7 ADD PUSH2 0x24C8 JUMP JUMPDEST SWAP2 POP POP SWAP3 POP SWAP3 SWAP1 POP JUMP JUMPDEST PUSH0 DUP1 PUSH0 DUP1 PUSH0 DUP1 PUSH0 DUP1 PUSH0 DUP1 PUSH0 PUSH2 0x160 DUP13 DUP15 SUB SLT ISZERO PUSH2 0x2DE3 JUMPI PUSH2 0x2DE2 PUSH2 0x23B1 JUMP JUMPDEST JUMPDEST PUSH0 PUSH2 0x2DF0 DUP15 DUP3 DUP16 ADD PUSH2 0x2705 JUMP JUMPDEST SWAP12 POP POP PUSH1 0x20 DUP13 ADD CALLDATALOAD PUSH8 0xFFFFFFFFFFFFFFFF DUP2 GT ISZERO PUSH2 0x2E11 JUMPI PUSH2 0x2E10 PUSH2 0x23B5 JUMP JUMPDEST JUMPDEST PUSH2 0x2E1D DUP15 DUP3 DUP16 ADD PUSH2 0x24C8 JUMP JUMPDEST SWAP11 POP POP PUSH1 0x40 DUP13 ADD CALLDATALOAD PUSH8 0xFFFFFFFFFFFFFFFF DUP2 GT ISZERO PUSH2 0x2E3E JUMPI PUSH2 0x2E3D PUSH2 0x23B5 JUMP JUMPDEST JUMPDEST PUSH2 0x2E4A DUP15 DUP3 DUP16 ADD PUSH2 0x24C8 JUMP JUMPDEST SWAP10 POP POP PUSH1 0x60 DUP13 ADD CALLDATALOAD PUSH8 0xFFFFFFFFFFFFFFFF DUP2 GT ISZERO PUSH2 0x2E6B JUMPI PUSH2 0x2E6A PUSH2 0x23B5 JUMP JUMPDEST JUMPDEST PUSH2 0x2E77 DUP15 DUP3 DUP16 ADD PUSH2 0x24C8 JUMP JUMPDEST SWAP9 POP POP PUSH1 0x80 DUP13 ADD CALLDATALOAD PUSH8 0xFFFFFFFFFFFFFFFF DUP2 GT ISZERO PUSH2 0x2E98 JUMPI PUSH2 0x2E97 PUSH2 0x23B5 JUMP JUMPDEST JUMPDEST PUSH2 0x2EA4 DUP15 DUP3 DUP16 ADD PUSH2 0x24C8 JUMP JUMPDEST SWAP8 POP POP PUSH1 0xA0 DUP13 ADD CALLDATALOAD PUSH8 0xFFFFFFFFFFFFFFFF DUP2 GT ISZERO PUSH2 0x2EC5 JUMPI PUSH2 0x2EC4 PUSH2 0x23B5 JUMP JUMPDEST JUMPDEST PUSH2 0x2ED1 DUP15 DUP3 DUP16 ADD PUSH2 0x24C8 JUMP JUMPDEST SWAP7 POP POP PUSH1 0xC0 DUP13 ADD CALLDATALOAD PUSH8 0xFFFFFFFFFFFFFFFF DUP2 GT ISZERO PUSH2 0x2EF2 JUMPI PUSH2 0x2EF1 PUSH2 0x23B5 JUMP JUMPDEST JUMPDEST PUSH2 0x2EFE DUP15 DUP3 DUP16 ADD PUSH2 0x24C8 JUMP JUMPDEST SWAP6 POP POP PUSH1 0xE0 DUP13 ADD CALLDATALOAD PUSH8 0xFFFFFFFFFFFFFFFF DUP2 GT ISZERO PUSH2 0x2F1F JUMPI PUSH2 0x2F1E PUSH2 0x23B5 JUMP JUMPDEST JUMPDEST PUSH2 0x2F2B DUP15 DUP3 DUP16 ADD PUSH2 0x24C8 JUMP JUMPDEST SWAP5 POP POP PUSH2 0x100 DUP13 ADD CALLDATALOAD PUSH8 0xFFFFFFFFFFFFFFFF DUP2 GT ISZERO PUSH2 0x2F4D JUMPI PUSH2 0x2F4C PUSH2 0x23B5 JUMP JUMPDEST JUMPDEST PUSH2 0x2F59 DUP15 DUP3 DUP16 ADD PUSH2 0x24C8 JUMP JUMPDEST SWAP4 POP POP PUSH2 0x120 DUP13 ADD CALLDATALOAD PUSH8 0xFFFFFFFFFFFFFFFF DUP2 GT ISZERO PUSH2 0x2F7B JUMPI PUSH2 0x2F7A PUSH2 0x23B5 JUMP JUMPDEST JUMPDEST PUSH2 0x2F87 DUP15 DUP3 DUP16 ADD PUSH2 0x24C8 JUMP JUMPDEST SWAP3 POP POP PUSH2 0x140 DUP13 ADD CALLDATALOAD PUSH8 0xFFFFFFFFFFFFFFFF DUP2 GT ISZERO PUSH2 0x2FA9 JUMPI PUSH2 0x2FA8 PUSH2 0x23B5 JUMP JUMPDEST JUMPDEST PUSH2 0x2FB5 DUP15 DUP3 DUP16 ADD PUSH2 0x24C8 JUMP JUMPDEST SWAP2 POP POP SWAP3 SWAP6 SWAP9 SWAP12 POP SWAP3 SWAP6 SWAP9 SWAP12 SWAP1 SWAP4 SWAP7 SWAP10 POP JUMP JUMPDEST PUSH32 0x4E487B7100000000000000000000000000000000000000000000000000000000 PUSH0 MSTORE PUSH1 0x22 PUSH1 0x4 MSTORE PUSH1 0x24 PUSH0 REVERT JUMPDEST PUSH0 PUSH1 0x2 DUP3 DIV SWAP1 POP PUSH1 0x1 DUP3 AND DUP1 PUSH2 0x300C JUMPI PUSH1 0x7F DUP3 AND SWAP2 POP JUMPDEST PUSH1 0x20 DUP3 LT DUP2 SUB PUSH2 0x301F JUMPI PUSH2 0x301E PUSH2 0x2FC8 JUMP JUMPDEST JUMPDEST POP SWAP2 SWAP1 POP JUMP JUMPDEST PUSH0 DUP2 SWAP1 POP DUP2 PUSH0 MSTORE PUSH1 0x20 PUSH0 KECCAK256 SWAP1 POP SWAP2 SWAP1 POP JUMP JUMPDEST PUSH0 PUSH1 0x20 PUSH1 0x1F DUP4 ADD DIV SWAP1 POP SWAP2 SWAP1 POP JUMP JUMPDEST PUSH0 DUP3 DUP3 SHL SWAP1 POP SWAP3 SWAP2 POP POP JUMP JUMPDEST PUSH0 PUSH1 0x8 DUP4 MUL PUSH2 0x3081 PUSH32 0xFFFFFFFFFFFFFFFFFFFFFFFFFFFFFFFFFFFFFFFFFFFFFFFFFFFFFFFFFFFFFFFF DUP3 PUSH2 0x3046 JUMP JUMPDEST PUSH2 0x308B DUP7 DUP4 PUSH2 0x3046 JUMP JUMPDEST SWAP6 POP DUP1 NOT DUP5 AND SWAP4 POP DUP1 DUP7 AND DUP5 OR SWAP3 POP POP POP SWAP4 SWAP3 POP POP POP JUMP JUMPDEST PUSH0 DUP2 SWAP1 POP SWAP2 SWAP1 POP JUMP JUMPDEST PUSH0 PUSH2 0x30C6 PUSH2 0x30C1 PUSH2 0x30BC DUP5 PUSH2 0x26E6 JUMP JUMPDEST PUSH2 0x30A3 JUMP JUMPDEST PUSH2 0x26E6 JUMP JUMPDEST SWAP1 POP SWAP2 SWAP1 POP JUMP JUMPDEST PUSH0 DUP2 SWAP1 POP SWAP2 SWAP1 POP JUMP JUMPDEST PUSH2 0x30DF DUP4 PUSH2 0x30AC JUMP JUMPDEST PUSH2 0x30F3 PUSH2 0x30EB DUP3 PUSH2 0x30CD JUMP JUMPDEST DUP5 DUP5 SLOAD PUSH2 0x3052 JUMP JUMPDEST DUP3 SSTORE POP POP POP POP JUMP JUMPDEST PUSH0 SWAP1 JUMP JUMPDEST PUSH2 0x3107 PUSH2 0x30FB JUMP JUMPDEST PUSH2 0x3112 DUP2 DUP5 DUP5 PUSH2 0x30D6 JUMP JUMPDEST POP POP POP JUMP JUMPDEST JUMPDEST DUP2 DUP2 LT ISZERO PUSH2 0x3135 JUMPI PUSH2 0x312A PUSH0 DUP3 PUSH2 0x30FF JUMP JUMPDEST PUSH1 0x1 DUP2 ADD SWAP1 POP PUSH2 0x3118 JUMP JUMPDEST POP POP JUMP JUMPDEST PUSH1 0x1F DUP3 GT ISZERO PUSH2 0x317A JUMPI PUSH2 0x314B DUP2 PUSH2 0x3025 JUMP JUMPDEST PUSH2 0x3154 DUP5 PUSH2 0x3037 JUMP JUMPDEST DUP2 ADD PUSH1 0x20 DUP6 LT ISZERO PUSH2 0x3163 JUMPI DUP2 SWAP1 POP JUMPDEST PUSH2 0x3177 PUSH2 0x316F DUP6 PUSH2 0x3037 JUMP JUMPDEST DUP4 ADD DUP3 PUSH2 0x3117 JUMP JUMPDEST POP POP JUMPDEST POP POP POP JUMP JUMPDEST PUSH0 DUP3 DUP3 SHR SWAP1 POP SWAP3 SWAP2 POP POP JUMP JUMPDEST PUSH0 PUSH2 0x319A PUSH0 NOT DUP5 PUSH1 0x8 MUL PUSH2 0x317F JUMP JUMPDEST NOT DUP1 DUP4 AND SWAP2 POP POP SWAP3 SWAP2 POP POP JUMP JUMPDEST PUSH0 PUSH2 0x31B2 DUP4 DUP4 PUSH2 0x318B JUMP JUMPDEST SWAP2 POP DUP3 PUSH1 0x2 MUL DUP3 OR SWAP1 POP SWAP3 SWAP2 POP POP JUMP JUMPDEST PUSH2 0x31CB DUP3 PUSH2 0x2744 JUMP JUMPDEST PUSH8 0xFFFFFFFFFFFFFFFF DUP2 GT ISZERO PUSH2 0x31E4 JUMPI PUSH2 0x31E3 PUSH2 0x23D1 JUMP JUMPDEST JUMPDEST PUSH2 0x31EE DUP3 SLOAD PUSH2 0x2FF5 JUMP JUMPDEST PUSH2 0x31F9 DUP3 DUP3 DUP6 PUSH2 0x3139 JUMP JUMPDEST PUSH0 PUSH1 0x20 SWAP1 POP PUSH1 0x1F DUP4 GT PUSH1 0x1 DUP2 EQ PUSH2 0x322A JUMPI PUSH0 DUP5 ISZERO PUSH2 0x3218 JUMPI DUP3 DUP8 ADD MLOAD SWAP1 POP JUMPDEST PUSH2 0x3222 DUP6 DUP3 PUSH2 0x31A7 JUMP JUMPDEST DUP7 SSTORE POP PUSH2 0x3289 JUMP JUMPDEST PUSH1 0x1F NOT DUP5 AND PUSH2 0x3238 DUP7 PUSH2 0x3025 JUMP JUMPDEST PUSH0 JUMPDEST DUP3 DUP2 LT ISZERO PUSH2 0x325F JUMPI DUP5 DUP10 ADD MLOAD DUP3 SSTORE PUSH1 0x1 DUP3 ADD SWAP2 POP PUSH1 0x20 DUP6 ADD SWAP5 POP PUSH1 0x20 DUP2 ADD SWAP1 POP PUSH2 0x323A JUMP JUMPDEST DUP7 DUP4 LT ISZERO PUSH2 0x327C JUMPI DUP5 DUP10 ADD MLOAD PUSH2 0x3278 PUSH1 0x1F DUP10 AND DUP3 PUSH2 0x318B JUMP JUMPDEST DUP4 SSTORE POP JUMPDEST PUSH1 0x1 PUSH1 0x2 DUP9 MUL ADD DUP9 SSTORE POP POP POP JUMPDEST POP POP POP POP POP POP JUMP JUMPDEST PUSH32 0x496E646578206F7574206F6620626F756E647300000000000000000000000000 PUSH0 DUP3 ADD MSTORE POP JUMP JUMPDEST PUSH0 PUSH2 0x32C5 PUSH1 0x13 DUP4 PUSH2 0x274E JUMP JUMPDEST SWAP2 POP PUSH2 0x32D0 DUP3 PUSH2 0x3291 JUMP JUMPDEST PUSH1 0x20 DUP3 ADD SWAP1 POP SWAP2 SWAP1 POP JUMP JUMPDEST PUSH0 PUSH1 0x20 DUP3 ADD SWAP1 POP DUP2 DUP2 SUB PUSH0 DUP4 ADD MSTORE PUSH2 0x32F2 DUP2 PUSH2 0x32B9 JUMP JUMPDEST SWAP1 POP SWAP2 SWAP1 POP JUMP JUMPDEST PUSH32 0x4E487B7100000000000000000000000000000000000000000000000000000000 PUSH0 MSTORE PUSH1 0x32 PUSH1 0x4 MSTORE PUSH1 0x24 PUSH0 REVERT INVALID LOG2 PUSH5 0x6970667358 0x22 SLT KECCAK256 PUSH26 0xA5F6517329F0129A9A20E327B54DC3A1622320B85AC91692C2B4 STOP SWAP6 BYTE 0xE7 0xF6 PUSH5 0x736F6C6343 STOP ADDMOD NOT STOP CALLER "
				},
				"gasEstimates": {
					"creation": {
						"codeDepositCost": "2629600",
						"executionCost": "2844",
						"totalCost": "2632444"
					},
					"external": {
						"addPatient(string,string,string,string,string,string,string,string,string,string)": "infinite",
						"addUser(string,string,string,string,string,string,string,string,string,string,string)": "infinite",
						"getPatientBasicInfo(uint256)": "infinite",
						"getPatientProfile(uint256)": "infinite",
						"getUserBasicInfo(uint256)": "infinite",
						"getUserProfile(uint256)": "infinite",
						"getUserSchedule(uint256)": "infinite",
						"patients(uint256)": "infinite",
						"patientsLength()": "2485",
						"updatePatient(uint256,string,string,string,string,string,string,string,string,string,string)": "infinite",
						"updateUserFees(uint256,string)": "infinite",
						"users(uint256)": "infinite",
						"usersLength()": "2528"
					}
				},
				"methodIdentifiers": {
					"addPatient(string,string,string,string,string,string,string,string,string,string)": "1ed6ad1b",
					"addUser(string,string,string,string,string,string,string,string,string,string,string)": "311cc831",
					"getPatientBasicInfo(uint256)": "bad48821",
					"getPatientProfile(uint256)": "211a6edc",
					"getUserBasicInfo(uint256)": "67136135",
					"getUserProfile(uint256)": "1f52b76c",
					"getUserSchedule(uint256)": "2d50fe6a",
					"patients(uint256)": "93119a83",
					"patientsLength()": "687f037e",
					"updatePatient(uint256,string,string,string,string,string,string,string,string,string,string)": "ce39c07e",
					"updateUserFees(uint256,string)": "aa48b8b6",
					"users(uint256)": "365b98b2",
					"usersLength()": "eab11db1"
				}
			},
			"storageLayout": {
				"storage": [
					{
						"astId": 49,
						"contract": "Test9.sol:EHealthPulse",
						"label": "users",
						"offset": 0,
						"slot": "0",
						"type": "t_array(t_struct(User)24_storage)dyn_storage"
					},
					{
						"astId": 53,
						"contract": "Test9.sol:EHealthPulse",
						"label": "patients",
						"offset": 0,
						"slot": "1",
						"type": "t_array(t_struct(Patient)45_storage)dyn_storage"
					}
				],
				"types": {
					"t_array(t_struct(Patient)45_storage)dyn_storage": {
						"base": "t_struct(Patient)45_storage",
						"encoding": "dynamic_array",
						"label": "struct EHealthPulse.Patient[]",
						"numberOfBytes": "32"
					},
					"t_array(t_struct(User)24_storage)dyn_storage": {
						"base": "t_struct(User)24_storage",
						"encoding": "dynamic_array",
						"label": "struct EHealthPulse.User[]",
						"numberOfBytes": "32"
					},
					"t_string_storage": {
						"encoding": "bytes",
						"label": "string",
						"numberOfBytes": "32"
					},
					"t_struct(Patient)45_storage": {
						"encoding": "inplace",
						"label": "struct EHealthPulse.Patient",
						"members": [
							{
								"astId": 26,
								"contract": "Test9.sol:EHealthPulse",
								"label": "professionalID",
								"offset": 0,
								"slot": "0",
								"type": "t_string_storage"
							},
							{
								"astId": 28,
								"contract": "Test9.sol:EHealthPulse",
								"label": "name",
								"offset": 0,
								"slot": "1",
								"type": "t_string_storage"
							},
							{
								"astId": 30,
								"contract": "Test9.sol:EHealthPulse",
								"label": "email",
								"offset": 0,
								"slot": "2",
								"type": "t_string_storage"
							},
							{
								"astId": 32,
								"contract": "Test9.sol:EHealthPulse",
								"label": "pass",
								"offset": 0,
								"slot": "3",
								"type": "t_string_storage"
							},
							{
								"astId": 34,
								"contract": "Test9.sol:EHealthPulse",
								"label": "eegData",
								"offset": 0,
								"slot": "4",
								"type": "t_string_storage"
							},
							{
								"astId": 36,
								"contract": "Test9.sol:EHealthPulse",
								"label": "ecgData",
								"offset": 0,
								"slot": "5",
								"type": "t_string_storage"
							},
							{
								"astId": 38,
								"contract": "Test9.sol:EHealthPulse",
								"label": "spo2Data",
								"offset": 0,
								"slot": "6",
								"type": "t_string_storage"
							},
							{
								"astId": 40,
								"contract": "Test9.sol:EHealthPulse",
								"label": "medicalHistory",
								"offset": 0,
								"slot": "7",
								"type": "t_string_storage"
							},
							{
								"astId": 42,
								"contract": "Test9.sol:EHealthPulse",
								"label": "nextConsultationDate",
								"offset": 0,
								"slot": "8",
								"type": "t_string_storage"
							},
							{
								"astId": 44,
								"contract": "Test9.sol:EHealthPulse",
								"label": "paymentType",
								"offset": 0,
								"slot": "9",
								"type": "t_string_storage"
							}
						],
						"numberOfBytes": "320"
					},
					"t_struct(User)24_storage": {
						"encoding": "inplace",
						"label": "struct EHealthPulse.User",
						"members": [
							{
								"astId": 3,
								"contract": "Test9.sol:EHealthPulse",
								"label": "name",
								"offset": 0,
								"slot": "0",
								"type": "t_string_storage"
							},
							{
								"astId": 5,
								"contract": "Test9.sol:EHealthPulse",
								"label": "email",
								"offset": 0,
								"slot": "1",
								"type": "t_string_storage"
							},
							{
								"astId": 7,
								"contract": "Test9.sol:EHealthPulse",
								"label": "pass",
								"offset": 0,
								"slot": "2",
								"type": "t_string_storage"
							},
							{
								"astId": 9,
								"contract": "Test9.sol:EHealthPulse",
								"label": "specialty",
								"offset": 0,
								"slot": "3",
								"type": "t_string_storage"
							},
							{
								"astId": 11,
								"contract": "Test9.sol:EHealthPulse",
								"label": "phoneNumber",
								"offset": 0,
								"slot": "4",
								"type": "t_string_storage"
							},
							{
								"astId": 13,
								"contract": "Test9.sol:EHealthPulse",
								"label": "professionalAddress",
								"offset": 0,
								"slot": "5",
								"type": "t_string_storage"
							},
							{
								"astId": 15,
								"contract": "Test9.sol:EHealthPulse",
								"label": "countryRegion",
								"offset": 0,
								"slot": "6",
								"type": "t_string_storage"
							},
							{
								"astId": 17,
								"contract": "Test9.sol:EHealthPulse",
								"label": "professionalID",
								"offset": 0,
								"slot": "7",
								"type": "t_string_storage"
							},
							{
								"astId": 19,
								"contract": "Test9.sol:EHealthPulse",
								"label": "photo",
								"offset": 0,
								"slot": "8",
								"type": "t_string_storage"
							},
							{
								"astId": 21,
								"contract": "Test9.sol:EHealthPulse",
								"label": "consultationHours",
								"offset": 0,
								"slot": "9",
								"type": "t_string_storage"
							},
							{
								"astId": 23,
								"contract": "Test9.sol:EHealthPulse",
								"label": "fees",
								"offset": 0,
								"slot": "10",
								"type": "t_string_storage"
							}
						],
						"numberOfBytes": "352"
					}
				}
			},
			"userdoc": {
				"kind": "user",
				"methods": {},
				"version": 1
			}
		}
	}
}